{
  "contractName": "AirlineData",
  "abi": [
    {
      "inputs": [],
      "stateMutability": "nonpayable",
      "type": "constructor"
    },
    {
      "anonymous": false,
      "inputs": [
        {
          "indexed": true,
          "internalType": "address",
          "name": "account",
          "type": "address"
        },
        {
          "indexed": false,
          "internalType": "uint256",
          "name": "timestamp",
          "type": "uint256"
        },
        {
          "indexed": false,
          "internalType": "string",
          "name": "airlineStatus",
          "type": "string"
        }
      ],
      "name": "LogCreatedAirline",
      "type": "event"
    },
    {
      "anonymous": false,
      "inputs": [
        {
          "indexed": true,
          "internalType": "address",
          "name": "account",
          "type": "address"
        },
        {
          "indexed": false,
          "internalType": "string",
          "name": "airlineStatus",
          "type": "string"
        }
      ],
      "name": "LogStatusUpdated",
      "type": "event"
    },
    {
      "inputs": [
        {
          "internalType": "address",
          "name": "_account",
          "type": "address"
        }
      ],
      "name": "onlyAuthorizedAirlines",
      "outputs": [],
      "stateMutability": "view",
      "type": "function"
    },
    {
      "inputs": [
        {
          "internalType": "address",
          "name": "_account",
          "type": "address"
        }
      ],
      "name": "onlyRegisteredAirlines",
      "outputs": [],
      "stateMutability": "view",
      "type": "function"
    },
    {
      "inputs": [
        {
          "internalType": "address",
          "name": "_account",
          "type": "address"
        }
      ],
      "name": "onlyAuthorizeRegistrants",
      "outputs": [],
      "stateMutability": "view",
      "type": "function"
    },
    {
      "inputs": [
        {
          "internalType": "bool",
          "name": "_status",
          "type": "bool"
        }
      ],
      "name": "setOperatinalStatus",
      "outputs": [],
      "stateMutability": "nonpayable",
      "type": "function"
    },
    {
      "inputs": [
        {
          "internalType": "string",
          "name": "_name",
          "type": "string"
        },
        {
          "internalType": "address",
          "name": "_account",
          "type": "address"
        }
      ],
      "name": "createNewAirline",
      "outputs": [],
      "stateMutability": "nonpayable",
      "type": "function"
    },
    {
      "inputs": [
        {
          "internalType": "address",
          "name": "_account",
          "type": "address"
        },
        {
          "internalType": "uint8",
          "name": "_state",
          "type": "uint8"
        }
      ],
      "name": "updateAirlineStatus",
      "outputs": [],
      "stateMutability": "nonpayable",
      "type": "function"
    },
    {
      "inputs": [
        {
          "internalType": "uint8",
          "name": "_state",
          "type": "uint8"
        }
      ],
      "name": "updateToCommitState",
      "outputs": [],
      "stateMutability": "payable",
      "type": "function"
    },
    {
      "inputs": [],
      "name": "disableOperational",
      "outputs": [],
      "stateMutability": "nonpayable",
      "type": "function"
    },
    {
      "inputs": [
        {
          "internalType": "bool",
          "name": "_status",
          "type": "bool"
        }
      ],
      "name": "enableOperationalStatus",
      "outputs": [],
      "stateMutability": "nonpayable",
      "type": "function"
    },
    {
      "inputs": [],
      "name": "getOperationalStatus",
      "outputs": [
        {
          "internalType": "bool",
          "name": "",
          "type": "bool"
        }
      ],
      "stateMutability": "view",
      "type": "function"
    },
    {
      "inputs": [],
      "name": "getOwner",
      "outputs": [
        {
          "internalType": "address",
          "name": "",
          "type": "address"
        }
      ],
      "stateMutability": "view",
      "type": "function"
    },
    {
      "inputs": [],
      "name": "getTotalAppliedAirlines",
      "outputs": [
        {
          "internalType": "uint256",
          "name": "",
          "type": "uint256"
        }
      ],
      "stateMutability": "view",
      "type": "function"
    },
    {
      "inputs": [
        {
          "internalType": "address",
          "name": "_account",
          "type": "address"
        }
      ],
      "name": "getAirlineAuthorizationStatus",
      "outputs": [
        {
          "internalType": "bool",
          "name": "status",
          "type": "bool"
        }
      ],
      "stateMutability": "view",
      "type": "function"
    },
    {
      "inputs": [
        {
          "internalType": "address",
          "name": "_account",
          "type": "address"
        }
      ],
      "name": "getAirlineDetails",
      "outputs": [
        {
          "internalType": "uint256",
          "name": "id",
          "type": "uint256"
        },
        {
          "internalType": "string",
          "name": "name",
          "type": "string"
        },
        {
          "internalType": "address",
          "name": "airlineAccount",
          "type": "address"
        },
        {
          "internalType": "string",
          "name": "state",
          "type": "string"
        }
      ],
      "stateMutability": "view",
      "type": "function"
    },
    {
      "inputs": [
        {
          "internalType": "address",
          "name": "_account",
          "type": "address"
        }
      ],
      "name": "getAirlineApplicationStatus",
      "outputs": [
        {
          "internalType": "string",
          "name": "status",
          "type": "string"
        }
      ],
      "stateMutability": "view",
      "type": "function"
    },
    {
      "inputs": [
        {
          "internalType": "address",
          "name": "_account",
          "type": "address"
        }
      ],
      "name": "isAirlineRegistered",
      "outputs": [
        {
          "internalType": "bool",
          "name": "checkStatus",
          "type": "bool"
        }
      ],
      "stateMutability": "view",
      "type": "function"
    },
    {
      "inputs": [
        {
          "internalType": "address",
          "name": "_account",
          "type": "address"
        }
      ],
      "name": "isAirlineCommitted",
      "outputs": [
        {
          "internalType": "bool",
          "name": "checkStatus",
          "type": "bool"
        }
      ],
      "stateMutability": "view",
      "type": "function"
    },
    {
      "inputs": [],
      "name": "getTotalRegisteredAirlines",
      "outputs": [
        {
          "internalType": "uint256",
          "name": "",
          "type": "uint256"
        }
      ],
      "stateMutability": "view",
      "type": "function"
    },
    {
      "inputs": [],
      "name": "getDataBalance",
      "outputs": [
        {
          "internalType": "uint256",
          "name": "",
          "type": "uint256"
        }
      ],
      "stateMutability": "view",
      "type": "function"
    },
    {
      "inputs": [
        {
          "internalType": "address",
          "name": "_account",
          "type": "address"
        }
      ],
      "name": "getAirlineBalance",
      "outputs": [
        {
          "internalType": "uint256",
          "name": "",
          "type": "uint256"
        }
      ],
      "stateMutability": "view",
      "type": "function"
    }
  ],
  "bytecode": "0x608060405234801561001057600080fd5b5033600160006101000a81548173ffffffffffffffffffffffffffffffffffffffff021916908373ffffffffffffffffffffffffffffffffffffffff16021790555060018060146101000a81548160ff0219169083151502179055506126818061007b6000396000f3fe60806040526004361061011f5760003560e01c8063837ee755116100a0578063bf0a4f3211610064578063bf0a4f32146103ff578063c968089e14610428578063e0313fe614610451578063efa3327b1461047c578063f243be18146104a75761011f565b8063837ee7551461031a57806389208e7214610343578063893d20e814610380578063994de453146103ab578063b10f057b146103d65761011f565b80634e088046116100e75780634e0880461461020e5780635addd35a1461024e57806369beb8fb146102775780637008414d146102b45780638042601f146102dd5761011f565b8063010c5c97146101245780630b2653d5146101615780630c9826731461018a5780633063b87a146101b557806336061cca146101f2575b600080fd5b34801561013057600080fd5b5061014b60048036038101906101469190611af9565b6104be565b6040516101589190611b41565b60405180910390f35b34801561016d57600080fd5b5061018860048036038101906101839190611ca2565b610545565b005b34801561019657600080fd5b5061019f610835565b6040516101ac9190611b41565b60405180910390f35b3480156101c157600080fd5b506101dc60048036038101906101d79190611af9565b61084c565b6040516101e99190611b41565b60405180910390f35b61020c60048036038101906102079190611d37565b6108d3565b005b34801561021a57600080fd5b5061023560048036038101906102309190611af9565b610b8d565b6040516102459493929190611e14565b60405180910390f35b34801561025a57600080fd5b5061027560048036038101906102709190611af9565b610e9d565b005b34801561028357600080fd5b5061029e60048036038101906102999190611af9565b610f56565b6040516102ab9190611e67565b60405180910390f35b3480156102c057600080fd5b506102db60048036038101906102d69190611eb5565b610ff8565b005b3480156102e957600080fd5b5061030460048036038101906102ff9190611af9565b6110d6565b6040516103119190611b41565b60405180910390f35b34801561032657600080fd5b50610341600480360381019061033c9190611af9565b6111ec565b005b34801561034f57600080fd5b5061036a60048036038101906103659190611af9565b61137b565b6040516103779190611ee2565b60405180910390f35b34801561038c57600080fd5b5061039561139c565b6040516103a29190611efd565b60405180910390f35b3480156103b757600080fd5b506103c06113c6565b6040516103cd9190611ee2565b60405180910390f35b3480156103e257600080fd5b506103fd60048036038101906103f89190611f18565b6113d0565b005b34801561040b57600080fd5b5061042660048036038101906104219190611af9565b611777565b005b34801561043457600080fd5b5061044f600480360381019061044a9190611eb5565b611888565b005b34801561045d57600080fd5b50610466611903565b6040516104739190611ee2565b60405180910390f35b34801561048857600080fd5b5061049161190b565b60405161049e9190611ee2565b60405180910390f35b3480156104b357600080fd5b506104bc611914565b005b600080600360008473ffffffffffffffffffffffffffffffffffffffff1673ffffffffffffffffffffffffffffffffffffffff16815260200190815260200160002060020160009054906101000a900460ff16600381111561052357610522611f58565b5b905060028160ff16141561053a576001915061053f565b600091505b50919050565b6000600381111561055957610558611f58565b5b600360008373ffffffffffffffffffffffffffffffffffffffff1673ffffffffffffffffffffffffffffffffffffffff16815260200190815260200160002060020160009054906101000a900460ff1660038111156105bb576105ba611f58565b5b146105fb576040517f08c379a00000000000000000000000000000000000000000000000000000000081526004016105f290611fd3565b60405180910390fd5b610611600160005461193c90919063ffffffff16565b600081905550604051806080016040528060005481526020018381526020016001600381111561064457610643611f58565b5b81526020018273ffffffffffffffffffffffffffffffffffffffff16815250600360008373ffffffffffffffffffffffffffffffffffffffff1673ffffffffffffffffffffffffffffffffffffffff1681526020019081526020016000206000820151816000015560208201518160010190805190602001906106c89291906119e4565b5060408201518160020160006101000a81548160ff021916908360038111156106f4576106f3611f58565b5b021790555060608201518160020160016101000a81548173ffffffffffffffffffffffffffffffffffffffff021916908373ffffffffffffffffffffffffffffffffffffffff16021790555090505060603073ffffffffffffffffffffffffffffffffffffffff16634e088046836040518263ffffffff1660e01b815260040161077e9190611efd565b60006040518083038186803b15801561079657600080fd5b505afa1580156107aa573d6000803e3d6000fd5b505050506040513d6000823e3d601f19601f820116820180604052508101906107d391906120a4565b909192509091509050809150503373ffffffffffffffffffffffffffffffffffffffff167fce1dee3a3a541bee70a1b6baacdea5a02354238bbbeac531a8ddaceaa2a37aff4283604051610828929190612143565b60405180910390a2505050565b6000600160149054906101000a900460ff16905090565b600080600360008473ffffffffffffffffffffffffffffffffffffffff1673ffffffffffffffffffffffffffffffffffffffff16815260200190815260200160002060020160009054906101000a900460ff1660038111156108b1576108b0611f58565b5b905060038160ff1614156108c857600191506108cd565b600091505b50919050565b323073ffffffffffffffffffffffffffffffffffffffff1663bf0a4f32826040518263ffffffff1660e01b815260040161090d9190611efd565b60006040518083038186803b15801561092557600080fd5b505afa158015610939573d6000803e3d6000fd5b505050506000600360003273ffffffffffffffffffffffffffffffffffffffff1673ffffffffffffffffffffffffffffffffffffffff16815260200190815260200160002060020160009054906101000a900460ff1660038111156109a1576109a0611f58565b5b905060038360ff1611156109ea576040517f08c379a00000000000000000000000000000000000000000000000000000000081526004016109e1906121bf565b60405180910390fd5b8060ff168360ff1611610a32576040517f08c379a0000000000000000000000000000000000000000000000000000000008152600401610a2990612251565b60405180910390fd5b60038060003273ffffffffffffffffffffffffffffffffffffffff1673ffffffffffffffffffffffffffffffffffffffff16815260200190815260200160002060020160006101000a81548160ff02191690836003811115610a9757610a96611f58565b5b021790555060603073ffffffffffffffffffffffffffffffffffffffff16634e088046326040518263ffffffff1660e01b8152600401610ad79190611efd565b60006040518083038186803b158015610aef57600080fd5b505afa158015610b03573d6000803e3d6000fd5b505050506040513d6000823e3d601f19601f82011682018060405250810190610b2c91906120a4565b909192509091509050809150503273ffffffffffffffffffffffffffffffffffffffff167f430b758c1e0fe319aaa192e7d56d4f39ae97698a3a489e48954ea3ce634c26e182604051610b7f9190611e67565b60405180910390a250505050565b60006060600060606000600360008773ffffffffffffffffffffffffffffffffffffffff1673ffffffffffffffffffffffffffffffffffffffff16815260200190815260200160002060020160009054906101000a900460ff166003811115610bf957610bf8611f58565b5b905060008160ff161415610c44576040518060400160405280600a81526020017f556e61737369676e6564000000000000000000000000000000000000000000008152509150610d1e565b60018160ff161415610c8d576040518060400160405280600781526020017f4170706c696564000000000000000000000000000000000000000000000000008152509150610d1d565b60028160ff161415610cd6576040518060400160405280600a81526020017f52656769737465726564000000000000000000000000000000000000000000008152509150610d1c565b60038160ff161415610d1b576040518060400160405280600981526020017f436f6d6d6974746564000000000000000000000000000000000000000000000081525091505b5b5b5b600360008773ffffffffffffffffffffffffffffffffffffffff1673ffffffffffffffffffffffffffffffffffffffff168152602001908152602001600020600001549450600360008773ffffffffffffffffffffffffffffffffffffffff1673ffffffffffffffffffffffffffffffffffffffff1681526020019081526020016000206001018054610db0906122a0565b80601f0160208091040260200160405190810160405280929190818152602001828054610ddc906122a0565b8015610e295780601f10610dfe57610100808354040283529160200191610e29565b820191906000526020600020905b815481529060010190602001808311610e0c57829003601f168201915b50505050509350600360008773ffffffffffffffffffffffffffffffffffffffff1673ffffffffffffffffffffffffffffffffffffffff16815260200190815260200160002060020160019054906101000a900473ffffffffffffffffffffffffffffffffffffffff169250509193509193565b60026003811115610eb157610eb0611f58565b5b600360008373ffffffffffffffffffffffffffffffffffffffff1673ffffffffffffffffffffffffffffffffffffffff16815260200190815260200160002060020160009054906101000a900460ff166003811115610f1357610f12611f58565b5b14610f53576040517f08c379a0000000000000000000000000000000000000000000000000000000008152600401610f4a9061231e565b60405180910390fd5b50565b60603073ffffffffffffffffffffffffffffffffffffffff16634e088046836040518263ffffffff1660e01b8152600401610f919190611efd565b60006040518083038186803b158015610fa957600080fd5b505afa158015610fbd573d6000803e3d6000fd5b505050506040513d6000823e3d601f19601f82011682018060405250810190610fe691906120a4565b90919250909150905080915050919050565b323073ffffffffffffffffffffffffffffffffffffffff16635addd35a826040518263ffffffff1660e01b81526004016110329190611efd565b60006040518083038186803b15801561104a57600080fd5b505afa15801561105e573d6000803e3d6000fd5b50505050811515600160149054906101000a900460ff16151514156110b8576040517f08c379a00000000000000000000000000000000000000000000000000000000081526004016110af9061238a565b60405180910390fd5b81600160146101000a81548160ff0219169083151502179055505050565b6000600160038111156110ec576110eb611f58565b5b600360008473ffffffffffffffffffffffffffffffffffffffff1673ffffffffffffffffffffffffffffffffffffffff16815260200190815260200160002060020160009054906101000a900460ff16600381111561114e5761114d611f58565b5b141561115d57600190506111e7565b6002600381111561117157611170611f58565b5b600360008473ffffffffffffffffffffffffffffffffffffffff1673ffffffffffffffffffffffffffffffffffffffff16815260200190815260200160002060020160009054906101000a900460ff1660038111156111d3576111d2611f58565b5b14156111e257600190506111e7565b600090505b919050565b600160009054906101000a900473ffffffffffffffffffffffffffffffffffffffff1673ffffffffffffffffffffffffffffffffffffffff168173ffffffffffffffffffffffffffffffffffffffff1614806112bb57506001600381111561125757611256611f58565b5b600360008373ffffffffffffffffffffffffffffffffffffffff1673ffffffffffffffffffffffffffffffffffffffff16815260200190815260200160002060020160009054906101000a900460ff1660038111156112b9576112b8611f58565b5b145b806113395750600260038111156112d5576112d4611f58565b5b600360008373ffffffffffffffffffffffffffffffffffffffff1673ffffffffffffffffffffffffffffffffffffffff16815260200190815260200160002060020160009054906101000a900460ff16600381111561133757611336611f58565b5b145b611378576040517f08c379a000000000000000000000000000000000000000000000000000000000815260040161136f906123f6565b60405180910390fd5b50565b60008173ffffffffffffffffffffffffffffffffffffffff16319050919050565b6000600160009054906101000a900473ffffffffffffffffffffffffffffffffffffffff16905090565b6000600254905090565b813073ffffffffffffffffffffffffffffffffffffffff1663837ee755826040518263ffffffff1660e01b815260040161140a9190611efd565b60006040518083038186803b15801561142257600080fd5b505afa158015611436573d6000803e3d6000fd5b50505050600160149054906101000a900460ff16611489576040517f08c379a000000000000000000000000000000000000000000000000000000000815260040161148090612462565b60405180910390fd5b6000600360008573ffffffffffffffffffffffffffffffffffffffff1673ffffffffffffffffffffffffffffffffffffffff16815260200190815260200160002060020160009054906101000a900460ff1660038111156114ed576114ec611f58565b5b905060038360ff161115611536576040517f08c379a000000000000000000000000000000000000000000000000000000000815260040161152d906121bf565b60405180910390fd5b8060ff168360ff161161157e576040517f08c379a000000000000000000000000000000000000000000000000000000000815260040161157590612251565b60405180910390fd5b611586611914565b8260ff16600381111561159c5761159b611f58565b5b600360008673ffffffffffffffffffffffffffffffffffffffff1673ffffffffffffffffffffffffffffffffffffffff16815260200190815260200160002060020160006101000a81548160ff02191690836003811115611600576115ff611f58565b5b021790555061161b600160025461193c90919063ffffffff16565b600281905550600360008573ffffffffffffffffffffffffffffffffffffffff1673ffffffffffffffffffffffffffffffffffffffff16815260200190815260200160002060020160009054906101000a900460ff16600381111561168357611682611f58565b5b905060603073ffffffffffffffffffffffffffffffffffffffff16634e088046866040518263ffffffff1660e01b81526004016116c09190611efd565b60006040518083038186803b1580156116d857600080fd5b505afa1580156116ec573d6000803e3d6000fd5b505050506040513d6000823e3d601f19601f8201168201806040525081019061171591906120a4565b909192509091509050809150508473ffffffffffffffffffffffffffffffffffffffff167f430b758c1e0fe319aaa192e7d56d4f39ae97698a3a489e48954ea3ce634c26e1826040516117689190611e67565b60405180910390a25050505050565b6002600381111561178b5761178a611f58565b5b600360008373ffffffffffffffffffffffffffffffffffffffff1673ffffffffffffffffffffffffffffffffffffffff16815260200190815260200160002060020160009054906101000a900460ff1660038111156117ed576117ec611f58565b5b14806118465750600160009054906101000a900473ffffffffffffffffffffffffffffffffffffffff1673ffffffffffffffffffffffffffffffffffffffff168173ffffffffffffffffffffffffffffffffffffffff16145b611885576040517f08c379a000000000000000000000000000000000000000000000000000000000815260040161187c906124ce565b60405180910390fd5b50565b611890611952565b801515600160149054906101000a900460ff16151514156118e6576040517f08c379a00000000000000000000000000000000000000000000000000000000081526004016118dd9061253a565b60405180910390fd5b80600160146101000a81548160ff02191690831515021790555050565b600047905090565b60008054905090565b60046002541061193a576000600160146101000a81548160ff0219169083151502179055505b565b6000818361194a9190612589565b905092915050565b600160009054906101000a900473ffffffffffffffffffffffffffffffffffffffff1673ffffffffffffffffffffffffffffffffffffffff163373ffffffffffffffffffffffffffffffffffffffff16146119e2576040517f08c379a00000000000000000000000000000000000000000000000000000000081526004016119d99061262b565b60405180910390fd5b565b8280546119f0906122a0565b90600052602060002090601f016020900481019282611a125760008555611a59565b82601f10611a2b57805160ff1916838001178555611a59565b82800160010185558215611a59579182015b82811115611a58578251825591602001919060010190611a3d565b5b509050611a669190611a6a565b5090565b5b80821115611a83576000816000905550600101611a6b565b5090565b6000604051905090565b600080fd5b600080fd5b600073ffffffffffffffffffffffffffffffffffffffff82169050919050565b6000611ac682611a9b565b9050919050565b611ad681611abb565b8114611ae157600080fd5b50565b600081359050611af381611acd565b92915050565b600060208284031215611b0f57611b0e611a91565b5b6000611b1d84828501611ae4565b91505092915050565b60008115159050919050565b611b3b81611b26565b82525050565b6000602082019050611b566000830184611b32565b92915050565b600080fd5b600080fd5b6000601f19601f8301169050919050565b7f4e487b7100000000000000000000000000000000000000000000000000000000600052604160045260246000fd5b611baf82611b66565b810181811067ffffffffffffffff82111715611bce57611bcd611b77565b5b80604052505050565b6000611be1611a87565b9050611bed8282611ba6565b919050565b600067ffffffffffffffff821115611c0d57611c0c611b77565b5b611c1682611b66565b9050602081019050919050565b82818337600083830152505050565b6000611c45611c4084611bf2565b611bd7565b905082815260208101848484011115611c6157611c60611b61565b5b611c6c848285611c23565b509392505050565b600082601f830112611c8957611c88611b5c565b5b8135611c99848260208601611c32565b91505092915050565b60008060408385031215611cb957611cb8611a91565b5b600083013567ffffffffffffffff811115611cd757611cd6611a96565b5b611ce385828601611c74565b9250506020611cf485828601611ae4565b9150509250929050565b600060ff82169050919050565b611d1481611cfe565b8114611d1f57600080fd5b50565b600081359050611d3181611d0b565b92915050565b600060208284031215611d4d57611d4c611a91565b5b6000611d5b84828501611d22565b91505092915050565b6000819050919050565b611d7781611d64565b82525050565b600081519050919050565b600082825260208201905092915050565b60005b83811015611db7578082015181840152602081019050611d9c565b83811115611dc6576000848401525b50505050565b6000611dd782611d7d565b611de18185611d88565b9350611df1818560208601611d99565b611dfa81611b66565b840191505092915050565b611e0e81611abb565b82525050565b6000608082019050611e296000830187611d6e565b8181036020830152611e3b8186611dcc565b9050611e4a6040830185611e05565b8181036060830152611e5c8184611dcc565b905095945050505050565b60006020820190508181036000830152611e818184611dcc565b905092915050565b611e9281611b26565b8114611e9d57600080fd5b50565b600081359050611eaf81611e89565b92915050565b600060208284031215611ecb57611eca611a91565b5b6000611ed984828501611ea0565b91505092915050565b6000602082019050611ef76000830184611d6e565b92915050565b6000602082019050611f126000830184611e05565b92915050565b60008060408385031215611f2f57611f2e611a91565b5b6000611f3d85828601611ae4565b9250506020611f4e85828601611d22565b9150509250929050565b7f4e487b7100000000000000000000000000000000000000000000000000000000600052602160045260246000fd5b7f6169726c696e65206e6f7420696e20756e61737369676e656420737461746500600082015250565b6000611fbd601f83611d88565b9150611fc882611f87565b602082019050919050565b60006020820190508181036000830152611fec81611fb0565b9050919050565b611ffc81611d64565b811461200757600080fd5b50565b60008151905061201981611ff3565b92915050565b600061203261202d84611bf2565b611bd7565b90508281526020810184848401111561204e5761204d611b61565b5b612059848285611d99565b509392505050565b600082601f83011261207657612075611b5c565b5b815161208684826020860161201f565b91505092915050565b60008151905061209e81611acd565b92915050565b600080600080608085870312156120be576120bd611a91565b5b60006120cc8782880161200a565b945050602085015167ffffffffffffffff8111156120ed576120ec611a96565b5b6120f987828801612061565b935050604061210a8782880161208f565b925050606085015167ffffffffffffffff81111561212b5761212a611a96565b5b61213787828801612061565b91505092959194509250565b60006040820190506121586000830185611d6e565b818103602083015261216a8184611dcc565b90509392505050565b7f6e6f742077697468696e20656e756d2072616e67650000000000000000000000600082015250565b60006121a9601583611d88565b91506121b482612173565b602082019050919050565b600060208201905081810360008301526121d88161219c565b9050919050565b7f7374617475732063616e6e6f74206265206c6f776572207468616e206375727260008201527f656e742073746174650000000000000000000000000000000000000000000000602082015250565b600061223b602983611d88565b9150612246826121df565b604082019050919050565b6000602082019050818103600083015261226a8161222e565b9050919050565b7f4e487b7100000000000000000000000000000000000000000000000000000000600052602260045260246000fd5b600060028204905060018216806122b857607f821691505b602082108114156122cc576122cb612271565b5b50919050565b7f63616c6c6572206e6f7420726567697374657265640000000000000000000000600082015250565b6000612308601583611d88565b9150612313826122d2565b602082019050919050565b60006020820190508181036000830152612337816122fb565b9050919050565b7f616c726561647920696e206f7065726174696f6e616c206d6f64650000000000600082015250565b6000612374601b83611d88565b915061237f8261233e565b602082019050919050565b600060208201905081810360008301526123a381612367565b9050919050565b7f6169726c696e65206e6f7420617574686f72697a656400000000000000000000600082015250565b60006123e0601683611d88565b91506123eb826123aa565b602082019050919050565b6000602082019050818103600083015261240f816123d3565b9050919050565b7f636f6e7472616374206e6f74206f7065726174696f6e616c0000000000000000600082015250565b600061244c601883611d88565b915061245782612416565b602082019050919050565b6000602082019050818103600083015261247b8161243f565b9050919050565b7f6e6f7420617574686f72697a656420746f207265676973746572000000000000600082015250565b60006124b8601a83611d88565b91506124c382612482565b602082019050919050565b600060208201905081810360008301526124e7816124ab565b9050919050565b7f6d757374206e6f742062652063757272656e7420737461747573000000000000600082015250565b6000612524601a83611d88565b915061252f826124ee565b602082019050919050565b6000602082019050818103600083015261255381612517565b9050919050565b7f4e487b7100000000000000000000000000000000000000000000000000000000600052601160045260246000fd5b600061259482611d64565b915061259f83611d64565b9250827fffffffffffffffffffffffffffffffffffffffffffffffffffffffffffffffff038211156125d4576125d361255a565b5b828201905092915050565b7f63616c6c6572206e6f74206f776e657200000000000000000000000000000000600082015250565b6000612615601083611d88565b9150612620826125df565b602082019050919050565b6000602082019050818103600083015261264481612608565b905091905056fea26469706673582212205445c235c512262398cf0c947161d34e7d6f14a7fc7b103eb07b76058937acea64736f6c63430008090033",
  "immutableReferences": {},
  "source": "  // SPDX-License-Identifier: MIT\npragma solidity ^0.8.0;\n\nimport '@openzeppelin/contracts/utils/math/SafeMath.sol';\n\ncontract AirlineData { \n  using SafeMath for uint256;\n\n\n\n  \n  \n  /********************************************************************************************/\n  /*                                     AIRLINE  DATA VARIABLES                                     */\n  /********************************************************************************************/\n\n  uint256 totalAppliedAirlines;\n  \n  address private contractOwner;\n  bool private operational;\n    \n  uint256 totalRegisteredAirlines;\n  enum AirlineStatus { \n    Unassigned,\n    Applied,\n    Registered,\n    Committed\n  }\n\n  struct Airline {\n    uint256 id;\n    string name;\n    AirlineStatus status;\n    address airlineAccount;\n  }\n\n\n\n  mapping(address => Airline) airlines;\n  \n  // mapping(AirlineStatus => uint256) public registeredAirlines;\n  \n\n  \n  mapping(address => uint256) paidAirlines;\n  \n  /********************************************************************************************/\n  /*                                    AIRLINE   FUNCTION MODIFIERS                          */\n  /********************************************************************************************/\n \n  \n \n\n  function _onlyOwner() internal view {\n    require(msg.sender == contractOwner, 'caller not owner');\n  }\n  \n  function onlyAuthorizedAirlines(address _account) external view {\n     require(_account == contractOwner || airlines[_account].status == AirlineStatus.Applied || airlines[_account].status == AirlineStatus.Registered, 'airline not authorized');\n  }\n  \n  function onlyRegisteredAirlines(address _account) external view {\n      require(airlines[_account].status == AirlineStatus.Registered, 'caller not registered');\n  }\n  \n  function onlyAuthorizeRegistrants(address _account) external view {\n      require(airlines[_account].status == AirlineStatus.Registered || _account == contractOwner, 'not authorized to register');\n  }\n  \n  modifier checkCaller(address _account) {\n      this.onlyAuthorizeRegistrants(_account);\n      _;\n  }\n  \n  \n  modifier checkRegistration(address _account) {\n    this.onlyRegisteredAirlines(_account);\n    _;\n  }\n  \n\n  modifier onlyOwner() {\n    _onlyOwner();\n    _;\n  }\n  \n  modifier onlyAuthorized(address _account) {\n    this.onlyAuthorizedAirlines(_account);\n      _;\n  }\n\n  modifier isOperational() {\n    require(operational, 'contract not operational');\n    _;\n  }\n\n \n\n \n  /********************************************************************************************/\n  /*                                     AIRLINE  EVENTS                                */\n  /********************************************************************************************/\n\n  event LogCreatedAirline(address indexed account, uint256 timestamp, string airlineStatus);\n  event LogStatusUpdated(address indexed account, string airlineStatus);\n\n\n  constructor() {\n    contractOwner = msg.sender;\n    operational = true;\n\n  }\n    \n  /********************************************************************************************/\n  /*                                      AIRLINE CORE FUNCTIONS                                 */\n  /********************************************************************************************/\n  function setOperatinalStatus(bool _status) external onlyOwner {\n    require(operational != _status, 'must not be current status');\n    operational = _status;\n  }\n\n\n  function createNewAirline(string memory _name, address _account) external {\n    require(airlines[_account].status == AirlineStatus.Unassigned, 'airline not in unassigned state');\n    totalAppliedAirlines = totalAppliedAirlines.add(1);\n    airlines[_account] = Airline({\n      id: totalAppliedAirlines,\n      name: _name,\n      status: AirlineStatus.Applied, \n      airlineAccount: _account\n    });\n    \n    string memory state;\n    (,,,state) = this.getAirlineDetails(_account);\n\n    emit LogCreatedAirline(msg.sender, block.timestamp, state);\n   \n  }\n  \n  \n  function updateAirlineStatus(address _account, uint8 _state) external onlyAuthorized(_account) isOperational {\n    uint8 statusNum = uint8(airlines[_account].status);\n    require(_state <= 3, 'not within enum range');\n    require(_state > statusNum, 'status cannot be lower than current state');\n    disableOperational();\n    airlines[_account].status = AirlineStatus(_state);\n    totalRegisteredAirlines = totalRegisteredAirlines.add(1);\n    \n    statusNum = uint8(airlines[_account].status);\n  \n    \n    \n    string memory state;\n    (,,,state) = this.getAirlineDetails(_account);\n    emit LogStatusUpdated(_account, state);\n  }\n    \n\n  // update airline state to committed\n  function updateToCommitState(uint8 _state) external checkCaller(tx.origin) payable {\n    uint8 statusNum = uint8(airlines[tx.origin].status);\n    require(_state <= 3, 'not within enum range');\n    require(_state > statusNum, 'status cannot be lower than current state');\n        \n    airlines[tx.origin].status = AirlineStatus.Committed;\n         \n    string memory state;\n    (,,,state) = this.getAirlineDetails(tx.origin);\n    emit LogStatusUpdated(tx.origin, state);\n  }\n  \n  \n  function disableOperational() public {\n    if(totalRegisteredAirlines >= 4) {\n      operational = false; \n    }\n  }\n  \n  \n  function enableOperationalStatus(bool _status) checkRegistration(tx.origin) external {\n    require(operational != _status, 'already in operational mode');\n    operational = _status;\n  }\n\n  /********************************************************************************************/\n  /*                                       AIRLINE UTILITY FUNCTIONS                                 */\n  /********************************************************************************************/\n\n  function getOperationalStatus() external view  returns(bool) {\n    return operational;\n  }\n\n\n  function getOwner() external view returns(address) {\n    return contractOwner;\n  }\n  \n  \n  \n  function getTotalAppliedAirlines() external view returns(uint256) {\n    return totalAppliedAirlines;\n  }\n  \n  function getAirlineAuthorizationStatus(address _account) external view returns(bool status) {\n    if(airlines[_account].status == AirlineStatus.Applied) {\n        return status = true;\n        \n    } else if(airlines[_account].status == AirlineStatus.Registered) {\n        return status = true;\n    } else {\n        return status = false;\n    }\n  }\n\n  function getAirlineDetails(address _account) external view returns(uint256 id, string memory name, address airlineAccount, string memory state) {\n    uint8 airlineState = uint8(airlines[_account].status);\n    if(airlineState == 0) {\n      state = 'Unassigned';\n\n    } else if(airlineState == 1) {\n      state = 'Applied';\n    } else if(airlineState == 2) {\n      state = 'Registered';\n    } else if(airlineState == 3) {\n      state = 'Committed';\n\n    }\n    \n    id = airlines[_account].id;\n    name = airlines[_account].name;\n    airlineAccount = airlines[_account].airlineAccount;\n    \n    return (id, name, airlineAccount, state);\n    \n  }\n  \n  \n  \n  function getAirlineApplicationStatus(address _account) public view returns(string memory status) {\n    (,,,status) = this.getAirlineDetails(_account);\n  }\n  \n  \n  \n  function isAirlineRegistered(address _account) external view returns(bool checkStatus) {\n    uint8 airlineCheck = uint8(airlines[_account].status);\n    if(airlineCheck == 2) {\n        \n      checkStatus = true;\n    } else {\n      checkStatus = false;\n    }\n    \n    return checkStatus;\n  }\n\n  function isAirlineCommitted(address _account) external view returns(bool checkStatus) {\n    uint8 airlineCheck = uint8(airlines[_account].status);\n    if(airlineCheck == 3) {\n        \n      checkStatus = true;\n    } else {\n      checkStatus = false;\n    }\n    \n    return checkStatus;\n  }\n  \n  function getTotalRegisteredAirlines() external view returns(uint256) {\n    return totalRegisteredAirlines;\n  }\n\n\n   function getDataBalance() external view returns(uint256) {\n    return address(this).balance;\n  }\n  \n  function getAirlineBalance(address _account) external view returns(uint256) {\n    return _account.balance;\n  }\n\n}\n",
  "sourcePath": "/home/sprtd/Desktop/Udacity/lesson-5-flight-surety/flight-surety-project/contracts/AirlineData.sol",
  "compiler": {
    "name": "solc",
    "version": "0.8.9+commit.e5eed63a.Emscripten.clang"
  },
  "schemaVersion": "3.4.3",
  "updatedAt": "2021-11-06T21:57:42.902Z",
  "devdoc": {
    "kind": "dev",
    "methods": {},
    "version": 1
  },
  "userdoc": {
    "kind": "user",
    "methods": {},
    "version": 1
  }
}