{
  "contractName": "FlightSuretyApp",
  "abi": [
    {
      "inputs": [
        {
          "internalType": "address",
          "name": "_flightSuretyDataAddress",
          "type": "address"
        }
      ],
      "stateMutability": "nonpayable",
      "type": "constructor"
    },
    {
      "anonymous": false,
      "inputs": [
        {
          "indexed": true,
          "internalType": "address",
          "name": "airline",
          "type": "address"
        },
        {
          "indexed": false,
          "internalType": "uint256",
          "name": "airlineFee",
          "type": "uint256"
        }
      ],
      "name": "LogPayCommitment",
      "type": "event"
    },
    {
      "anonymous": false,
      "inputs": [
        {
          "indexed": true,
          "internalType": "address",
          "name": "callerAirline",
          "type": "address"
        },
        {
          "indexed": true,
          "internalType": "address",
          "name": "registeredAirline",
          "type": "address"
        },
        {
          "indexed": false,
          "internalType": "uint8",
          "name": "state",
          "type": "uint8"
        }
      ],
      "name": "LogRegisteredViaConsensus",
      "type": "event"
    },
    {
      "inputs": [],
      "name": "AIRLINE_FEE",
      "outputs": [
        {
          "internalType": "uint256",
          "name": "",
          "type": "uint256"
        }
      ],
      "stateMutability": "view",
      "type": "function",
      "constant": true
    },
    {
      "inputs": [],
      "name": "ORACLE_REGISTRATION_FEE",
      "outputs": [
        {
          "internalType": "uint256",
          "name": "",
          "type": "uint256"
        }
      ],
      "stateMutability": "view",
      "type": "function",
      "constant": true
    },
    {
      "inputs": [],
      "name": "contractOwner",
      "outputs": [
        {
          "internalType": "address",
          "name": "",
          "type": "address"
        }
      ],
      "stateMutability": "view",
      "type": "function",
      "constant": true
    },
    {
      "inputs": [
        {
          "internalType": "string",
          "name": "_name",
          "type": "string"
        }
      ],
      "name": "startAirlineApplication",
      "outputs": [],
      "stateMutability": "nonpayable",
      "type": "function"
    },
    {
      "inputs": [
        {
          "internalType": "address",
          "name": "_account",
          "type": "address"
        },
        {
          "internalType": "uint8",
          "name": "_state",
          "type": "uint8"
        }
      ],
      "name": "registerAirline",
      "outputs": [],
      "stateMutability": "nonpayable",
      "type": "function"
    },
    {
      "inputs": [
        {
          "internalType": "address",
          "name": "_account",
          "type": "address"
        },
        {
          "internalType": "uint8",
          "name": "_state",
          "type": "uint8"
        }
      ],
      "name": "registerViaConsensus",
      "outputs": [],
      "stateMutability": "nonpayable",
      "type": "function"
    },
    {
      "inputs": [],
      "name": "payCommitmentFee",
      "outputs": [],
      "stateMutability": "payable",
      "type": "function",
      "payable": true
    },
    {
      "inputs": [],
      "name": "getOwner",
      "outputs": [
        {
          "internalType": "address",
          "name": "",
          "type": "address"
        }
      ],
      "stateMutability": "view",
      "type": "function",
      "constant": true
    },
    {
      "inputs": [
        {
          "internalType": "address",
          "name": "_account",
          "type": "address"
        }
      ],
      "name": "airlineAuthorizationStatus",
      "outputs": [
        {
          "internalType": "bool",
          "name": "",
          "type": "bool"
        }
      ],
      "stateMutability": "view",
      "type": "function",
      "constant": true
    },
    {
      "inputs": [
        {
          "internalType": "address",
          "name": "_account",
          "type": "address"
        }
      ],
      "name": "airlineDetails",
      "outputs": [
        {
          "internalType": "uint256",
          "name": "id",
          "type": "uint256"
        },
        {
          "internalType": "string",
          "name": "name",
          "type": "string"
        },
        {
          "internalType": "address",
          "name": "airlineAccount",
          "type": "address"
        },
        {
          "internalType": "string",
          "name": "state",
          "type": "string"
        }
      ],
      "stateMutability": "view",
      "type": "function",
      "constant": true
    },
    {
      "inputs": [],
      "name": "isCallerAirlineRegistered",
      "outputs": [
        {
          "internalType": "bool",
          "name": "",
          "type": "bool"
        }
      ],
      "stateMutability": "view",
      "type": "function",
      "constant": true
    },
    {
      "inputs": [],
      "name": "getTotalRegisteredAirlines",
      "outputs": [
        {
          "internalType": "uint256",
          "name": "",
          "type": "uint256"
        }
      ],
      "stateMutability": "view",
      "type": "function",
      "constant": true
    },
    {
      "inputs": [],
      "name": "getOperationalStatus",
      "outputs": [
        {
          "internalType": "bool",
          "name": "",
          "type": "bool"
        }
      ],
      "stateMutability": "view",
      "type": "function",
      "constant": true
    },
    {
      "inputs": [],
      "name": "getQuorum",
      "outputs": [
        {
          "internalType": "uint256",
          "name": "",
          "type": "uint256"
        }
      ],
      "stateMutability": "view",
      "type": "function",
      "constant": true
    },
    {
      "inputs": [
        {
          "internalType": "uint256",
          "name": "_flightID",
          "type": "uint256"
        }
      ],
      "name": "fetchFlightStatus",
      "outputs": [],
      "stateMutability": "nonpayable",
      "type": "function"
    },
    {
      "inputs": [],
      "name": "payOracleRegFees",
      "outputs": [],
      "stateMutability": "payable",
      "type": "function",
      "payable": true
    }
  ],
  "bytecode": "0x6080604052600067ffffffffffffffff811115620000225762000021620003d4565b5b604051908082528060200260200182016040528015620000515781602001602082028036833780820191505090505b50600390805190602001906200006992919062000326565b506000600560006101000a81548160ff021916908360ff1602179055503480156200009357600080fd5b50604051620028a8380380620028a88339818101604052810190620000b991906200046d565b33600260006101000a81548173ffffffffffffffffffffffffffffffffffffffff021916908373ffffffffffffffffffffffffffffffffffffffff16021790555080600160006101000a81548173ffffffffffffffffffffffffffffffffffffffff021916908373ffffffffffffffffffffffffffffffffffffffff160217905550806000806101000a81548173ffffffffffffffffffffffffffffffffffffffff021916908373ffffffffffffffffffffffffffffffffffffffff160217905550620001c16040518060400160405280600581526020017f616c706861000000000000000000000000000000000000000000000000000000815250620001fd60201b60201c565b620001f6600260009054906101000a900473ffffffffffffffffffffffffffffffffffffffff1660026200029160201b60201c565b50620005d3565b60008054906101000a900473ffffffffffffffffffffffffffffffffffffffff1673ffffffffffffffffffffffffffffffffffffffff16630b2653d582336040518363ffffffff1660e01b81526004016200025a92919062000554565b600060405180830381600087803b1580156200027557600080fd5b505af11580156200028a573d6000803e3d6000fd5b5050505050565b60008054906101000a900473ffffffffffffffffffffffffffffffffffffffff1673ffffffffffffffffffffffffffffffffffffffff1663b10f057b83836040518363ffffffff1660e01b8152600401620002ee929190620005a6565b600060405180830381600087803b1580156200030957600080fd5b505af11580156200031e573d6000803e3d6000fd5b505050505050565b828054828255906000526020600020908101928215620003a2579160200282015b82811115620003a15782518260006101000a81548173ffffffffffffffffffffffffffffffffffffffff021916908373ffffffffffffffffffffffffffffffffffffffff1602179055509160200191906001019062000347565b5b509050620003b19190620003b5565b5090565b5b80821115620003d0576000816000905550600101620003b6565b5090565b7f4e487b7100000000000000000000000000000000000000000000000000000000600052604160045260246000fd5b600080fd5b600073ffffffffffffffffffffffffffffffffffffffff82169050919050565b6000620004358262000408565b9050919050565b620004478162000428565b81146200045357600080fd5b50565b60008151905062000467816200043c565b92915050565b60006020828403121562000486576200048562000403565b5b6000620004968482850162000456565b91505092915050565b600081519050919050565b600082825260208201905092915050565b60005b83811015620004db578082015181840152602081019050620004be565b83811115620004eb576000848401525b50505050565b6000601f19601f8301169050919050565b60006200050f826200049f565b6200051b8185620004aa565b93506200052d818560208601620004bb565b6200053881620004f1565b840191505092915050565b6200054e8162000428565b82525050565b6000604082019050818103600083015262000570818562000502565b905062000581602083018462000543565b9392505050565b600060ff82169050919050565b620005a08162000588565b82525050565b6000604082019050620005bd600083018562000543565b620005cc602083018462000595565b9392505050565b6122c580620005e36000396000f3fe6080604052600436106100f35760003560e01c8063c26c12eb1161008a578063cea579bf11610059578063cea579bf146102c6578063dd82ba6b14610306578063dddfe1be14610331578063ec0f02471461035a576100f3565b8063c26c12eb1461021c578063c4b37e9514610247578063cb6a3c9714610272578063ce606ee01461029b576100f3565b80635a920f62116100c65780635a920f6214610160578063893d20e81461019d578063994de453146101c8578063ae795835146101f3576100f3565b80630383980a146100f85780630c982673146101025780632511746e1461012d5780634fb061ec14610156575b600080fd5b610100610385565b005b34801561010e57600080fd5b50610117610603565b6040516101249190611581565b60405180910390f35b34801561013957600080fd5b50610154600480360381019061014f91906116f6565b61069a565b005b61015e61072a565b005b34801561016c57600080fd5b506101876004803603810190610182919061179d565b6108de565b6040516101949190611581565b60405180910390f35b3480156101a957600080fd5b506101b2610982565b6040516101bf91906117d9565b60405180910390f35b3480156101d457600080fd5b506101dd6109ac565b6040516101ea919061180d565b60405180910390f35b3480156101ff57600080fd5b5061021a60048036038101906102159190611854565b610a43565b005b34801561022857600080fd5b50610231610ae1565b60405161023e919061180d565b60405180910390f35b34801561025357600080fd5b5061025c610aeb565b604051610269919061180d565b60405180910390f35b34801561027e57600080fd5b50610299600480360381019061029491906118ba565b610af7565b005b3480156102a757600080fd5b506102b0610b88565b6040516102bd91906117d9565b60405180910390f35b3480156102d257600080fd5b506102ed60048036038101906102e8919061179d565b610bae565b6040516102fd9493929190611982565b60405180910390f35b34801561031257600080fd5b5061031b610c6c565b604051610328919061180d565b60405180910390f35b34801561033d57600080fd5b50610358600480360381019061035391906118ba565b610c78565b005b34801561036657600080fd5b5061036f6111c0565b60405161037c9190611581565b60405180910390f35b60008054906101000a900473ffffffffffffffffffffffffffffffffffffffff1673ffffffffffffffffffffffffffffffffffffffff16635addd35a336040518263ffffffff1660e01b81526004016103de91906117d9565b60006040518083038186803b1580156103f657600080fd5b505afa15801561040a573d6000803e3d6000fd5b50505050678ac7230489e800003414610458576040517f08c379a000000000000000000000000000000000000000000000000000000000815260040161044f90611a21565b60405180910390fd5b6000600160009054906101000a900473ffffffffffffffffffffffffffffffffffffffff1673ffffffffffffffffffffffffffffffffffffffff16346040516104a090611a72565b60006040518083038185875af1925050503d80600081146104dd576040519150601f19603f3d011682016040523d82523d6000602084013e6104e2565b606091505b5050905080610526576040517f08c379a000000000000000000000000000000000000000000000000000000000815260040161051d90611ad3565b60405180910390fd5b60008054906101000a900473ffffffffffffffffffffffffffffffffffffffff1673ffffffffffffffffffffffffffffffffffffffff166336061cca60036040518263ffffffff1660e01b81526004016105809190611b38565b600060405180830381600087803b15801561059a57600080fd5b505af11580156105ae573d6000803e3d6000fd5b505050503373ffffffffffffffffffffffffffffffffffffffff167fb68ca0eeaa49aef5b205d0a190cad74e14730f4df1db96878ff00ea294c807e0346040516105f8919061180d565b60405180910390a250565b60008060009054906101000a900473ffffffffffffffffffffffffffffffffffffffff1673ffffffffffffffffffffffffffffffffffffffff16630c9826736040518163ffffffff1660e01b8152600401602060405180830381865afa158015610671573d6000803e3d6000fd5b505050506040513d601f19601f820116820180604052508101906106959190611b7f565b905090565b60008054906101000a900473ffffffffffffffffffffffffffffffffffffffff1673ffffffffffffffffffffffffffffffffffffffff16630b2653d582336040518363ffffffff1660e01b81526004016106f5929190611bac565b600060405180830381600087803b15801561070f57600080fd5b505af1158015610723573d6000803e3d6000fd5b5050505050565b670de0b6b3a76400003414610774576040517f08c379a000000000000000000000000000000000000000000000000000000000815260040161076b90611c28565b60405180910390fd5b6000600160009054906101000a900473ffffffffffffffffffffffffffffffffffffffff1673ffffffffffffffffffffffffffffffffffffffff16346040516107bc90611a72565b60006040518083038185875af1925050503d80600081146107f9576040519150601f19603f3d011682016040523d82523d6000602084013e6107fe565b606091505b5050905080610842576040517f08c379a000000000000000000000000000000000000000000000000000000000815260040161083990611c94565b60405180910390fd5b600061084d33611266565b905060008054906101000a900473ffffffffffffffffffffffffffffffffffffffff1673ffffffffffffffffffffffffffffffffffffffff16630cfc7e44826040518263ffffffff1660e01b81526004016108a89190611d5f565b600060405180830381600087803b1580156108c257600080fd5b505af11580156108d6573d6000803e3d6000fd5b505050505050565b60008060009054906101000a900473ffffffffffffffffffffffffffffffffffffffff1673ffffffffffffffffffffffffffffffffffffffff16638042601f836040518263ffffffff1660e01b815260040161093a91906117d9565b602060405180830381865afa158015610957573d6000803e3d6000fd5b505050506040513d601f19601f8201168201806040525081019061097b9190611b7f565b9050919050565b6000600260009054906101000a900473ffffffffffffffffffffffffffffffffffffffff16905090565b60008060009054906101000a900473ffffffffffffffffffffffffffffffffffffffff1673ffffffffffffffffffffffffffffffffffffffff1663994de4536040518163ffffffff1660e01b8152600401602060405180830381865afa158015610a1a573d6000803e3d6000fd5b505050506040513d601f19601f82011682018060405250810190610a3e9190611d8f565b905090565b6000610a4e336113d1565b905060008054906101000a900473ffffffffffffffffffffffffffffffffffffffff1673ffffffffffffffffffffffffffffffffffffffff16634b5c9d5382846040518363ffffffff1660e01b8152600401610aab929190611dcb565b600060405180830381600087803b158015610ac557600080fd5b505af1158015610ad9573d6000803e3d6000fd5b505050505050565b6000600454905090565b678ac7230489e8000081565b60008054906101000a900473ffffffffffffffffffffffffffffffffffffffff1673ffffffffffffffffffffffffffffffffffffffff1663b10f057b83836040518363ffffffff1660e01b8152600401610b52929190611df4565b600060405180830381600087803b158015610b6c57600080fd5b505af1158015610b80573d6000803e3d6000fd5b505050505050565b600260009054906101000a900473ffffffffffffffffffffffffffffffffffffffff1681565b600060606000606060008054906101000a900473ffffffffffffffffffffffffffffffffffffffff1673ffffffffffffffffffffffffffffffffffffffff16634e088046866040518263ffffffff1660e01b8152600401610c0f91906117d9565b600060405180830381865afa158015610c2c573d6000803e3d6000fd5b505050506040513d6000823e3d601f19601f82011682018060405250810190610c559190611ea2565b809450819550829650839750505050509193509193565b670de0b6b3a764000081565b60008054906101000a900473ffffffffffffffffffffffffffffffffffffffff1673ffffffffffffffffffffffffffffffffffffffff16635addd35a336040518263ffffffff1660e01b8152600401610cd191906117d9565b60006040518083038186803b158015610ce957600080fd5b505afa158015610cfd573d6000803e3d6000fd5b505050506000151560008054906101000a900473ffffffffffffffffffffffffffffffffffffffff1673ffffffffffffffffffffffffffffffffffffffff1663010c5c97846040518263ffffffff1660e01b8152600401610d5e91906117d9565b602060405180830381865afa158015610d7b573d6000803e3d6000fd5b505050506040513d601f19601f82011682018060405250810190610d9f9190611b7f565b151514610de1576040517f08c379a0000000000000000000000000000000000000000000000000000000008152600401610dd890611f8d565b60405180910390fd5b60008060009054906101000a900473ffffffffffffffffffffffffffffffffffffffff1673ffffffffffffffffffffffffffffffffffffffff1663994de4536040518163ffffffff1660e01b8152600401602060405180830381865afa158015610e4f573d6000803e3d6000fd5b505050506040513d601f19601f82011682018060405250810190610e739190611d8f565b9050600281610e82919061200b565b6004819055506000805b600380549050811015610f27573373ffffffffffffffffffffffffffffffffffffffff1660038281548110610ec457610ec361203c565b5b9060005260206000200160009054906101000a900473ffffffffffffffffffffffffffffffffffffffff1673ffffffffffffffffffffffffffffffffffffffff161415610f145760019150610f27565b8080610f1f9061206b565b915050610e8c565b508015610f69576040517f08c379a0000000000000000000000000000000000000000000000000000000008152600401610f6090612126565b60405180910390fd5b6003339080600181540180825580915050600190039060005260206000200160009091909190916101000a81548173ffffffffffffffffffffffffffffffffffffffff021916908373ffffffffffffffffffffffffffffffffffffffff16021790555060045460038054905014156111ba5760008054906101000a900473ffffffffffffffffffffffffffffffffffffffff1673ffffffffffffffffffffffffffffffffffffffff16637008414d60016040518263ffffffff1660e01b81526004016110359190611581565b600060405180830381600087803b15801561104f57600080fd5b505af1158015611063573d6000803e3d6000fd5b5050505060008054906101000a900473ffffffffffffffffffffffffffffffffffffffff1673ffffffffffffffffffffffffffffffffffffffff1663b10f057b85856040518363ffffffff1660e01b81526004016110c2929190611df4565b600060405180830381600087803b1580156110dc57600080fd5b505af11580156110f0573d6000803e3d6000fd5b50505050600067ffffffffffffffff81111561110f5761110e6115cb565b5b60405190808252806020026020018201604052801561113d5781602001602082028036833780820191505090505b506003908051906020019061115392919061149d565b508373ffffffffffffffffffffffffffffffffffffffff163373ffffffffffffffffffffffffffffffffffffffff167ff020aa9943a57a61502ec8ba9e0d59387b7ec79450be409553eab4f19ebff60d856040516111b19190612146565b60405180910390a35b50505050565b60008060008054906101000a900473ffffffffffffffffffffffffffffffffffffffff1673ffffffffffffffffffffffffffffffffffffffff1663010c5c97336040518263ffffffff1660e01b815260040161121c91906117d9565b602060405180830381865afa158015611239573d6000803e3d6000fd5b505050506040513d601f19601f8201168201806040525081019061125d9190611b7f565b90508091505090565b61126e611527565b611276611527565b61127f836113d1565b816000600381106112935761129261203c565b5b602002019060ff16908160ff16815250505b806000600381106112b9576112b861203c565b5b602002015160ff16816001600381106112d5576112d461203c565b5b602002015160ff161415611316576112ec836113d1565b81600160038110611300576112ff61203c565b5b602002019060ff16908160ff16815250506112a5565b5b8060006003811061132b5761132a61203c565b5b602002015160ff16816002600381106113475761134661203c565b5b602002015160ff16148061139057508060016003811061136a5761136961203c565b5b602002015160ff16816002600381106113865761138561203c565b5b602002015160ff16145b156113c85761139e836113d1565b816002600381106113b2576113b161203c565b5b602002019060ff16908160ff1681525050611317565b80915050919050565b600080600a905060008160ff166005600081819054906101000a900460ff16809291906113fd90612161565b91906101000a81548160ff021916908360ff16021790555060ff1643611423919061218b565b4085604051602001611436929190612232565b6040516020818303038152906040528051906020012060001c611459919061225e565b905060fa600560009054906101000a900460ff1660ff161115611493576000600560006101000a81548160ff021916908360ff1602179055505b8092505050919050565b828054828255906000526020600020908101928215611516579160200282015b828111156115155782518260006101000a81548173ffffffffffffffffffffffffffffffffffffffff021916908373ffffffffffffffffffffffffffffffffffffffff160217905550916020019190600101906114bd565b5b5090506115239190611549565b5090565b6040518060600160405280600390602082028036833780820191505090505090565b5b8082111561156257600081600090555060010161154a565b5090565b60008115159050919050565b61157b81611566565b82525050565b60006020820190506115966000830184611572565b92915050565b6000604051905090565b600080fd5b600080fd5b600080fd5b600080fd5b6000601f19601f8301169050919050565b7f4e487b7100000000000000000000000000000000000000000000000000000000600052604160045260246000fd5b611603826115ba565b810181811067ffffffffffffffff82111715611622576116216115cb565b5b80604052505050565b600061163561159c565b905061164182826115fa565b919050565b600067ffffffffffffffff821115611661576116606115cb565b5b61166a826115ba565b9050602081019050919050565b82818337600083830152505050565b600061169961169484611646565b61162b565b9050828152602081018484840111156116b5576116b46115b5565b5b6116c0848285611677565b509392505050565b600082601f8301126116dd576116dc6115b0565b5b81356116ed848260208601611686565b91505092915050565b60006020828403121561170c5761170b6115a6565b5b600082013567ffffffffffffffff81111561172a576117296115ab565b5b611736848285016116c8565b91505092915050565b600073ffffffffffffffffffffffffffffffffffffffff82169050919050565b600061176a8261173f565b9050919050565b61177a8161175f565b811461178557600080fd5b50565b60008135905061179781611771565b92915050565b6000602082840312156117b3576117b26115a6565b5b60006117c184828501611788565b91505092915050565b6117d38161175f565b82525050565b60006020820190506117ee60008301846117ca565b92915050565b6000819050919050565b611807816117f4565b82525050565b600060208201905061182260008301846117fe565b92915050565b611831816117f4565b811461183c57600080fd5b50565b60008135905061184e81611828565b92915050565b60006020828403121561186a576118696115a6565b5b60006118788482850161183f565b91505092915050565b600060ff82169050919050565b61189781611881565b81146118a257600080fd5b50565b6000813590506118b48161188e565b92915050565b600080604083850312156118d1576118d06115a6565b5b60006118df85828601611788565b92505060206118f0858286016118a5565b9150509250929050565b600081519050919050565b600082825260208201905092915050565b60005b83811015611934578082015181840152602081019050611919565b83811115611943576000848401525b50505050565b6000611954826118fa565b61195e8185611905565b935061196e818560208601611916565b611977816115ba565b840191505092915050565b600060808201905061199760008301876117fe565b81810360208301526119a98186611949565b90506119b860408301856117ca565b81810360608301526119ca8184611949565b905095945050505050565b7f6665652069732072657175697265640000000000000000000000000000000000600082015250565b6000611a0b600f83611905565b9150611a16826119d5565b602082019050919050565b60006020820190508181036000830152611a3a816119fe565b9050919050565b600081905092915050565b50565b6000611a5c600083611a41565b9150611a6782611a4c565b600082019050919050565b6000611a7d82611a4f565b9150819050919050565b7f6661696c656420746f206465706f736974204554480000000000000000000000600082015250565b6000611abd601583611905565b9150611ac882611a87565b602082019050919050565b60006020820190508181036000830152611aec81611ab0565b9050919050565b6000819050919050565b6000819050919050565b6000611b22611b1d611b1884611af3565b611afd565b611881565b9050919050565b611b3281611b07565b82525050565b6000602082019050611b4d6000830184611b29565b92915050565b611b5c81611566565b8114611b6757600080fd5b50565b600081519050611b7981611b53565b92915050565b600060208284031215611b9557611b946115a6565b5b6000611ba384828501611b6a565b91505092915050565b60006040820190508181036000830152611bc68185611949565b9050611bd560208301846117ca565b9392505050565b7f4f522e20464545204d5553540000000000000000000000000000000000000000600082015250565b6000611c12600c83611905565b9150611c1d82611bdc565b602082019050919050565b60006020820190508181036000830152611c4181611c05565b9050919050565b7f53454e44204641494c4544000000000000000000000000000000000000000000600082015250565b6000611c7e600b83611905565b9150611c8982611c48565b602082019050919050565b60006020820190508181036000830152611cad81611c71565b9050919050565b600060039050919050565b600081905092915050565b6000819050919050565b611cdd81611881565b82525050565b6000611cef8383611cd4565b60208301905092915050565b6000602082019050919050565b611d1181611cb4565b611d1b8184611cbf565b9250611d2682611cca565b8060005b83811015611d57578151611d3e8782611ce3565b9650611d4983611cfb565b925050600181019050611d2a565b505050505050565b6000606082019050611d746000830184611d08565b92915050565b600081519050611d8981611828565b92915050565b600060208284031215611da557611da46115a6565b5b6000611db384828501611d7a565b91505092915050565b611dc581611881565b82525050565b6000604082019050611de06000830185611dbc565b611ded60208301846117fe565b9392505050565b6000604082019050611e0960008301856117ca565b611e166020830184611dbc565b9392505050565b6000611e30611e2b84611646565b61162b565b905082815260208101848484011115611e4c57611e4b6115b5565b5b611e57848285611916565b509392505050565b600082601f830112611e7457611e736115b0565b5b8151611e84848260208601611e1d565b91505092915050565b600081519050611e9c81611771565b92915050565b60008060008060808587031215611ebc57611ebb6115a6565b5b6000611eca87828801611d7a565b945050602085015167ffffffffffffffff811115611eeb57611eea6115ab565b5b611ef787828801611e5f565b9350506040611f0887828801611e8d565b925050606085015167ffffffffffffffff811115611f2957611f286115ab565b5b611f3587828801611e5f565b91505092959194509250565b7f6169726c696e6520616c72656164792072656769737465726564000000000000600082015250565b6000611f77601a83611905565b9150611f8282611f41565b602082019050919050565b60006020820190508181036000830152611fa681611f6a565b9050919050565b7f4e487b7100000000000000000000000000000000000000000000000000000000600052601260045260246000fd5b7f4e487b7100000000000000000000000000000000000000000000000000000000600052601160045260246000fd5b6000612016826117f4565b9150612021836117f4565b92508261203157612030611fad565b5b828204905092915050565b7f4e487b7100000000000000000000000000000000000000000000000000000000600052603260045260246000fd5b6000612076826117f4565b91507fffffffffffffffffffffffffffffffffffffffffffffffffffffffffffffffff8214156120a9576120a8611fdc565b5b600182019050919050565b7f63616c6c657220616c72656164792063616c6c6564207468652066756e63746960008201527f6f6e000000000000000000000000000000000000000000000000000000000000602082015250565b6000612110602283611905565b915061211b826120b4565b604082019050919050565b6000602082019050818103600083015261213f81612103565b9050919050565b600060208201905061215b6000830184611dbc565b92915050565b600061216c82611881565b915060ff8214156121805761217f611fdc565b5b600182019050919050565b6000612196826117f4565b91506121a1836117f4565b9250828210156121b4576121b3611fdc565b5b828203905092915050565b6000819050919050565b6000819050919050565b6121e46121df826121bf565b6121c9565b82525050565b60008160601b9050919050565b6000612202826121ea565b9050919050565b6000612214826121f7565b9050919050565b61222c6122278261175f565b612209565b82525050565b600061223e82856121d3565b60208201915061224e828461221b565b6014820191508190509392505050565b6000612269826117f4565b9150612274836117f4565b92508261228457612283611fad565b5b82820690509291505056fea26469706673582212209806d5e58c6f30eeac0895c82a779b61e60c91f044c7e1574c8c3827f2d0f4f364736f6c634300080a0033",
  "immutableReferences": {},
  "source": "// SPDX-License-Identifier: MIT\npragma solidity >=0.7.0 <0.9.0;\n\nimport '@openzeppelin/contracts/utils/math/SafeMath.sol';\n\n\ncontract FlightSuretyApp {\n  IFlightSuretyData iFlightSuretyData;\n  using SafeMath for uint256;\n    \n  address flightSuretyDataAddress;\n    \n  address public contractOwner;\n\n\n\n\n  uint256 public constant AIRLINE_FEE =  10 ether;\n    \n    \n  address[] minimumAirlines = new address[](0);\n  uint quorum;\n    \n  \n      \n\n\n    \n  /********************************************************************************************/\n  /*                                       FUNCTION MODIFIERS                                 */\n  /********************************************************************************************/\n  \n  modifier onlyAuthorizedAirlines(address _account) {\n    iFlightSuretyData.onlyAuthorizedAirlines(_account);\n    _;\n      \n  }\n  \n  modifier onlyRegistered() {\n    iFlightSuretyData.onlyRegisteredAirlines(msg.sender);\n    _;\n  }\n\n  \n  \n\n  /********************************************************************************************/\n  /*                                       EVENTS                                */\n  /********************************************************************************************/\n  \n  event LogRegisteredViaConsensus(address indexed callerAirline, address indexed registeredAirline, uint8 state);\n  event LogPayCommitment(address indexed airline, uint256 airlineFee);\n\n\n  /********************************************************************************************/\n  /*                                       CONSTRUCTOR                                        */\n  /********************************************************************************************/\n  constructor(address _flightSuretyDataAddress) {\n    contractOwner = msg.sender;\n    flightSuretyDataAddress = _flightSuretyDataAddress;\n    iFlightSuretyData = IFlightSuretyData(_flightSuretyDataAddress);\n    \n    startAirlineApplication('alpha');\n    registerAirline(contractOwner, 2);\n\n    // payCommitmentFee();\n  }\n\n    /********************************************************************************************/\n  /*                                       AIRLINE CORE FUNCTION                               */\n  /********************************************************************************************/\n    \n  function startAirlineApplication(string memory _name) public  {\n    iFlightSuretyData.createNewAirline(_name, msg.sender);\n      \n          \n  }\n\n  function registerAirline(address _account, uint8 _state) public {\n    iFlightSuretyData.updateAirlineStatus(_account, _state);\n    \n  }\n    \n    \n    \n  // register via consensus\n  function registerViaConsensus(address _account, uint8 _state) public  onlyRegistered {\n\n    require(iFlightSuretyData.isAirlineRegistered(_account) == false, 'airline already registered');\n    \n    uint regAirlines =  iFlightSuretyData.getTotalRegisteredAirlines();\n    quorum = regAirlines / 2;\n      \n      \n    bool isDuplicate = false;\n    \n    for(uint i = 0; i < minimumAirlines.length; i ++) {\n      if(minimumAirlines[i] == msg.sender) {\n        isDuplicate = true;\n        break;\n      }\n    }\n\n    require(!isDuplicate, 'caller already called the function');\n\n    minimumAirlines.push(msg.sender);\n    \n\n    if(minimumAirlines.length == quorum) {\n    iFlightSuretyData.enableOperationalStatus(true);\n      iFlightSuretyData.updateAirlineStatus(_account, _state);\n      minimumAirlines = new address[](0);\n      emit LogRegisteredViaConsensus(msg.sender, _account, _state);\n    }\n  }\n\n\n  // pay airline fee\n  function payCommitmentFee() public payable onlyRegistered {\n    require(msg.value == AIRLINE_FEE, 'fee is required');\n    (bool send, ) = flightSuretyDataAddress.call{value: msg.value}('');\n    require(send, 'failed to deposit ETH');\n    iFlightSuretyData.updateToCommitState(3);\n    emit LogPayCommitment(msg.sender, msg.value);\n  }\n\n\n  \n    \n   \n/********************************************************************************************/\n/*                                      AIRLINE UTILITY FUNCTIONS                                 */\n/********************************************************************************************/\n      \n  function getOwner() external view returns(address) {\n    return contractOwner;\n  }\n\n\n  \n  function airlineAuthorizationStatus(address _account)  public view returns(bool) {\n    return iFlightSuretyData.getAirlineAuthorizationStatus(_account);\n  }\n    \n      \n\n  function airlineDetails(address _account) public view returns(uint256 id, string memory name, address airlineAccount, string memory state) {\n    (id, name, airlineAccount, state) = iFlightSuretyData.getAirlineDetails(_account);\n    return (id, name, airlineAccount, state);\n  }\n\n  function isCallerAirlineRegistered() public view returns(bool) {\n    (bool status) = iFlightSuretyData.isAirlineRegistered(msg.sender);\n    return status;\n  }\n    \n    \n  function getTotalRegisteredAirlines() public view returns(uint256) {\n    return iFlightSuretyData.getTotalRegisteredAirlines();\n  }\n    \n  function getOperationalStatus() public view returns(bool) {\n    return iFlightSuretyData.getOperationalStatus();\n  }\n\n      \n  function getQuorum() public view returns(uint) {\n    return quorum;\n  }\n  \n  \n  \n  /*__________________________________FLIGHT_______________________________*/\n\n  /*                                       FLIGHT FUNCTIONS                        */\n  /********************************************************************************************/\n\n  function fetchFlightStatus(uint256 _flightID) public {\n    uint8 index = getRandomIndex(msg.sender);\n\n    iFlightSuretyData.fetchFlightStatus(index, _flightID);\n  }\n \n\n  /*__________________________________ORACLE_______________________________*/\n\n  /*                                       ORACLE VARIABLES                         */\n  /********************************************************************************************/\n  uint256 public constant ORACLE_REGISTRATION_FEE = 1 ether;\n  uint8 private nonce = 0;\n\n\n\n\n    /********************************************************************************************/\n  /*                                       ORACLE CORE FUNCTION                               */\n  /********************************************************************************************/\n  function payOracleRegFees() public payable {\n    require(msg.value == ORACLE_REGISTRATION_FEE, 'OR. FEE MUST');\n    (bool sent, ) = flightSuretyDataAddress.call{value: msg.value}('');\n    require(sent, 'SEND FAILED');\n    \n    uint8[3] memory indexes = generateIndexes(msg.sender);\n    iFlightSuretyData.registerOracle(indexes);\n  }\n\n\n  /********************************************************************************************/\n  /*                                      ORACLE UTILITY FUNCTIONS                           */\n  /******************************************************************************************/\n\n  function getRandomIndex(address _account) internal returns(uint8) {\n    uint8 maxValue = 10;\n    uint8 random  = uint8(uint256(keccak256(abi.encodePacked(blockhash(block.number - nonce++), _account))) % maxValue);\n\n    if(nonce > 250) {\n      nonce = 0;\n    }\n\n    return random;\n  }\n  \n  // Return non-duplicating integers\n  function generateIndexes(address _account) internal returns(uint8[3] memory) {\n    uint8[3] memory indexes;\n    indexes[0] = getRandomIndex(_account);\n\n\n    while(indexes[1] == indexes[0]) {\n      indexes[1] = getRandomIndex(_account);\n    }\n\n    while((indexes[2] == indexes[0]) || (indexes[2] == indexes[1])) {\n      indexes[2] =  getRandomIndex(_account);\n    }\n\n    return indexes;\n  }\n\n}\n\n      \n\n\n\n\n\n\ninterface IFlightSuretyData {\n\n  // airline functions\n  function createNewAirline(string memory _name, address _account) external;\n  function updateAirlineStatus(address _account, uint8 _state) external;\n  function onlyAuthorizedAirlines(address _account) external view;\n  function getAirlineAuthorizationStatus(address _account) external view returns(bool status);\n  function getAirlineDetails(address _account) external view returns(uint256 id, string memory name, address airlineAccount, string memory state);\n  function isAirlineRegistered(address _account) external view returns(bool);\n  function onlyRegisteredAirlines(address _account) external view;\n  function getTotalRegisteredAirlines() external view returns(uint256);\n  function enableOperationalStatus(bool _status) external;\n  function getOperationalStatus() external view  returns(bool);\n  function updateToCommitState(uint8 _state) external;\n  function isAirlineCommitted(address _account) external view returns(bool checkStatus);\n\n  // flight functions\n  function fetchFlightStatus(uint8 _index, uint256 _timestamp) external;\n\n\n  // oracle functions\n  function registerOracle(uint8[3] memory _indexes) external payable;\n\n}\n\n\n",
  "sourcePath": "/home/sprtd/Desktop/Udacity/lesson-5-flight-surety/flight-surety-project/contracts/FlightSuretyApp.sol",
  "compiler": {
    "name": "solc",
    "version": "0.8.10+commit.fc410830.Emscripten.clang"
  },
  "schemaVersion": "3.4.3",
  "updatedAt": "2021-11-12T13:14:38.027Z",
  "networkType": "ethereum",
  "devdoc": {
    "kind": "dev",
    "methods": {},
    "version": 1
  },
  "userdoc": {
    "kind": "user",
    "methods": {},
    "version": 1
  }
}