{
  "contractName": "FlightSuretyData",
  "abi": [
    {
      "inputs": [],
      "stateMutability": "nonpayable",
      "type": "constructor"
    },
    {
      "anonymous": false,
      "inputs": [
        {
          "indexed": true,
          "internalType": "address",
          "name": "account",
          "type": "address"
        },
        {
          "indexed": false,
          "internalType": "uint256",
          "name": "timestamp",
          "type": "uint256"
        },
        {
          "indexed": false,
          "internalType": "string",
          "name": "airlineStatus",
          "type": "string"
        }
      ],
      "name": "LogCreatedAirline",
      "type": "event"
    },
    {
      "anonymous": false,
      "inputs": [
        {
          "indexed": false,
          "internalType": "string",
          "name": "name",
          "type": "string"
        },
        {
          "indexed": false,
          "internalType": "bytes32",
          "name": "flightKey",
          "type": "bytes32"
        },
        {
          "indexed": true,
          "internalType": "address",
          "name": "airline",
          "type": "address"
        },
        {
          "indexed": false,
          "internalType": "uint256",
          "name": "timestamp",
          "type": "uint256"
        },
        {
          "indexed": false,
          "internalType": "uint8",
          "name": "statusCode",
          "type": "uint8"
        }
      ],
      "name": "LogFlightRegistered",
      "type": "event"
    },
    {
      "anonymous": false,
      "inputs": [
        {
          "indexed": false,
          "internalType": "uint256",
          "name": "flightId",
          "type": "uint256"
        },
        {
          "indexed": false,
          "internalType": "uint8",
          "name": "statusCode",
          "type": "uint8"
        }
      ],
      "name": "LogFlightStatusCodeChanged",
      "type": "event"
    },
    {
      "anonymous": false,
      "inputs": [
        {
          "indexed": false,
          "internalType": "address",
          "name": "airline",
          "type": "address"
        },
        {
          "indexed": false,
          "internalType": "string",
          "name": "flightName",
          "type": "string"
        },
        {
          "indexed": false,
          "internalType": "uint256",
          "name": "timestamp",
          "type": "uint256"
        },
        {
          "indexed": false,
          "internalType": "uint8",
          "name": "statusCode",
          "type": "uint8"
        }
      ],
      "name": "LogFlightStatusInfo",
      "type": "event"
    },
    {
      "anonymous": false,
      "inputs": [
        {
          "indexed": true,
          "internalType": "address",
          "name": "airline",
          "type": "address"
        },
        {
          "indexed": false,
          "internalType": "uint256",
          "name": "timestamp",
          "type": "uint256"
        },
        {
          "indexed": false,
          "internalType": "uint8",
          "name": "statusCode",
          "type": "uint8"
        }
      ],
      "name": "LogFlightStatusProcessed",
      "type": "event"
    },
    {
      "anonymous": false,
      "inputs": [
        {
          "indexed": true,
          "internalType": "address",
          "name": "oracle",
          "type": "address"
        },
        {
          "indexed": false,
          "internalType": "uint8[3]",
          "name": "indexes",
          "type": "uint8[3]"
        }
      ],
      "name": "LogOracleRegistered",
      "type": "event"
    },
    {
      "anonymous": false,
      "inputs": [
        {
          "indexed": false,
          "internalType": "address",
          "name": "airline",
          "type": "address"
        },
        {
          "indexed": false,
          "internalType": "uint256",
          "name": "timestamp",
          "type": "uint256"
        },
        {
          "indexed": false,
          "internalType": "uint8",
          "name": "status",
          "type": "uint8"
        }
      ],
      "name": "LogOracleReport",
      "type": "event"
    },
    {
      "anonymous": false,
      "inputs": [
        {
          "indexed": false,
          "internalType": "uint8",
          "name": "index",
          "type": "uint8"
        },
        {
          "indexed": false,
          "internalType": "address",
          "name": "airline",
          "type": "address"
        },
        {
          "indexed": false,
          "internalType": "string",
          "name": "flight",
          "type": "string"
        },
        {
          "indexed": false,
          "internalType": "uint256",
          "name": "timestamp",
          "type": "uint256"
        }
      ],
      "name": "LogOracleRequest",
      "type": "event"
    },
    {
      "anonymous": false,
      "inputs": [
        {
          "indexed": true,
          "internalType": "address",
          "name": "passenger",
          "type": "address"
        },
        {
          "indexed": false,
          "internalType": "uint256",
          "name": "amount",
          "type": "uint256"
        }
      ],
      "name": "LogPassengerCredited",
      "type": "event"
    },
    {
      "anonymous": false,
      "inputs": [
        {
          "indexed": true,
          "internalType": "address",
          "name": "passenger",
          "type": "address"
        },
        {
          "indexed": false,
          "internalType": "uint256",
          "name": "amount",
          "type": "uint256"
        }
      ],
      "name": "LogPassengerInsurance",
      "type": "event"
    },
    {
      "anonymous": false,
      "inputs": [
        {
          "indexed": true,
          "internalType": "address",
          "name": "account",
          "type": "address"
        },
        {
          "indexed": false,
          "internalType": "string",
          "name": "airlineStatus",
          "type": "string"
        }
      ],
      "name": "LogStatusUpdated",
      "type": "event"
    },
    {
      "anonymous": false,
      "inputs": [
        {
          "indexed": true,
          "internalType": "address",
          "name": "passenger",
          "type": "address"
        },
        {
          "indexed": false,
          "internalType": "uint256",
          "name": "withdrawAmount",
          "type": "uint256"
        },
        {
          "indexed": false,
          "internalType": "uint256",
          "name": "formPassengerBalance",
          "type": "uint256"
        }
      ],
      "name": "LogWithdrawPassengerInsurance",
      "type": "event"
    },
    {
      "inputs": [],
      "name": "PASSENGER_INSURANCE_FEE",
      "outputs": [
        {
          "internalType": "uint256",
          "name": "",
          "type": "uint256"
        }
      ],
      "stateMutability": "view",
      "type": "function",
      "constant": true
    },
    {
      "inputs": [],
      "name": "contractOwner",
      "outputs": [
        {
          "internalType": "address",
          "name": "",
          "type": "address"
        }
      ],
      "stateMutability": "view",
      "type": "function",
      "constant": true
    },
    {
      "inputs": [
        {
          "internalType": "string",
          "name": "_name",
          "type": "string"
        },
        {
          "internalType": "address",
          "name": "_account",
          "type": "address"
        }
      ],
      "name": "createNewAirline",
      "outputs": [],
      "stateMutability": "nonpayable",
      "type": "function"
    },
    {
      "inputs": [],
      "name": "disableOperational",
      "outputs": [],
      "stateMutability": "nonpayable",
      "type": "function"
    },
    {
      "inputs": [
        {
          "internalType": "bool",
          "name": "_status",
          "type": "bool"
        }
      ],
      "name": "enableOperationalStatus",
      "outputs": [],
      "stateMutability": "nonpayable",
      "type": "function"
    },
    {
      "inputs": [],
      "name": "flightCounter",
      "outputs": [
        {
          "internalType": "uint256",
          "name": "",
          "type": "uint256"
        }
      ],
      "stateMutability": "view",
      "type": "function",
      "constant": true
    },
    {
      "inputs": [
        {
          "internalType": "uint256",
          "name": "",
          "type": "uint256"
        }
      ],
      "name": "flightKeys",
      "outputs": [
        {
          "internalType": "bytes32",
          "name": "",
          "type": "bytes32"
        }
      ],
      "stateMutability": "view",
      "type": "function",
      "constant": true
    },
    {
      "inputs": [
        {
          "internalType": "address",
          "name": "_account",
          "type": "address"
        }
      ],
      "name": "getAirlineApplicationStatus",
      "outputs": [
        {
          "internalType": "string",
          "name": "status",
          "type": "string"
        }
      ],
      "stateMutability": "view",
      "type": "function",
      "constant": true
    },
    {
      "inputs": [
        {
          "internalType": "address",
          "name": "_account",
          "type": "address"
        }
      ],
      "name": "getAirlineAuthorizationStatus",
      "outputs": [
        {
          "internalType": "bool",
          "name": "status",
          "type": "bool"
        }
      ],
      "stateMutability": "view",
      "type": "function",
      "constant": true
    },
    {
      "inputs": [
        {
          "internalType": "address",
          "name": "_account",
          "type": "address"
        }
      ],
      "name": "getAirlineBalance",
      "outputs": [
        {
          "internalType": "uint256",
          "name": "",
          "type": "uint256"
        }
      ],
      "stateMutability": "view",
      "type": "function",
      "constant": true
    },
    {
      "inputs": [
        {
          "internalType": "address",
          "name": "_account",
          "type": "address"
        }
      ],
      "name": "getAirlineDetails",
      "outputs": [
        {
          "internalType": "uint256",
          "name": "id",
          "type": "uint256"
        },
        {
          "internalType": "string",
          "name": "name",
          "type": "string"
        },
        {
          "internalType": "address",
          "name": "airlineAccount",
          "type": "address"
        },
        {
          "internalType": "string",
          "name": "state",
          "type": "string"
        }
      ],
      "stateMutability": "view",
      "type": "function",
      "constant": true
    },
    {
      "inputs": [],
      "name": "getDataBalance",
      "outputs": [
        {
          "internalType": "uint256",
          "name": "",
          "type": "uint256"
        }
      ],
      "stateMutability": "view",
      "type": "function",
      "constant": true
    },
    {
      "inputs": [],
      "name": "getOperationalStatus",
      "outputs": [
        {
          "internalType": "bool",
          "name": "",
          "type": "bool"
        }
      ],
      "stateMutability": "view",
      "type": "function",
      "constant": true
    },
    {
      "inputs": [],
      "name": "getOwner",
      "outputs": [
        {
          "internalType": "address",
          "name": "",
          "type": "address"
        }
      ],
      "stateMutability": "view",
      "type": "function",
      "constant": true
    },
    {
      "inputs": [],
      "name": "getTotalAppliedAirlines",
      "outputs": [
        {
          "internalType": "uint256",
          "name": "",
          "type": "uint256"
        }
      ],
      "stateMutability": "view",
      "type": "function",
      "constant": true
    },
    {
      "inputs": [],
      "name": "getTotalRegisteredAirlines",
      "outputs": [
        {
          "internalType": "uint256",
          "name": "",
          "type": "uint256"
        }
      ],
      "stateMutability": "view",
      "type": "function",
      "constant": true
    },
    {
      "inputs": [
        {
          "internalType": "address",
          "name": "_account",
          "type": "address"
        }
      ],
      "name": "isAirlineCommitted",
      "outputs": [
        {
          "internalType": "bool",
          "name": "checkStatus",
          "type": "bool"
        }
      ],
      "stateMutability": "view",
      "type": "function",
      "constant": true
    },
    {
      "inputs": [
        {
          "internalType": "address",
          "name": "_account",
          "type": "address"
        }
      ],
      "name": "isAirlineRegistered",
      "outputs": [
        {
          "internalType": "bool",
          "name": "checkStatus",
          "type": "bool"
        }
      ],
      "stateMutability": "view",
      "type": "function",
      "constant": true
    },
    {
      "inputs": [
        {
          "internalType": "address",
          "name": "_account",
          "type": "address"
        }
      ],
      "name": "onlyAuthorizeRegistrants",
      "outputs": [],
      "stateMutability": "view",
      "type": "function",
      "constant": true
    },
    {
      "inputs": [
        {
          "internalType": "address",
          "name": "_account",
          "type": "address"
        }
      ],
      "name": "onlyAuthorizedAirlines",
      "outputs": [],
      "stateMutability": "view",
      "type": "function",
      "constant": true
    },
    {
      "inputs": [
        {
          "internalType": "address",
          "name": "_account",
          "type": "address"
        }
      ],
      "name": "onlyRegisteredAirlines",
      "outputs": [],
      "stateMutability": "view",
      "type": "function",
      "constant": true
    },
    {
      "inputs": [
        {
          "internalType": "uint256",
          "name": "",
          "type": "uint256"
        }
      ],
      "name": "passengerIdToAddress",
      "outputs": [
        {
          "internalType": "address",
          "name": "",
          "type": "address"
        }
      ],
      "stateMutability": "view",
      "type": "function",
      "constant": true
    },
    {
      "inputs": [
        {
          "internalType": "address",
          "name": "",
          "type": "address"
        }
      ],
      "name": "passengersBalances",
      "outputs": [
        {
          "internalType": "uint256",
          "name": "",
          "type": "uint256"
        }
      ],
      "stateMutability": "view",
      "type": "function",
      "constant": true
    },
    {
      "inputs": [
        {
          "internalType": "bool",
          "name": "_status",
          "type": "bool"
        }
      ],
      "name": "setOperatinalStatus",
      "outputs": [],
      "stateMutability": "nonpayable",
      "type": "function"
    },
    {
      "inputs": [
        {
          "internalType": "address",
          "name": "_account",
          "type": "address"
        },
        {
          "internalType": "uint8",
          "name": "_state",
          "type": "uint8"
        }
      ],
      "name": "updateAirlineStatus",
      "outputs": [],
      "stateMutability": "nonpayable",
      "type": "function"
    },
    {
      "inputs": [
        {
          "internalType": "uint8",
          "name": "_state",
          "type": "uint8"
        }
      ],
      "name": "updateToCommitState",
      "outputs": [],
      "stateMutability": "payable",
      "type": "function",
      "payable": true
    },
    {
      "stateMutability": "payable",
      "type": "receive",
      "payable": true
    },
    {
      "inputs": [],
      "name": "checkAirlineCommitmentStatus",
      "outputs": [],
      "stateMutability": "view",
      "type": "function",
      "constant": true
    },
    {
      "inputs": [
        {
          "internalType": "uint8",
          "name": "_statusCode",
          "type": "uint8"
        }
      ],
      "name": "registerFlight",
      "outputs": [],
      "stateMutability": "nonpayable",
      "type": "function"
    },
    {
      "inputs": [
        {
          "internalType": "uint8",
          "name": "_index",
          "type": "uint8"
        },
        {
          "internalType": "uint256",
          "name": "_flightId",
          "type": "uint256"
        }
      ],
      "name": "fetchFlightStatus",
      "outputs": [],
      "stateMutability": "nonpayable",
      "type": "function"
    },
    {
      "inputs": [
        {
          "internalType": "uint256",
          "name": "_flightId",
          "type": "uint256"
        }
      ],
      "name": "getFlightDetails",
      "outputs": [
        {
          "internalType": "uint256",
          "name": "id",
          "type": "uint256"
        },
        {
          "internalType": "address",
          "name": "airline",
          "type": "address"
        },
        {
          "internalType": "string",
          "name": "flightName",
          "type": "string"
        },
        {
          "internalType": "uint8",
          "name": "statusCode",
          "type": "uint8"
        },
        {
          "internalType": "bytes32",
          "name": "flightKey",
          "type": "bytes32"
        },
        {
          "internalType": "uint256",
          "name": "timestamp",
          "type": "uint256"
        }
      ],
      "stateMutability": "view",
      "type": "function",
      "constant": true
    },
    {
      "inputs": [
        {
          "internalType": "address",
          "name": "_airline",
          "type": "address"
        },
        {
          "internalType": "uint256",
          "name": "_timestamp",
          "type": "uint256"
        }
      ],
      "name": "generateFlightKey",
      "outputs": [
        {
          "internalType": "bytes32",
          "name": "",
          "type": "bytes32"
        }
      ],
      "stateMutability": "pure",
      "type": "function",
      "constant": true
    },
    {
      "inputs": [
        {
          "internalType": "uint8[3]",
          "name": "_indexes",
          "type": "uint8[3]"
        }
      ],
      "name": "registerOracle",
      "outputs": [],
      "stateMutability": "payable",
      "type": "function",
      "payable": true
    },
    {
      "inputs": [
        {
          "internalType": "uint8",
          "name": "_index",
          "type": "uint8"
        },
        {
          "internalType": "address",
          "name": "_airline",
          "type": "address"
        },
        {
          "internalType": "string",
          "name": "_flightName",
          "type": "string"
        },
        {
          "internalType": "uint256",
          "name": "_timestamp",
          "type": "uint256"
        },
        {
          "internalType": "uint8",
          "name": "_statusCode",
          "type": "uint8"
        }
      ],
      "name": "submitOracleResponse",
      "outputs": [],
      "stateMutability": "nonpayable",
      "type": "function"
    },
    {
      "inputs": [],
      "name": "getOracleIndexes",
      "outputs": [
        {
          "internalType": "uint8[3]",
          "name": "",
          "type": "uint8[3]"
        }
      ],
      "stateMutability": "view",
      "type": "function",
      "constant": true
    },
    {
      "inputs": [
        {
          "internalType": "address",
          "name": "_account",
          "type": "address"
        }
      ],
      "name": "isOracleRegistered",
      "outputs": [
        {
          "internalType": "bool",
          "name": "",
          "type": "bool"
        }
      ],
      "stateMutability": "view",
      "type": "function",
      "constant": true
    },
    {
      "inputs": [
        {
          "internalType": "uint256",
          "name": "_flightId",
          "type": "uint256"
        }
      ],
      "name": "payInsurance",
      "outputs": [],
      "stateMutability": "payable",
      "type": "function",
      "payable": true
    },
    {
      "inputs": [
        {
          "internalType": "uint256",
          "name": "_flightId",
          "type": "uint256"
        }
      ],
      "name": "claimPassengerInsurance",
      "outputs": [],
      "stateMutability": "nonpayable",
      "type": "function"
    },
    {
      "inputs": [
        {
          "internalType": "uint256",
          "name": "_flightId",
          "type": "uint256"
        }
      ],
      "name": "changeFlightStatusCode",
      "outputs": [],
      "stateMutability": "nonpayable",
      "type": "function"
    },
    {
      "inputs": [],
      "name": "withdrawPassengerBalance",
      "outputs": [],
      "stateMutability": "nonpayable",
      "type": "function"
    },
    {
      "inputs": [
        {
          "internalType": "address",
          "name": "_account",
          "type": "address"
        }
      ],
      "name": "getPassengerDetails",
      "outputs": [
        {
          "internalType": "uint256",
          "name": "id",
          "type": "uint256"
        },
        {
          "internalType": "address",
          "name": "flightAddress",
          "type": "address"
        },
        {
          "internalType": "string",
          "name": "flightName",
          "type": "string"
        },
        {
          "internalType": "address",
          "name": "passenger",
          "type": "address"
        },
        {
          "internalType": "string",
          "name": "state",
          "type": "string"
        },
        {
          "internalType": "uint256",
          "name": "amount",
          "type": "uint256"
        },
        {
          "internalType": "uint256",
          "name": "refundAmount",
          "type": "uint256"
        }
      ],
      "stateMutability": "view",
      "type": "function",
      "constant": true
    },
    {
      "inputs": [
        {
          "internalType": "address",
          "name": "_account",
          "type": "address"
        }
      ],
      "name": "getPassengerBalance",
      "outputs": [
        {
          "internalType": "uint256",
          "name": "",
          "type": "uint256"
        }
      ],
      "stateMutability": "view",
      "type": "function",
      "constant": true
    },
    {
      "inputs": [],
      "name": "isPassengerAuthorizedToWithdraw",
      "outputs": [],
      "stateMutability": "view",
      "type": "function",
      "constant": true
    },
    {
      "inputs": [],
      "name": "emergencyWithdraw",
      "outputs": [],
      "stateMutability": "payable",
      "type": "function",
      "payable": true
    }
  ],
  "bytecode": "0x608060405260006006556000600e5534801561001a57600080fd5b5033600160006101000a81548173ffffffffffffffffffffffffffffffffffffffff021916908373ffffffffffffffffffffffffffffffffffffffff16021790555060018060146101000a81548160ff02191690831515021790555033600560006101000a81548173ffffffffffffffffffffffffffffffffffffffff021916908373ffffffffffffffffffffffffffffffffffffffff160217905550615f9c80620000c76000396000f3fe6080604052600436106102605760003560e01c806384356a4b11610144578063c92be033116100b6578063db2e21bc1161007a578063db2e21bc14610916578063e0313fe614610920578063e2abf4311461094b578063efa3327b14610974578063efbd588e1461099f578063f243be18146109e257610267565b8063c92be03314610845578063c968089e1461085c578063ce606ee014610885578063d1fc5c51146108b0578063d539e7ef146108d957610267565b8063aee1b2a111610108578063aee1b2a114610737578063b10f057b14610762578063b9b55c9a1461078b578063bf0a4f32146107c8578063c10f2700146107f1578063c36515b61461081a57610267565b806384356a4b1461066457806389208e721461068d578063893d20e8146106ca578063994de453146106f5578063a601f2a81461072057610267565b80633d21d827116101dd5780635addd35a116101a15780635addd35a1461053257806360c36c9e1461055b57806369beb8fb146105985780637008414d146105d55780638042601f146105fe578063837ee7551461063b57610267565b80633d21d827146104595780634b5c9d53146104965780634e088046146104bf578063508e264e146104ff5780635a0f3b221461051b57610267565b8063185350081161022457806318535008146103445780633063b87a146103865780633214e52b146103c357806336061cca14610400578063385de7871461041c57610267565b8063010c5c971461026c5780630b2653d5146102a95780630c982673146102d25780630cfc7e44146102fd578063175a2ead1461031957610267565b3661026757005b600080fd5b34801561027857600080fd5b50610293600480360381019061028e9190614371565b6109f9565b6040516102a091906143b9565b60405180910390f35b3480156102b557600080fd5b506102d060048036038101906102cb919061451a565b610a80565b005b3480156102de57600080fd5b506102e7610d61565b6040516102f491906143b9565b60405180910390f35b61031760048036038101906103129190614665565b610d78565b005b34801561032557600080fd5b5061032e610f2e565b60405161033b919061473d565b60405180910390f35b34801561035057600080fd5b5061036b6004803603810190610366919061478e565b61106e565b60405161037d96959493929190614889565b60405180910390f35b34801561039257600080fd5b506103ad60048036038101906103a89190614371565b611235565b6040516103ba91906143b9565b60405180910390f35b3480156103cf57600080fd5b506103ea60048036038101906103e59190614371565b6112bc565b6040516103f791906148f1565b60405180910390f35b61041a6004803603810190610415919061490c565b6112d4565b005b34801561042857600080fd5b50610443600480360381019061043e9190614371565b61157f565b60405161045091906148f1565b60405180910390f35b34801561046557600080fd5b50610480600480360381019061047b919061478e565b6115cb565b60405161048d9190614939565b60405180910390f35b3480156104a257600080fd5b506104bd60048036038101906104b89190614954565b6115e3565b005b3480156104cb57600080fd5b506104e660048036038101906104e19190614371565b61174c565b6040516104f69493929190614994565b60405180910390f35b6105196004803603810190610514919061478e565b611a5c565b005b34801561052757600080fd5b506105306120a5565b005b34801561053e57600080fd5b5061055960048036038101906105549190614371565b612388565b005b34801561056757600080fd5b50610582600480360381019061057d919061478e565b612441565b60405161058f91906149e7565b60405180910390f35b3480156105a457600080fd5b506105bf60048036038101906105ba9190614371565b612474565b6040516105cc9190614a02565b60405180910390f35b3480156105e157600080fd5b506105fc60048036038101906105f79190614a50565b612507565b005b34801561060a57600080fd5b5061062560048036038101906106209190614371565b6125e5565b60405161063291906143b9565b60405180910390f35b34801561064757600080fd5b50610662600480360381019061065d9190614371565b6126fb565b005b34801561067057600080fd5b5061068b6004803603810190610686919061478e565b61288a565b005b34801561069957600080fd5b506106b460048036038101906106af9190614371565b612c0b565b6040516106c191906148f1565b60405180910390f35b3480156106d657600080fd5b506106df612c2c565b6040516106ec91906149e7565b60405180910390f35b34801561070157600080fd5b5061070a612c56565b60405161071791906148f1565b60405180910390f35b34801561072c57600080fd5b50610735612c60565b005b34801561074357600080fd5b5061074c612d28565b60405161075991906148f1565b60405180910390f35b34801561076e57600080fd5b5061078960048036038101906107849190614a7d565b612d2e565b005b34801561079757600080fd5b506107b260048036038101906107ad9190614371565b6130c6565b6040516107bf91906143b9565b60405180910390f35b3480156107d457600080fd5b506107ef60048036038101906107ea9190614371565b61311f565b005b3480156107fd57600080fd5b5061081860048036038101906108139190614abd565b613230565b005b34801561082657600080fd5b5061082f613586565b60405161083c91906148f1565b60405180910390f35b34801561085157600080fd5b5061085a613592565b005b34801561086857600080fd5b50610883600480360381019061087e9190614a50565b61364a565b005b34801561089157600080fd5b5061089a6136c5565b6040516108a791906149e7565b60405180910390f35b3480156108bc57600080fd5b506108d760048036038101906108d2919061490c565b6136eb565b005b3480156108e557600080fd5b5061090060048036038101906108fb9190614b54565b61391a565b60405161090d9190614939565b60405180910390f35b61091e61394d565b005b34801561092c57600080fd5b50610935613ac1565b60405161094291906148f1565b60405180910390f35b34801561095757600080fd5b50610972600480360381019061096d919061478e565b613ac9565b005b34801561098057600080fd5b50610989613c77565b60405161099691906148f1565b60405180910390f35b3480156109ab57600080fd5b506109c660048036038101906109c19190614371565b613c80565b6040516109d99796959493929190614b94565b60405180910390f35b3480156109ee57600080fd5b506109f761403d565b005b600080600360008473ffffffffffffffffffffffffffffffffffffffff1673ffffffffffffffffffffffffffffffffffffffff16815260200190815260200160002060020160009054906101000a900460ff166003811115610a5e57610a5d614c11565b5b905060028160ff161415610a755760019150610a7a565b600091505b50919050565b60006003811115610a9457610a93614c11565b5b600360008373ffffffffffffffffffffffffffffffffffffffff1673ffffffffffffffffffffffffffffffffffffffff16815260200190815260200160002060020160009054906101000a900460ff166003811115610af657610af5614c11565b5b14610b36576040517f08c379a0000000000000000000000000000000000000000000000000000000008152600401610b2d90614c8c565b60405180910390fd5b610b4c600160005461406590919063ffffffff16565b6000819055506040518060800160405280600054815260200183815260200160016003811115610b7f57610b7e614c11565b5b81526020018273ffffffffffffffffffffffffffffffffffffffff16815250600360008373ffffffffffffffffffffffffffffffffffffffff1673ffffffffffffffffffffffffffffffffffffffff168152602001908152602001600020600082015181600001556020820151816001019080519060200190610c039291906141a0565b5060408201518160020160006101000a81548160ff02191690836003811115610c2f57610c2e614c11565b5b021790555060608201518160020160016101000a81548173ffffffffffffffffffffffffffffffffffffffff021916908373ffffffffffffffffffffffffffffffffffffffff16021790555090505060603073ffffffffffffffffffffffffffffffffffffffff16634e088046836040518263ffffffff1660e01b8152600401610cb991906149e7565b600060405180830381865afa158015610cd6573d6000803e3d6000fd5b505050506040513d6000823e3d601f19601f82011682018060405250810190610cff9190614d46565b909192509091509050809150503373ffffffffffffffffffffffffffffffffffffffff167fce1dee3a3a541bee70a1b6baacdea5a02354238bbbeac531a8ddaceaa2a37aff4283604051610d54929190614de5565b60405180910390a2505050565b6000600160149054906101000a900460ff16905090565b600960003273ffffffffffffffffffffffffffffffffffffffff1673ffffffffffffffffffffffffffffffffffffffff16815260200190815260200160002060000160009054906101000a900460ff1615610e08576040517f08c379a0000000000000000000000000000000000000000000000000000000008152600401610dff90614e61565b60405180910390fd5b60038014610e4b576040517f08c379a0000000000000000000000000000000000000000000000000000000008152600401610e4290614ecd565b60405180910390fd5b604051806040016040528060011515815260200182815250600960003273ffffffffffffffffffffffffffffffffffffffff1673ffffffffffffffffffffffffffffffffffffffff16815260200190815260200160002060008201518160000160006101000a81548160ff021916908315150217905550602082015181600101906003610ed9929190614226565b509050503273ffffffffffffffffffffffffffffffffffffffff167fa10fa10a754470eaad1afcf8585e85a652d3ffe39b983f72eca381a6b122f17d82604051610f23919061473d565b60405180910390a250565b610f366142c0565b600960003373ffffffffffffffffffffffffffffffffffffffff1673ffffffffffffffffffffffffffffffffffffffff16815260200190815260200160002060000160009054906101000a900460ff16610fc5576040517f08c379a0000000000000000000000000000000000000000000000000000000008152600401610fbc90614f39565b60405180910390fd5b600960003373ffffffffffffffffffffffffffffffffffffffff1673ffffffffffffffffffffffffffffffffffffffff168152602001908152602001600020600101600380602002604051908101604052809291908260038015611064576020028201916000905b82829054906101000a900460ff1660ff168152602001906001019060208260000104928301926001038202915080841161102d5790505b5050505050905090565b60008060606000806000808714158061108957506006548711155b6110c8576040517f08c379a00000000000000000000000000000000000000000000000000000000081526004016110bf90614fa5565b60405180910390fd5b600060086000898152602001908152602001600020549050600760008281526020019081526020016000206000015496506007600082815260200190815260200160002060010160009054906101000a900473ffffffffffffffffffffffffffffffffffffffff16955060076000828152602001908152602001600020600201805461115390614ff4565b80601f016020809104026020016040519081016040528092919081815260200182805461117f90614ff4565b80156111cc5780601f106111a1576101008083540402835291602001916111cc565b820191906000526020600020905b8154815290600101906020018083116111af57829003601f168201915b505050505094506007600082815260200190815260200160002060030160009054906101000a900460ff16935060076000828152602001908152602001600020600401549250600760008281526020019081526020016000206005015491505091939550919395565b600080600360008473ffffffffffffffffffffffffffffffffffffffff1673ffffffffffffffffffffffffffffffffffffffff16815260200190815260200160002060020160009054906101000a900460ff16600381111561129a57611299614c11565b5b905060038160ff1614156112b157600191506112b6565b600091505b50919050565b600d6020528060005260406000206000915090505481565b323073ffffffffffffffffffffffffffffffffffffffff1663bf0a4f32826040518263ffffffff1660e01b815260040161130e91906149e7565b60006040518083038186803b15801561132657600080fd5b505afa15801561133a573d6000803e3d6000fd5b505050506000600360003273ffffffffffffffffffffffffffffffffffffffff1673ffffffffffffffffffffffffffffffffffffffff16815260200190815260200160002060020160009054906101000a900460ff1660038111156113a2576113a1614c11565b5b905060038360ff1611156113eb576040517f08c379a00000000000000000000000000000000000000000000000000000000081526004016113e290615072565b60405180910390fd5b8060ff168360ff1611611433576040517f08c379a000000000000000000000000000000000000000000000000000000000815260040161142a90615104565b60405180910390fd5b60038060003273ffffffffffffffffffffffffffffffffffffffff1673ffffffffffffffffffffffffffffffffffffffff16815260200190815260200160002060020160006101000a81548160ff0219169083600381111561149857611497614c11565b5b021790555060603073ffffffffffffffffffffffffffffffffffffffff16634e088046326040518263ffffffff1660e01b81526004016114d891906149e7565b600060405180830381865afa1580156114f5573d6000803e3d6000fd5b505050506040513d6000823e3d601f19601f8201168201806040525081019061151e9190614d46565b909192509091509050809150503273ffffffffffffffffffffffffffffffffffffffff167f430b758c1e0fe319aaa192e7d56d4f39ae97698a3a489e48954ea3ce634c26e1826040516115719190614a02565b60405180910390a250505050565b6000600b60008373ffffffffffffffffffffffffffffffffffffffff1673ffffffffffffffffffffffffffffffffffffffff168152602001908152602001600020600401549050919050565b60086020528060005260406000206000915090505481565b6000806000806115f28561106e565b9550955050945094505081600860008781526020019081526020016000205414611651576040517f08c379a000000000000000000000000000000000000000000000000000000000815260040161164890615170565b60405180910390fd5b60008685858460405160200161166a949392919061526b565b60405160208183030381529060405280519060200120905032600a600083815260200190815260200160002060000160006101000a81548173ffffffffffffffffffffffffffffffffffffffff021916908373ffffffffffffffffffffffffffffffffffffffff1602179055506001600a600083815260200190815260200160002060000160146101000a81548160ff0219169083151502179055507f3a0e43c5577f0995b7cca5df8615d0aa2a07d84830fec6f0f8d1103d74ab584e8786868560405161173b94939291906152b5565b60405180910390a150505050505050565b60006060600060606000600360008773ffffffffffffffffffffffffffffffffffffffff1673ffffffffffffffffffffffffffffffffffffffff16815260200190815260200160002060020160009054906101000a900460ff1660038111156117b8576117b7614c11565b5b905060008160ff161415611803576040518060400160405280600a81526020017f556e61737369676e65640000000000000000000000000000000000000000000081525091506118dd565b60018160ff16141561184c576040518060400160405280600781526020017f4170706c6965640000000000000000000000000000000000000000000000000081525091506118dc565b60028160ff161415611895576040518060400160405280600a81526020017f526567697374657265640000000000000000000000000000000000000000000081525091506118db565b60038160ff1614156118da576040518060400160405280600981526020017f436f6d6d6974746564000000000000000000000000000000000000000000000081525091505b5b5b5b600360008773ffffffffffffffffffffffffffffffffffffffff1673ffffffffffffffffffffffffffffffffffffffff168152602001908152602001600020600001549450600360008773ffffffffffffffffffffffffffffffffffffffff1673ffffffffffffffffffffffffffffffffffffffff168152602001908152602001600020600101805461196f90614ff4565b80601f016020809104026020016040519081016040528092919081815260200182805461199b90614ff4565b80156119e85780601f106119bd576101008083540402835291602001916119e8565b820191906000526020600020905b8154815290600101906020018083116119cb57829003601f168201915b50505050509350600360008773ffffffffffffffffffffffffffffffffffffffff1673ffffffffffffffffffffffffffffffffffffffff16815260200190815260200160002060020160019054906101000a900473ffffffffffffffffffffffffffffffffffffffff169250509193509193565b670de0b6b3a76400003414611aa6576040517f08c379a0000000000000000000000000000000000000000000000000000000008152600401611a9d9061534d565b60405180910390fd5b600081141580611ab857506006548111155b611af7576040517f08c379a0000000000000000000000000000000000000000000000000000000008152600401611aee906153b9565b60405180910390fd5b60006008600083815260200190815260200160002054905060076000828152602001908152602001600020600001548214611b67576040517f08c379a0000000000000000000000000000000000000000000000000000000008152600401611b5e90615425565b60405180910390fd5b60006002811115611b7b57611b7a614c11565b5b600b60003273ffffffffffffffffffffffffffffffffffffffff1673ffffffffffffffffffffffffffffffffffffffff16815260200190815260200160002060050160009054906101000a900460ff166002811115611bdd57611bdc614c11565b5b14611c1d576040517f08c379a0000000000000000000000000000000000000000000000000000000008152600401611c1490615491565b60405180910390fd5b60008060003073ffffffffffffffffffffffffffffffffffffffff16634e0880466007600087815260200190815260200160002060010160009054906101000a900473ffffffffffffffffffffffffffffffffffffffff166040518263ffffffff1660e01b8152600401611c9191906149e7565b600060405180830381865afa158015611cae573d6000803e3d6000fd5b505050506040513d6000823e3d601f19601f82011682018060405250810190611cd79190614d46565b5092509250925060003073ffffffffffffffffffffffffffffffffffffffff1634604051611d04906154e2565b60006040518083038185875af1925050503d8060008114611d41576040519150601f19603f3d011682016040523d82523d6000602084013e611d46565b606091505b5050905080611d8a576040517f08c379a0000000000000000000000000000000000000000000000000000000008152600401611d8190615543565b60405180910390fd5b34600d60003273ffffffffffffffffffffffffffffffffffffffff1673ffffffffffffffffffffffffffffffffffffffff168152602001908152602001600020819055506040518060e001604052808581526020018373ffffffffffffffffffffffffffffffffffffffff1681526020013373ffffffffffffffffffffffffffffffffffffffff168152602001848152602001600d60003273ffffffffffffffffffffffffffffffffffffffff1673ffffffffffffffffffffffffffffffffffffffff16815260200190815260200160002054815260200160016002811115611e7657611e75614c11565b5b81526020016000815250600b60003273ffffffffffffffffffffffffffffffffffffffff1673ffffffffffffffffffffffffffffffffffffffff1681526020019081526020016000206000820151816000015560208201518160010160006101000a81548173ffffffffffffffffffffffffffffffffffffffff021916908373ffffffffffffffffffffffffffffffffffffffff16021790555060408201518160020160006101000a81548173ffffffffffffffffffffffffffffffffffffffff021916908373ffffffffffffffffffffffffffffffffffffffff1602179055506060820151816003019080519060200190611f739291906141a0565b506080820151816004015560a08201518160050160006101000a81548160ff02191690836002811115611fa957611fa8614c11565b5b021790555060c0820151816006015590505032600c600088815260200190815260200160002060006101000a81548173ffffffffffffffffffffffffffffffffffffffff021916908373ffffffffffffffffffffffffffffffffffffffff1602179055503373ffffffffffffffffffffffffffffffffffffffff167fd7973fc11875159721f15bfe308594241b8801c905a8745183c4557e8ce879fb600b60003373ffffffffffffffffffffffffffffffffffffffff1673ffffffffffffffffffffffffffffffffffffffff1681526020019081526020016000206004015460405161209591906148f1565b60405180910390a2505050505050565b6120ad613592565b3273ffffffffffffffffffffffffffffffffffffffff163373ffffffffffffffffffffffffffffffffffffffff16146120e557600080fd5b6714d1120d7b160000600d60003373ffffffffffffffffffffffffffffffffffffffff1673ffffffffffffffffffffffffffffffffffffffff168152602001908152602001600020541461213857600080fd5b60028081111561214b5761214a614c11565b5b600b60003373ffffffffffffffffffffffffffffffffffffffff1673ffffffffffffffffffffffffffffffffffffffff16815260200190815260200160002060050160009054906101000a900460ff1660028111156121ad576121ac614c11565b5b50506000600d60003373ffffffffffffffffffffffffffffffffffffffff1673ffffffffffffffffffffffffffffffffffffffff16815260200190815260200160002054905080600d60003373ffffffffffffffffffffffffffffffffffffffff1673ffffffffffffffffffffffffffffffffffffffff16815260200190815260200160002060008282546122429190615592565b9250508190555060003373ffffffffffffffffffffffffffffffffffffffff168260405161226f906154e2565b60006040518083038185875af1925050503d80600081146122ac576040519150601f19603f3d011682016040523d82523d6000602084013e6122b1565b606091505b50509050806122f5576040517f08c379a00000000000000000000000000000000000000000000000000000000081526004016122ec90615612565b60405180910390fd5b3373ffffffffffffffffffffffffffffffffffffffff167f43f8d23aed035f7b5f4ac8c65f5a05b8632dec0fda71f386e7da67fd27a3d35583600d60003373ffffffffffffffffffffffffffffffffffffffff1673ffffffffffffffffffffffffffffffffffffffff1681526020019081526020016000205460405161237c929190615632565b60405180910390a25050565b6002600381111561239c5761239b614c11565b5b600360008373ffffffffffffffffffffffffffffffffffffffff1673ffffffffffffffffffffffffffffffffffffffff16815260200190815260200160002060020160009054906101000a900460ff1660038111156123fe576123fd614c11565b5b1461243e576040517f08c379a0000000000000000000000000000000000000000000000000000000008152600401612435906156a7565b60405180910390fd5b50565b600c6020528060005260406000206000915054906101000a900473ffffffffffffffffffffffffffffffffffffffff1681565b60603073ffffffffffffffffffffffffffffffffffffffff16634e088046836040518263ffffffff1660e01b81526004016124af91906149e7565b600060405180830381865afa1580156124cc573d6000803e3d6000fd5b505050506040513d6000823e3d601f19601f820116820180604052508101906124f59190614d46565b90919250909150905080915050919050565b323073ffffffffffffffffffffffffffffffffffffffff16635addd35a826040518263ffffffff1660e01b815260040161254191906149e7565b60006040518083038186803b15801561255957600080fd5b505afa15801561256d573d6000803e3d6000fd5b50505050811515600160149054906101000a900460ff16151514156125c7576040517f08c379a00000000000000000000000000000000000000000000000000000000081526004016125be90615713565b60405180910390fd5b81600160146101000a81548160ff0219169083151502179055505050565b6000600160038111156125fb576125fa614c11565b5b600360008473ffffffffffffffffffffffffffffffffffffffff1673ffffffffffffffffffffffffffffffffffffffff16815260200190815260200160002060020160009054906101000a900460ff16600381111561265d5761265c614c11565b5b141561266c57600190506126f6565b600260038111156126805761267f614c11565b5b600360008473ffffffffffffffffffffffffffffffffffffffff1673ffffffffffffffffffffffffffffffffffffffff16815260200190815260200160002060020160009054906101000a900460ff1660038111156126e2576126e1614c11565b5b14156126f157600190506126f6565b600090505b919050565b600160009054906101000a900473ffffffffffffffffffffffffffffffffffffffff1673ffffffffffffffffffffffffffffffffffffffff168173ffffffffffffffffffffffffffffffffffffffff1614806127ca57506001600381111561276657612765614c11565b5b600360008373ffffffffffffffffffffffffffffffffffffffff1673ffffffffffffffffffffffffffffffffffffffff16815260200190815260200160002060020160009054906101000a900460ff1660038111156127c8576127c7614c11565b5b145b806128485750600260038111156127e4576127e3614c11565b5b600360008373ffffffffffffffffffffffffffffffffffffffff1673ffffffffffffffffffffffffffffffffffffffff16815260200190815260200160002060020160009054906101000a900460ff16600381111561284657612845614c11565b5b145b612887576040517f08c379a000000000000000000000000000000000000000000000000000000000815260040161287e9061577f565b60405180910390fd5b50565b60008114158061289c57506006548111155b6128db576040517f08c379a00000000000000000000000000000000000000000000000000000000081526004016128d290614fa5565b60405180910390fd5b60006128e68261106e565b509450505050506000600860008481526020019081526020016000205490506007600082815260200190815260200160002060000154831461295d576040517f08c379a0000000000000000000000000000000000000000000000000000000008152600401612954906157eb565b60405180910390fd5b6001600281111561297157612970614c11565b5b600b60003373ffffffffffffffffffffffffffffffffffffffff1673ffffffffffffffffffffffffffffffffffffffff16815260200190815260200160002060050160009054906101000a900460ff1660028111156129d3576129d2614c11565b5b146129dd57600080fd5b60146007600084815260200190815260200160002060030160009054906101000a900460ff1660ff1614612a46576040517f08c379a0000000000000000000000000000000000000000000000000000000008152600401612a3d90615857565b60405180910390fd5b6000600d60003373ffffffffffffffffffffffffffffffffffffffff1673ffffffffffffffffffffffffffffffffffffffff1681526020019081526020016000205490506000600282612a9991906158a6565b905080600d60003373ffffffffffffffffffffffffffffffffffffffff1673ffffffffffffffffffffffffffffffffffffffff1681526020019081526020016000206000828254612aea91906158d7565b92505081905550600d60003373ffffffffffffffffffffffffffffffffffffffff1673ffffffffffffffffffffffffffffffffffffffff16815260200190815260200160002054600b60003373ffffffffffffffffffffffffffffffffffffffff1673ffffffffffffffffffffffffffffffffffffffff168152602001908152602001600020600601819055503373ffffffffffffffffffffffffffffffffffffffff167f3816ead20d3304e4ad13735c3594bd0981470c64ebf5e8f941ae7b45b7401036600d60003373ffffffffffffffffffffffffffffffffffffffff1673ffffffffffffffffffffffffffffffffffffffff16815260200190815260200160002054604051612bfc91906148f1565b60405180910390a25050505050565b60008173ffffffffffffffffffffffffffffffffffffffff16319050919050565b6000600160009054906101000a900473ffffffffffffffffffffffffffffffffffffffff16905090565b6000600254905090565b60003073ffffffffffffffffffffffffffffffffffffffff16633063b87a336040518263ffffffff1660e01b8152600401612c9b91906149e7565b602060405180830381865afa158015612cb8573d6000803e3d6000fd5b505050506040513d601f19601f82011682018060405250810190612cdc9190615942565b90506001151581151514612d25576040517f08c379a0000000000000000000000000000000000000000000000000000000008152600401612d1c906159bb565b60405180910390fd5b50565b60065481565b813073ffffffffffffffffffffffffffffffffffffffff1663837ee755826040518263ffffffff1660e01b8152600401612d6891906149e7565b60006040518083038186803b158015612d8057600080fd5b505afa158015612d94573d6000803e3d6000fd5b50505050600160149054906101000a900460ff16612de7576040517f08c379a0000000000000000000000000000000000000000000000000000000008152600401612dde90615a27565b60405180910390fd5b6000600360008573ffffffffffffffffffffffffffffffffffffffff1673ffffffffffffffffffffffffffffffffffffffff16815260200190815260200160002060020160009054906101000a900460ff166003811115612e4b57612e4a614c11565b5b905060038360ff161115612e94576040517f08c379a0000000000000000000000000000000000000000000000000000000008152600401612e8b90615072565b60405180910390fd5b8060ff168360ff1611612edc576040517f08c379a0000000000000000000000000000000000000000000000000000000008152600401612ed390615104565b60405180910390fd5b612ee461403d565b8260ff166003811115612efa57612ef9614c11565b5b600360008673ffffffffffffffffffffffffffffffffffffffff1673ffffffffffffffffffffffffffffffffffffffff16815260200190815260200160002060020160006101000a81548160ff02191690836003811115612f5e57612f5d614c11565b5b0217905550612f79600160025461406590919063ffffffff16565b600281905550600360008573ffffffffffffffffffffffffffffffffffffffff1673ffffffffffffffffffffffffffffffffffffffff16815260200190815260200160002060020160009054906101000a900460ff166003811115612fe157612fe0614c11565b5b905060603073ffffffffffffffffffffffffffffffffffffffff16634e088046866040518263ffffffff1660e01b815260040161301e91906149e7565b600060405180830381865afa15801561303b573d6000803e3d6000fd5b505050506040513d6000823e3d601f19601f820116820180604052508101906130649190614d46565b909192509091509050809150508473ffffffffffffffffffffffffffffffffffffffff167f430b758c1e0fe319aaa192e7d56d4f39ae97698a3a489e48954ea3ce634c26e1826040516130b79190614a02565b60405180910390a25050505050565b6000600960008373ffffffffffffffffffffffffffffffffffffffff1673ffffffffffffffffffffffffffffffffffffffff16815260200190815260200160002060000160009054906101000a900460ff169050919050565b6002600381111561313357613132614c11565b5b600360008373ffffffffffffffffffffffffffffffffffffffff1673ffffffffffffffffffffffffffffffffffffffff16815260200190815260200160002060020160009054906101000a900460ff16600381111561319557613194614c11565b5b14806131ee5750600160009054906101000a900473ffffffffffffffffffffffffffffffffffffffff1673ffffffffffffffffffffffffffffffffffffffff168173ffffffffffffffffffffffffffffffffffffffff16145b61322d576040517f08c379a000000000000000000000000000000000000000000000000000000000815260040161322490615a93565b60405180910390fd5b50565b8460ff16600960003373ffffffffffffffffffffffffffffffffffffffff1673ffffffffffffffffffffffffffffffffffffffff16815260200190815260200160002060010160006003811061328957613288615ab3565b5b602091828204019190069054906101000a900460ff1660ff16148061331d57508460ff16600960003373ffffffffffffffffffffffffffffffffffffffff1673ffffffffffffffffffffffffffffffffffffffff16815260200190815260200160002060010160016003811061330257613301615ab3565b5b602091828204019190069054906101000a900460ff1660ff16145b8061339757508460ff16600960003373ffffffffffffffffffffffffffffffffffffffff1673ffffffffffffffffffffffffffffffffffffffff16815260200190815260200160002060010160026003811061337c5761337b615ab3565b5b602091828204019190069054906101000a900460ff1660ff16145b6133a057600080fd5b6000858585856040516020016133b9949392919061526b565b604051602081830303815290604052805190602001209050600a600082815260200190815260200160002060000160149054906101000a900460ff16613434576040517f08c379a000000000000000000000000000000000000000000000000000000000815260040161342b90615b2e565b60405180910390fd5b600a600082815260200190815260200160002060010160008360ff1660ff168152602001908152602001600020339080600181540180825580915050600190039060005260206000200160009091909190916101000a81548173ffffffffffffffffffffffffffffffffffffffff021916908373ffffffffffffffffffffffffffffffffffffffff1602179055507fb8650a93ecc0ca0f98cc666f4311ff57952df40fe0f4273cfaffff63a4a213b13384846040516134f593929190615b4e565b60405180910390a16003600a600083815260200190815260200160002060010160008460ff1660ff168152602001908152602001600020805490501061357e577fd7353a1bb287d6f6f3bf0001f82ab7e6e1a04cdcc9724896017a04ea42c151098585858560405161356a9493929190615b85565b60405180910390a161357d85848461407b565b5b505050505050565b670de0b6b3a764000081565b600160028111156135a6576135a5614c11565b5b600b60003373ffffffffffffffffffffffffffffffffffffffff1673ffffffffffffffffffffffffffffffffffffffff16815260200190815260200160002060050160009054906101000a900460ff16600281111561360857613607614c11565b5b14613648576040517f08c379a000000000000000000000000000000000000000000000000000000000815260040161363f90615c1d565b60405180910390fd5b565b61365261410e565b801515600160149054906101000a900460ff16151514156136a8576040517f08c379a000000000000000000000000000000000000000000000000000000000815260040161369f90615c89565b60405180910390fd5b80600160146101000a81548160ff02191690831515021790555050565b600560009054906101000a900473ffffffffffffffffffffffffffffffffffffffff1681565b6136f3612c60565b60008060003073ffffffffffffffffffffffffffffffffffffffff16634e088046336040518263ffffffff1660e01b815260040161373191906149e7565b600060405180830381865afa15801561374e573d6000803e3d6000fd5b505050506040513d6000823e3d601f19601f820116820180604052508101906137779190614d46565b50925092509250613794600160065461406590919063ffffffff16565b60068190555060006137a6334261391a565b90508060086000868152602001908152602001600020819055506040518060c001604052808581526020018373ffffffffffffffffffffffffffffffffffffffff1681526020018481526020018660ff16815260200182815260200142815250600760008381526020019081526020016000206000820151816000015560208201518160010160006101000a81548173ffffffffffffffffffffffffffffffffffffffff021916908373ffffffffffffffffffffffffffffffffffffffff16021790555060408201518160020190805190602001906138869291906141a0565b5060608201518160030160006101000a81548160ff021916908360ff1602179055506080820151816004015560a082015181600501559050503373ffffffffffffffffffffffffffffffffffffffff167fa7018639fee0ab4d6c2b1e0a0dcba6de732cd262f3077822f86b98759ecf4ef68483428960405161390b9493929190615ca9565b60405180910390a25050505050565b6000828260405160200161392f929190615cf5565b60405160208183030381529060405280519060200120905092915050565b600560009054906101000a900473ffffffffffffffffffffffffffffffffffffffff1673ffffffffffffffffffffffffffffffffffffffff163373ffffffffffffffffffffffffffffffffffffffff16146139dd576040517f08c379a00000000000000000000000000000000000000000000000000000000081526004016139d490615d6d565b60405180910390fd5b6000479050600081116139ef57600080fd5b6000600560009054906101000a900473ffffffffffffffffffffffffffffffffffffffff1673ffffffffffffffffffffffffffffffffffffffff1682604051613a37906154e2565b60006040518083038185875af1925050503d8060008114613a74576040519150601f19603f3d011682016040523d82523d6000602084013e613a79565b606091505b5050905080613abd576040517f08c379a0000000000000000000000000000000000000000000000000000000008152600401613ab490615dd9565b60405180910390fd5b5050565b600047905090565b600560009054906101000a900473ffffffffffffffffffffffffffffffffffffffff1673ffffffffffffffffffffffffffffffffffffffff163373ffffffffffffffffffffffffffffffffffffffff1614613b59576040517f08c379a0000000000000000000000000000000000000000000000000000000008152600401613b5090615e45565b60405180910390fd5b600081141580613b6b57506006548111155b613b7457600080fd5b6000613b7f8261106e565b5094505050505060006008600084815260200190815260200160002054905060076000828152602001908152602001600020600001548314613bf6576040517f08c379a0000000000000000000000000000000000000000000000000000000008152600401613bed90615eb1565b60405180910390fd5b60146007600084815260200190815260200160002060030160006101000a81548160ff021916908360ff1602179055506000613c318461106e565b505093505050507f9e85b5053195d1998a0133ad6a2404d411a1c8b200a15c2c14a23bbb13994ba78482604051613c69929190615ed1565b60405180910390a150505050565b60008054905090565b6000806060600060606000806000600b60008a73ffffffffffffffffffffffffffffffffffffffff1673ffffffffffffffffffffffffffffffffffffffff16815260200190815260200160002060050160009054906101000a900460ff166002811115613cf057613cef614c11565b5b905060008160ff161415613d3b576040518060400160405280600a81526020017f556e61737369676e6564000000000000000000000000000000000000000000008152509350613dcb565b60018160ff161415613d84576040518060400160405280600481526020017f50616964000000000000000000000000000000000000000000000000000000008152509350613dca565b60028160ff161415613dc9576040518060400160405280600781526020017f436c61696d65640000000000000000000000000000000000000000000000000081525093505b5b5b600b60008a73ffffffffffffffffffffffffffffffffffffffff1673ffffffffffffffffffffffffffffffffffffffff168152602001908152602001600020600001549750600b60008a73ffffffffffffffffffffffffffffffffffffffff1673ffffffffffffffffffffffffffffffffffffffff1681526020019081526020016000206003018054613e5d90614ff4565b80601f0160208091040260200160405190810160405280929190818152602001828054613e8990614ff4565b8015613ed65780601f10613eab57610100808354040283529160200191613ed6565b820191906000526020600020905b815481529060010190602001808311613eb957829003601f168201915b50505050509550600b60008a73ffffffffffffffffffffffffffffffffffffffff1673ffffffffffffffffffffffffffffffffffffffff16815260200190815260200160002060010160009054906101000a900473ffffffffffffffffffffffffffffffffffffffff169650600b60008a73ffffffffffffffffffffffffffffffffffffffff1673ffffffffffffffffffffffffffffffffffffffff16815260200190815260200160002060020160009054906101000a900473ffffffffffffffffffffffffffffffffffffffff169450600b60008a73ffffffffffffffffffffffffffffffffffffffff1673ffffffffffffffffffffffffffffffffffffffff168152602001908152602001600020600401549250600b60008a73ffffffffffffffffffffffffffffffffffffffff1673ffffffffffffffffffffffffffffffffffffffff16815260200190815260200160002060060154915050919395979092949650565b600460025410614063576000600160146101000a81548160ff0219169083151502179055505b565b6000818361407391906158d7565b905092915050565b6000614087848461391a565b9050816007600083815260200190815260200160002060030160006101000a81548160ff021916908360ff1602179055508373ffffffffffffffffffffffffffffffffffffffff167f64a50d59d78e3d644b7d0eda87c523ee2d21633d4f75491c4f4628b16432c0498484604051614100929190615ed1565b60405180910390a250505050565b600160009054906101000a900473ffffffffffffffffffffffffffffffffffffffff1673ffffffffffffffffffffffffffffffffffffffff163373ffffffffffffffffffffffffffffffffffffffff161461419e576040517f08c379a000000000000000000000000000000000000000000000000000000000815260040161419590615f46565b60405180910390fd5b565b8280546141ac90614ff4565b90600052602060002090601f0160209004810192826141ce5760008555614215565b82601f106141e757805160ff1916838001178555614215565b82800160010185558215614215579182015b828111156142145782518255916020019190600101906141f9565b5b50905061422291906142e2565b5090565b826003601f016020900481019282156142af5791602002820160005b8382111561428057835183826101000a81548160ff021916908360ff1602179055509260200192600101602081600001049283019260010302614242565b80156142ad5782816101000a81549060ff0219169055600101602081600001049283019260010302614280565b505b5090506142bc91906142e2565b5090565b6040518060600160405280600390602082028036833780820191505090505090565b5b808211156142fb5760008160009055506001016142e3565b5090565b6000604051905090565b600080fd5b600080fd5b600073ffffffffffffffffffffffffffffffffffffffff82169050919050565b600061433e82614313565b9050919050565b61434e81614333565b811461435957600080fd5b50565b60008135905061436b81614345565b92915050565b60006020828403121561438757614386614309565b5b60006143958482850161435c565b91505092915050565b60008115159050919050565b6143b38161439e565b82525050565b60006020820190506143ce60008301846143aa565b92915050565b600080fd5b600080fd5b6000601f19601f8301169050919050565b7f4e487b7100000000000000000000000000000000000000000000000000000000600052604160045260246000fd5b614427826143de565b810181811067ffffffffffffffff82111715614446576144456143ef565b5b80604052505050565b60006144596142ff565b9050614465828261441e565b919050565b600067ffffffffffffffff821115614485576144846143ef565b5b61448e826143de565b9050602081019050919050565b82818337600083830152505050565b60006144bd6144b88461446a565b61444f565b9050828152602081018484840111156144d9576144d86143d9565b5b6144e484828561449b565b509392505050565b600082601f830112614501576145006143d4565b5b81356145118482602086016144aa565b91505092915050565b6000806040838503121561453157614530614309565b5b600083013567ffffffffffffffff81111561454f5761454e61430e565b5b61455b858286016144ec565b925050602061456c8582860161435c565b9150509250929050565b600067ffffffffffffffff821115614591576145906143ef565b5b602082029050919050565b600080fd5b600060ff82169050919050565b6145b7816145a1565b81146145c257600080fd5b50565b6000813590506145d4816145ae565b92915050565b60006145ed6145e884614576565b61444f565b905080602084028301858111156146075761460661459c565b5b835b81811015614630578061461c88826145c5565b845260208401935050602081019050614609565b5050509392505050565b600082601f83011261464f5761464e6143d4565b5b600361465c8482856145da565b91505092915050565b60006060828403121561467b5761467a614309565b5b60006146898482850161463a565b91505092915050565b600060039050919050565b600081905092915050565b6000819050919050565b6146bb816145a1565b82525050565b60006146cd83836146b2565b60208301905092915050565b6000602082019050919050565b6146ef81614692565b6146f9818461469d565b9250614704826146a8565b8060005b8381101561473557815161471c87826146c1565b9650614727836146d9565b925050600181019050614708565b505050505050565b600060608201905061475260008301846146e6565b92915050565b6000819050919050565b61476b81614758565b811461477657600080fd5b50565b60008135905061478881614762565b92915050565b6000602082840312156147a4576147a3614309565b5b60006147b284828501614779565b91505092915050565b6147c481614758565b82525050565b6147d381614333565b82525050565b600081519050919050565b600082825260208201905092915050565b60005b838110156148135780820151818401526020810190506147f8565b83811115614822576000848401525b50505050565b6000614833826147d9565b61483d81856147e4565b935061484d8185602086016147f5565b614856816143de565b840191505092915050565b61486a816145a1565b82525050565b6000819050919050565b61488381614870565b82525050565b600060c08201905061489e60008301896147bb565b6148ab60208301886147ca565b81810360408301526148bd8187614828565b90506148cc6060830186614861565b6148d9608083018561487a565b6148e660a08301846147bb565b979650505050505050565b600060208201905061490660008301846147bb565b92915050565b60006020828403121561492257614921614309565b5b6000614930848285016145c5565b91505092915050565b600060208201905061494e600083018461487a565b92915050565b6000806040838503121561496b5761496a614309565b5b6000614979858286016145c5565b925050602061498a85828601614779565b9150509250929050565b60006080820190506149a960008301876147bb565b81810360208301526149bb8186614828565b90506149ca60408301856147ca565b81810360608301526149dc8184614828565b905095945050505050565b60006020820190506149fc60008301846147ca565b92915050565b60006020820190508181036000830152614a1c8184614828565b905092915050565b614a2d8161439e565b8114614a3857600080fd5b50565b600081359050614a4a81614a24565b92915050565b600060208284031215614a6657614a65614309565b5b6000614a7484828501614a3b565b91505092915050565b60008060408385031215614a9457614a93614309565b5b6000614aa28582860161435c565b9250506020614ab3858286016145c5565b9150509250929050565b600080600080600060a08688031215614ad957614ad8614309565b5b6000614ae7888289016145c5565b9550506020614af88882890161435c565b945050604086013567ffffffffffffffff811115614b1957614b1861430e565b5b614b25888289016144ec565b9350506060614b3688828901614779565b9250506080614b47888289016145c5565b9150509295509295909350565b60008060408385031215614b6b57614b6a614309565b5b6000614b798582860161435c565b9250506020614b8a85828601614779565b9150509250929050565b600060e082019050614ba9600083018a6147bb565b614bb660208301896147ca565b8181036040830152614bc88188614828565b9050614bd760608301876147ca565b8181036080830152614be98186614828565b9050614bf860a08301856147bb565b614c0560c08301846147bb565b98975050505050505050565b7f4e487b7100000000000000000000000000000000000000000000000000000000600052602160045260246000fd5b7f6169726c696e65206e6f7420696e20756e61737369676e656420737461746500600082015250565b6000614c76601f836147e4565b9150614c8182614c40565b602082019050919050565b60006020820190508181036000830152614ca581614c69565b9050919050565b600081519050614cbb81614762565b92915050565b6000614cd4614ccf8461446a565b61444f565b905082815260208101848484011115614cf057614cef6143d9565b5b614cfb8482856147f5565b509392505050565b600082601f830112614d1857614d176143d4565b5b8151614d28848260208601614cc1565b91505092915050565b600081519050614d4081614345565b92915050565b60008060008060808587031215614d6057614d5f614309565b5b6000614d6e87828801614cac565b945050602085015167ffffffffffffffff811115614d8f57614d8e61430e565b5b614d9b87828801614d03565b9350506040614dac87828801614d31565b925050606085015167ffffffffffffffff811115614dcd57614dcc61430e565b5b614dd987828801614d03565b91505092959194509250565b6000604082019050614dfa60008301856147bb565b8181036020830152614e0c8184614828565b90509392505050565b7f4f522e7265670000000000000000000000000000000000000000000000000000600082015250565b6000614e4b6006836147e4565b9150614e5682614e15565b602082019050919050565b60006020820190508181036000830152614e7a81614e3e565b9050919050565b7f494e442e20526571000000000000000000000000000000000000000000000000600082015250565b6000614eb76008836147e4565b9150614ec282614e81565b602082019050919050565b60006020820190508181036000830152614ee681614eaa565b9050919050565b7f6e72670000000000000000000000000000000000000000000000000000000000600082015250565b6000614f236003836147e4565b9150614f2e82614eed565b602082019050919050565b60006020820190508181036000830152614f5281614f16565b9050919050565b7f696e762069640000000000000000000000000000000000000000000000000000600082015250565b6000614f8f6006836147e4565b9150614f9a82614f59565b602082019050919050565b60006020820190508181036000830152614fbe81614f82565b9050919050565b7f4e487b7100000000000000000000000000000000000000000000000000000000600052602260045260246000fd5b6000600282049050600182168061500c57607f821691505b602082108114156150205761501f614fc5565b5b50919050565b7f6e6f742077697468696e20656e756d2072616e67650000000000000000000000600082015250565b600061505c6015836147e4565b915061506782615026565b602082019050919050565b6000602082019050818103600083015261508b8161504f565b9050919050565b7f7374617475732063616e6e6f74206265206c6f776572207468616e206375727260008201527f656e742073746174650000000000000000000000000000000000000000000000602082015250565b60006150ee6029836147e4565b91506150f982615092565b604082019050919050565b6000602082019050818103600083015261511d816150e1565b9050919050565b7f4e4520666c696768740000000000000000000000000000000000000000000000600082015250565b600061515a6009836147e4565b915061516582615124565b602082019050919050565b600060208201905081810360008301526151898161514d565b9050919050565b60008160f81b9050919050565b60006151a882615190565b9050919050565b6151c06151bb826145a1565b61519d565b82525050565b60008160601b9050919050565b60006151de826151c6565b9050919050565b60006151f0826151d3565b9050919050565b61520861520382614333565b6151e5565b82525050565b600081905092915050565b6000615224826147d9565b61522e818561520e565b935061523e8185602086016147f5565b80840191505092915050565b6000819050919050565b61526561526082614758565b61524a565b82525050565b600061527782876151af565b60018201915061528782866151f7565b6014820191506152978285615219565b91506152a38284615254565b60208201915081905095945050505050565b60006080820190506152ca6000830187614861565b6152d760208301866147ca565b81810360408301526152e98185614828565b90506152f860608301846147bb565b95945050505050565b7f3145544820726571000000000000000000000000000000000000000000000000600082015250565b60006153376008836147e4565b915061534282615301565b602082019050919050565b600060208201905081810360008301526153668161532a565b9050919050565b7f696e7620666c692e206964000000000000000000000000000000000000000000600082015250565b60006153a3600b836147e4565b91506153ae8261536d565b602082019050919050565b600060208201905081810360008301526153d281615396565b9050919050565b7f666c69206e742065780000000000000000000000000000000000000000000000600082015250565b600061540f6009836147e4565b915061541a826153d9565b602082019050919050565b6000602082019050818103600083015261543e81615402565b9050919050565b7f696e732065786974730000000000000000000000000000000000000000000000600082015250565b600061547b6009836147e4565b915061548682615445565b602082019050919050565b600060208201905081810360008301526154aa8161546e565b9050919050565b600081905092915050565b50565b60006154cc6000836154b1565b91506154d7826154bc565b600082019050919050565b60006154ed826154bf565b9150819050919050565b7f6661696c656420746f2045544800000000000000000000000000000000000000600082015250565b600061552d600d836147e4565b9150615538826154f7565b602082019050919050565b6000602082019050818103600083015261555c81615520565b9050919050565b7f4e487b7100000000000000000000000000000000000000000000000000000000600052601160045260246000fd5b600061559d82614758565b91506155a883614758565b9250828210156155bb576155ba615563565b5b828203905092915050565b7f50415353472e205744204641494c000000000000000000000000000000000000600082015250565b60006155fc600e836147e4565b9150615607826155c6565b602082019050919050565b6000602082019050818103600083015261562b816155ef565b9050919050565b600060408201905061564760008301856147bb565b61565460208301846147bb565b9392505050565b7f63616c6c6572206e6f7420726567697374657265640000000000000000000000600082015250565b60006156916015836147e4565b915061569c8261565b565b602082019050919050565b600060208201905081810360008301526156c081615684565b9050919050565b7f616c726561647920696e206f7065726174696f6e616c206d6f64650000000000600082015250565b60006156fd601b836147e4565b9150615708826156c7565b602082019050919050565b6000602082019050818103600083015261572c816156f0565b9050919050565b7f6169726c696e65206e6f7420617574686f72697a656400000000000000000000600082015250565b60006157696016836147e4565b915061577482615733565b602082019050919050565b600060208201905081810360008301526157988161575c565b9050919050565b7f4e4f20464c490000000000000000000000000000000000000000000000000000600082015250565b60006157d56006836147e4565b91506157e08261579f565b602082019050919050565b60006020820190508181036000830152615804816157c8565b9050919050565b7f464c20454c000000000000000000000000000000000000000000000000000000600082015250565b60006158416005836147e4565b915061584c8261580b565b602082019050919050565b6000602082019050818103600083015261587081615834565b9050919050565b7f4e487b7100000000000000000000000000000000000000000000000000000000600052601260045260246000fd5b60006158b182614758565b91506158bc83614758565b9250826158cc576158cb615877565b5b828204905092915050565b60006158e282614758565b91506158ed83614758565b9250827fffffffffffffffffffffffffffffffffffffffffffffffffffffffffffffffff0382111561592257615921615563565b5b828201905092915050565b60008151905061593c81614a24565b92915050565b60006020828403121561595857615957614309565b5b60006159668482850161592d565b91505092915050565b7f6e7420636f6d2e00000000000000000000000000000000000000000000000000600082015250565b60006159a56007836147e4565b91506159b08261596f565b602082019050919050565b600060208201905081810360008301526159d481615998565b9050919050565b7f636f6e7472616374206e6f74206f7065726174696f6e616c0000000000000000600082015250565b6000615a116018836147e4565b9150615a1c826159db565b602082019050919050565b60006020820190508181036000830152615a4081615a04565b9050919050565b7f6e6f7420617574686f72697a656420746f207265676973746572000000000000600082015250565b6000615a7d601a836147e4565b9150615a8882615a47565b602082019050919050565b60006020820190508181036000830152615aac81615a70565b9050919050565b7f4e487b7100000000000000000000000000000000000000000000000000000000600052603260045260246000fd5b7f466c692e20746d206d736d637468000000000000000000000000000000000000600082015250565b6000615b18600e836147e4565b9150615b2382615ae2565b602082019050919050565b60006020820190508181036000830152615b4781615b0b565b9050919050565b6000606082019050615b6360008301866147ca565b615b7060208301856147bb565b615b7d6040830184614861565b949350505050565b6000608082019050615b9a60008301876147ca565b8181036020830152615bac8186614828565b9050615bbb60408301856147bb565b615bc86060830184614861565b95945050505050565b7f5047204e54205044000000000000000000000000000000000000000000000000600082015250565b6000615c076008836147e4565b9150615c1282615bd1565b602082019050919050565b60006020820190508181036000830152615c3681615bfa565b9050919050565b7f6d757374206e6f742062652063757272656e7420737461747573000000000000600082015250565b6000615c73601a836147e4565b9150615c7e82615c3d565b602082019050919050565b60006020820190508181036000830152615ca281615c66565b9050919050565b60006080820190508181036000830152615cc38187614828565b9050615cd2602083018661487a565b615cdf60408301856147bb565b615cec6060830184614861565b95945050505050565b6000615d0182856151f7565b601482019150615d118284615254565b6020820191508190509392505050565b7f6e6f740000000000000000000000000000000000000000000000000000000000600082015250565b6000615d576003836147e4565b9150615d6282615d21565b602082019050919050565b60006020820190508181036000830152615d8681615d4a565b9050919050565b7f7364206661696c00000000000000000000000000000000000000000000000000600082015250565b6000615dc36007836147e4565b9150615dce82615d8d565b602082019050919050565b60006020820190508181036000830152615df281615db6565b9050919050565b7f4f574e0000000000000000000000000000000000000000000000000000000000600082015250565b6000615e2f6003836147e4565b9150615e3a82615df9565b602082019050919050565b60006020820190508181036000830152615e5e81615e22565b9050919050565b7f666c692e206e6500000000000000000000000000000000000000000000000000600082015250565b6000615e9b6007836147e4565b9150615ea682615e65565b602082019050919050565b60006020820190508181036000830152615eca81615e8e565b9050919050565b6000604082019050615ee660008301856147bb565b615ef36020830184614861565b9392505050565b7f63616c6c6572206e6f74206f776e657200000000000000000000000000000000600082015250565b6000615f306010836147e4565b9150615f3b82615efa565b602082019050919050565b60006020820190508181036000830152615f5f81615f23565b905091905056fea26469706673582212206269d65cce41f9025bff78bf609e8abfcc8782e18b121d041218a7a779b1fe9f64736f6c634300080a0033",
  "immutableReferences": {},
  "source": "// SPDX-License-Identifier: MIT\npragma solidity ^0.8.0;\n\nimport '@openzeppelin/contracts/utils/math/SafeMath.sol';\nimport './AirlineData.sol';\n\ncontract FlightSuretyData is AirlineData {\n  using SafeMath for uint256;\n\n  /********************************************************************************************/\n  /*                                      FLIGHT STATE VARIABLES                          */\n  /******************************************************************************************/\n\n  address public contractOwner;\n\n  // Flight status codes\n  uint8 private constant STATUS_CODE_UNKNOWN = 0;\n  uint8 private constant STATUS_CODE_ON_TIME = 10;\n  uint8 private constant STATUS_CODE_LATE_AIRLINE = 20;\n  uint8 private constant STATUS_CODE_LATE_WEATHER = 30;\n  uint8 private constant STATUS_CODE_LATE_TECHNICAL = 40;\n  uint8 private constant STATUS_CODE_LATE_OTHER = 50;\n\n  uint256 public flightCounter = 0;\n  struct Flight {\n    uint256 id;\n    address airline;\n    string flightName;\n    uint8 statusCode;\n    bytes32 flightKey;\n    uint256 timestamp;\n\n  }\n\n  mapping(bytes32 => Flight) private flights;\n\n  mapping(uint256 => bytes32) public flightKeys;\n\n  /********************************************************************************************/\n  /*                                      FLIGHT EVENTS                                      */\n  /******************************************************************************************/\n\n  event LogFlightRegistered(string name, bytes32 flightKey, address indexed airline, uint256 timestamp, uint8 statusCode);\n  event LogFlightStatusProcessed(address indexed airline, uint256 timestamp, uint8 statusCode);\n  event LogFlightStatusCodeChanged(uint256 flightId, uint8 statusCode);\n\n   // Event fired when flight status request is requested\n  event LogOracleRequest(uint8 index, address airline, string flight, uint256 timestamp);\n\n  \n  /********************************************************************************************/\n  /*                                      MODIFIER                                    */\n  /******************************************************************************************/\n\n\n  modifier isAirlineAuthorized() {\n    checkAirlineCommitmentStatus();\n    _;\n  }\n\n  function checkAirlineCommitmentStatus() public view {\n    (bool checkStatus ) = this.isAirlineCommitted(msg.sender);\n    require(checkStatus == true, 'nt com.');\n\n  }\n\n\n   constructor() {\n    contractOwner = msg.sender;\n\n  }\n\n  /********************************************************************************************/\n  /*                                      FLIGHT CORE FUNCTIONS                 */\n  /******************************************************************************************/\n  \n  // Register flight\n  function registerFlight(uint8 _statusCode) public isAirlineAuthorized {\n\n\n    (uint256 id, string memory name, address airlineAccount,) = this.getAirlineDetails(msg.sender);  \n\n    flightCounter = flightCounter.add(1);\n    \n\n    bytes32 flightKey = generateFlightKey(msg.sender, block.timestamp);\n\n    flightKeys[id] = flightKey;\n  \n\n    flights[flightKey] = Flight({\n      id: id,\n      airline: airlineAccount,\n      flightName: name,\n      statusCode: _statusCode,\n      flightKey: flightKey,\n      timestamp: block.timestamp\n    });\n\n    emit LogFlightRegistered(name, flightKey, msg.sender, block.timestamp, _statusCode);\n  }\n\n  // Generate a request for oracles  to fetch flight information\n  function fetchFlightStatus(uint8 _index, uint256 _flightId) external {\n    (, address airline, string memory flightName,, bytes32 flightKey, uint256 timestamp) = getFlightDetails(_flightId);\n\n    require(flightKeys[_flightId] == flightKey, 'NE flight');\n\n    // Generate a unique key for storing  the request\n    bytes32 key = keccak256(abi.encodePacked(_index, airline, flightName, timestamp));\n    oracleResponses[key].requester = tx.origin;\n    oracleResponses[key].isOpen = true;\n\n    emit LogOracleRequest(_index, airline, flightName, timestamp);\n  }\n\n  // \n  function processFlightStatus(address _airline, uint256 _timestamp, uint8 _statusCode)  private {\n    bytes32 key = generateFlightKey(_airline, _timestamp);\n    flights[key].statusCode = _statusCode;\n\n    emit LogFlightStatusProcessed(_airline, _timestamp, _statusCode);\n  }\n\n\n  \n  /********************************************************************************************/\n  /*                                      FLIGHT UTILITY FUNCTIONS                 */\n  /******************************************************************************************/\n\n  // Get flight details\n  function getFlightDetails(uint256 _flightId) public view returns\n    (\n      uint256 id, \n      address airline, \n      string memory flightName,\n      uint8 statusCode, \n      bytes32 flightKey, \n      uint256 timestamp\n\n    )\n  {\n    require(_flightId != 0 || _flightId <= flightCounter, 'inv id');\n    bytes32 key = flightKeys[_flightId];\n    id = flights[key].id;\n    airline = flights[key].airline;\n    flightName = flights[key].flightName;\n    statusCode = flights[key].statusCode;\n    flightKey = flights[key].flightKey;\n    timestamp = flights[key].timestamp;\n    \n  }\n\n  // Generate flight key\n  function generateFlightKey(address _airline, uint256 _timestamp) public pure returns(bytes32) {\n    return keccak256(abi.encodePacked(_airline, _timestamp));\n  }\n\n  /*__________________________________ORACLE______________________________*/\n\n  \n  /********************************************************************************************/\n  /*                               ORACLE STATE VARIABLES                                    */\n  /******************************************************************************************/\n  // Number of oracles that must respond for valid status\n  uint256 private constant  MIN_RESPONSES = 3;\n\n  struct Oracle {\n    bool isRegistered;\n    uint8[3] indexes;\n  }\n\n  // Track all registered oracles\n  mapping(address => Oracle) private oracles; \n\n  // Model for responses from oracles\n  struct ResponseInfo {\n    address requester;  // account that triggered the requested status\n    bool isOpen;        // if open, oracle responses are accepted\n    mapping(uint8 => address[]) responses; // key is the status code reported\n  }\n\n  // Track all oracle responses \n  mapping(bytes32 => ResponseInfo) oracleResponses;\n\n\n  /********************************************************************************************/\n  /*                                    ORACLE  EVENTS                                             */\n  /******************************************************************************************/\n  event LogOracleRegistered(address indexed oracle, uint8[3] indexes);\n\n  // Event fired each time an oracle submits a response\n  event LogFlightStatusInfo(address airline, string flightName, uint256 timestamp, uint8 statusCode);\n\n  event LogOracleReport(address airline, uint256 timestamp, uint8 status);\n\n  /********************************************************************************************/\n  /*                                      ORACLE CORE FUNCTIONS                              */\n  /******************************************************************************************/\n  function registerOracle(uint8[3] memory _indexes) external payable {\n    require(!oracles[tx.origin].isRegistered, 'OR.reg');\n    require(_indexes.length == 3, 'IND. Req');\n    oracles[tx.origin] = Oracle({\n      isRegistered: true,\n      indexes: _indexes\n    });\n\n    emit LogOracleRegistered(tx.origin, _indexes);\n  }\n  \n\n  /**\n    * @dev Called by oracle in response to an outstanding request\n    * response is only valid if there's a pending open request status  and  that its responxe index matches that which was assigned during oracle registration\n   */\n\n       // Generate a unique key for storing  the request\n    // bytes32 key = keccak256(abi.encodePacked(_index, airline, timestamp));\n    // oracleResponses[key].requester = tx.origin;\n    // oracleResponses[key].isOpen = true;\n\n  function submitOracleResponse\n    (\n      uint8 _index, \n      address _airline, \n      string memory _flightName,\n      uint256 _timestamp, \n      uint8 _statusCode\n    ) external \n  {\n    require((oracles[msg.sender].indexes[0] == _index) || (oracles[msg.sender].indexes[1] == _index) || (oracles[msg.sender].indexes[2] == _index));\n    bytes32 key = keccak256(abi.encodePacked(_index, _airline, _flightName, _timestamp));\n    require(oracleResponses[key].isOpen, 'Fli. tm msmcth');\n    oracleResponses[key].responses[_statusCode].push(msg.sender);\n\n    // oracle response is not valid until MIN_RESPONSES threshold is reached\n    emit LogOracleReport(msg.sender, _timestamp, _statusCode);\n    if(oracleResponses[key].responses[_statusCode].length >= MIN_RESPONSES) {\n      emit LogFlightStatusInfo(_airline, _flightName, _timestamp, _statusCode);\n      processFlightStatus(_airline,_timestamp, _statusCode);\n    }\n  }\n\n  /********************************************************************************************/\n  /*                                      ORACLE UTILITY FUNCTIONS                           */\n  /******************************************************************************************/\n  function getOracleIndexes() external view returns(uint8[3] memory) {\n    require(oracles[msg.sender].isRegistered, 'nrg');\n    return oracles[msg.sender].indexes;\n\n  }\n\n  function isOracleRegistered(address _account) public view returns(bool) {\n    return oracles[_account].isRegistered;\n  }\n\n \n \n  /*__________________________________PASSENGER_______________________________*/\n\n\n  /********************************************************************************************/\n  /*                                      PASSENGER STATE VARIABLE FUNCTIONS                            */\n  /********************************************************************************************/\n\n  enum PassengerInsuranceState {\n    Unassigned,\n    Paid,\n    Claimed\n  }\n\n  struct Insurance {\n    uint256 id;\n    address flightAddress;\n    address passenger;\n    string flightName;\n    uint256 amount;\n    PassengerInsuranceState state;\n    uint256 refundAmount;\n  }\n\n  mapping(address =>  Insurance) passengersInsurance;\n  mapping (uint256 => address) public passengerIdToAddress;\n  mapping(address => uint256) public passengersBalances;\n\n  \n  uint256 public constant PASSENGER_INSURANCE_FEE = 1 ether;\n  uint256 passengerRefundAmount = 0;\n\n\n  /********************************************************************************************/\n  /*                                       EVENT                            */\n  /********************************************************************************************/\n  event LogPassengerInsurance(address indexed passenger, uint256 amount);\n  event LogPassengerCredited(address indexed passenger, uint256 amount);\n  event LogWithdrawPassengerInsurance(address indexed passenger, uint256 withdrawAmount, uint256 formPassengerBalance );\n\n\n\n  \n  /********************************************************************************************/\n  /*                                       MODIFIER                         */\n  /********************************************************************************************/\n  modifier checkPassenger {\n    isPassengerAuthorizedToWithdraw();\n    _;\n  }\n\n  /*******************************************************************************************/\n  /*                                       PASSENGER FUNCTIONS                         */\n  /*****************************************************************************************/\n\n  function payInsurance(uint256 _flightId)  external payable {\n    require(msg.value == PASSENGER_INSURANCE_FEE, '1ETH req');\n    require(_flightId != 0 || _flightId <= flightCounter, 'inv fli. id');\n\n    bytes32 key = flightKeys[_flightId];\n    require(_flightId == flights[key].id, \"fli nt ex\");\n\n    \n    require(passengersInsurance[tx.origin].state == PassengerInsuranceState.Unassigned, 'ins exits');\n    (uint256 id, string memory name, address airlineAccount,) = this.getAirlineDetails(flights[key].airline);\n\n    (bool send, ) = address(this).call{value: msg.value}('');\n    require(send, 'failed to ETH');\n    passengersBalances[tx.origin] = msg.value;\n\n    passengersInsurance[tx.origin] = Insurance({\n      id: id,\n      flightAddress: airlineAccount,\n      passenger: msg.sender,\n      flightName: name, \n      amount: passengersBalances[tx.origin],\n      state: PassengerInsuranceState.Paid,\n      refundAmount: 0\n    });\n    passengerIdToAddress[_flightId] = tx.origin;\n\n    emit LogPassengerInsurance(msg.sender, passengersInsurance[msg.sender].amount);\n  }\n\n  function claimPassengerInsurance(uint256 _flightId) public  {\n    require(_flightId != 0 || _flightId <= flightCounter, 'inv id');\n    (,,,, bytes32 flightKey,) = getFlightDetails(_flightId);\n\n\n    bytes32 key = flightKeys[_flightId];\n    require(_flightId == flights[key].id, 'NO FLI');\n    require(passengersInsurance[msg.sender].state == PassengerInsuranceState.Paid);\n    require(flights[flightKey].statusCode == 20, 'FL EL');\n    uint256 currentBalance  = passengersBalances[msg.sender];\n    uint256 refundAmount  =  currentBalance / 2;\n    \n    \n    passengersBalances[msg.sender] += refundAmount;\n    passengersInsurance[msg.sender].refundAmount = passengersBalances[msg.sender];\n\n\n    emit LogPassengerCredited(msg.sender, passengersBalances[msg.sender]);\n\n\n\n\n  }\n\n  function changeFlightStatusCode(uint256 _flightId) public  {\n    require(msg.sender == contractOwner, 'OWN');\n      require(_flightId != 0 || _flightId <= flightCounter);\n    (,,,, bytes32 flightKey,) = getFlightDetails(_flightId);\n\n    bytes32 key = flightKeys[_flightId];\n    require(_flightId == flights[key].id, \"fli. ne\");\n    flights[flightKey].statusCode = 20;\n    (,,, uint8 statusCode,,) = getFlightDetails(_flightId);\n    emit LogFlightStatusCodeChanged(_flightId, statusCode);\n  }\n\n  function withdrawPassengerBalance() public checkPassenger  {\n    require(msg.sender == tx.origin);\n    require(passengersBalances[msg.sender] == 1.5 ether);\n    passengersInsurance[msg.sender].state == PassengerInsuranceState.Claimed;\n    // passengersInsurance[msg.sender].refundAmount = 0;\n    uint256 withdrawAmount = passengersBalances[msg.sender];\n    passengersBalances[msg.sender] -= withdrawAmount;\n    (bool sent, ) = msg.sender.call{value: withdrawAmount}('');\n    require(sent, 'PASSG. WD FAIL');\n    emit LogWithdrawPassengerInsurance(msg.sender, withdrawAmount, passengersBalances[msg.sender]);\n  }\n\n  /***********************************,********************************************************/\n  /*                                       PASSENGER UTILITY FUNCTIONS                         */\n  /*****************************************************************************************/\n  function getPassengerDetails(address _account) external view returns\n    (\n      uint256 id, \n      address flightAddress,\n      string memory flightName, \n      address passenger, \n      string memory state, \n      uint256 amount, \n      uint256 refundAmount\n    ) \n  \n  {\n    uint8 passengerState = uint8(passengersInsurance[_account].state);\n    if(passengerState == 0) {\n      state = 'Unassigned';\n    } else if(passengerState == 1) {\n      state = 'Paid';\n    } else if(passengerState == 2) {\n      state = 'Claimed';\n    } \n    \n    id = passengersInsurance[_account].id;\n    flightName = passengersInsurance[_account].flightName;\n    flightAddress = passengersInsurance[_account].flightAddress;\n    passenger = passengersInsurance[_account].passenger;\n    amount = passengersInsurance[_account].amount;\n    refundAmount = passengersInsurance[_account].refundAmount;\n    \n    return (id, flightAddress, flightName, passenger, state, amount, refundAmount);\n    \n  }\n\n  function getPassengerBalance(address _account) external view returns(uint256) {\n    return passengersInsurance[_account].amount;\n  }\n\n  function isPassengerAuthorizedToWithdraw() public view {\n    require(passengersInsurance[msg.sender].state == PassengerInsuranceState.Paid, 'PG NT PD');\n\n  }\n\n  /********************************************************************************************/\n  /*                                      CONTRACT RECEIVE ETHER                                */\n  /********************************************************************************************/\n\n  function emergencyWithdraw() external payable {\n    require(msg.sender == contractOwner, 'not');\n    uint256 contractBalance = address(this).balance;\n    require(contractBalance > 0);\n    \n    (bool sent,) = payable(contractOwner).call{value: contractBalance}('');\n    require(sent, 'sd fail');\n  }\n\n\n\n  /********************************************************************************************/\n  /*                                      CONTRACT RECEIVE ETHER                                */\n  /********************************************************************************************/\n  receive() payable external {\n\n  }\n\n}\n",
  "sourcePath": "/home/sprtd/Desktop/Udacity/lesson-5-flight-surety/flight-surety-project/contracts/FlightSuretyData.sol",
  "compiler": {
    "name": "solc",
    "version": "0.8.10+commit.fc410830.Emscripten.clang"
  },
  "schemaVersion": "3.4.3",
  "updatedAt": "2021-11-12T13:14:37.838Z",
  "networkType": "ethereum",
  "devdoc": {
    "kind": "dev",
    "methods": {
      "submitOracleResponse(uint8,address,string,uint256,uint8)": {
        "details": "Called by oracle in response to an outstanding request response is only valid if there's a pending open request status  and  that its responxe index matches that which was assigned during oracle registration"
      }
    },
    "version": 1
  },
  "userdoc": {
    "kind": "user",
    "methods": {},
    "version": 1
  }
}