{
  "contractName": "FlightSuretyData",
  "abi": [
    {
      "inputs": [],
      "stateMutability": "nonpayable",
      "type": "constructor"
    },
    {
      "anonymous": false,
      "inputs": [
        {
          "indexed": true,
          "internalType": "address",
          "name": "account",
          "type": "address"
        },
        {
          "indexed": false,
          "internalType": "uint256",
          "name": "timestamp",
          "type": "uint256"
        },
        {
          "indexed": false,
          "internalType": "string",
          "name": "airlineStatus",
          "type": "string"
        }
      ],
      "name": "LogCreatedAirline",
      "type": "event"
    },
    {
      "anonymous": false,
      "inputs": [
        {
          "indexed": false,
          "internalType": "bytes32",
          "name": "flightKey",
          "type": "bytes32"
        },
        {
          "indexed": true,
          "internalType": "address",
          "name": "airline",
          "type": "address"
        },
        {
          "indexed": false,
          "internalType": "uint256",
          "name": "timestamp",
          "type": "uint256"
        },
        {
          "indexed": false,
          "internalType": "uint8",
          "name": "statusCode",
          "type": "uint8"
        }
      ],
      "name": "LogFlightRegistered",
      "type": "event"
    },
    {
      "anonymous": false,
      "inputs": [
        {
          "indexed": false,
          "internalType": "address",
          "name": "airline",
          "type": "address"
        },
        {
          "indexed": false,
          "internalType": "string",
          "name": "flight",
          "type": "string"
        },
        {
          "indexed": false,
          "internalType": "uint256",
          "name": "timestamp",
          "type": "uint256"
        },
        {
          "indexed": false,
          "internalType": "uint8",
          "name": "statusCode",
          "type": "uint8"
        }
      ],
      "name": "LogFlightStatusInfo",
      "type": "event"
    },
    {
      "anonymous": false,
      "inputs": [
        {
          "indexed": true,
          "internalType": "address",
          "name": "airline",
          "type": "address"
        },
        {
          "indexed": false,
          "internalType": "uint256",
          "name": "timestamp",
          "type": "uint256"
        }
      ],
      "name": "LogFlightStatusProcessed",
      "type": "event"
    },
    {
      "anonymous": false,
      "inputs": [
        {
          "indexed": true,
          "internalType": "address",
          "name": "oracle",
          "type": "address"
        },
        {
          "indexed": false,
          "internalType": "uint8[3]",
          "name": "indexes",
          "type": "uint8[3]"
        }
      ],
      "name": "LogOracleRegistered",
      "type": "event"
    },
    {
      "anonymous": false,
      "inputs": [
        {
          "indexed": false,
          "internalType": "address",
          "name": "airline",
          "type": "address"
        },
        {
          "indexed": false,
          "internalType": "string",
          "name": "airlineName",
          "type": "string"
        },
        {
          "indexed": false,
          "internalType": "uint256",
          "name": "timestamp",
          "type": "uint256"
        },
        {
          "indexed": false,
          "internalType": "uint8",
          "name": "status",
          "type": "uint8"
        }
      ],
      "name": "LogOracleReport",
      "type": "event"
    },
    {
      "anonymous": false,
      "inputs": [
        {
          "indexed": false,
          "internalType": "uint8",
          "name": "index",
          "type": "uint8"
        },
        {
          "indexed": false,
          "internalType": "address",
          "name": "airline",
          "type": "address"
        },
        {
          "indexed": false,
          "internalType": "string",
          "name": "flight",
          "type": "string"
        },
        {
          "indexed": false,
          "internalType": "uint256",
          "name": "timestamp",
          "type": "uint256"
        }
      ],
      "name": "LogOracleRequest",
      "type": "event"
    },
    {
      "anonymous": false,
      "inputs": [
        {
          "indexed": true,
          "internalType": "address",
          "name": "account",
          "type": "address"
        },
        {
          "indexed": false,
          "internalType": "uint256",
          "name": "amount",
          "type": "uint256"
        }
      ],
      "name": "LogPassengerInsurance",
      "type": "event"
    },
    {
      "anonymous": false,
      "inputs": [
        {
          "indexed": true,
          "internalType": "address",
          "name": "account",
          "type": "address"
        },
        {
          "indexed": false,
          "internalType": "string",
          "name": "airlineStatus",
          "type": "string"
        }
      ],
      "name": "LogStatusUpdated",
      "type": "event"
    },
    {
      "inputs": [],
      "name": "PASSENGER_INSURANCE_FEE",
      "outputs": [
        {
          "internalType": "uint256",
          "name": "",
          "type": "uint256"
        }
      ],
      "stateMutability": "view",
      "type": "function",
      "constant": true
    },
    {
      "inputs": [],
      "name": "contractOwner",
      "outputs": [
        {
          "internalType": "address",
          "name": "",
          "type": "address"
        }
      ],
      "stateMutability": "view",
      "type": "function",
      "constant": true
    },
    {
      "inputs": [
        {
          "internalType": "string",
          "name": "_name",
          "type": "string"
        },
        {
          "internalType": "address",
          "name": "_account",
          "type": "address"
        }
      ],
      "name": "createNewAirline",
      "outputs": [],
      "stateMutability": "nonpayable",
      "type": "function"
    },
    {
      "inputs": [],
      "name": "disableOperational",
      "outputs": [],
      "stateMutability": "nonpayable",
      "type": "function"
    },
    {
      "inputs": [
        {
          "internalType": "bool",
          "name": "_status",
          "type": "bool"
        }
      ],
      "name": "enableOperationalStatus",
      "outputs": [],
      "stateMutability": "nonpayable",
      "type": "function"
    },
    {
      "inputs": [],
      "name": "flightCounter",
      "outputs": [
        {
          "internalType": "uint256",
          "name": "",
          "type": "uint256"
        }
      ],
      "stateMutability": "view",
      "type": "function",
      "constant": true
    },
    {
      "inputs": [
        {
          "internalType": "uint256",
          "name": "",
          "type": "uint256"
        }
      ],
      "name": "flightKeys",
      "outputs": [
        {
          "internalType": "bytes32",
          "name": "",
          "type": "bytes32"
        }
      ],
      "stateMutability": "view",
      "type": "function",
      "constant": true
    },
    {
      "inputs": [
        {
          "internalType": "address",
          "name": "_account",
          "type": "address"
        }
      ],
      "name": "getAirlineApplicationStatus",
      "outputs": [
        {
          "internalType": "string",
          "name": "status",
          "type": "string"
        }
      ],
      "stateMutability": "view",
      "type": "function",
      "constant": true
    },
    {
      "inputs": [
        {
          "internalType": "address",
          "name": "_account",
          "type": "address"
        }
      ],
      "name": "getAirlineAuthorizationStatus",
      "outputs": [
        {
          "internalType": "bool",
          "name": "status",
          "type": "bool"
        }
      ],
      "stateMutability": "view",
      "type": "function",
      "constant": true
    },
    {
      "inputs": [
        {
          "internalType": "address",
          "name": "_account",
          "type": "address"
        }
      ],
      "name": "getAirlineBalance",
      "outputs": [
        {
          "internalType": "uint256",
          "name": "",
          "type": "uint256"
        }
      ],
      "stateMutability": "view",
      "type": "function",
      "constant": true
    },
    {
      "inputs": [
        {
          "internalType": "address",
          "name": "_account",
          "type": "address"
        }
      ],
      "name": "getAirlineDetails",
      "outputs": [
        {
          "internalType": "uint256",
          "name": "id",
          "type": "uint256"
        },
        {
          "internalType": "string",
          "name": "name",
          "type": "string"
        },
        {
          "internalType": "address",
          "name": "airlineAccount",
          "type": "address"
        },
        {
          "internalType": "string",
          "name": "state",
          "type": "string"
        }
      ],
      "stateMutability": "view",
      "type": "function",
      "constant": true
    },
    {
      "inputs": [],
      "name": "getDataBalance",
      "outputs": [
        {
          "internalType": "uint256",
          "name": "",
          "type": "uint256"
        }
      ],
      "stateMutability": "view",
      "type": "function",
      "constant": true
    },
    {
      "inputs": [],
      "name": "getOperationalStatus",
      "outputs": [
        {
          "internalType": "bool",
          "name": "",
          "type": "bool"
        }
      ],
      "stateMutability": "view",
      "type": "function",
      "constant": true
    },
    {
      "inputs": [],
      "name": "getOwner",
      "outputs": [
        {
          "internalType": "address",
          "name": "",
          "type": "address"
        }
      ],
      "stateMutability": "view",
      "type": "function",
      "constant": true
    },
    {
      "inputs": [],
      "name": "getTotalAppliedAirlines",
      "outputs": [
        {
          "internalType": "uint256",
          "name": "",
          "type": "uint256"
        }
      ],
      "stateMutability": "view",
      "type": "function",
      "constant": true
    },
    {
      "inputs": [],
      "name": "getTotalRegisteredAirlines",
      "outputs": [
        {
          "internalType": "uint256",
          "name": "",
          "type": "uint256"
        }
      ],
      "stateMutability": "view",
      "type": "function",
      "constant": true
    },
    {
      "inputs": [
        {
          "internalType": "address",
          "name": "_account",
          "type": "address"
        }
      ],
      "name": "isAirlineCommitted",
      "outputs": [
        {
          "internalType": "bool",
          "name": "checkStatus",
          "type": "bool"
        }
      ],
      "stateMutability": "view",
      "type": "function",
      "constant": true
    },
    {
      "inputs": [
        {
          "internalType": "address",
          "name": "_account",
          "type": "address"
        }
      ],
      "name": "isAirlineRegistered",
      "outputs": [
        {
          "internalType": "bool",
          "name": "checkStatus",
          "type": "bool"
        }
      ],
      "stateMutability": "view",
      "type": "function",
      "constant": true
    },
    {
      "inputs": [
        {
          "internalType": "address",
          "name": "_account",
          "type": "address"
        }
      ],
      "name": "onlyAuthorizeRegistrants",
      "outputs": [],
      "stateMutability": "view",
      "type": "function",
      "constant": true
    },
    {
      "inputs": [
        {
          "internalType": "address",
          "name": "_account",
          "type": "address"
        }
      ],
      "name": "onlyAuthorizedAirlines",
      "outputs": [],
      "stateMutability": "view",
      "type": "function",
      "constant": true
    },
    {
      "inputs": [
        {
          "internalType": "address",
          "name": "_account",
          "type": "address"
        }
      ],
      "name": "onlyRegisteredAirlines",
      "outputs": [],
      "stateMutability": "view",
      "type": "function",
      "constant": true
    },
    {
      "inputs": [
        {
          "internalType": "bool",
          "name": "_status",
          "type": "bool"
        }
      ],
      "name": "setOperatinalStatus",
      "outputs": [],
      "stateMutability": "nonpayable",
      "type": "function"
    },
    {
      "inputs": [
        {
          "internalType": "address",
          "name": "_account",
          "type": "address"
        },
        {
          "internalType": "uint8",
          "name": "_state",
          "type": "uint8"
        }
      ],
      "name": "updateAirlineStatus",
      "outputs": [],
      "stateMutability": "nonpayable",
      "type": "function"
    },
    {
      "inputs": [
        {
          "internalType": "uint8",
          "name": "_state",
          "type": "uint8"
        }
      ],
      "name": "updateToCommitState",
      "outputs": [],
      "stateMutability": "payable",
      "type": "function",
      "payable": true
    },
    {
      "stateMutability": "payable",
      "type": "receive",
      "payable": true
    },
    {
      "inputs": [
        {
          "internalType": "uint8",
          "name": "_statusCode",
          "type": "uint8"
        }
      ],
      "name": "registerFlight",
      "outputs": [],
      "stateMutability": "nonpayable",
      "type": "function"
    },
    {
      "inputs": [
        {
          "internalType": "uint8",
          "name": "_index",
          "type": "uint8"
        },
        {
          "internalType": "uint256",
          "name": "_flightId",
          "type": "uint256"
        }
      ],
      "name": "fetchFlightStatus",
      "outputs": [],
      "stateMutability": "nonpayable",
      "type": "function"
    },
    {
      "inputs": [
        {
          "internalType": "uint256",
          "name": "_flightId",
          "type": "uint256"
        }
      ],
      "name": "getFlightDetails",
      "outputs": [
        {
          "internalType": "uint256",
          "name": "id",
          "type": "uint256"
        },
        {
          "internalType": "address",
          "name": "airline",
          "type": "address"
        },
        {
          "internalType": "string",
          "name": "flightName",
          "type": "string"
        },
        {
          "internalType": "uint8",
          "name": "statusCode",
          "type": "uint8"
        },
        {
          "internalType": "bytes32",
          "name": "flightKey",
          "type": "bytes32"
        },
        {
          "internalType": "uint256",
          "name": "timestamp",
          "type": "uint256"
        }
      ],
      "stateMutability": "view",
      "type": "function",
      "constant": true
    },
    {
      "inputs": [
        {
          "internalType": "address",
          "name": "_airline",
          "type": "address"
        },
        {
          "internalType": "uint256",
          "name": "_timestamp",
          "type": "uint256"
        }
      ],
      "name": "generateFlightKey",
      "outputs": [
        {
          "internalType": "bytes32",
          "name": "",
          "type": "bytes32"
        }
      ],
      "stateMutability": "pure",
      "type": "function",
      "constant": true
    },
    {
      "inputs": [
        {
          "internalType": "uint8[3]",
          "name": "_indexes",
          "type": "uint8[3]"
        }
      ],
      "name": "registerOracle",
      "outputs": [],
      "stateMutability": "payable",
      "type": "function",
      "payable": true
    },
    {
      "inputs": [
        {
          "internalType": "uint8",
          "name": "_index",
          "type": "uint8"
        },
        {
          "internalType": "address",
          "name": "_airline",
          "type": "address"
        },
        {
          "internalType": "string",
          "name": "_airlineName",
          "type": "string"
        },
        {
          "internalType": "uint256",
          "name": "_timestamp",
          "type": "uint256"
        },
        {
          "internalType": "uint8",
          "name": "_statusCode",
          "type": "uint8"
        }
      ],
      "name": "submitOracleResponse",
      "outputs": [],
      "stateMutability": "nonpayable",
      "type": "function"
    },
    {
      "inputs": [],
      "name": "getOracleIndexes",
      "outputs": [
        {
          "internalType": "uint8[3]",
          "name": "",
          "type": "uint8[3]"
        }
      ],
      "stateMutability": "view",
      "type": "function",
      "constant": true
    },
    {
      "inputs": [
        {
          "internalType": "address",
          "name": "_account",
          "type": "address"
        }
      ],
      "name": "isOracleRegistered",
      "outputs": [
        {
          "internalType": "bool",
          "name": "",
          "type": "bool"
        }
      ],
      "stateMutability": "view",
      "type": "function",
      "constant": true
    },
    {
      "inputs": [
        {
          "internalType": "uint256",
          "name": "_flightId",
          "type": "uint256"
        }
      ],
      "name": "payInsurance",
      "outputs": [],
      "stateMutability": "payable",
      "type": "function",
      "payable": true
    },
    {
      "inputs": [
        {
          "internalType": "address",
          "name": "_account",
          "type": "address"
        }
      ],
      "name": "getPassengerDetails",
      "outputs": [
        {
          "internalType": "uint256",
          "name": "id",
          "type": "uint256"
        },
        {
          "internalType": "address",
          "name": "flightAddress",
          "type": "address"
        },
        {
          "internalType": "string",
          "name": "flightName",
          "type": "string"
        },
        {
          "internalType": "address",
          "name": "passenger",
          "type": "address"
        },
        {
          "internalType": "string",
          "name": "state",
          "type": "string"
        },
        {
          "internalType": "uint256",
          "name": "amount",
          "type": "uint256"
        },
        {
          "internalType": "uint256",
          "name": "refundAmount",
          "type": "uint256"
        }
      ],
      "stateMutability": "view",
      "type": "function",
      "constant": true
    },
    {
      "inputs": [
        {
          "internalType": "address",
          "name": "_account",
          "type": "address"
        }
      ],
      "name": "getPassengerBalance",
      "outputs": [
        {
          "internalType": "uint256",
          "name": "",
          "type": "uint256"
        }
      ],
      "stateMutability": "view",
      "type": "function",
      "constant": true
    },
    {
      "inputs": [],
      "name": "emergencyWithdraw",
      "outputs": [],
      "stateMutability": "payable",
      "type": "function",
      "payable": true
    }
  ],
  "bytecode": "0x6080604052600060065534801561001557600080fd5b5033600160006101000a81548173ffffffffffffffffffffffffffffffffffffffff021916908373ffffffffffffffffffffffffffffffffffffffff16021790555060018060146101000a81548160ff02191690831515021790555033600560006101000a81548173ffffffffffffffffffffffffffffffffffffffff021916908373ffffffffffffffffffffffffffffffffffffffff1602179055506150e9806100c16000396000f3fe6080604052600436106102135760003560e01c806389208e7211610118578063c968089e116100a0578063db2e21bc1161006f578063db2e21bc146107e1578063e0313fe6146107eb578063efa3327b14610816578063efbd588e14610841578063f243be18146108845761021a565b8063c968089e14610727578063ce606ee014610750578063d1fc5c511461077b578063d539e7ef146107a45761021a565b8063b10f057b116100e7578063b10f057b14610644578063b9b55c9a1461066d578063bf0a4f32146106aa578063c10f2700146106d3578063c36515b6146106fc5761021a565b806389208e7214610586578063893d20e8146105c3578063994de453146105ee578063aee1b2a1146106195761021a565b80633d21d8271161019b5780635addd35a1161016a5780635addd35a1461049157806369beb8fb146104ba5780637008414d146104f75780638042601f14610520578063837ee7551461055d5761021a565b80633d21d827146103cf5780634b5c9d531461040c5780634e08804614610435578063508e264e146104755761021a565b8063175a2ead116101e2578063175a2ead146102cc57806318535008146102f75780633063b87a1461033957806336061cca14610376578063385de787146103925761021a565b8063010c5c971461021f5780630b2653d51461025c5780630c982673146102855780630cfc7e44146102b05761021a565b3661021a57005b600080fd5b34801561022b57600080fd5b506102466004803603810190610241919061383b565b61089b565b6040516102539190613883565b60405180910390f35b34801561026857600080fd5b50610283600480360381019061027e91906139e4565b610922565b005b34801561029157600080fd5b5061029a610c12565b6040516102a79190613883565b60405180910390f35b6102ca60048036038101906102c59190613b2f565b610c29565b005b3480156102d857600080fd5b506102e1610ddf565b6040516102ee9190613c07565b60405180910390f35b34801561030357600080fd5b5061031e60048036038101906103199190613c58565b610f1f565b60405161033096959493929190613d53565b60405180910390f35b34801561034557600080fd5b50610360600480360381019061035b919061383b565b6110e6565b60405161036d9190613883565b60405180910390f35b610390600480360381019061038b9190613dbb565b61116d565b005b34801561039e57600080fd5b506103b960048036038101906103b4919061383b565b611427565b6040516103c69190613de8565b60405180910390f35b3480156103db57600080fd5b506103f660048036038101906103f19190613c58565b611473565b6040516104039190613e03565b60405180910390f35b34801561041857600080fd5b50610433600480360381019061042e9190613e1e565b61148b565b005b34801561044157600080fd5b5061045c6004803603810190610457919061383b565b6115f2565b60405161046c9493929190613e5e565b60405180910390f35b61048f600480360381019061048a9190613c58565b611902565b005b34801561049d57600080fd5b506104b860048036038101906104b3919061383b565b611dd0565b005b3480156104c657600080fd5b506104e160048036038101906104dc919061383b565b611e89565b6040516104ee9190613eb1565b60405180910390f35b34801561050357600080fd5b5061051e60048036038101906105199190613eff565b611f2b565b005b34801561052c57600080fd5b506105476004803603810190610542919061383b565b612009565b6040516105549190613883565b60405180910390f35b34801561056957600080fd5b50610584600480360381019061057f919061383b565b61211f565b005b34801561059257600080fd5b506105ad60048036038101906105a8919061383b565b6122ae565b6040516105ba9190613de8565b60405180910390f35b3480156105cf57600080fd5b506105d86122cf565b6040516105e59190613f2c565b60405180910390f35b3480156105fa57600080fd5b506106036122f9565b6040516106109190613de8565b60405180910390f35b34801561062557600080fd5b5061062e612303565b60405161063b9190613de8565b60405180910390f35b34801561065057600080fd5b5061066b60048036038101906106669190613f47565b612309565b005b34801561067957600080fd5b50610694600480360381019061068f919061383b565b6126b0565b6040516106a19190613883565b60405180910390f35b3480156106b657600080fd5b506106d160048036038101906106cc919061383b565b612709565b005b3480156106df57600080fd5b506106fa60048036038101906106f59190613f87565b61281a565b005b34801561070857600080fd5b50610711612ba8565b60405161071e9190613de8565b60405180910390f35b34801561073357600080fd5b5061074e60048036038101906107499190613eff565b612bb4565b005b34801561075c57600080fd5b50610765612c2f565b6040516107729190613f2c565b60405180910390f35b34801561078757600080fd5b506107a2600480360381019061079d9190613dbb565b612c55565b005b3480156107b057600080fd5b506107cb60048036038101906107c6919061401e565b612f5e565b6040516107d89190613e03565b60405180910390f35b6107e9612f91565b005b3480156107f757600080fd5b5061080061313b565b60405161080d9190613de8565b60405180910390f35b34801561082257600080fd5b5061082b613143565b6040516108389190613de8565b60405180910390f35b34801561084d57600080fd5b506108686004803603810190610863919061383b565b61314c565b60405161087b979695949392919061405e565b60405180910390f35b34801561089057600080fd5b50610899613509565b005b600080600360008473ffffffffffffffffffffffffffffffffffffffff1673ffffffffffffffffffffffffffffffffffffffff16815260200190815260200160002060020160009054906101000a900460ff166003811115610900576108ff6140db565b5b905060028160ff161415610917576001915061091c565b600091505b50919050565b60006003811115610936576109356140db565b5b600360008373ffffffffffffffffffffffffffffffffffffffff1673ffffffffffffffffffffffffffffffffffffffff16815260200190815260200160002060020160009054906101000a900460ff166003811115610998576109976140db565b5b146109d8576040517f08c379a00000000000000000000000000000000000000000000000000000000081526004016109cf90614156565b60405180910390fd5b6109ee600160005461353190919063ffffffff16565b6000819055506040518060800160405280600054815260200183815260200160016003811115610a2157610a206140db565b5b81526020018273ffffffffffffffffffffffffffffffffffffffff16815250600360008373ffffffffffffffffffffffffffffffffffffffff1673ffffffffffffffffffffffffffffffffffffffff168152602001908152602001600020600082015181600001556020820151816001019080519060200190610aa592919061366a565b5060408201518160020160006101000a81548160ff02191690836003811115610ad157610ad06140db565b5b021790555060608201518160020160016101000a81548173ffffffffffffffffffffffffffffffffffffffff021916908373ffffffffffffffffffffffffffffffffffffffff16021790555090505060603073ffffffffffffffffffffffffffffffffffffffff16634e088046836040518263ffffffff1660e01b8152600401610b5b9190613f2c565b60006040518083038186803b158015610b7357600080fd5b505afa158015610b87573d6000803e3d6000fd5b505050506040513d6000823e3d601f19601f82011682018060405250810190610bb09190614210565b909192509091509050809150503373ffffffffffffffffffffffffffffffffffffffff167fce1dee3a3a541bee70a1b6baacdea5a02354238bbbeac531a8ddaceaa2a37aff4283604051610c059291906142af565b60405180910390a2505050565b6000600160149054906101000a900460ff16905090565b600960003273ffffffffffffffffffffffffffffffffffffffff1673ffffffffffffffffffffffffffffffffffffffff16815260200190815260200160002060000160009054906101000a900460ff1615610cb9576040517f08c379a0000000000000000000000000000000000000000000000000000000008152600401610cb09061432b565b60405180910390fd5b60038014610cfc576040517f08c379a0000000000000000000000000000000000000000000000000000000008152600401610cf390614397565b60405180910390fd5b604051806040016040528060011515815260200182815250600960003273ffffffffffffffffffffffffffffffffffffffff1673ffffffffffffffffffffffffffffffffffffffff16815260200190815260200160002060008201518160000160006101000a81548160ff021916908315150217905550602082015181600101906003610d8a9291906136f0565b509050503273ffffffffffffffffffffffffffffffffffffffff167fa10fa10a754470eaad1afcf8585e85a652d3ffe39b983f72eca381a6b122f17d82604051610dd49190613c07565b60405180910390a250565b610de761378a565b600960003373ffffffffffffffffffffffffffffffffffffffff1673ffffffffffffffffffffffffffffffffffffffff16815260200190815260200160002060000160009054906101000a900460ff16610e76576040517f08c379a0000000000000000000000000000000000000000000000000000000008152600401610e6d90614403565b60405180910390fd5b600960003373ffffffffffffffffffffffffffffffffffffffff1673ffffffffffffffffffffffffffffffffffffffff168152602001908152602001600020600101600380602002604051908101604052809291908260038015610f15576020028201916000905b82829054906101000a900460ff1660ff1681526020019060010190602082600001049283019260010382029150808411610ede5790505b5050505050905090565b600080606060008060008087141580610f3a57506006548711155b610f79576040517f08c379a0000000000000000000000000000000000000000000000000000000008152600401610f709061446f565b60405180910390fd5b600060086000898152602001908152602001600020549050600760008281526020019081526020016000206000015496506007600082815260200190815260200160002060010160009054906101000a900473ffffffffffffffffffffffffffffffffffffffff169550600760008281526020019081526020016000206002018054611004906144be565b80601f0160208091040260200160405190810160405280929190818152602001828054611030906144be565b801561107d5780601f106110525761010080835404028352916020019161107d565b820191906000526020600020905b81548152906001019060200180831161106057829003601f168201915b505050505094506007600082815260200190815260200160002060030160009054906101000a900460ff16935060076000828152602001908152602001600020600401549250600760008281526020019081526020016000206005015491505091939550919395565b600080600360008473ffffffffffffffffffffffffffffffffffffffff1673ffffffffffffffffffffffffffffffffffffffff16815260200190815260200160002060020160009054906101000a900460ff16600381111561114b5761114a6140db565b5b905060038160ff1614156111625760019150611167565b600091505b50919050565b323073ffffffffffffffffffffffffffffffffffffffff1663bf0a4f32826040518263ffffffff1660e01b81526004016111a79190613f2c565b60006040518083038186803b1580156111bf57600080fd5b505afa1580156111d3573d6000803e3d6000fd5b505050506000600360003273ffffffffffffffffffffffffffffffffffffffff1673ffffffffffffffffffffffffffffffffffffffff16815260200190815260200160002060020160009054906101000a900460ff16600381111561123b5761123a6140db565b5b905060038360ff161115611284576040517f08c379a000000000000000000000000000000000000000000000000000000000815260040161127b9061453c565b60405180910390fd5b8060ff168360ff16116112cc576040517f08c379a00000000000000000000000000000000000000000000000000000000081526004016112c3906145ce565b60405180910390fd5b60038060003273ffffffffffffffffffffffffffffffffffffffff1673ffffffffffffffffffffffffffffffffffffffff16815260200190815260200160002060020160006101000a81548160ff02191690836003811115611331576113306140db565b5b021790555060603073ffffffffffffffffffffffffffffffffffffffff16634e088046326040518263ffffffff1660e01b81526004016113719190613f2c565b60006040518083038186803b15801561138957600080fd5b505afa15801561139d573d6000803e3d6000fd5b505050506040513d6000823e3d601f19601f820116820180604052508101906113c69190614210565b909192509091509050809150503273ffffffffffffffffffffffffffffffffffffffff167f430b758c1e0fe319aaa192e7d56d4f39ae97698a3a489e48954ea3ce634c26e1826040516114199190613eb1565b60405180910390a250505050565b6000600b60008373ffffffffffffffffffffffffffffffffffffffff1673ffffffffffffffffffffffffffffffffffffffff168152602001908152602001600020600401549050919050565b60086020528060005260406000206000915090505481565b60008060008061149a85610f1f565b95509550509450945050816008600087815260200190815260200160002054146114f9576040517f08c379a00000000000000000000000000000000000000000000000000000000081526004016114f09061463a565b60405180910390fd5b6000868583604051602001611510939291906146f9565b60405160208183030381529060405280519060200120905032600a600083815260200190815260200160002060000160006101000a81548173ffffffffffffffffffffffffffffffffffffffff021916908373ffffffffffffffffffffffffffffffffffffffff1602179055506001600a600083815260200190815260200160002060000160146101000a81548160ff0219169083151502179055507f3a0e43c5577f0995b7cca5df8615d0aa2a07d84830fec6f0f8d1103d74ab584e878686856040516115e19493929190614736565b60405180910390a150505050505050565b60006060600060606000600360008773ffffffffffffffffffffffffffffffffffffffff1673ffffffffffffffffffffffffffffffffffffffff16815260200190815260200160002060020160009054906101000a900460ff16600381111561165e5761165d6140db565b5b905060008160ff1614156116a9576040518060400160405280600a81526020017f556e61737369676e6564000000000000000000000000000000000000000000008152509150611783565b60018160ff1614156116f2576040518060400160405280600781526020017f4170706c696564000000000000000000000000000000000000000000000000008152509150611782565b60028160ff16141561173b576040518060400160405280600a81526020017f52656769737465726564000000000000000000000000000000000000000000008152509150611781565b60038160ff161415611780576040518060400160405280600981526020017f436f6d6d6974746564000000000000000000000000000000000000000000000081525091505b5b5b5b600360008773ffffffffffffffffffffffffffffffffffffffff1673ffffffffffffffffffffffffffffffffffffffff168152602001908152602001600020600001549450600360008773ffffffffffffffffffffffffffffffffffffffff1673ffffffffffffffffffffffffffffffffffffffff1681526020019081526020016000206001018054611815906144be565b80601f0160208091040260200160405190810160405280929190818152602001828054611841906144be565b801561188e5780601f106118635761010080835404028352916020019161188e565b820191906000526020600020905b81548152906001019060200180831161187157829003601f168201915b50505050509350600360008773ffffffffffffffffffffffffffffffffffffffff1673ffffffffffffffffffffffffffffffffffffffff16815260200190815260200160002060020160019054906101000a900473ffffffffffffffffffffffffffffffffffffffff169250509193509193565b60008114158061191457506006548111155b611953576040517f08c379a000000000000000000000000000000000000000000000000000000000815260040161194a9061446f565b60405180910390fd5b600060086000838152602001908152602001600020549050600760008281526020019081526020016000206000015482146119c3576040517f08c379a00000000000000000000000000000000000000000000000000000000081526004016119ba906147ce565b60405180910390fd5b60008060003073ffffffffffffffffffffffffffffffffffffffff16634e0880466007600087815260200190815260200160002060010160009054906101000a900473ffffffffffffffffffffffffffffffffffffffff166040518263ffffffff1660e01b8152600401611a379190613f2c565b60006040518083038186803b158015611a4f57600080fd5b505afa158015611a63573d6000803e3d6000fd5b505050506040513d6000823e3d601f19601f82011682018060405250810190611a8c9190614210565b50925092509250670de0b6b3a7640000341115611ade576040517f08c379a0000000000000000000000000000000000000000000000000000000008152600401611ad59061483a565b60405180910390fd5b60003073ffffffffffffffffffffffffffffffffffffffff1634604051611b049061488b565b60006040518083038185875af1925050503d8060008114611b41576040519150601f19603f3d011682016040523d82523d6000602084013e611b46565b606091505b5050905080611b8a576040517f08c379a0000000000000000000000000000000000000000000000000000000008152600401611b81906148ec565b60405180910390fd5b6040518060e001604052808581526020018373ffffffffffffffffffffffffffffffffffffffff1681526020013373ffffffffffffffffffffffffffffffffffffffff16815260200184815260200134815260200160016002811115611bf357611bf26140db565b5b81526020016000815250600b60003373ffffffffffffffffffffffffffffffffffffffff1673ffffffffffffffffffffffffffffffffffffffff1681526020019081526020016000206000820151816000015560208201518160010160006101000a81548173ffffffffffffffffffffffffffffffffffffffff021916908373ffffffffffffffffffffffffffffffffffffffff16021790555060408201518160020160006101000a81548173ffffffffffffffffffffffffffffffffffffffff021916908373ffffffffffffffffffffffffffffffffffffffff1602179055506060820151816003019080519060200190611cf092919061366a565b506080820151816004015560a08201518160050160006101000a81548160ff02191690836002811115611d2657611d256140db565b5b021790555060c082015181600601559050503373ffffffffffffffffffffffffffffffffffffffff167fd7973fc11875159721f15bfe308594241b8801c905a8745183c4557e8ce879fb600b60003373ffffffffffffffffffffffffffffffffffffffff1673ffffffffffffffffffffffffffffffffffffffff16815260200190815260200160002060040154604051611dc09190613de8565b60405180910390a2505050505050565b60026003811115611de457611de36140db565b5b600360008373ffffffffffffffffffffffffffffffffffffffff1673ffffffffffffffffffffffffffffffffffffffff16815260200190815260200160002060020160009054906101000a900460ff166003811115611e4657611e456140db565b5b14611e86576040517f08c379a0000000000000000000000000000000000000000000000000000000008152600401611e7d90614958565b60405180910390fd5b50565b60603073ffffffffffffffffffffffffffffffffffffffff16634e088046836040518263ffffffff1660e01b8152600401611ec49190613f2c565b60006040518083038186803b158015611edc57600080fd5b505afa158015611ef0573d6000803e3d6000fd5b505050506040513d6000823e3d601f19601f82011682018060405250810190611f199190614210565b90919250909150905080915050919050565b323073ffffffffffffffffffffffffffffffffffffffff16635addd35a826040518263ffffffff1660e01b8152600401611f659190613f2c565b60006040518083038186803b158015611f7d57600080fd5b505afa158015611f91573d6000803e3d6000fd5b50505050811515600160149054906101000a900460ff1615151415611feb576040517f08c379a0000000000000000000000000000000000000000000000000000000008152600401611fe2906149c4565b60405180910390fd5b81600160146101000a81548160ff0219169083151502179055505050565b60006001600381111561201f5761201e6140db565b5b600360008473ffffffffffffffffffffffffffffffffffffffff1673ffffffffffffffffffffffffffffffffffffffff16815260200190815260200160002060020160009054906101000a900460ff166003811115612081576120806140db565b5b1415612090576001905061211a565b600260038111156120a4576120a36140db565b5b600360008473ffffffffffffffffffffffffffffffffffffffff1673ffffffffffffffffffffffffffffffffffffffff16815260200190815260200160002060020160009054906101000a900460ff166003811115612106576121056140db565b5b1415612115576001905061211a565b600090505b919050565b600160009054906101000a900473ffffffffffffffffffffffffffffffffffffffff1673ffffffffffffffffffffffffffffffffffffffff168173ffffffffffffffffffffffffffffffffffffffff1614806121ee57506001600381111561218a576121896140db565b5b600360008373ffffffffffffffffffffffffffffffffffffffff1673ffffffffffffffffffffffffffffffffffffffff16815260200190815260200160002060020160009054906101000a900460ff1660038111156121ec576121eb6140db565b5b145b8061226c575060026003811115612208576122076140db565b5b600360008373ffffffffffffffffffffffffffffffffffffffff1673ffffffffffffffffffffffffffffffffffffffff16815260200190815260200160002060020160009054906101000a900460ff16600381111561226a576122696140db565b5b145b6122ab576040517f08c379a00000000000000000000000000000000000000000000000000000000081526004016122a290614a30565b60405180910390fd5b50565b60008173ffffffffffffffffffffffffffffffffffffffff16319050919050565b6000600160009054906101000a900473ffffffffffffffffffffffffffffffffffffffff16905090565b6000600254905090565b60065481565b813073ffffffffffffffffffffffffffffffffffffffff1663837ee755826040518263ffffffff1660e01b81526004016123439190613f2c565b60006040518083038186803b15801561235b57600080fd5b505afa15801561236f573d6000803e3d6000fd5b50505050600160149054906101000a900460ff166123c2576040517f08c379a00000000000000000000000000000000000000000000000000000000081526004016123b990614a9c565b60405180910390fd5b6000600360008573ffffffffffffffffffffffffffffffffffffffff1673ffffffffffffffffffffffffffffffffffffffff16815260200190815260200160002060020160009054906101000a900460ff166003811115612426576124256140db565b5b905060038360ff16111561246f576040517f08c379a00000000000000000000000000000000000000000000000000000000081526004016124669061453c565b60405180910390fd5b8060ff168360ff16116124b7576040517f08c379a00000000000000000000000000000000000000000000000000000000081526004016124ae906145ce565b60405180910390fd5b6124bf613509565b8260ff1660038111156124d5576124d46140db565b5b600360008673ffffffffffffffffffffffffffffffffffffffff1673ffffffffffffffffffffffffffffffffffffffff16815260200190815260200160002060020160006101000a81548160ff02191690836003811115612539576125386140db565b5b0217905550612554600160025461353190919063ffffffff16565b600281905550600360008573ffffffffffffffffffffffffffffffffffffffff1673ffffffffffffffffffffffffffffffffffffffff16815260200190815260200160002060020160009054906101000a900460ff1660038111156125bc576125bb6140db565b5b905060603073ffffffffffffffffffffffffffffffffffffffff16634e088046866040518263ffffffff1660e01b81526004016125f99190613f2c565b60006040518083038186803b15801561261157600080fd5b505afa158015612625573d6000803e3d6000fd5b505050506040513d6000823e3d601f19601f8201168201806040525081019061264e9190614210565b909192509091509050809150508473ffffffffffffffffffffffffffffffffffffffff167f430b758c1e0fe319aaa192e7d56d4f39ae97698a3a489e48954ea3ce634c26e1826040516126a19190613eb1565b60405180910390a25050505050565b6000600960008373ffffffffffffffffffffffffffffffffffffffff1673ffffffffffffffffffffffffffffffffffffffff16815260200190815260200160002060000160009054906101000a900460ff169050919050565b6002600381111561271d5761271c6140db565b5b600360008373ffffffffffffffffffffffffffffffffffffffff1673ffffffffffffffffffffffffffffffffffffffff16815260200190815260200160002060020160009054906101000a900460ff16600381111561277f5761277e6140db565b5b14806127d85750600160009054906101000a900473ffffffffffffffffffffffffffffffffffffffff1673ffffffffffffffffffffffffffffffffffffffff168173ffffffffffffffffffffffffffffffffffffffff16145b612817576040517f08c379a000000000000000000000000000000000000000000000000000000000815260040161280e90614b08565b60405180910390fd5b50565b8460ff16600960003373ffffffffffffffffffffffffffffffffffffffff1673ffffffffffffffffffffffffffffffffffffffff16815260200190815260200160002060010160006003811061287357612872614b28565b5b602091828204019190069054906101000a900460ff1660ff16148061290757508460ff16600960003373ffffffffffffffffffffffffffffffffffffffff1673ffffffffffffffffffffffffffffffffffffffff1681526020019081526020016000206001016001600381106128ec576128eb614b28565b5b602091828204019190069054906101000a900460ff1660ff16145b8061298157508460ff16600960003373ffffffffffffffffffffffffffffffffffffffff1673ffffffffffffffffffffffffffffffffffffffff16815260200190815260200160002060010160026003811061296657612965614b28565b5b602091828204019190069054906101000a900460ff1660ff16145b6129c0576040517f08c379a00000000000000000000000000000000000000000000000000000000081526004016129b790614ba3565b60405180910390fd5b6000858585856040516020016129d99493929190614bff565b604051602081830303815290604052805190602001209050600a600082815260200190815260200160002060000160149054906101000a900460ff16612a54576040517f08c379a0000000000000000000000000000000000000000000000000000000008152600401612a4b90614c95565b60405180910390fd5b600a600082815260200190815260200160002060010160008360ff1660ff168152602001908152602001600020339080600181540180825580915050600190039060005260206000200160009091909190916101000a81548173ffffffffffffffffffffffffffffffffffffffff021916908373ffffffffffffffffffffffffffffffffffffffff1602179055507fa839af4f959d7bd6d8eceb0b5708ce624c4897ff372e880e885eef260bba62ba33858585604051612b179493929190614cb5565b60405180910390a16003600a600083815260200190815260200160002060010160008460ff1660ff1681526020019081526020016000208054905010612ba0577fd7353a1bb287d6f6f3bf0001f82ab7e6e1a04cdcc9724896017a04ea42c1510985858585604051612b8c9493929190614cb5565b60405180910390a1612b9f858484613547565b5b505050505050565b670de0b6b3a764000081565b612bbc6135d8565b801515600160149054906101000a900460ff1615151415612c12576040517f08c379a0000000000000000000000000000000000000000000000000000000008152600401612c0990614d4d565b60405180910390fd5b80600160146101000a81548160ff02191690831515021790555050565b600560009054906101000a900473ffffffffffffffffffffffffffffffffffffffff1681565b60003073ffffffffffffffffffffffffffffffffffffffff16633063b87a336040518263ffffffff1660e01b8152600401612c909190613f2c565b60206040518083038186803b158015612ca857600080fd5b505afa158015612cbc573d6000803e3d6000fd5b505050506040513d601f19601f82011682018060405250810190612ce09190614d82565b90506001151581151514612d29576040517f08c379a0000000000000000000000000000000000000000000000000000000008152600401612d2090614dfb565b60405180910390fd5b60008060003073ffffffffffffffffffffffffffffffffffffffff16634e088046336040518263ffffffff1660e01b8152600401612d679190613f2c565b60006040518083038186803b158015612d7f57600080fd5b505afa158015612d93573d6000803e3d6000fd5b505050506040513d6000823e3d601f19601f82011682018060405250810190612dbc9190614210565b50925092509250612dd9600160065461353190919063ffffffff16565b6006819055506000612deb3342612f5e565b90508060086000868152602001908152602001600020819055506040518060c001604052808581526020018373ffffffffffffffffffffffffffffffffffffffff1681526020018481526020018760ff16815260200182815260200142815250600760008381526020019081526020016000206000820151816000015560208201518160010160006101000a81548173ffffffffffffffffffffffffffffffffffffffff021916908373ffffffffffffffffffffffffffffffffffffffff1602179055506040820151816002019080519060200190612ecb92919061366a565b5060608201518160030160006101000a81548160ff021916908360ff1602179055506080820151816004015560a082015181600501559050503373ffffffffffffffffffffffffffffffffffffffff167f05023e85c1f832f6c16da81d43b114f6c4bce6fe45323820d27285d93cbb1b16824289604051612f4e93929190614e1b565b60405180910390a2505050505050565b60008282604051602001612f73929190614e52565b60405160208183030381529060405280519060200120905092915050565b600560009054906101000a900473ffffffffffffffffffffffffffffffffffffffff1673ffffffffffffffffffffffffffffffffffffffff163373ffffffffffffffffffffffffffffffffffffffff1614613021576040517f08c379a000000000000000000000000000000000000000000000000000000000815260040161301890614eca565b60405180910390fd5b600047905060008111613069576040517f08c379a000000000000000000000000000000000000000000000000000000000815260040161306090614f36565b60405180910390fd5b6000600560009054906101000a900473ffffffffffffffffffffffffffffffffffffffff1673ffffffffffffffffffffffffffffffffffffffff16826040516130b19061488b565b60006040518083038185875af1925050503d80600081146130ee576040519150601f19603f3d011682016040523d82523d6000602084013e6130f3565b606091505b5050905080613137576040517f08c379a000000000000000000000000000000000000000000000000000000000815260040161312e90614fa2565b60405180910390fd5b5050565b600047905090565b60008054905090565b6000806060600060606000806000600b60008a73ffffffffffffffffffffffffffffffffffffffff1673ffffffffffffffffffffffffffffffffffffffff16815260200190815260200160002060050160009054906101000a900460ff1660028111156131bc576131bb6140db565b5b905060008160ff161415613207576040518060400160405280600a81526020017f556e61737369676e6564000000000000000000000000000000000000000000008152509350613297565b60018160ff161415613250576040518060400160405280600481526020017f50616964000000000000000000000000000000000000000000000000000000008152509350613296565b60028160ff161415613295576040518060400160405280600781526020017f436c61696d65640000000000000000000000000000000000000000000000000081525093505b5b5b600b60008a73ffffffffffffffffffffffffffffffffffffffff1673ffffffffffffffffffffffffffffffffffffffff168152602001908152602001600020600001549750600b60008a73ffffffffffffffffffffffffffffffffffffffff1673ffffffffffffffffffffffffffffffffffffffff1681526020019081526020016000206003018054613329906144be565b80601f0160208091040260200160405190810160405280929190818152602001828054613355906144be565b80156133a25780601f10613377576101008083540402835291602001916133a2565b820191906000526020600020905b81548152906001019060200180831161338557829003601f168201915b50505050509550600b60008a73ffffffffffffffffffffffffffffffffffffffff1673ffffffffffffffffffffffffffffffffffffffff16815260200190815260200160002060010160009054906101000a900473ffffffffffffffffffffffffffffffffffffffff169650600b60008a73ffffffffffffffffffffffffffffffffffffffff1673ffffffffffffffffffffffffffffffffffffffff16815260200190815260200160002060020160009054906101000a900473ffffffffffffffffffffffffffffffffffffffff169450600b60008a73ffffffffffffffffffffffffffffffffffffffff1673ffffffffffffffffffffffffffffffffffffffff168152602001908152602001600020600401549250600b60008a73ffffffffffffffffffffffffffffffffffffffff1673ffffffffffffffffffffffffffffffffffffffff16815260200190815260200160002060060154915050919395979092949650565b60046002541061352f576000600160146101000a81548160ff0219169083151502179055505b565b6000818361353f9190614ff1565b905092915050565b60006135538484612f5e565b9050816007600083815260200190815260200160002060030160006101000a81548160ff021916908360ff1602179055508373ffffffffffffffffffffffffffffffffffffffff167ff33f667abf185b22863cb6ea218c4281933805d824e2bb743e3df37adde3f048846040516135ca9190613de8565b60405180910390a250505050565b600160009054906101000a900473ffffffffffffffffffffffffffffffffffffffff1673ffffffffffffffffffffffffffffffffffffffff163373ffffffffffffffffffffffffffffffffffffffff1614613668576040517f08c379a000000000000000000000000000000000000000000000000000000000815260040161365f90615093565b60405180910390fd5b565b828054613676906144be565b90600052602060002090601f01602090048101928261369857600085556136df565b82601f106136b157805160ff19168380011785556136df565b828001600101855582156136df579182015b828111156136de5782518255916020019190600101906136c3565b5b5090506136ec91906137ac565b5090565b826003601f016020900481019282156137795791602002820160005b8382111561374a57835183826101000a81548160ff021916908360ff160217905550926020019260010160208160000104928301926001030261370c565b80156137775782816101000a81549060ff021916905560010160208160000104928301926001030261374a565b505b50905061378691906137ac565b5090565b6040518060600160405280600390602082028036833780820191505090505090565b5b808211156137c55760008160009055506001016137ad565b5090565b6000604051905090565b600080fd5b600080fd5b600073ffffffffffffffffffffffffffffffffffffffff82169050919050565b6000613808826137dd565b9050919050565b613818816137fd565b811461382357600080fd5b50565b6000813590506138358161380f565b92915050565b600060208284031215613851576138506137d3565b5b600061385f84828501613826565b91505092915050565b60008115159050919050565b61387d81613868565b82525050565b60006020820190506138986000830184613874565b92915050565b600080fd5b600080fd5b6000601f19601f8301169050919050565b7f4e487b7100000000000000000000000000000000000000000000000000000000600052604160045260246000fd5b6138f1826138a8565b810181811067ffffffffffffffff821117156139105761390f6138b9565b5b80604052505050565b60006139236137c9565b905061392f82826138e8565b919050565b600067ffffffffffffffff82111561394f5761394e6138b9565b5b613958826138a8565b9050602081019050919050565b82818337600083830152505050565b600061398761398284613934565b613919565b9050828152602081018484840111156139a3576139a26138a3565b5b6139ae848285613965565b509392505050565b600082601f8301126139cb576139ca61389e565b5b81356139db848260208601613974565b91505092915050565b600080604083850312156139fb576139fa6137d3565b5b600083013567ffffffffffffffff811115613a1957613a186137d8565b5b613a25858286016139b6565b9250506020613a3685828601613826565b9150509250929050565b600067ffffffffffffffff821115613a5b57613a5a6138b9565b5b602082029050919050565b600080fd5b600060ff82169050919050565b613a8181613a6b565b8114613a8c57600080fd5b50565b600081359050613a9e81613a78565b92915050565b6000613ab7613ab284613a40565b613919565b90508060208402830185811115613ad157613ad0613a66565b5b835b81811015613afa5780613ae68882613a8f565b845260208401935050602081019050613ad3565b5050509392505050565b600082601f830112613b1957613b1861389e565b5b6003613b26848285613aa4565b91505092915050565b600060608284031215613b4557613b446137d3565b5b6000613b5384828501613b04565b91505092915050565b600060039050919050565b600081905092915050565b6000819050919050565b613b8581613a6b565b82525050565b6000613b978383613b7c565b60208301905092915050565b6000602082019050919050565b613bb981613b5c565b613bc38184613b67565b9250613bce82613b72565b8060005b83811015613bff578151613be68782613b8b565b9650613bf183613ba3565b925050600181019050613bd2565b505050505050565b6000606082019050613c1c6000830184613bb0565b92915050565b6000819050919050565b613c3581613c22565b8114613c4057600080fd5b50565b600081359050613c5281613c2c565b92915050565b600060208284031215613c6e57613c6d6137d3565b5b6000613c7c84828501613c43565b91505092915050565b613c8e81613c22565b82525050565b613c9d816137fd565b82525050565b600081519050919050565b600082825260208201905092915050565b60005b83811015613cdd578082015181840152602081019050613cc2565b83811115613cec576000848401525b50505050565b6000613cfd82613ca3565b613d078185613cae565b9350613d17818560208601613cbf565b613d20816138a8565b840191505092915050565b613d3481613a6b565b82525050565b6000819050919050565b613d4d81613d3a565b82525050565b600060c082019050613d686000830189613c85565b613d756020830188613c94565b8181036040830152613d878187613cf2565b9050613d966060830186613d2b565b613da36080830185613d44565b613db060a0830184613c85565b979650505050505050565b600060208284031215613dd157613dd06137d3565b5b6000613ddf84828501613a8f565b91505092915050565b6000602082019050613dfd6000830184613c85565b92915050565b6000602082019050613e186000830184613d44565b92915050565b60008060408385031215613e3557613e346137d3565b5b6000613e4385828601613a8f565b9250506020613e5485828601613c43565b9150509250929050565b6000608082019050613e736000830187613c85565b8181036020830152613e858186613cf2565b9050613e946040830185613c94565b8181036060830152613ea68184613cf2565b905095945050505050565b60006020820190508181036000830152613ecb8184613cf2565b905092915050565b613edc81613868565b8114613ee757600080fd5b50565b600081359050613ef981613ed3565b92915050565b600060208284031215613f1557613f146137d3565b5b6000613f2384828501613eea565b91505092915050565b6000602082019050613f416000830184613c94565b92915050565b60008060408385031215613f5e57613f5d6137d3565b5b6000613f6c85828601613826565b9250506020613f7d85828601613a8f565b9150509250929050565b600080600080600060a08688031215613fa357613fa26137d3565b5b6000613fb188828901613a8f565b9550506020613fc288828901613826565b945050604086013567ffffffffffffffff811115613fe357613fe26137d8565b5b613fef888289016139b6565b935050606061400088828901613c43565b925050608061401188828901613a8f565b9150509295509295909350565b60008060408385031215614035576140346137d3565b5b600061404385828601613826565b925050602061405485828601613c43565b9150509250929050565b600060e082019050614073600083018a613c85565b6140806020830189613c94565b81810360408301526140928188613cf2565b90506140a16060830187613c94565b81810360808301526140b38186613cf2565b90506140c260a0830185613c85565b6140cf60c0830184613c85565b98975050505050505050565b7f4e487b7100000000000000000000000000000000000000000000000000000000600052602160045260246000fd5b7f6169726c696e65206e6f7420696e20756e61737369676e656420737461746500600082015250565b6000614140601f83613cae565b915061414b8261410a565b602082019050919050565b6000602082019050818103600083015261416f81614133565b9050919050565b60008151905061418581613c2c565b92915050565b600061419e61419984613934565b613919565b9050828152602081018484840111156141ba576141b96138a3565b5b6141c5848285613cbf565b509392505050565b600082601f8301126141e2576141e161389e565b5b81516141f284826020860161418b565b91505092915050565b60008151905061420a8161380f565b92915050565b6000806000806080858703121561422a576142296137d3565b5b600061423887828801614176565b945050602085015167ffffffffffffffff811115614259576142586137d8565b5b614265878288016141cd565b9350506040614276878288016141fb565b925050606085015167ffffffffffffffff811115614297576142966137d8565b5b6142a3878288016141cd565b91505092959194509250565b60006040820190506142c46000830185613c85565b81810360208301526142d68184613cf2565b90509392505050565b7f4f522e2072656769737465726564000000000000000000000000000000000000600082015250565b6000614315600e83613cae565b9150614320826142df565b602082019050919050565b6000602082019050818103600083015261434481614308565b9050919050565b7f494e442e20526571000000000000000000000000000000000000000000000000600082015250565b6000614381600883613cae565b915061438c8261434b565b602082019050919050565b600060208201905081810360008301526143b081614374565b9050919050565b7f63616c6c6572206e6f742072656769737465726564206f7261636c6500000000600082015250565b60006143ed601c83613cae565b91506143f8826143b7565b602082019050919050565b6000602082019050818103600083015261441c816143e0565b9050919050565b7f696e76616c696420666c69676874206964000000000000000000000000000000600082015250565b6000614459601183613cae565b915061446482614423565b602082019050919050565b600060208201905081810360008301526144888161444c565b9050919050565b7f4e487b7100000000000000000000000000000000000000000000000000000000600052602260045260246000fd5b600060028204905060018216806144d657607f821691505b602082108114156144ea576144e961448f565b5b50919050565b7f6e6f742077697468696e20656e756d2072616e67650000000000000000000000600082015250565b6000614526601583613cae565b9150614531826144f0565b602082019050919050565b6000602082019050818103600083015261455581614519565b9050919050565b7f7374617475732063616e6e6f74206265206c6f776572207468616e206375727260008201527f656e742073746174650000000000000000000000000000000000000000000000602082015250565b60006145b8602983613cae565b91506145c38261455c565b604082019050919050565b600060208201905081810360008301526145e7816145ab565b9050919050565b7f4e4520666c696768740000000000000000000000000000000000000000000000600082015250565b6000614624600983613cae565b915061462f826145ee565b602082019050919050565b6000602082019050818103600083015261465381614617565b9050919050565b60008160f81b9050919050565b60006146728261465a565b9050919050565b61468a61468582613a6b565b614667565b82525050565b60008160601b9050919050565b60006146a882614690565b9050919050565b60006146ba8261469d565b9050919050565b6146d26146cd826137fd565b6146af565b82525050565b6000819050919050565b6146f36146ee82613c22565b6146d8565b82525050565b60006147058286614679565b60018201915061471582856146c1565b60148201915061472582846146e2565b602082019150819050949350505050565b600060808201905061474b6000830187613d2b565b6147586020830186613c94565b818103604083015261476a8185613cf2565b90506147796060830184613c85565b95945050505050565b7f666c6967687420646f6573206e6f742065786973740000000000000000000000600082015250565b60006147b8601583613cae565b91506147c382614782565b602082019050919050565b600060208201905081810360008301526147e7816147ab565b9050919050565b7f3145544820696e737572616e6365206d75737420626520706169640000000000600082015250565b6000614824601b83613cae565b915061482f826147ee565b602082019050919050565b6000602082019050818103600083015261485381614817565b9050919050565b600081905092915050565b50565b600061487560008361485a565b915061488082614865565b600082019050919050565b600061489682614868565b9150819050919050565b7f6661696c656420746f2073656e64204554480000000000000000000000000000600082015250565b60006148d6601283613cae565b91506148e1826148a0565b602082019050919050565b60006020820190508181036000830152614905816148c9565b9050919050565b7f63616c6c6572206e6f7420726567697374657265640000000000000000000000600082015250565b6000614942601583613cae565b915061494d8261490c565b602082019050919050565b6000602082019050818103600083015261497181614935565b9050919050565b7f616c726561647920696e206f7065726174696f6e616c206d6f64650000000000600082015250565b60006149ae601b83613cae565b91506149b982614978565b602082019050919050565b600060208201905081810360008301526149dd816149a1565b9050919050565b7f6169726c696e65206e6f7420617574686f72697a656400000000000000000000600082015250565b6000614a1a601683613cae565b9150614a25826149e4565b602082019050919050565b60006020820190508181036000830152614a4981614a0d565b9050919050565b7f636f6e7472616374206e6f74206f7065726174696f6e616c0000000000000000600082015250565b6000614a86601883613cae565b9150614a9182614a50565b602082019050919050565b60006020820190508181036000830152614ab581614a79565b9050919050565b7f6e6f7420617574686f72697a656420746f207265676973746572000000000000600082015250565b6000614af2601a83613cae565b9150614afd82614abc565b602082019050919050565b60006020820190508181036000830152614b2181614ae5565b9050919050565b7f4e487b7100000000000000000000000000000000000000000000000000000000600052603260045260246000fd5b7f494458206d69736d617463680000000000000000000000000000000000000000600082015250565b6000614b8d600c83613cae565b9150614b9882614b57565b602082019050919050565b60006020820190508181036000830152614bbc81614b80565b9050919050565b600081905092915050565b6000614bd982613ca3565b614be38185614bc3565b9350614bf3818560208601613cbf565b80840191505092915050565b6000614c0b8287614679565b600182019150614c1b82866146c1565b601482019150614c2b8285614bce565b9150614c3782846146e2565b60208201915081905095945050505050565b7f466c692e206f722074696d6573742e206d69736d617463680000000000000000600082015250565b6000614c7f601883613cae565b9150614c8a82614c49565b602082019050919050565b60006020820190508181036000830152614cae81614c72565b9050919050565b6000608082019050614cca6000830187613c94565b8181036020830152614cdc8186613cf2565b9050614ceb6040830185613c85565b614cf86060830184613d2b565b95945050505050565b7f6d757374206e6f742062652063757272656e7420737461747573000000000000600082015250565b6000614d37601a83613cae565b9150614d4282614d01565b602082019050919050565b60006020820190508181036000830152614d6681614d2a565b9050919050565b600081519050614d7c81613ed3565b92915050565b600060208284031215614d9857614d976137d3565b5b6000614da684828501614d6d565b91505092915050565b7f6169726c696e65206e6f7420636f6d6d69746564000000000000000000000000600082015250565b6000614de5601483613cae565b9150614df082614daf565b602082019050919050565b60006020820190508181036000830152614e1481614dd8565b9050919050565b6000606082019050614e306000830186613d44565b614e3d6020830185613c85565b614e4a6040830184613d2b565b949350505050565b6000614e5e82856146c1565b601482019150614e6e82846146e2565b6020820191508190509392505050565b7f6e6f74206f776e72000000000000000000000000000000000000000000000000600082015250565b6000614eb4600883613cae565b9150614ebf82614e7e565b602082019050919050565b60006020820190508181036000830152614ee381614ea7565b9050919050565b7f6e6f2061762e2045544800000000000000000000000000000000000000000000600082015250565b6000614f20600a83613cae565b9150614f2b82614eea565b602082019050919050565b60006020820190508181036000830152614f4f81614f13565b9050919050565b7f6661696c656420746f2073656e64206574686572000000000000000000000000600082015250565b6000614f8c601483613cae565b9150614f9782614f56565b602082019050919050565b60006020820190508181036000830152614fbb81614f7f565b9050919050565b7f4e487b7100000000000000000000000000000000000000000000000000000000600052601160045260246000fd5b6000614ffc82613c22565b915061500783613c22565b9250827fffffffffffffffffffffffffffffffffffffffffffffffffffffffffffffffff0382111561503c5761503b614fc2565b5b828201905092915050565b7f63616c6c6572206e6f74206f776e657200000000000000000000000000000000600082015250565b600061507d601083613cae565b915061508882615047565b602082019050919050565b600060208201905081810360008301526150ac81615070565b905091905056fea2646970667358221220df3fdd840cf8a619eb1a28d873dab8a8fe00ef4cc84d8ca6b6352e596b16d0bf64736f6c63430008090033",
  "immutableReferences": {},
  "source": "// SPDX-License-Identifier: MIT\npragma solidity ^0.8.0;\n\nimport '@openzeppelin/contracts/utils/math/SafeMath.sol';\nimport './AirlineData.sol';\n\ncontract FlightSuretyData is AirlineData {\n  using SafeMath for uint256;\n\n  /********************************************************************************************/\n  /*                                      FLIGHT STATE VARIABLES                          */\n  /******************************************************************************************/\n\n  address public contractOwner;\n\n  // Flight status codes\n  uint8 private constant STATUS_CODE_UNKNOWN = 0;\n  uint8 private constant STATUS_CODE_ON_TIME = 10;\n  uint8 private constant STATUS_CODE_LATE_AIRLINE = 20;\n  uint8 private constant STATUS_CODE_LATE_WEATHER = 30;\n  uint8 private constant STATUS_CODE_LATE_TECHNICAL = 40;\n  uint8 private constant STATUS_CODE_LATE_OTHER = 50;\n\n  uint256 public flightCounter = 0;\n  struct Flight {\n    uint256 id;\n    address airline;\n    string flightName;\n    uint8 statusCode;\n    bytes32 flightKey;\n    uint256 timestamp;\n\n  }\n\n  mapping(bytes32 => Flight) private flights;\n\n  mapping(uint256 => bytes32) public flightKeys;\n\n  /********************************************************************************************/\n  /*                                      FLIGHT EVENTS                                      */\n  /******************************************************************************************/\n\n  event LogFlightRegistered(bytes32 flightKey, address indexed airline, uint256 timestamp, uint8 statusCode);\n  event LogFlightStatusProcessed(address indexed airline, uint256 timestamp);\n\n   // Event fired when flight status request is requested\n  event LogOracleRequest(uint8 index, address airline, string flight, uint256 timestamp);\n\n\n   constructor() {\n    contractOwner = msg.sender;\n\n  }\n\n  /********************************************************************************************/\n  /*                                      FLIGHT CORE FUNCTIONS                 */\n  /******************************************************************************************/\n  \n  // Register flight\n  function registerFlight(uint8 _statusCode) public {\n    (bool checkStatus ) = this.isAirlineCommitted(msg.sender);\n    require(checkStatus == true, 'airline not commited');\n\n    (uint256 id, string memory name, address airlineAccount,) = this.getAirlineDetails(msg.sender);  \n\n    flightCounter = flightCounter.add(1);\n    \n\n    bytes32 flightKey = generateFlightKey(msg.sender, block.timestamp);\n\n    flightKeys[id] = flightKey;\n  \n\n    flights[flightKey] = Flight({\n      id: id,\n      airline: airlineAccount,\n      flightName: name,\n      statusCode: _statusCode,\n      flightKey: flightKey,\n      timestamp: block.timestamp\n    });\n\n    emit LogFlightRegistered(flightKey, msg.sender, block.timestamp, _statusCode);\n  }\n\n  function processFlightStatus(address _airline, uint256 _timestamp, uint8 _statusCode)  private {\n    bytes32 key = generateFlightKey(_airline, _timestamp);\n    flights[key].statusCode = _statusCode;\n\n    emit LogFlightStatusProcessed(_airline, _timestamp);\n  }\n\n  // Generate a request for oracles  to fetch flight information\n  function fetchFlightStatus(uint8 _index, uint256 _flightId) external {\n    (, address airline, string memory flightName,, bytes32 flightKey, uint256 timestamp) = getFlightDetails(_flightId);\n\n    require(flightKeys[_flightId] == flightKey, 'NE flight');\n\n\n\n    // uint8 index = getRandomIndex(msg.sender);\n\n    // Generate a unique key for storing  the request\n    bytes32 key = keccak256(abi.encodePacked(_index, airline, timestamp));\n    oracleResponses[key].requester = tx.origin;\n    oracleResponses[key].isOpen = true;\n\n\n    emit LogOracleRequest(_index, airline, flightName, timestamp);\n  }\n\n  // Get flight details\n  function getFlightDetails(uint256 _flightId) public view returns\n    (\n      uint256 id, \n      address airline, \n      string memory flightName,\n      uint8 statusCode, \n      bytes32 flightKey, \n      uint256 timestamp\n\n    )\n  {\n    require(_flightId != 0 || _flightId <= flightCounter, 'invalid flight id');\n    bytes32 key = flightKeys[_flightId];\n    id = flights[key].id;\n    airline = flights[key].airline;\n    flightName = flights[key].flightName;\n    statusCode = flights[key].statusCode;\n    flightKey = flights[key].flightKey;\n    timestamp = flights[key].timestamp;\n    \n  }\n  \n  /********************************************************************************************/\n  /*                                      FLIGHT UTILITY FUNCTIONS                 */\n  /******************************************************************************************/\n\n  function generateFlightKey(address _airline, uint256 _timestamp) public pure returns(bytes32) {\n    return keccak256(abi.encodePacked(_airline, _timestamp));\n  }\n\n  /*__________________________________ORACLE______________________________*/\n\n  \n  /********************************************************************************************/\n  /*                               ORACLE STATE VARIABLES                                    */\n  /******************************************************************************************/\n  // Number of oracles that must respond for valid status\n  uint256 private constant  MIN_RESPONSES = 3;\n\n  struct Oracle {\n    bool isRegistered;\n    uint8[3] indexes;\n  }\n\n  // Track all registered oracles\n  mapping(address => Oracle) private oracles; \n\n  // Model for responses from oracles\n  struct ResponseInfo {\n    address requester;  // account that triggered the requested status\n    bool isOpen;        // if open, oracle responses are accepted\n    mapping(uint8 => address[]) responses; // key is the status code reported\n  }\n\n  // Track all oracle responses \n  mapping(bytes32 => ResponseInfo) oracleResponses;\n\n\n  /********************************************************************************************/\n  /*                                    ORACLE  EVENTS                                             */\n  /******************************************************************************************/\n  event LogOracleRegistered(address indexed oracle, uint8[3] indexes);\n\n  // Event fired each time an oracle submits a response\n  event LogFlightStatusInfo(address airline, string flight, uint256 timestamp, uint8 statusCode);\n\n  event LogOracleReport(address airline, string airlineName, uint256 timestamp, uint8 status);\n\n  /********************************************************************************************/\n  /*                                      ORACLE CORE FUNCTIONS                              */\n  /******************************************************************************************/\n  function registerOracle(uint8[3] memory _indexes) external payable {\n    require(!oracles[tx.origin].isRegistered, 'OR. registered');\n    require(_indexes.length == 3, 'IND. Req');\n    oracles[tx.origin] = Oracle({\n      isRegistered: true,\n      indexes: _indexes\n    });\n\n    emit LogOracleRegistered(tx.origin, _indexes);\n  }\n  \n\n  /**\n    * @dev Called by oracle in response to an outstanding request\n    * response is only valid if there's a pending open request status  and  that its responxe index matches that which was assigned during oracle registration\n   */\n  function submitOracleResponse\n    (\n      uint8 _index, \n      address _airline, \n      string memory _airlineName, \n      uint256 _timestamp, \n      uint8 _statusCode\n    ) external \n  {\n    require((oracles[msg.sender].indexes[0] == _index) || (oracles[msg.sender].indexes[1] == _index) || (oracles[msg.sender].indexes[2] == _index), 'IDX mismatch');\n    bytes32 key = keccak256(abi.encodePacked(_index, _airline, _airlineName, _timestamp));\n    require(oracleResponses[key].isOpen, 'Fli. or timest. mismatch');\n    oracleResponses[key].responses[_statusCode].push(msg.sender);\n\n    // oracle response is not valid until MIN_RESPONSES threshold is reached\n    emit LogOracleReport(msg.sender, _airlineName, _timestamp, _statusCode);\n    if(oracleResponses[key].responses[_statusCode].length >= MIN_RESPONSES) {\n      emit LogFlightStatusInfo(_airline, _airlineName, _timestamp, _statusCode);\n      processFlightStatus(_airline, _timestamp, _statusCode);\n    }\n  }\n\n  /********************************************************************************************/\n  /*                                      ORACLE UTILITY FUNCTIONS                           */\n  /******************************************************************************************/\n  function getOracleIndexes() external view returns(uint8[3] memory) {\n    require(oracles[msg.sender].isRegistered, 'caller not registered oracle');\n    return oracles[msg.sender].indexes;\n\n  }\n\n  function isOracleRegistered(address _account) public view returns(bool) {\n    return oracles[_account].isRegistered;\n  }\n\n \n \n  /*__________________________________PASSENGER_______________________________*/\n\n\n  /********************************************************************************************/\n  /*                                      PASSENGER STATE VARIABLE FUNCTIONS                            */\n  /********************************************************************************************/\n\n  enum PassengerInsuranceState {\n    Unassigned,\n    Paid,\n    Claimed\n  }\n\n  struct Insurance {\n    uint256 id;\n    address flightAddress;\n    address passenger;\n    string flightName;\n    uint256 amount;\n    PassengerInsuranceState state;\n    uint256 refundAmount;\n  }\n\n  mapping(address =>  Insurance) passengersInsurance;\n\n  \n  uint256 public constant PASSENGER_INSURANCE_FEE = 1 ether;\n\n\n  /********************************************************************************************/\n  /*                                       EVENT                            */\n  /********************************************************************************************/\n  event LogPassengerInsurance(address indexed account, uint256 amount);\n\n\n  /*******************************************************************************************/\n  /*                                       PASSENGER FUNCTIONS                         */\n  /*****************************************************************************************/\n\n  function payInsurance(uint256 _flightId)  external payable {\n    require(_flightId != 0 || _flightId <= flightCounter, 'invalid flight id');\n\n    bytes32 key = flightKeys[_flightId];\n    require(_flightId == flights[key].id, \"flight does not exist\");\n\n    \n    // require(airlines[_account].status == AirlineStatus.Committed, 'flight does not exist');\n    // require(passengersInsurance[tx.origin].state == PassengerInsuranceState.Unassigned, 'insurance exits');\n    (uint256 id, string memory name, address airlineAccount,) = this.getAirlineDetails(flights[key].airline);\n\n    require(msg.value <= PASSENGER_INSURANCE_FEE, '1ETH insurance must be paid');\n    (bool send, ) = address(this).call{value: msg.value}('');\n    require(send, 'failed to send ETH');\n\n    passengersInsurance[msg.sender] = Insurance({\n      id: id,\n      flightAddress: airlineAccount,\n      passenger: msg.sender,\n      flightName: name, \n      amount: msg.value,\n      state: PassengerInsuranceState.Paid,\n      refundAmount: 0\n    });\n\n    emit LogPassengerInsurance(msg.sender, passengersInsurance[msg.sender].amount);\n  }\n\n  /***********************************,********************************************************/\n  /*                                       PASSENGER UTILITY FUNCTIONS                         */\n  /*****************************************************************************************/\n  function getPassengerDetails(address _account) external view returns\n    (\n      uint256 id, \n      address flightAddress,\n      string memory flightName, \n      address passenger, \n      string memory state, \n      uint256 amount, \n      uint256 refundAmount\n    ) \n  \n  {\n    uint8 passengerState = uint8(passengersInsurance[_account].state);\n    if(passengerState == 0) {\n      state = 'Unassigned';\n    } else if(passengerState == 1) {\n      state = 'Paid';\n    } else if(passengerState == 2) {\n      state = 'Claimed';\n    } \n    \n    id = passengersInsurance[_account].id;\n    flightName = passengersInsurance[_account].flightName;\n    flightAddress = passengersInsurance[_account].flightAddress;\n    passenger = passengersInsurance[_account].passenger;\n    amount = passengersInsurance[_account].amount;\n    refundAmount = passengersInsurance[_account].refundAmount;\n    \n    return (id, flightAddress, flightName, passenger, state, amount, refundAmount);\n    \n  }\n\n  function getPassengerBalance(address _account) external view returns(uint256) {\n    return passengersInsurance[_account].amount;\n  }\n\n  /********************************************************************************************/\n  /*                                      CONTRACT RECEIVE ETHER                                */\n  /********************************************************************************************/\n\n  function emergencyWithdraw() external payable {\n    require(msg.sender == contractOwner, 'not ownr');\n    uint256 contractBalance = address(this).balance;\n    require(contractBalance > 0, 'no av. ETH');\n    \n    (bool sent,) = payable(contractOwner).call{value: contractBalance}('');\n    require(sent, 'failed to send ether');\n  }\n\n\n\n  /********************************************************************************************/\n  /*                                      CONTRACT RECEIVE ETHER                                */\n  /********************************************************************************************/\n  receive() payable external {\n\n  }\n\n}\n",
  "sourcePath": "/home/sprtd/Desktop/Udacity/lesson-5-flight-surety/flight-surety-project/contracts/FlightSuretyData.sol",
  "compiler": {
    "name": "solc",
    "version": "0.8.9+commit.e5eed63a.Emscripten.clang"
  },
  "schemaVersion": "3.4.3",
  "updatedAt": "2021-11-09T10:09:40.999Z",
  "networkType": "ethereum",
  "devdoc": {
    "kind": "dev",
    "methods": {
      "submitOracleResponse(uint8,address,string,uint256,uint8)": {
        "details": "Called by oracle in response to an outstanding request response is only valid if there's a pending open request status  and  that its responxe index matches that which was assigned during oracle registration"
      }
    },
    "version": 1
  },
  "userdoc": {
    "kind": "user",
    "methods": {},
    "version": 1
  }
}