{
  "contractName": "FlightSuretyData",
  "abi": [
    {
      "inputs": [],
      "stateMutability": "nonpayable",
      "type": "constructor"
    },
    {
      "anonymous": false,
      "inputs": [
        {
          "indexed": true,
          "internalType": "address",
          "name": "account",
          "type": "address"
        },
        {
          "indexed": false,
          "internalType": "uint256",
          "name": "timestamp",
          "type": "uint256"
        },
        {
          "indexed": false,
          "internalType": "string",
          "name": "airlineStatus",
          "type": "string"
        }
      ],
      "name": "LogCreatedAirline",
      "type": "event"
    },
    {
      "anonymous": false,
      "inputs": [
        {
          "indexed": false,
          "internalType": "string",
          "name": "name",
          "type": "string"
        },
        {
          "indexed": false,
          "internalType": "bytes32",
          "name": "flightKey",
          "type": "bytes32"
        },
        {
          "indexed": true,
          "internalType": "address",
          "name": "airline",
          "type": "address"
        },
        {
          "indexed": false,
          "internalType": "uint256",
          "name": "timestamp",
          "type": "uint256"
        },
        {
          "indexed": false,
          "internalType": "uint8",
          "name": "statusCode",
          "type": "uint8"
        }
      ],
      "name": "LogFlightRegistered",
      "type": "event"
    },
    {
      "anonymous": false,
      "inputs": [
        {
          "indexed": false,
          "internalType": "address",
          "name": "airline",
          "type": "address"
        },
        {
          "indexed": false,
          "internalType": "uint256",
          "name": "timestamp",
          "type": "uint256"
        },
        {
          "indexed": false,
          "internalType": "uint8",
          "name": "statusCode",
          "type": "uint8"
        }
      ],
      "name": "LogFlightStatusInfo",
      "type": "event"
    },
    {
      "anonymous": false,
      "inputs": [
        {
          "indexed": true,
          "internalType": "address",
          "name": "airline",
          "type": "address"
        },
        {
          "indexed": false,
          "internalType": "uint256",
          "name": "timestamp",
          "type": "uint256"
        },
        {
          "indexed": false,
          "internalType": "uint8",
          "name": "statusCode",
          "type": "uint8"
        }
      ],
      "name": "LogFlightStatusProcessed",
      "type": "event"
    },
    {
      "anonymous": false,
      "inputs": [
        {
          "indexed": true,
          "internalType": "address",
          "name": "oracle",
          "type": "address"
        },
        {
          "indexed": false,
          "internalType": "uint8[3]",
          "name": "indexes",
          "type": "uint8[3]"
        }
      ],
      "name": "LogOracleRegistered",
      "type": "event"
    },
    {
      "anonymous": false,
      "inputs": [
        {
          "indexed": false,
          "internalType": "address",
          "name": "airline",
          "type": "address"
        },
        {
          "indexed": false,
          "internalType": "uint256",
          "name": "timestamp",
          "type": "uint256"
        },
        {
          "indexed": false,
          "internalType": "uint8",
          "name": "status",
          "type": "uint8"
        }
      ],
      "name": "LogOracleReport",
      "type": "event"
    },
    {
      "anonymous": false,
      "inputs": [
        {
          "indexed": false,
          "internalType": "uint8",
          "name": "index",
          "type": "uint8"
        },
        {
          "indexed": false,
          "internalType": "address",
          "name": "airline",
          "type": "address"
        },
        {
          "indexed": false,
          "internalType": "string",
          "name": "flight",
          "type": "string"
        },
        {
          "indexed": false,
          "internalType": "uint256",
          "name": "timestamp",
          "type": "uint256"
        }
      ],
      "name": "LogOracleRequest",
      "type": "event"
    },
    {
      "anonymous": false,
      "inputs": [
        {
          "indexed": true,
          "internalType": "address",
          "name": "account",
          "type": "address"
        },
        {
          "indexed": false,
          "internalType": "uint256",
          "name": "amount",
          "type": "uint256"
        }
      ],
      "name": "LogPassengerInsurance",
      "type": "event"
    },
    {
      "anonymous": false,
      "inputs": [
        {
          "indexed": true,
          "internalType": "address",
          "name": "account",
          "type": "address"
        },
        {
          "indexed": false,
          "internalType": "string",
          "name": "airlineStatus",
          "type": "string"
        }
      ],
      "name": "LogStatusUpdated",
      "type": "event"
    },
    {
      "inputs": [],
      "name": "PASSENGER_INSURANCE_FEE",
      "outputs": [
        {
          "internalType": "uint256",
          "name": "",
          "type": "uint256"
        }
      ],
      "stateMutability": "view",
      "type": "function",
      "constant": true
    },
    {
      "inputs": [],
      "name": "contractOwner",
      "outputs": [
        {
          "internalType": "address",
          "name": "",
          "type": "address"
        }
      ],
      "stateMutability": "view",
      "type": "function",
      "constant": true
    },
    {
      "inputs": [
        {
          "internalType": "string",
          "name": "_name",
          "type": "string"
        },
        {
          "internalType": "address",
          "name": "_account",
          "type": "address"
        }
      ],
      "name": "createNewAirline",
      "outputs": [],
      "stateMutability": "nonpayable",
      "type": "function"
    },
    {
      "inputs": [],
      "name": "disableOperational",
      "outputs": [],
      "stateMutability": "nonpayable",
      "type": "function"
    },
    {
      "inputs": [
        {
          "internalType": "bool",
          "name": "_status",
          "type": "bool"
        }
      ],
      "name": "enableOperationalStatus",
      "outputs": [],
      "stateMutability": "nonpayable",
      "type": "function"
    },
    {
      "inputs": [],
      "name": "flightCounter",
      "outputs": [
        {
          "internalType": "uint256",
          "name": "",
          "type": "uint256"
        }
      ],
      "stateMutability": "view",
      "type": "function",
      "constant": true
    },
    {
      "inputs": [
        {
          "internalType": "uint256",
          "name": "",
          "type": "uint256"
        }
      ],
      "name": "flightKeys",
      "outputs": [
        {
          "internalType": "bytes32",
          "name": "",
          "type": "bytes32"
        }
      ],
      "stateMutability": "view",
      "type": "function",
      "constant": true
    },
    {
      "inputs": [
        {
          "internalType": "address",
          "name": "_account",
          "type": "address"
        }
      ],
      "name": "getAirlineApplicationStatus",
      "outputs": [
        {
          "internalType": "string",
          "name": "status",
          "type": "string"
        }
      ],
      "stateMutability": "view",
      "type": "function",
      "constant": true
    },
    {
      "inputs": [
        {
          "internalType": "address",
          "name": "_account",
          "type": "address"
        }
      ],
      "name": "getAirlineAuthorizationStatus",
      "outputs": [
        {
          "internalType": "bool",
          "name": "status",
          "type": "bool"
        }
      ],
      "stateMutability": "view",
      "type": "function",
      "constant": true
    },
    {
      "inputs": [
        {
          "internalType": "address",
          "name": "_account",
          "type": "address"
        }
      ],
      "name": "getAirlineBalance",
      "outputs": [
        {
          "internalType": "uint256",
          "name": "",
          "type": "uint256"
        }
      ],
      "stateMutability": "view",
      "type": "function",
      "constant": true
    },
    {
      "inputs": [
        {
          "internalType": "address",
          "name": "_account",
          "type": "address"
        }
      ],
      "name": "getAirlineDetails",
      "outputs": [
        {
          "internalType": "uint256",
          "name": "id",
          "type": "uint256"
        },
        {
          "internalType": "string",
          "name": "name",
          "type": "string"
        },
        {
          "internalType": "address",
          "name": "airlineAccount",
          "type": "address"
        },
        {
          "internalType": "string",
          "name": "state",
          "type": "string"
        }
      ],
      "stateMutability": "view",
      "type": "function",
      "constant": true
    },
    {
      "inputs": [],
      "name": "getDataBalance",
      "outputs": [
        {
          "internalType": "uint256",
          "name": "",
          "type": "uint256"
        }
      ],
      "stateMutability": "view",
      "type": "function",
      "constant": true
    },
    {
      "inputs": [],
      "name": "getOperationalStatus",
      "outputs": [
        {
          "internalType": "bool",
          "name": "",
          "type": "bool"
        }
      ],
      "stateMutability": "view",
      "type": "function",
      "constant": true
    },
    {
      "inputs": [],
      "name": "getOwner",
      "outputs": [
        {
          "internalType": "address",
          "name": "",
          "type": "address"
        }
      ],
      "stateMutability": "view",
      "type": "function",
      "constant": true
    },
    {
      "inputs": [],
      "name": "getTotalAppliedAirlines",
      "outputs": [
        {
          "internalType": "uint256",
          "name": "",
          "type": "uint256"
        }
      ],
      "stateMutability": "view",
      "type": "function",
      "constant": true
    },
    {
      "inputs": [],
      "name": "getTotalRegisteredAirlines",
      "outputs": [
        {
          "internalType": "uint256",
          "name": "",
          "type": "uint256"
        }
      ],
      "stateMutability": "view",
      "type": "function",
      "constant": true
    },
    {
      "inputs": [
        {
          "internalType": "address",
          "name": "_account",
          "type": "address"
        }
      ],
      "name": "isAirlineCommitted",
      "outputs": [
        {
          "internalType": "bool",
          "name": "checkStatus",
          "type": "bool"
        }
      ],
      "stateMutability": "view",
      "type": "function",
      "constant": true
    },
    {
      "inputs": [
        {
          "internalType": "address",
          "name": "_account",
          "type": "address"
        }
      ],
      "name": "isAirlineRegistered",
      "outputs": [
        {
          "internalType": "bool",
          "name": "checkStatus",
          "type": "bool"
        }
      ],
      "stateMutability": "view",
      "type": "function",
      "constant": true
    },
    {
      "inputs": [
        {
          "internalType": "address",
          "name": "_account",
          "type": "address"
        }
      ],
      "name": "onlyAuthorizeRegistrants",
      "outputs": [],
      "stateMutability": "view",
      "type": "function",
      "constant": true
    },
    {
      "inputs": [
        {
          "internalType": "address",
          "name": "_account",
          "type": "address"
        }
      ],
      "name": "onlyAuthorizedAirlines",
      "outputs": [],
      "stateMutability": "view",
      "type": "function",
      "constant": true
    },
    {
      "inputs": [
        {
          "internalType": "address",
          "name": "_account",
          "type": "address"
        }
      ],
      "name": "onlyRegisteredAirlines",
      "outputs": [],
      "stateMutability": "view",
      "type": "function",
      "constant": true
    },
    {
      "inputs": [
        {
          "internalType": "bool",
          "name": "_status",
          "type": "bool"
        }
      ],
      "name": "setOperatinalStatus",
      "outputs": [],
      "stateMutability": "nonpayable",
      "type": "function"
    },
    {
      "inputs": [
        {
          "internalType": "address",
          "name": "_account",
          "type": "address"
        },
        {
          "internalType": "uint8",
          "name": "_state",
          "type": "uint8"
        }
      ],
      "name": "updateAirlineStatus",
      "outputs": [],
      "stateMutability": "nonpayable",
      "type": "function"
    },
    {
      "inputs": [
        {
          "internalType": "uint8",
          "name": "_state",
          "type": "uint8"
        }
      ],
      "name": "updateToCommitState",
      "outputs": [],
      "stateMutability": "payable",
      "type": "function",
      "payable": true
    },
    {
      "stateMutability": "payable",
      "type": "receive",
      "payable": true
    },
    {
      "inputs": [
        {
          "internalType": "uint8",
          "name": "_statusCode",
          "type": "uint8"
        }
      ],
      "name": "registerFlight",
      "outputs": [],
      "stateMutability": "nonpayable",
      "type": "function"
    },
    {
      "inputs": [
        {
          "internalType": "uint8",
          "name": "_index",
          "type": "uint8"
        },
        {
          "internalType": "uint256",
          "name": "_flightId",
          "type": "uint256"
        }
      ],
      "name": "fetchFlightStatus",
      "outputs": [],
      "stateMutability": "nonpayable",
      "type": "function"
    },
    {
      "inputs": [
        {
          "internalType": "uint256",
          "name": "_flightId",
          "type": "uint256"
        }
      ],
      "name": "getFlightDetails",
      "outputs": [
        {
          "internalType": "uint256",
          "name": "id",
          "type": "uint256"
        },
        {
          "internalType": "address",
          "name": "airline",
          "type": "address"
        },
        {
          "internalType": "string",
          "name": "flightName",
          "type": "string"
        },
        {
          "internalType": "uint8",
          "name": "statusCode",
          "type": "uint8"
        },
        {
          "internalType": "bytes32",
          "name": "flightKey",
          "type": "bytes32"
        },
        {
          "internalType": "uint256",
          "name": "timestamp",
          "type": "uint256"
        }
      ],
      "stateMutability": "view",
      "type": "function",
      "constant": true
    },
    {
      "inputs": [
        {
          "internalType": "address",
          "name": "_airline",
          "type": "address"
        },
        {
          "internalType": "uint256",
          "name": "_timestamp",
          "type": "uint256"
        }
      ],
      "name": "generateFlightKey",
      "outputs": [
        {
          "internalType": "bytes32",
          "name": "",
          "type": "bytes32"
        }
      ],
      "stateMutability": "pure",
      "type": "function",
      "constant": true
    },
    {
      "inputs": [
        {
          "internalType": "uint8[3]",
          "name": "_indexes",
          "type": "uint8[3]"
        }
      ],
      "name": "registerOracle",
      "outputs": [],
      "stateMutability": "payable",
      "type": "function",
      "payable": true
    },
    {
      "inputs": [
        {
          "internalType": "uint8",
          "name": "_index",
          "type": "uint8"
        },
        {
          "internalType": "address",
          "name": "_airline",
          "type": "address"
        },
        {
          "internalType": "uint256",
          "name": "_timestamp",
          "type": "uint256"
        },
        {
          "internalType": "uint8",
          "name": "_statusCode",
          "type": "uint8"
        }
      ],
      "name": "submitOracleResponse",
      "outputs": [],
      "stateMutability": "nonpayable",
      "type": "function"
    },
    {
      "inputs": [],
      "name": "getOracleIndexes",
      "outputs": [
        {
          "internalType": "uint8[3]",
          "name": "",
          "type": "uint8[3]"
        }
      ],
      "stateMutability": "view",
      "type": "function",
      "constant": true
    },
    {
      "inputs": [
        {
          "internalType": "address",
          "name": "_account",
          "type": "address"
        }
      ],
      "name": "isOracleRegistered",
      "outputs": [
        {
          "internalType": "bool",
          "name": "",
          "type": "bool"
        }
      ],
      "stateMutability": "view",
      "type": "function",
      "constant": true
    },
    {
      "inputs": [
        {
          "internalType": "uint256",
          "name": "_flightId",
          "type": "uint256"
        }
      ],
      "name": "payInsurance",
      "outputs": [],
      "stateMutability": "payable",
      "type": "function",
      "payable": true
    },
    {
      "inputs": [
        {
          "internalType": "address",
          "name": "_account",
          "type": "address"
        }
      ],
      "name": "getPassengerDetails",
      "outputs": [
        {
          "internalType": "uint256",
          "name": "id",
          "type": "uint256"
        },
        {
          "internalType": "address",
          "name": "flightAddress",
          "type": "address"
        },
        {
          "internalType": "string",
          "name": "flightName",
          "type": "string"
        },
        {
          "internalType": "address",
          "name": "passenger",
          "type": "address"
        },
        {
          "internalType": "string",
          "name": "state",
          "type": "string"
        },
        {
          "internalType": "uint256",
          "name": "amount",
          "type": "uint256"
        },
        {
          "internalType": "uint256",
          "name": "refundAmount",
          "type": "uint256"
        }
      ],
      "stateMutability": "view",
      "type": "function",
      "constant": true
    },
    {
      "inputs": [
        {
          "internalType": "address",
          "name": "_account",
          "type": "address"
        }
      ],
      "name": "getPassengerBalance",
      "outputs": [
        {
          "internalType": "uint256",
          "name": "",
          "type": "uint256"
        }
      ],
      "stateMutability": "view",
      "type": "function",
      "constant": true
    },
    {
      "inputs": [],
      "name": "emergencyWithdraw",
      "outputs": [],
      "stateMutability": "payable",
      "type": "function",
      "payable": true
    }
  ],
  "bytecode": "0x6080604052600060065534801561001557600080fd5b5033600160006101000a81548173ffffffffffffffffffffffffffffffffffffffff021916908373ffffffffffffffffffffffffffffffffffffffff16021790555060018060146101000a81548160ff02191690831515021790555033600560006101000a81548173ffffffffffffffffffffffffffffffffffffffff021916908373ffffffffffffffffffffffffffffffffffffffff160217905550615111806100c16000396000f3fe6080604052600436106102135760003560e01c806389208e7211610118578063c968089e116100a0578063db2e21bc1161006f578063db2e21bc146107e1578063e0313fe6146107eb578063efa3327b14610816578063efbd588e14610841578063f243be18146108845761021a565b8063c968089e14610727578063ce606ee014610750578063d1fc5c511461077b578063d539e7ef146107a45761021a565b8063b10f057b116100e7578063b10f057b14610644578063b9b55c9a1461066d578063bb5f77b7146106aa578063bf0a4f32146106d3578063c36515b6146106fc5761021a565b806389208e7214610586578063893d20e8146105c3578063994de453146105ee578063aee1b2a1146106195761021a565b80633d21d8271161019b5780635addd35a1161016a5780635addd35a1461049157806369beb8fb146104ba5780637008414d146104f75780638042601f14610520578063837ee7551461055d5761021a565b80633d21d827146103cf5780634b5c9d531461040c5780634e08804614610435578063508e264e146104755761021a565b8063175a2ead116101e2578063175a2ead146102cc57806318535008146102f75780633063b87a1461033957806336061cca14610376578063385de787146103925761021a565b8063010c5c971461021f5780630b2653d51461025c5780630c982673146102855780630cfc7e44146102b05761021a565b3661021a57005b600080fd5b34801561022b57600080fd5b5061024660048036038101906102419190613884565b61089b565b60405161025391906138cc565b60405180910390f35b34801561026857600080fd5b50610283600480360381019061027e9190613a2d565b610922565b005b34801561029157600080fd5b5061029a610c03565b6040516102a791906138cc565b60405180910390f35b6102ca60048036038101906102c59190613b78565b610c1a565b005b3480156102d857600080fd5b506102e1610dd0565b6040516102ee9190613c50565b60405180910390f35b34801561030357600080fd5b5061031e60048036038101906103199190613ca1565b610f10565b60405161033096959493929190613d9c565b60405180910390f35b34801561034557600080fd5b50610360600480360381019061035b9190613884565b6110d7565b60405161036d91906138cc565b60405180910390f35b610390600480360381019061038b9190613e04565b61115e565b005b34801561039e57600080fd5b506103b960048036038101906103b49190613884565b611409565b6040516103c69190613e31565b60405180910390f35b3480156103db57600080fd5b506103f660048036038101906103f19190613ca1565b611455565b6040516104039190613e4c565b60405180910390f35b34801561041857600080fd5b50610433600480360381019061042e9190613e67565b61146d565b005b34801561044157600080fd5b5061045c60048036038101906104579190613884565b6115d4565b60405161046c9493929190613ea7565b60405180910390f35b61048f600480360381019061048a9190613ca1565b6118e4565b005b34801561049d57600080fd5b506104b860048036038101906104b39190613884565b611e58565b005b3480156104c657600080fd5b506104e160048036038101906104dc9190613884565b611f11565b6040516104ee9190613efa565b60405180910390f35b34801561050357600080fd5b5061051e60048036038101906105199190613f48565b611fa4565b005b34801561052c57600080fd5b5061054760048036038101906105429190613884565b612082565b60405161055491906138cc565b60405180910390f35b34801561056957600080fd5b50610584600480360381019061057f9190613884565b612198565b005b34801561059257600080fd5b506105ad60048036038101906105a89190613884565b612327565b6040516105ba9190613e31565b60405180910390f35b3480156105cf57600080fd5b506105d8612348565b6040516105e59190613f75565b60405180910390f35b3480156105fa57600080fd5b50610603612372565b6040516106109190613e31565b60405180910390f35b34801561062557600080fd5b5061062e61237c565b60405161063b9190613e31565b60405180910390f35b34801561065057600080fd5b5061066b60048036038101906106669190613f90565b612382565b005b34801561067957600080fd5b50610694600480360381019061068f9190613884565b61271a565b6040516106a191906138cc565b60405180910390f35b3480156106b657600080fd5b506106d160048036038101906106cc9190613fd0565b612773565b005b3480156106df57600080fd5b506106fa60048036038101906106f59190613884565b612afa565b005b34801561070857600080fd5b50610711612c0b565b60405161071e9190613e31565b60405180910390f35b34801561073357600080fd5b5061074e60048036038101906107499190613f48565b612c17565b005b34801561075c57600080fd5b50610765612c92565b6040516107729190613f75565b60405180910390f35b34801561078757600080fd5b506107a2600480360381019061079d9190613e04565b612cb8565b005b3480156107b057600080fd5b506107cb60048036038101906107c69190614037565b612fa5565b6040516107d89190613e4c565b60405180910390f35b6107e9612fd8565b005b3480156107f757600080fd5b50610800613182565b60405161080d9190613e31565b60405180910390f35b34801561082257600080fd5b5061082b61318a565b6040516108389190613e31565b60405180910390f35b34801561084d57600080fd5b5061086860048036038101906108639190613884565b613193565b60405161087b9796959493929190614077565b60405180910390f35b34801561089057600080fd5b50610899613550565b005b600080600360008473ffffffffffffffffffffffffffffffffffffffff1673ffffffffffffffffffffffffffffffffffffffff16815260200190815260200160002060020160009054906101000a900460ff166003811115610900576108ff6140f4565b5b905060028160ff161415610917576001915061091c565b600091505b50919050565b60006003811115610936576109356140f4565b5b600360008373ffffffffffffffffffffffffffffffffffffffff1673ffffffffffffffffffffffffffffffffffffffff16815260200190815260200160002060020160009054906101000a900460ff166003811115610998576109976140f4565b5b146109d8576040517f08c379a00000000000000000000000000000000000000000000000000000000081526004016109cf9061416f565b60405180910390fd5b6109ee600160005461357890919063ffffffff16565b6000819055506040518060800160405280600054815260200183815260200160016003811115610a2157610a206140f4565b5b81526020018273ffffffffffffffffffffffffffffffffffffffff16815250600360008373ffffffffffffffffffffffffffffffffffffffff1673ffffffffffffffffffffffffffffffffffffffff168152602001908152602001600020600082015181600001556020820151816001019080519060200190610aa59291906136b3565b5060408201518160020160006101000a81548160ff02191690836003811115610ad157610ad06140f4565b5b021790555060608201518160020160016101000a81548173ffffffffffffffffffffffffffffffffffffffff021916908373ffffffffffffffffffffffffffffffffffffffff16021790555090505060603073ffffffffffffffffffffffffffffffffffffffff16634e088046836040518263ffffffff1660e01b8152600401610b5b9190613f75565b600060405180830381865afa158015610b78573d6000803e3d6000fd5b505050506040513d6000823e3d601f19601f82011682018060405250810190610ba19190614229565b909192509091509050809150503373ffffffffffffffffffffffffffffffffffffffff167fce1dee3a3a541bee70a1b6baacdea5a02354238bbbeac531a8ddaceaa2a37aff4283604051610bf69291906142c8565b60405180910390a2505050565b6000600160149054906101000a900460ff16905090565b600960003273ffffffffffffffffffffffffffffffffffffffff1673ffffffffffffffffffffffffffffffffffffffff16815260200190815260200160002060000160009054906101000a900460ff1615610caa576040517f08c379a0000000000000000000000000000000000000000000000000000000008152600401610ca190614344565b60405180910390fd5b60038014610ced576040517f08c379a0000000000000000000000000000000000000000000000000000000008152600401610ce4906143b0565b60405180910390fd5b604051806040016040528060011515815260200182815250600960003273ffffffffffffffffffffffffffffffffffffffff1673ffffffffffffffffffffffffffffffffffffffff16815260200190815260200160002060008201518160000160006101000a81548160ff021916908315150217905550602082015181600101906003610d7b929190613739565b509050503273ffffffffffffffffffffffffffffffffffffffff167fa10fa10a754470eaad1afcf8585e85a652d3ffe39b983f72eca381a6b122f17d82604051610dc59190613c50565b60405180910390a250565b610dd86137d3565b600960003373ffffffffffffffffffffffffffffffffffffffff1673ffffffffffffffffffffffffffffffffffffffff16815260200190815260200160002060000160009054906101000a900460ff16610e67576040517f08c379a0000000000000000000000000000000000000000000000000000000008152600401610e5e9061441c565b60405180910390fd5b600960003373ffffffffffffffffffffffffffffffffffffffff1673ffffffffffffffffffffffffffffffffffffffff168152602001908152602001600020600101600380602002604051908101604052809291908260038015610f06576020028201916000905b82829054906101000a900460ff1660ff1681526020019060010190602082600001049283019260010382029150808411610ecf5790505b5050505050905090565b600080606060008060008087141580610f2b57506006548711155b610f6a576040517f08c379a0000000000000000000000000000000000000000000000000000000008152600401610f6190614488565b60405180910390fd5b600060086000898152602001908152602001600020549050600760008281526020019081526020016000206000015496506007600082815260200190815260200160002060010160009054906101000a900473ffffffffffffffffffffffffffffffffffffffff169550600760008281526020019081526020016000206002018054610ff5906144d7565b80601f0160208091040260200160405190810160405280929190818152602001828054611021906144d7565b801561106e5780601f106110435761010080835404028352916020019161106e565b820191906000526020600020905b81548152906001019060200180831161105157829003601f168201915b505050505094506007600082815260200190815260200160002060030160009054906101000a900460ff16935060076000828152602001908152602001600020600401549250600760008281526020019081526020016000206005015491505091939550919395565b600080600360008473ffffffffffffffffffffffffffffffffffffffff1673ffffffffffffffffffffffffffffffffffffffff16815260200190815260200160002060020160009054906101000a900460ff16600381111561113c5761113b6140f4565b5b905060038160ff1614156111535760019150611158565b600091505b50919050565b323073ffffffffffffffffffffffffffffffffffffffff1663bf0a4f32826040518263ffffffff1660e01b81526004016111989190613f75565b60006040518083038186803b1580156111b057600080fd5b505afa1580156111c4573d6000803e3d6000fd5b505050506000600360003273ffffffffffffffffffffffffffffffffffffffff1673ffffffffffffffffffffffffffffffffffffffff16815260200190815260200160002060020160009054906101000a900460ff16600381111561122c5761122b6140f4565b5b905060038360ff161115611275576040517f08c379a000000000000000000000000000000000000000000000000000000000815260040161126c90614555565b60405180910390fd5b8060ff168360ff16116112bd576040517f08c379a00000000000000000000000000000000000000000000000000000000081526004016112b4906145e7565b60405180910390fd5b60038060003273ffffffffffffffffffffffffffffffffffffffff1673ffffffffffffffffffffffffffffffffffffffff16815260200190815260200160002060020160006101000a81548160ff02191690836003811115611322576113216140f4565b5b021790555060603073ffffffffffffffffffffffffffffffffffffffff16634e088046326040518263ffffffff1660e01b81526004016113629190613f75565b600060405180830381865afa15801561137f573d6000803e3d6000fd5b505050506040513d6000823e3d601f19601f820116820180604052508101906113a89190614229565b909192509091509050809150503273ffffffffffffffffffffffffffffffffffffffff167f430b758c1e0fe319aaa192e7d56d4f39ae97698a3a489e48954ea3ce634c26e1826040516113fb9190613efa565b60405180910390a250505050565b6000600b60008373ffffffffffffffffffffffffffffffffffffffff1673ffffffffffffffffffffffffffffffffffffffff168152602001908152602001600020600401549050919050565b60086020528060005260406000206000915090505481565b60008060008061147c85610f10565b95509550509450945050816008600087815260200190815260200160002054146114db576040517f08c379a00000000000000000000000000000000000000000000000000000000081526004016114d290614653565b60405180910390fd5b60008685836040516020016114f293929190614712565b60405160208183030381529060405280519060200120905032600a600083815260200190815260200160002060000160006101000a81548173ffffffffffffffffffffffffffffffffffffffff021916908373ffffffffffffffffffffffffffffffffffffffff1602179055506001600a600083815260200190815260200160002060000160146101000a81548160ff0219169083151502179055507f3a0e43c5577f0995b7cca5df8615d0aa2a07d84830fec6f0f8d1103d74ab584e878686856040516115c3949392919061474f565b60405180910390a150505050505050565b60006060600060606000600360008773ffffffffffffffffffffffffffffffffffffffff1673ffffffffffffffffffffffffffffffffffffffff16815260200190815260200160002060020160009054906101000a900460ff1660038111156116405761163f6140f4565b5b905060008160ff16141561168b576040518060400160405280600a81526020017f556e61737369676e6564000000000000000000000000000000000000000000008152509150611765565b60018160ff1614156116d4576040518060400160405280600781526020017f4170706c696564000000000000000000000000000000000000000000000000008152509150611764565b60028160ff16141561171d576040518060400160405280600a81526020017f52656769737465726564000000000000000000000000000000000000000000008152509150611763565b60038160ff161415611762576040518060400160405280600981526020017f436f6d6d6974746564000000000000000000000000000000000000000000000081525091505b5b5b5b600360008773ffffffffffffffffffffffffffffffffffffffff1673ffffffffffffffffffffffffffffffffffffffff168152602001908152602001600020600001549450600360008773ffffffffffffffffffffffffffffffffffffffff1673ffffffffffffffffffffffffffffffffffffffff16815260200190815260200160002060010180546117f7906144d7565b80601f0160208091040260200160405190810160405280929190818152602001828054611823906144d7565b80156118705780601f1061184557610100808354040283529160200191611870565b820191906000526020600020905b81548152906001019060200180831161185357829003601f168201915b50505050509350600360008773ffffffffffffffffffffffffffffffffffffffff1673ffffffffffffffffffffffffffffffffffffffff16815260200190815260200160002060020160019054906101000a900473ffffffffffffffffffffffffffffffffffffffff169250509193509193565b670de0b6b3a7640000341461192e576040517f08c379a0000000000000000000000000000000000000000000000000000000008152600401611925906147e7565b60405180910390fd5b60008114158061194057506006548111155b61197f576040517f08c379a000000000000000000000000000000000000000000000000000000000815260040161197690614488565b60405180910390fd5b600060086000838152602001908152602001600020549050600760008281526020019081526020016000206000015482146119ef576040517f08c379a00000000000000000000000000000000000000000000000000000000081526004016119e690614853565b60405180910390fd5b60006002811115611a0357611a026140f4565b5b600b60003273ffffffffffffffffffffffffffffffffffffffff1673ffffffffffffffffffffffffffffffffffffffff16815260200190815260200160002060050160009054906101000a900460ff166002811115611a6557611a646140f4565b5b14611aa5576040517f08c379a0000000000000000000000000000000000000000000000000000000008152600401611a9c906148bf565b60405180910390fd5b60008060003073ffffffffffffffffffffffffffffffffffffffff16634e0880466007600087815260200190815260200160002060010160009054906101000a900473ffffffffffffffffffffffffffffffffffffffff166040518263ffffffff1660e01b8152600401611b199190613f75565b600060405180830381865afa158015611b36573d6000803e3d6000fd5b505050506040513d6000823e3d601f19601f82011682018060405250810190611b5f9190614229565b5092509250925060003073ffffffffffffffffffffffffffffffffffffffff1634604051611b8c90614910565b60006040518083038185875af1925050503d8060008114611bc9576040519150601f19603f3d011682016040523d82523d6000602084013e611bce565b606091505b5050905080611c12576040517f08c379a0000000000000000000000000000000000000000000000000000000008152600401611c0990614971565b60405180910390fd5b6040518060e001604052808581526020018373ffffffffffffffffffffffffffffffffffffffff1681526020013373ffffffffffffffffffffffffffffffffffffffff16815260200184815260200134815260200160016002811115611c7b57611c7a6140f4565b5b81526020016000815250600b60003373ffffffffffffffffffffffffffffffffffffffff1673ffffffffffffffffffffffffffffffffffffffff1681526020019081526020016000206000820151816000015560208201518160010160006101000a81548173ffffffffffffffffffffffffffffffffffffffff021916908373ffffffffffffffffffffffffffffffffffffffff16021790555060408201518160020160006101000a81548173ffffffffffffffffffffffffffffffffffffffff021916908373ffffffffffffffffffffffffffffffffffffffff1602179055506060820151816003019080519060200190611d789291906136b3565b506080820151816004015560a08201518160050160006101000a81548160ff02191690836002811115611dae57611dad6140f4565b5b021790555060c082015181600601559050503373ffffffffffffffffffffffffffffffffffffffff167fd7973fc11875159721f15bfe308594241b8801c905a8745183c4557e8ce879fb600b60003373ffffffffffffffffffffffffffffffffffffffff1673ffffffffffffffffffffffffffffffffffffffff16815260200190815260200160002060040154604051611e489190613e31565b60405180910390a2505050505050565b60026003811115611e6c57611e6b6140f4565b5b600360008373ffffffffffffffffffffffffffffffffffffffff1673ffffffffffffffffffffffffffffffffffffffff16815260200190815260200160002060020160009054906101000a900460ff166003811115611ece57611ecd6140f4565b5b14611f0e576040517f08c379a0000000000000000000000000000000000000000000000000000000008152600401611f05906149dd565b60405180910390fd5b50565b60603073ffffffffffffffffffffffffffffffffffffffff16634e088046836040518263ffffffff1660e01b8152600401611f4c9190613f75565b600060405180830381865afa158015611f69573d6000803e3d6000fd5b505050506040513d6000823e3d601f19601f82011682018060405250810190611f929190614229565b90919250909150905080915050919050565b323073ffffffffffffffffffffffffffffffffffffffff16635addd35a826040518263ffffffff1660e01b8152600401611fde9190613f75565b60006040518083038186803b158015611ff657600080fd5b505afa15801561200a573d6000803e3d6000fd5b50505050811515600160149054906101000a900460ff1615151415612064576040517f08c379a000000000000000000000000000000000000000000000000000000000815260040161205b90614a49565b60405180910390fd5b81600160146101000a81548160ff0219169083151502179055505050565b600060016003811115612098576120976140f4565b5b600360008473ffffffffffffffffffffffffffffffffffffffff1673ffffffffffffffffffffffffffffffffffffffff16815260200190815260200160002060020160009054906101000a900460ff1660038111156120fa576120f96140f4565b5b14156121095760019050612193565b6002600381111561211d5761211c6140f4565b5b600360008473ffffffffffffffffffffffffffffffffffffffff1673ffffffffffffffffffffffffffffffffffffffff16815260200190815260200160002060020160009054906101000a900460ff16600381111561217f5761217e6140f4565b5b141561218e5760019050612193565b600090505b919050565b600160009054906101000a900473ffffffffffffffffffffffffffffffffffffffff1673ffffffffffffffffffffffffffffffffffffffff168173ffffffffffffffffffffffffffffffffffffffff161480612267575060016003811115612203576122026140f4565b5b600360008373ffffffffffffffffffffffffffffffffffffffff1673ffffffffffffffffffffffffffffffffffffffff16815260200190815260200160002060020160009054906101000a900460ff166003811115612265576122646140f4565b5b145b806122e5575060026003811115612281576122806140f4565b5b600360008373ffffffffffffffffffffffffffffffffffffffff1673ffffffffffffffffffffffffffffffffffffffff16815260200190815260200160002060020160009054906101000a900460ff1660038111156122e3576122e26140f4565b5b145b612324576040517f08c379a000000000000000000000000000000000000000000000000000000000815260040161231b90614ab5565b60405180910390fd5b50565b60008173ffffffffffffffffffffffffffffffffffffffff16319050919050565b6000600160009054906101000a900473ffffffffffffffffffffffffffffffffffffffff16905090565b6000600254905090565b60065481565b813073ffffffffffffffffffffffffffffffffffffffff1663837ee755826040518263ffffffff1660e01b81526004016123bc9190613f75565b60006040518083038186803b1580156123d457600080fd5b505afa1580156123e8573d6000803e3d6000fd5b50505050600160149054906101000a900460ff1661243b576040517f08c379a000000000000000000000000000000000000000000000000000000000815260040161243290614b21565b60405180910390fd5b6000600360008573ffffffffffffffffffffffffffffffffffffffff1673ffffffffffffffffffffffffffffffffffffffff16815260200190815260200160002060020160009054906101000a900460ff16600381111561249f5761249e6140f4565b5b905060038360ff1611156124e8576040517f08c379a00000000000000000000000000000000000000000000000000000000081526004016124df90614555565b60405180910390fd5b8060ff168360ff1611612530576040517f08c379a0000000000000000000000000000000000000000000000000000000008152600401612527906145e7565b60405180910390fd5b612538613550565b8260ff16600381111561254e5761254d6140f4565b5b600360008673ffffffffffffffffffffffffffffffffffffffff1673ffffffffffffffffffffffffffffffffffffffff16815260200190815260200160002060020160006101000a81548160ff021916908360038111156125b2576125b16140f4565b5b02179055506125cd600160025461357890919063ffffffff16565b600281905550600360008573ffffffffffffffffffffffffffffffffffffffff1673ffffffffffffffffffffffffffffffffffffffff16815260200190815260200160002060020160009054906101000a900460ff166003811115612635576126346140f4565b5b905060603073ffffffffffffffffffffffffffffffffffffffff16634e088046866040518263ffffffff1660e01b81526004016126729190613f75565b600060405180830381865afa15801561268f573d6000803e3d6000fd5b505050506040513d6000823e3d601f19601f820116820180604052508101906126b89190614229565b909192509091509050809150508473ffffffffffffffffffffffffffffffffffffffff167f430b758c1e0fe319aaa192e7d56d4f39ae97698a3a489e48954ea3ce634c26e18260405161270b9190613efa565b60405180910390a25050505050565b6000600960008373ffffffffffffffffffffffffffffffffffffffff1673ffffffffffffffffffffffffffffffffffffffff16815260200190815260200160002060000160009054906101000a900460ff169050919050565b8360ff16600960003373ffffffffffffffffffffffffffffffffffffffff1673ffffffffffffffffffffffffffffffffffffffff1681526020019081526020016000206001016000600381106127cc576127cb614b41565b5b602091828204019190069054906101000a900460ff1660ff16148061286057508360ff16600960003373ffffffffffffffffffffffffffffffffffffffff1673ffffffffffffffffffffffffffffffffffffffff16815260200190815260200160002060010160016003811061284557612844614b41565b5b602091828204019190069054906101000a900460ff1660ff16145b806128da57508360ff16600960003373ffffffffffffffffffffffffffffffffffffffff1673ffffffffffffffffffffffffffffffffffffffff1681526020019081526020016000206001016002600381106128bf576128be614b41565b5b602091828204019190069054906101000a900460ff1660ff16145b612919576040517f08c379a000000000000000000000000000000000000000000000000000000000815260040161291090614bbc565b60405180910390fd5b600084848460405160200161293093929190614712565b604051602081830303815290604052805190602001209050600a600082815260200190815260200160002060000160149054906101000a900460ff166129ab576040517f08c379a00000000000000000000000000000000000000000000000000000000081526004016129a290614c28565b60405180910390fd5b600a600082815260200190815260200160002060010160008360ff1660ff168152602001908152602001600020339080600181540180825580915050600190039060005260206000200160009091909190916101000a81548173ffffffffffffffffffffffffffffffffffffffff021916908373ffffffffffffffffffffffffffffffffffffffff1602179055507fb8650a93ecc0ca0f98cc666f4311ff57952df40fe0f4273cfaffff63a4a213b1338484604051612a6c93929190614c48565b60405180910390a16003600a600083815260200190815260200160002060010160008460ff1660ff1681526020019081526020016000208054905010612af3577faba78ea442c3e3a65dff2c24b74d3f6703baf6d9e16bdf3c508336527f827a09848484604051612adf93929190614c48565b60405180910390a1612af284848461358e565b5b5050505050565b60026003811115612b0e57612b0d6140f4565b5b600360008373ffffffffffffffffffffffffffffffffffffffff1673ffffffffffffffffffffffffffffffffffffffff16815260200190815260200160002060020160009054906101000a900460ff166003811115612b7057612b6f6140f4565b5b1480612bc95750600160009054906101000a900473ffffffffffffffffffffffffffffffffffffffff1673ffffffffffffffffffffffffffffffffffffffff168173ffffffffffffffffffffffffffffffffffffffff16145b612c08576040517f08c379a0000000000000000000000000000000000000000000000000000000008152600401612bff90614ccb565b60405180910390fd5b50565b670de0b6b3a764000081565b612c1f613621565b801515600160149054906101000a900460ff1615151415612c75576040517f08c379a0000000000000000000000000000000000000000000000000000000008152600401612c6c90614d37565b60405180910390fd5b80600160146101000a81548160ff02191690831515021790555050565b600560009054906101000a900473ffffffffffffffffffffffffffffffffffffffff1681565b60003073ffffffffffffffffffffffffffffffffffffffff16633063b87a336040518263ffffffff1660e01b8152600401612cf39190613f75565b602060405180830381865afa158015612d10573d6000803e3d6000fd5b505050506040513d601f19601f82011682018060405250810190612d349190614d6c565b90506001151581151514612d7d576040517f08c379a0000000000000000000000000000000000000000000000000000000008152600401612d7490614de5565b60405180910390fd5b60008060003073ffffffffffffffffffffffffffffffffffffffff16634e088046336040518263ffffffff1660e01b8152600401612dbb9190613f75565b600060405180830381865afa158015612dd8573d6000803e3d6000fd5b505050506040513d6000823e3d601f19601f82011682018060405250810190612e019190614229565b50925092509250612e1e600160065461357890919063ffffffff16565b6006819055506000612e303342612fa5565b90508060086000868152602001908152602001600020819055506040518060c001604052808581526020018373ffffffffffffffffffffffffffffffffffffffff1681526020018481526020018760ff16815260200182815260200142815250600760008381526020019081526020016000206000820151816000015560208201518160010160006101000a81548173ffffffffffffffffffffffffffffffffffffffff021916908373ffffffffffffffffffffffffffffffffffffffff1602179055506040820151816002019080519060200190612f109291906136b3565b5060608201518160030160006101000a81548160ff021916908360ff1602179055506080820151816004015560a082015181600501559050503373ffffffffffffffffffffffffffffffffffffffff167fa7018639fee0ab4d6c2b1e0a0dcba6de732cd262f3077822f86b98759ecf4ef68483428a604051612f959493929190614e05565b60405180910390a2505050505050565b60008282604051602001612fba929190614e51565b60405160208183030381529060405280519060200120905092915050565b600560009054906101000a900473ffffffffffffffffffffffffffffffffffffffff1673ffffffffffffffffffffffffffffffffffffffff163373ffffffffffffffffffffffffffffffffffffffff1614613068576040517f08c379a000000000000000000000000000000000000000000000000000000000815260040161305f90614ec9565b60405180910390fd5b6000479050600081116130b0576040517f08c379a00000000000000000000000000000000000000000000000000000000081526004016130a790614f35565b60405180910390fd5b6000600560009054906101000a900473ffffffffffffffffffffffffffffffffffffffff1673ffffffffffffffffffffffffffffffffffffffff16826040516130f890614910565b60006040518083038185875af1925050503d8060008114613135576040519150601f19603f3d011682016040523d82523d6000602084013e61313a565b606091505b505090508061317e576040517f08c379a000000000000000000000000000000000000000000000000000000000815260040161317590614fa1565b60405180910390fd5b5050565b600047905090565b60008054905090565b6000806060600060606000806000600b60008a73ffffffffffffffffffffffffffffffffffffffff1673ffffffffffffffffffffffffffffffffffffffff16815260200190815260200160002060050160009054906101000a900460ff166002811115613203576132026140f4565b5b905060008160ff16141561324e576040518060400160405280600a81526020017f556e61737369676e65640000000000000000000000000000000000000000000081525093506132de565b60018160ff161415613297576040518060400160405280600481526020017f506169640000000000000000000000000000000000000000000000000000000081525093506132dd565b60028160ff1614156132dc576040518060400160405280600781526020017f436c61696d65640000000000000000000000000000000000000000000000000081525093505b5b5b600b60008a73ffffffffffffffffffffffffffffffffffffffff1673ffffffffffffffffffffffffffffffffffffffff168152602001908152602001600020600001549750600b60008a73ffffffffffffffffffffffffffffffffffffffff1673ffffffffffffffffffffffffffffffffffffffff1681526020019081526020016000206003018054613370906144d7565b80601f016020809104026020016040519081016040528092919081815260200182805461339c906144d7565b80156133e95780601f106133be576101008083540402835291602001916133e9565b820191906000526020600020905b8154815290600101906020018083116133cc57829003601f168201915b50505050509550600b60008a73ffffffffffffffffffffffffffffffffffffffff1673ffffffffffffffffffffffffffffffffffffffff16815260200190815260200160002060010160009054906101000a900473ffffffffffffffffffffffffffffffffffffffff169650600b60008a73ffffffffffffffffffffffffffffffffffffffff1673ffffffffffffffffffffffffffffffffffffffff16815260200190815260200160002060020160009054906101000a900473ffffffffffffffffffffffffffffffffffffffff169450600b60008a73ffffffffffffffffffffffffffffffffffffffff1673ffffffffffffffffffffffffffffffffffffffff168152602001908152602001600020600401549250600b60008a73ffffffffffffffffffffffffffffffffffffffff1673ffffffffffffffffffffffffffffffffffffffff16815260200190815260200160002060060154915050919395979092949650565b600460025410613576576000600160146101000a81548160ff0219169083151502179055505b565b600081836135869190614ff0565b905092915050565b600061359a8484612fa5565b9050816007600083815260200190815260200160002060030160006101000a81548160ff021916908360ff1602179055508373ffffffffffffffffffffffffffffffffffffffff167f64a50d59d78e3d644b7d0eda87c523ee2d21633d4f75491c4f4628b16432c0498484604051613613929190615046565b60405180910390a250505050565b600160009054906101000a900473ffffffffffffffffffffffffffffffffffffffff1673ffffffffffffffffffffffffffffffffffffffff163373ffffffffffffffffffffffffffffffffffffffff16146136b1576040517f08c379a00000000000000000000000000000000000000000000000000000000081526004016136a8906150bb565b60405180910390fd5b565b8280546136bf906144d7565b90600052602060002090601f0160209004810192826136e15760008555613728565b82601f106136fa57805160ff1916838001178555613728565b82800160010185558215613728579182015b8281111561372757825182559160200191906001019061370c565b5b50905061373591906137f5565b5090565b826003601f016020900481019282156137c25791602002820160005b8382111561379357835183826101000a81548160ff021916908360ff1602179055509260200192600101602081600001049283019260010302613755565b80156137c05782816101000a81549060ff0219169055600101602081600001049283019260010302613793565b505b5090506137cf91906137f5565b5090565b6040518060600160405280600390602082028036833780820191505090505090565b5b8082111561380e5760008160009055506001016137f6565b5090565b6000604051905090565b600080fd5b600080fd5b600073ffffffffffffffffffffffffffffffffffffffff82169050919050565b600061385182613826565b9050919050565b61386181613846565b811461386c57600080fd5b50565b60008135905061387e81613858565b92915050565b60006020828403121561389a5761389961381c565b5b60006138a88482850161386f565b91505092915050565b60008115159050919050565b6138c6816138b1565b82525050565b60006020820190506138e160008301846138bd565b92915050565b600080fd5b600080fd5b6000601f19601f8301169050919050565b7f4e487b7100000000000000000000000000000000000000000000000000000000600052604160045260246000fd5b61393a826138f1565b810181811067ffffffffffffffff8211171561395957613958613902565b5b80604052505050565b600061396c613812565b90506139788282613931565b919050565b600067ffffffffffffffff82111561399857613997613902565b5b6139a1826138f1565b9050602081019050919050565b82818337600083830152505050565b60006139d06139cb8461397d565b613962565b9050828152602081018484840111156139ec576139eb6138ec565b5b6139f78482856139ae565b509392505050565b600082601f830112613a1457613a136138e7565b5b8135613a248482602086016139bd565b91505092915050565b60008060408385031215613a4457613a4361381c565b5b600083013567ffffffffffffffff811115613a6257613a61613821565b5b613a6e858286016139ff565b9250506020613a7f8582860161386f565b9150509250929050565b600067ffffffffffffffff821115613aa457613aa3613902565b5b602082029050919050565b600080fd5b600060ff82169050919050565b613aca81613ab4565b8114613ad557600080fd5b50565b600081359050613ae781613ac1565b92915050565b6000613b00613afb84613a89565b613962565b90508060208402830185811115613b1a57613b19613aaf565b5b835b81811015613b435780613b2f8882613ad8565b845260208401935050602081019050613b1c565b5050509392505050565b600082601f830112613b6257613b616138e7565b5b6003613b6f848285613aed565b91505092915050565b600060608284031215613b8e57613b8d61381c565b5b6000613b9c84828501613b4d565b91505092915050565b600060039050919050565b600081905092915050565b6000819050919050565b613bce81613ab4565b82525050565b6000613be08383613bc5565b60208301905092915050565b6000602082019050919050565b613c0281613ba5565b613c0c8184613bb0565b9250613c1782613bbb565b8060005b83811015613c48578151613c2f8782613bd4565b9650613c3a83613bec565b925050600181019050613c1b565b505050505050565b6000606082019050613c656000830184613bf9565b92915050565b6000819050919050565b613c7e81613c6b565b8114613c8957600080fd5b50565b600081359050613c9b81613c75565b92915050565b600060208284031215613cb757613cb661381c565b5b6000613cc584828501613c8c565b91505092915050565b613cd781613c6b565b82525050565b613ce681613846565b82525050565b600081519050919050565b600082825260208201905092915050565b60005b83811015613d26578082015181840152602081019050613d0b565b83811115613d35576000848401525b50505050565b6000613d4682613cec565b613d508185613cf7565b9350613d60818560208601613d08565b613d69816138f1565b840191505092915050565b613d7d81613ab4565b82525050565b6000819050919050565b613d9681613d83565b82525050565b600060c082019050613db16000830189613cce565b613dbe6020830188613cdd565b8181036040830152613dd08187613d3b565b9050613ddf6060830186613d74565b613dec6080830185613d8d565b613df960a0830184613cce565b979650505050505050565b600060208284031215613e1a57613e1961381c565b5b6000613e2884828501613ad8565b91505092915050565b6000602082019050613e466000830184613cce565b92915050565b6000602082019050613e616000830184613d8d565b92915050565b60008060408385031215613e7e57613e7d61381c565b5b6000613e8c85828601613ad8565b9250506020613e9d85828601613c8c565b9150509250929050565b6000608082019050613ebc6000830187613cce565b8181036020830152613ece8186613d3b565b9050613edd6040830185613cdd565b8181036060830152613eef8184613d3b565b905095945050505050565b60006020820190508181036000830152613f148184613d3b565b905092915050565b613f25816138b1565b8114613f3057600080fd5b50565b600081359050613f4281613f1c565b92915050565b600060208284031215613f5e57613f5d61381c565b5b6000613f6c84828501613f33565b91505092915050565b6000602082019050613f8a6000830184613cdd565b92915050565b60008060408385031215613fa757613fa661381c565b5b6000613fb58582860161386f565b9250506020613fc685828601613ad8565b9150509250929050565b60008060008060808587031215613fea57613fe961381c565b5b6000613ff887828801613ad8565b94505060206140098782880161386f565b935050604061401a87828801613c8c565b925050606061402b87828801613ad8565b91505092959194509250565b6000806040838503121561404e5761404d61381c565b5b600061405c8582860161386f565b925050602061406d85828601613c8c565b9150509250929050565b600060e08201905061408c600083018a613cce565b6140996020830189613cdd565b81810360408301526140ab8188613d3b565b90506140ba6060830187613cdd565b81810360808301526140cc8186613d3b565b90506140db60a0830185613cce565b6140e860c0830184613cce565b98975050505050505050565b7f4e487b7100000000000000000000000000000000000000000000000000000000600052602160045260246000fd5b7f6169726c696e65206e6f7420696e20756e61737369676e656420737461746500600082015250565b6000614159601f83613cf7565b915061416482614123565b602082019050919050565b600060208201905081810360008301526141888161414c565b9050919050565b60008151905061419e81613c75565b92915050565b60006141b76141b28461397d565b613962565b9050828152602081018484840111156141d3576141d26138ec565b5b6141de848285613d08565b509392505050565b600082601f8301126141fb576141fa6138e7565b5b815161420b8482602086016141a4565b91505092915050565b60008151905061422381613858565b92915050565b600080600080608085870312156142435761424261381c565b5b60006142518782880161418f565b945050602085015167ffffffffffffffff81111561427257614271613821565b5b61427e878288016141e6565b935050604061428f87828801614214565b925050606085015167ffffffffffffffff8111156142b0576142af613821565b5b6142bc878288016141e6565b91505092959194509250565b60006040820190506142dd6000830185613cce565b81810360208301526142ef8184613d3b565b90509392505050565b7f4f522e2072656769737465726564000000000000000000000000000000000000600082015250565b600061432e600e83613cf7565b9150614339826142f8565b602082019050919050565b6000602082019050818103600083015261435d81614321565b9050919050565b7f494e442e20526571000000000000000000000000000000000000000000000000600082015250565b600061439a600883613cf7565b91506143a582614364565b602082019050919050565b600060208201905081810360008301526143c98161438d565b9050919050565b7f63616c6c6572206e6f742072656769737465726564206f7261636c6500000000600082015250565b6000614406601c83613cf7565b9150614411826143d0565b602082019050919050565b60006020820190508181036000830152614435816143f9565b9050919050565b7f696e76616c696420666c69676874206964000000000000000000000000000000600082015250565b6000614472601183613cf7565b915061447d8261443c565b602082019050919050565b600060208201905081810360008301526144a181614465565b9050919050565b7f4e487b7100000000000000000000000000000000000000000000000000000000600052602260045260246000fd5b600060028204905060018216806144ef57607f821691505b60208210811415614503576145026144a8565b5b50919050565b7f6e6f742077697468696e20656e756d2072616e67650000000000000000000000600082015250565b600061453f601583613cf7565b915061454a82614509565b602082019050919050565b6000602082019050818103600083015261456e81614532565b9050919050565b7f7374617475732063616e6e6f74206265206c6f776572207468616e206375727260008201527f656e742073746174650000000000000000000000000000000000000000000000602082015250565b60006145d1602983613cf7565b91506145dc82614575565b604082019050919050565b60006020820190508181036000830152614600816145c4565b9050919050565b7f4e4520666c696768740000000000000000000000000000000000000000000000600082015250565b600061463d600983613cf7565b915061464882614607565b602082019050919050565b6000602082019050818103600083015261466c81614630565b9050919050565b60008160f81b9050919050565b600061468b82614673565b9050919050565b6146a361469e82613ab4565b614680565b82525050565b60008160601b9050919050565b60006146c1826146a9565b9050919050565b60006146d3826146b6565b9050919050565b6146eb6146e682613846565b6146c8565b82525050565b6000819050919050565b61470c61470782613c6b565b6146f1565b82525050565b600061471e8286614692565b60018201915061472e82856146da565b60148201915061473e82846146fb565b602082019150819050949350505050565b60006080820190506147646000830187613d74565b6147716020830186613cdd565b81810360408301526147838185613d3b565b90506147926060830184613cce565b95945050505050565b7f3145544820696e737572616e6365206d75737420626520706169640000000000600082015250565b60006147d1601b83613cf7565b91506147dc8261479b565b602082019050919050565b60006020820190508181036000830152614800816147c4565b9050919050565b7f666c6967687420646f6573206e6f742065786973740000000000000000000000600082015250565b600061483d601583613cf7565b915061484882614807565b602082019050919050565b6000602082019050818103600083015261486c81614830565b9050919050565b7f696e737572616e63652065786974730000000000000000000000000000000000600082015250565b60006148a9600f83613cf7565b91506148b482614873565b602082019050919050565b600060208201905081810360008301526148d88161489c565b9050919050565b600081905092915050565b50565b60006148fa6000836148df565b9150614905826148ea565b600082019050919050565b600061491b826148ed565b9150819050919050565b7f6661696c656420746f2073656e64204554480000000000000000000000000000600082015250565b600061495b601283613cf7565b915061496682614925565b602082019050919050565b6000602082019050818103600083015261498a8161494e565b9050919050565b7f63616c6c6572206e6f7420726567697374657265640000000000000000000000600082015250565b60006149c7601583613cf7565b91506149d282614991565b602082019050919050565b600060208201905081810360008301526149f6816149ba565b9050919050565b7f616c726561647920696e206f7065726174696f6e616c206d6f64650000000000600082015250565b6000614a33601b83613cf7565b9150614a3e826149fd565b602082019050919050565b60006020820190508181036000830152614a6281614a26565b9050919050565b7f6169726c696e65206e6f7420617574686f72697a656400000000000000000000600082015250565b6000614a9f601683613cf7565b9150614aaa82614a69565b602082019050919050565b60006020820190508181036000830152614ace81614a92565b9050919050565b7f636f6e7472616374206e6f74206f7065726174696f6e616c0000000000000000600082015250565b6000614b0b601883613cf7565b9150614b1682614ad5565b602082019050919050565b60006020820190508181036000830152614b3a81614afe565b9050919050565b7f4e487b7100000000000000000000000000000000000000000000000000000000600052603260045260246000fd5b7f494458206d69736d617463680000000000000000000000000000000000000000600082015250565b6000614ba6600c83613cf7565b9150614bb182614b70565b602082019050919050565b60006020820190508181036000830152614bd581614b99565b9050919050565b7f466c692e206f722074696d6573742e206d69736d617463680000000000000000600082015250565b6000614c12601883613cf7565b9150614c1d82614bdc565b602082019050919050565b60006020820190508181036000830152614c4181614c05565b9050919050565b6000606082019050614c5d6000830186613cdd565b614c6a6020830185613cce565b614c776040830184613d74565b949350505050565b7f6e6f7420617574686f72697a656420746f207265676973746572000000000000600082015250565b6000614cb5601a83613cf7565b9150614cc082614c7f565b602082019050919050565b60006020820190508181036000830152614ce481614ca8565b9050919050565b7f6d757374206e6f742062652063757272656e7420737461747573000000000000600082015250565b6000614d21601a83613cf7565b9150614d2c82614ceb565b602082019050919050565b60006020820190508181036000830152614d5081614d14565b9050919050565b600081519050614d6681613f1c565b92915050565b600060208284031215614d8257614d8161381c565b5b6000614d9084828501614d57565b91505092915050565b7f6169726c696e65206e6f7420636f6d6d69746564000000000000000000000000600082015250565b6000614dcf601483613cf7565b9150614dda82614d99565b602082019050919050565b60006020820190508181036000830152614dfe81614dc2565b9050919050565b60006080820190508181036000830152614e1f8187613d3b565b9050614e2e6020830186613d8d565b614e3b6040830185613cce565b614e486060830184613d74565b95945050505050565b6000614e5d82856146da565b601482019150614e6d82846146fb565b6020820191508190509392505050565b7f6e6f74206f776e72000000000000000000000000000000000000000000000000600082015250565b6000614eb3600883613cf7565b9150614ebe82614e7d565b602082019050919050565b60006020820190508181036000830152614ee281614ea6565b9050919050565b7f6e6f2061762e2045544800000000000000000000000000000000000000000000600082015250565b6000614f1f600a83613cf7565b9150614f2a82614ee9565b602082019050919050565b60006020820190508181036000830152614f4e81614f12565b9050919050565b7f6661696c656420746f2073656e64206574686572000000000000000000000000600082015250565b6000614f8b601483613cf7565b9150614f9682614f55565b602082019050919050565b60006020820190508181036000830152614fba81614f7e565b9050919050565b7f4e487b7100000000000000000000000000000000000000000000000000000000600052601160045260246000fd5b6000614ffb82613c6b565b915061500683613c6b565b9250827fffffffffffffffffffffffffffffffffffffffffffffffffffffffffffffffff0382111561503b5761503a614fc1565b5b828201905092915050565b600060408201905061505b6000830185613cce565b6150686020830184613d74565b9392505050565b7f63616c6c6572206e6f74206f776e657200000000000000000000000000000000600082015250565b60006150a5601083613cf7565b91506150b08261506f565b602082019050919050565b600060208201905081810360008301526150d481615098565b905091905056fea2646970667358221220e0689e91d9c9c770d7f1b0317dbb89e9c4520dcded2a6eda07efc036952b9a5964736f6c634300080a0033",
  "immutableReferences": {},
  "source": "// SPDX-License-Identifier: MIT\npragma solidity ^0.8.0;\n\nimport '@openzeppelin/contracts/utils/math/SafeMath.sol';\nimport './AirlineData.sol';\n\ncontract FlightSuretyData is AirlineData {\n  using SafeMath for uint256;\n\n  /********************************************************************************************/\n  /*                                      FLIGHT STATE VARIABLES                          */\n  /******************************************************************************************/\n\n  address public contractOwner;\n\n  // Flight status codes\n  uint8 private constant STATUS_CODE_UNKNOWN = 0;\n  uint8 private constant STATUS_CODE_ON_TIME = 10;\n  uint8 private constant STATUS_CODE_LATE_AIRLINE = 20;\n  uint8 private constant STATUS_CODE_LATE_WEATHER = 30;\n  uint8 private constant STATUS_CODE_LATE_TECHNICAL = 40;\n  uint8 private constant STATUS_CODE_LATE_OTHER = 50;\n\n  uint256 public flightCounter = 0;\n  struct Flight {\n    uint256 id;\n    address airline;\n    string flightName;\n    uint8 statusCode;\n    bytes32 flightKey;\n    uint256 timestamp;\n\n  }\n\n  mapping(bytes32 => Flight) private flights;\n\n  mapping(uint256 => bytes32) public flightKeys;\n\n  /********************************************************************************************/\n  /*                                      FLIGHT EVENTS                                      */\n  /******************************************************************************************/\n\n  event LogFlightRegistered(string name, bytes32 flightKey, address indexed airline, uint256 timestamp, uint8 statusCode);\n  event LogFlightStatusProcessed(address indexed airline, uint256 timestamp, uint8 statusCode);\n\n   // Event fired when flight status request is requested\n  event LogOracleRequest(uint8 index, address airline, string flight, uint256 timestamp);\n\n\n   constructor() {\n    contractOwner = msg.sender;\n\n  }\n\n  /********************************************************************************************/\n  /*                                      FLIGHT CORE FUNCTIONS                 */\n  /******************************************************************************************/\n  \n  // Register flight\n  function registerFlight(uint8 _statusCode) public {\n    (bool checkStatus ) = this.isAirlineCommitted(msg.sender);\n    require(checkStatus == true, 'airline not commited');\n\n    (uint256 id, string memory name, address airlineAccount,) = this.getAirlineDetails(msg.sender);  \n\n    flightCounter = flightCounter.add(1);\n    \n\n    bytes32 flightKey = generateFlightKey(msg.sender, block.timestamp);\n\n    flightKeys[id] = flightKey;\n  \n\n    flights[flightKey] = Flight({\n      id: id,\n      airline: airlineAccount,\n      flightName: name,\n      statusCode: _statusCode,\n      flightKey: flightKey,\n      timestamp: block.timestamp\n    });\n\n    emit LogFlightRegistered(name, flightKey, msg.sender, block.timestamp, _statusCode);\n  }\n\n  function processFlightStatus(address _airline, uint256 _timestamp, uint8 _statusCode)  private {\n    bytes32 key = generateFlightKey(_airline, _timestamp);\n    flights[key].statusCode = _statusCode;\n\n    emit LogFlightStatusProcessed(_airline, _timestamp, _statusCode);\n  }\n\n  // Generate a request for oracles  to fetch flight information\n  function fetchFlightStatus(uint8 _index, uint256 _flightId) external {\n    (, address airline, string memory flightName,, bytes32 flightKey, uint256 timestamp) = getFlightDetails(_flightId);\n\n    require(flightKeys[_flightId] == flightKey, 'NE flight');\n\n\n\n    // uint8 index = getRandomIndex(msg.sender);\n\n    // Generate a unique key for storing  the request\n    bytes32 key = keccak256(abi.encodePacked(_index, airline, timestamp));\n    oracleResponses[key].requester = tx.origin;\n    oracleResponses[key].isOpen = true;\n\n\n    emit LogOracleRequest(_index, airline, flightName, timestamp);\n  }\n\n  // Get flight details\n  function getFlightDetails(uint256 _flightId) public view returns\n    (\n      uint256 id, \n      address airline, \n      string memory flightName,\n      uint8 statusCode, \n      bytes32 flightKey, \n      uint256 timestamp\n\n    )\n  {\n    require(_flightId != 0 || _flightId <= flightCounter, 'invalid flight id');\n    bytes32 key = flightKeys[_flightId];\n    id = flights[key].id;\n    airline = flights[key].airline;\n    flightName = flights[key].flightName;\n    statusCode = flights[key].statusCode;\n    flightKey = flights[key].flightKey;\n    timestamp = flights[key].timestamp;\n    \n  }\n  \n  /********************************************************************************************/\n  /*                                      FLIGHT UTILITY FUNCTIONS                 */\n  /******************************************************************************************/\n\n  function generateFlightKey(address _airline, uint256 _timestamp) public pure returns(bytes32) {\n    return keccak256(abi.encodePacked(_airline, _timestamp));\n  }\n\n  /*__________________________________ORACLE______________________________*/\n\n  \n  /********************************************************************************************/\n  /*                               ORACLE STATE VARIABLES                                    */\n  /******************************************************************************************/\n  // Number of oracles that must respond for valid status\n  uint256 private constant  MIN_RESPONSES = 3;\n\n  struct Oracle {\n    bool isRegistered;\n    uint8[3] indexes;\n  }\n\n  // Track all registered oracles\n  mapping(address => Oracle) private oracles; \n\n  // Model for responses from oracles\n  struct ResponseInfo {\n    address requester;  // account that triggered the requested status\n    bool isOpen;        // if open, oracle responses are accepted\n    mapping(uint8 => address[]) responses; // key is the status code reported\n  }\n\n  // Track all oracle responses \n  mapping(bytes32 => ResponseInfo) oracleResponses;\n\n\n  /********************************************************************************************/\n  /*                                    ORACLE  EVENTS                                             */\n  /******************************************************************************************/\n  event LogOracleRegistered(address indexed oracle, uint8[3] indexes);\n\n  // Event fired each time an oracle submits a response\n  event LogFlightStatusInfo(address airline, uint256 timestamp, uint8 statusCode);\n\n  event LogOracleReport(address airline, uint256 timestamp, uint8 status);\n\n  /********************************************************************************************/\n  /*                                      ORACLE CORE FUNCTIONS                              */\n  /******************************************************************************************/\n  function registerOracle(uint8[3] memory _indexes) external payable {\n    require(!oracles[tx.origin].isRegistered, 'OR. registered');\n    require(_indexes.length == 3, 'IND. Req');\n    oracles[tx.origin] = Oracle({\n      isRegistered: true,\n      indexes: _indexes\n    });\n\n    emit LogOracleRegistered(tx.origin, _indexes);\n  }\n  \n\n  /**\n    * @dev Called by oracle in response to an outstanding request\n    * response is only valid if there's a pending open request status  and  that its responxe index matches that which was assigned during oracle registration\n   */\n\n       // Generate a unique key for storing  the request\n    // bytes32 key = keccak256(abi.encodePacked(_index, airline, timestamp));\n    // oracleResponses[key].requester = tx.origin;\n    // oracleResponses[key].isOpen = true;\n\n  function submitOracleResponse\n    (\n      uint8 _index, \n      address _airline, \n      uint256 _timestamp, \n      uint8 _statusCode\n    ) external \n  {\n    require((oracles[msg.sender].indexes[0] == _index) || (oracles[msg.sender].indexes[1] == _index) || (oracles[msg.sender].indexes[2] == _index), 'IDX mismatch');\n    bytes32 key = keccak256(abi.encodePacked(_index, _airline, _timestamp));\n    require(oracleResponses[key].isOpen, 'Fli. or timest. mismatch');\n    oracleResponses[key].responses[_statusCode].push(msg.sender);\n\n    // oracle response is not valid until MIN_RESPONSES threshold is reached\n    emit LogOracleReport(msg.sender, _timestamp, _statusCode);\n    if(oracleResponses[key].responses[_statusCode].length >= MIN_RESPONSES) {\n      emit LogFlightStatusInfo(_airline, _timestamp, _statusCode);\n      processFlightStatus(_airline, _timestamp, _statusCode);\n    }\n  }\n\n  /********************************************************************************************/\n  /*                                      ORACLE UTILITY FUNCTIONS                           */\n  /******************************************************************************************/\n  function getOracleIndexes() external view returns(uint8[3] memory) {\n    require(oracles[msg.sender].isRegistered, 'caller not registered oracle');\n    return oracles[msg.sender].indexes;\n\n  }\n\n  function isOracleRegistered(address _account) public view returns(bool) {\n    return oracles[_account].isRegistered;\n  }\n\n \n \n  /*__________________________________PASSENGER_______________________________*/\n\n\n  /********************************************************************************************/\n  /*                                      PASSENGER STATE VARIABLE FUNCTIONS                            */\n  /********************************************************************************************/\n\n  enum PassengerInsuranceState {\n    Unassigned,\n    Paid,\n    Claimed\n  }\n\n  struct Insurance {\n    uint256 id;\n    address flightAddress;\n    address passenger;\n    string flightName;\n    uint256 amount;\n    PassengerInsuranceState state;\n    uint256 refundAmount;\n  }\n\n  mapping(address =>  Insurance) passengersInsurance;\n\n  \n  uint256 public constant PASSENGER_INSURANCE_FEE = 1 ether;\n\n\n  /********************************************************************************************/\n  /*                                       EVENT                            */\n  /********************************************************************************************/\n  event LogPassengerInsurance(address indexed account, uint256 amount);\n\n\n  /*******************************************************************************************/\n  /*                                       PASSENGER FUNCTIONS                         */\n  /*****************************************************************************************/\n\n  function payInsurance(uint256 _flightId)  external payable {\n    require(msg.value == PASSENGER_INSURANCE_FEE, '1ETH insurance must be paid');\n    require(_flightId != 0 || _flightId <= flightCounter, 'invalid flight id');\n\n    bytes32 key = flightKeys[_flightId];\n    require(_flightId == flights[key].id, \"flight does not exist\");\n\n    \n    require(passengersInsurance[tx.origin].state == PassengerInsuranceState.Unassigned, 'insurance exits');\n    (uint256 id, string memory name, address airlineAccount,) = this.getAirlineDetails(flights[key].airline);\n\n    (bool send, ) = address(this).call{value: msg.value}('');\n    require(send, 'failed to send ETH');\n\n    passengersInsurance[msg.sender] = Insurance({\n      id: id,\n      flightAddress: airlineAccount,\n      passenger: msg.sender,\n      flightName: name, \n      amount: msg.value,\n      state: PassengerInsuranceState.Paid,\n      refundAmount: 0\n    });\n\n    emit LogPassengerInsurance(msg.sender, passengersInsurance[msg.sender].amount);\n  }\n\n  /***********************************,********************************************************/\n  /*                                       PASSENGER UTILITY FUNCTIONS                         */\n  /*****************************************************************************************/\n  function getPassengerDetails(address _account) external view returns\n    (\n      uint256 id, \n      address flightAddress,\n      string memory flightName, \n      address passenger, \n      string memory state, \n      uint256 amount, \n      uint256 refundAmount\n    ) \n  \n  {\n    uint8 passengerState = uint8(passengersInsurance[_account].state);\n    if(passengerState == 0) {\n      state = 'Unassigned';\n    } else if(passengerState == 1) {\n      state = 'Paid';\n    } else if(passengerState == 2) {\n      state = 'Claimed';\n    } \n    \n    id = passengersInsurance[_account].id;\n    flightName = passengersInsurance[_account].flightName;\n    flightAddress = passengersInsurance[_account].flightAddress;\n    passenger = passengersInsurance[_account].passenger;\n    amount = passengersInsurance[_account].amount;\n    refundAmount = passengersInsurance[_account].refundAmount;\n    \n    return (id, flightAddress, flightName, passenger, state, amount, refundAmount);\n    \n  }\n\n  function getPassengerBalance(address _account) external view returns(uint256) {\n    return passengersInsurance[_account].amount;\n  }\n\n  /********************************************************************************************/\n  /*                                      CONTRACT RECEIVE ETHER                                */\n  /********************************************************************************************/\n\n  function emergencyWithdraw() external payable {\n    require(msg.sender == contractOwner, 'not ownr');\n    uint256 contractBalance = address(this).balance;\n    require(contractBalance > 0, 'no av. ETH');\n    \n    (bool sent,) = payable(contractOwner).call{value: contractBalance}('');\n    require(sent, 'failed to send ether');\n  }\n\n\n\n  /********************************************************************************************/\n  /*                                      CONTRACT RECEIVE ETHER                                */\n  /********************************************************************************************/\n  receive() payable external {\n\n  }\n\n}\n",
  "sourcePath": "/home/sprtd/Desktop/Udacity/lesson-5-flight-surety/flight-surety-project/contracts/FlightSuretyData.sol",
  "compiler": {
    "name": "solc",
    "version": "0.8.10+commit.fc410830.Emscripten.clang"
  },
  "schemaVersion": "3.4.3",
  "updatedAt": "2021-11-11T01:34:59.698Z",
  "networkType": "ethereum",
  "devdoc": {
    "kind": "dev",
    "methods": {
      "submitOracleResponse(uint8,address,uint256,uint8)": {
        "details": "Called by oracle in response to an outstanding request response is only valid if there's a pending open request status  and  that its responxe index matches that which was assigned during oracle registration"
      }
    },
    "version": 1
  },
  "userdoc": {
    "kind": "user",
    "methods": {},
    "version": 1
  }
}