{
  "contractName": "FlightSuretyApp",
  "abi": [
    {
      "inputs": [
        {
          "internalType": "address",
          "name": "_flightSuretyDataAddress",
          "type": "address"
        }
      ],
      "stateMutability": "nonpayable",
      "type": "constructor"
    },
    {
      "anonymous": false,
      "inputs": [
        {
          "indexed": true,
          "internalType": "address",
          "name": "airline",
          "type": "address"
        },
        {
          "indexed": false,
          "internalType": "uint256",
          "name": "airlineFee",
          "type": "uint256"
        }
      ],
      "name": "LogPayCommitment",
      "type": "event"
    },
    {
      "anonymous": false,
      "inputs": [
        {
          "indexed": true,
          "internalType": "address",
          "name": "callerAirline",
          "type": "address"
        },
        {
          "indexed": true,
          "internalType": "address",
          "name": "registeredAirline",
          "type": "address"
        },
        {
          "indexed": false,
          "internalType": "uint8",
          "name": "state",
          "type": "uint8"
        }
      ],
      "name": "LogRegisteredViaConsensus",
      "type": "event"
    },
    {
      "inputs": [],
      "name": "AIRLINE_FEE",
      "outputs": [
        {
          "internalType": "uint256",
          "name": "",
          "type": "uint256"
        }
      ],
      "stateMutability": "view",
      "type": "function",
      "constant": true
    },
    {
      "inputs": [],
      "name": "ORACLE_REGISTRATION_FEE",
      "outputs": [
        {
          "internalType": "uint256",
          "name": "",
          "type": "uint256"
        }
      ],
      "stateMutability": "view",
      "type": "function",
      "constant": true
    },
    {
      "inputs": [],
      "name": "contractOwner",
      "outputs": [
        {
          "internalType": "address",
          "name": "",
          "type": "address"
        }
      ],
      "stateMutability": "view",
      "type": "function",
      "constant": true
    },
    {
      "inputs": [
        {
          "internalType": "string",
          "name": "_name",
          "type": "string"
        }
      ],
      "name": "startAirlineApplication",
      "outputs": [],
      "stateMutability": "nonpayable",
      "type": "function"
    },
    {
      "inputs": [
        {
          "internalType": "address",
          "name": "_account",
          "type": "address"
        },
        {
          "internalType": "uint8",
          "name": "_state",
          "type": "uint8"
        }
      ],
      "name": "registerAirline",
      "outputs": [],
      "stateMutability": "nonpayable",
      "type": "function"
    },
    {
      "inputs": [
        {
          "internalType": "address",
          "name": "_account",
          "type": "address"
        },
        {
          "internalType": "uint8",
          "name": "_state",
          "type": "uint8"
        }
      ],
      "name": "registerViaConsensus",
      "outputs": [],
      "stateMutability": "nonpayable",
      "type": "function"
    },
    {
      "inputs": [],
      "name": "payCommitmentFee",
      "outputs": [],
      "stateMutability": "payable",
      "type": "function",
      "payable": true
    },
    {
      "inputs": [],
      "name": "getOwner",
      "outputs": [
        {
          "internalType": "address",
          "name": "",
          "type": "address"
        }
      ],
      "stateMutability": "view",
      "type": "function",
      "constant": true
    },
    {
      "inputs": [
        {
          "internalType": "address",
          "name": "_account",
          "type": "address"
        }
      ],
      "name": "airlineAuthorizationStatus",
      "outputs": [
        {
          "internalType": "bool",
          "name": "",
          "type": "bool"
        }
      ],
      "stateMutability": "view",
      "type": "function",
      "constant": true
    },
    {
      "inputs": [
        {
          "internalType": "address",
          "name": "_account",
          "type": "address"
        }
      ],
      "name": "airlineDetails",
      "outputs": [
        {
          "internalType": "uint256",
          "name": "id",
          "type": "uint256"
        },
        {
          "internalType": "string",
          "name": "name",
          "type": "string"
        },
        {
          "internalType": "address",
          "name": "airlineAccount",
          "type": "address"
        },
        {
          "internalType": "string",
          "name": "state",
          "type": "string"
        }
      ],
      "stateMutability": "view",
      "type": "function",
      "constant": true
    },
    {
      "inputs": [],
      "name": "isCallerAirlineRegistered",
      "outputs": [
        {
          "internalType": "bool",
          "name": "",
          "type": "bool"
        }
      ],
      "stateMutability": "view",
      "type": "function",
      "constant": true
    },
    {
      "inputs": [],
      "name": "getTotalRegisteredAirlines",
      "outputs": [
        {
          "internalType": "uint256",
          "name": "",
          "type": "uint256"
        }
      ],
      "stateMutability": "view",
      "type": "function",
      "constant": true
    },
    {
      "inputs": [],
      "name": "getOperationalStatus",
      "outputs": [
        {
          "internalType": "bool",
          "name": "",
          "type": "bool"
        }
      ],
      "stateMutability": "view",
      "type": "function",
      "constant": true
    },
    {
      "inputs": [],
      "name": "getQuorum",
      "outputs": [
        {
          "internalType": "uint256",
          "name": "",
          "type": "uint256"
        }
      ],
      "stateMutability": "view",
      "type": "function",
      "constant": true
    },
    {
      "inputs": [
        {
          "internalType": "uint256",
          "name": "_flightID",
          "type": "uint256"
        }
      ],
      "name": "fetchFlightStatus",
      "outputs": [],
      "stateMutability": "nonpayable",
      "type": "function"
    },
    {
      "inputs": [],
      "name": "payOracleRegFees",
      "outputs": [],
      "stateMutability": "payable",
      "type": "function",
      "payable": true
    }
  ],
  "bytecode": "0x6080604052600067ffffffffffffffff811115620000225762000021620003d4565b5b604051908082528060200260200182016040528015620000515781602001602082028036833780820191505090505b50600390805190602001906200006992919062000326565b506000600560006101000a81548160ff021916908360ff1602179055503480156200009357600080fd5b5060405162002911380380620029118339818101604052810190620000b991906200046d565b33600260006101000a81548173ffffffffffffffffffffffffffffffffffffffff021916908373ffffffffffffffffffffffffffffffffffffffff16021790555080600160006101000a81548173ffffffffffffffffffffffffffffffffffffffff021916908373ffffffffffffffffffffffffffffffffffffffff160217905550806000806101000a81548173ffffffffffffffffffffffffffffffffffffffff021916908373ffffffffffffffffffffffffffffffffffffffff160217905550620001c16040518060400160405280600581526020017f616c706861000000000000000000000000000000000000000000000000000000815250620001fd60201b60201c565b620001f6600260009054906101000a900473ffffffffffffffffffffffffffffffffffffffff1660026200029160201b60201c565b50620005d3565b60008054906101000a900473ffffffffffffffffffffffffffffffffffffffff1673ffffffffffffffffffffffffffffffffffffffff16630b2653d582336040518363ffffffff1660e01b81526004016200025a92919062000554565b600060405180830381600087803b1580156200027557600080fd5b505af11580156200028a573d6000803e3d6000fd5b5050505050565b60008054906101000a900473ffffffffffffffffffffffffffffffffffffffff1673ffffffffffffffffffffffffffffffffffffffff1663b10f057b83836040518363ffffffff1660e01b8152600401620002ee929190620005a6565b600060405180830381600087803b1580156200030957600080fd5b505af11580156200031e573d6000803e3d6000fd5b505050505050565b828054828255906000526020600020908101928215620003a2579160200282015b82811115620003a15782518260006101000a81548173ffffffffffffffffffffffffffffffffffffffff021916908373ffffffffffffffffffffffffffffffffffffffff1602179055509160200191906001019062000347565b5b509050620003b19190620003b5565b5090565b5b80821115620003d0576000816000905550600101620003b6565b5090565b7f4e487b7100000000000000000000000000000000000000000000000000000000600052604160045260246000fd5b600080fd5b600073ffffffffffffffffffffffffffffffffffffffff82169050919050565b6000620004358262000408565b9050919050565b620004478162000428565b81146200045357600080fd5b50565b60008151905062000467816200043c565b92915050565b60006020828403121562000486576200048562000403565b5b6000620004968482850162000456565b91505092915050565b600081519050919050565b600082825260208201905092915050565b60005b83811015620004db578082015181840152602081019050620004be565b83811115620004eb576000848401525b50505050565b6000601f19601f8301169050919050565b60006200050f826200049f565b6200051b8185620004aa565b93506200052d818560208601620004bb565b6200053881620004f1565b840191505092915050565b6200054e8162000428565b82525050565b6000604082019050818103600083015262000570818562000502565b905062000581602083018462000543565b9392505050565b600060ff82169050919050565b620005a08162000588565b82525050565b6000604082019050620005bd600083018562000543565b620005cc602083018462000595565b9392505050565b61232e80620005e36000396000f3fe6080604052600436106100f35760003560e01c8063c26c12eb1161008a578063cea579bf11610059578063cea579bf146102c6578063dd82ba6b14610306578063dddfe1be14610331578063ec0f02471461035a576100f3565b8063c26c12eb1461021c578063c4b37e9514610247578063cb6a3c9714610272578063ce606ee01461029b576100f3565b80635a920f62116100c65780635a920f6214610160578063893d20e81461019d578063994de453146101c8578063ae795835146101f3576100f3565b80630383980a146100f85780630c982673146101025780632511746e1461012d5780634fb061ec14610156575b600080fd5b610100610385565b005b34801561010e57600080fd5b50610117610603565b60405161012491906115ea565b60405180910390f35b34801561013957600080fd5b50610154600480360381019061014f919061175f565b6106a9565b005b61015e610739565b005b34801561016c57600080fd5b5061018760048036038101906101829190611806565b6108ed565b60405161019491906115ea565b60405180910390f35b3480156101a957600080fd5b506101b26109a0565b6040516101bf9190611842565b60405180910390f35b3480156101d457600080fd5b506101dd6109ca565b6040516101ea9190611876565b60405180910390f35b3480156101ff57600080fd5b5061021a600480360381019061021591906118bd565b610a70565b005b34801561022857600080fd5b50610231610b0e565b60405161023e9190611876565b60405180910390f35b34801561025357600080fd5b5061025c610b18565b6040516102699190611876565b60405180910390f35b34801561027e57600080fd5b5061029960048036038101906102949190611923565b610b24565b005b3480156102a757600080fd5b506102b0610bb5565b6040516102bd9190611842565b60405180910390f35b3480156102d257600080fd5b506102ed60048036038101906102e89190611806565b610bdb565b6040516102fd94939291906119eb565b60405180910390f35b34801561031257600080fd5b5061031b610ca8565b6040516103289190611876565b60405180910390f35b34801561033d57600080fd5b5061035860048036038101906103539190611923565b610cb4565b005b34801561036657600080fd5b5061036f61121a565b60405161037c91906115ea565b60405180910390f35b60008054906101000a900473ffffffffffffffffffffffffffffffffffffffff1673ffffffffffffffffffffffffffffffffffffffff16635addd35a336040518263ffffffff1660e01b81526004016103de9190611842565b60006040518083038186803b1580156103f657600080fd5b505afa15801561040a573d6000803e3d6000fd5b50505050678ac7230489e800003414610458576040517f08c379a000000000000000000000000000000000000000000000000000000000815260040161044f90611a8a565b60405180910390fd5b6000600160009054906101000a900473ffffffffffffffffffffffffffffffffffffffff1673ffffffffffffffffffffffffffffffffffffffff16346040516104a090611adb565b60006040518083038185875af1925050503d80600081146104dd576040519150601f19603f3d011682016040523d82523d6000602084013e6104e2565b606091505b5050905080610526576040517f08c379a000000000000000000000000000000000000000000000000000000000815260040161051d90611b3c565b60405180910390fd5b60008054906101000a900473ffffffffffffffffffffffffffffffffffffffff1673ffffffffffffffffffffffffffffffffffffffff166336061cca60036040518263ffffffff1660e01b81526004016105809190611ba1565b600060405180830381600087803b15801561059a57600080fd5b505af11580156105ae573d6000803e3d6000fd5b505050503373ffffffffffffffffffffffffffffffffffffffff167fb68ca0eeaa49aef5b205d0a190cad74e14730f4df1db96878ff00ea294c807e0346040516105f89190611876565b60405180910390a250565b60008060009054906101000a900473ffffffffffffffffffffffffffffffffffffffff1673ffffffffffffffffffffffffffffffffffffffff16630c9826736040518163ffffffff1660e01b815260040160206040518083038186803b15801561066c57600080fd5b505afa158015610680573d6000803e3d6000fd5b505050506040513d601f19601f820116820180604052508101906106a49190611be8565b905090565b60008054906101000a900473ffffffffffffffffffffffffffffffffffffffff1673ffffffffffffffffffffffffffffffffffffffff16630b2653d582336040518363ffffffff1660e01b8152600401610704929190611c15565b600060405180830381600087803b15801561071e57600080fd5b505af1158015610732573d6000803e3d6000fd5b5050505050565b670de0b6b3a76400003414610783576040517f08c379a000000000000000000000000000000000000000000000000000000000815260040161077a90611c91565b60405180910390fd5b6000600160009054906101000a900473ffffffffffffffffffffffffffffffffffffffff1673ffffffffffffffffffffffffffffffffffffffff16346040516107cb90611adb565b60006040518083038185875af1925050503d8060008114610808576040519150601f19603f3d011682016040523d82523d6000602084013e61080d565b606091505b5050905080610851576040517f08c379a000000000000000000000000000000000000000000000000000000000815260040161084890611cfd565b60405180910390fd5b600061085c336112cf565b905060008054906101000a900473ffffffffffffffffffffffffffffffffffffffff1673ffffffffffffffffffffffffffffffffffffffff16630cfc7e44826040518263ffffffff1660e01b81526004016108b79190611dc8565b600060405180830381600087803b1580156108d157600080fd5b505af11580156108e5573d6000803e3d6000fd5b505050505050565b60008060009054906101000a900473ffffffffffffffffffffffffffffffffffffffff1673ffffffffffffffffffffffffffffffffffffffff16638042601f836040518263ffffffff1660e01b81526004016109499190611842565b60206040518083038186803b15801561096157600080fd5b505afa158015610975573d6000803e3d6000fd5b505050506040513d601f19601f820116820180604052508101906109999190611be8565b9050919050565b6000600260009054906101000a900473ffffffffffffffffffffffffffffffffffffffff16905090565b60008060009054906101000a900473ffffffffffffffffffffffffffffffffffffffff1673ffffffffffffffffffffffffffffffffffffffff1663994de4536040518163ffffffff1660e01b815260040160206040518083038186803b158015610a3357600080fd5b505afa158015610a47573d6000803e3d6000fd5b505050506040513d601f19601f82011682018060405250810190610a6b9190611df8565b905090565b6000610a7b3361143a565b905060008054906101000a900473ffffffffffffffffffffffffffffffffffffffff1673ffffffffffffffffffffffffffffffffffffffff16634b5c9d5382846040518363ffffffff1660e01b8152600401610ad8929190611e34565b600060405180830381600087803b158015610af257600080fd5b505af1158015610b06573d6000803e3d6000fd5b505050505050565b6000600454905090565b678ac7230489e8000081565b60008054906101000a900473ffffffffffffffffffffffffffffffffffffffff1673ffffffffffffffffffffffffffffffffffffffff1663b10f057b83836040518363ffffffff1660e01b8152600401610b7f929190611e5d565b600060405180830381600087803b158015610b9957600080fd5b505af1158015610bad573d6000803e3d6000fd5b505050505050565b600260009054906101000a900473ffffffffffffffffffffffffffffffffffffffff1681565b600060606000606060008054906101000a900473ffffffffffffffffffffffffffffffffffffffff1673ffffffffffffffffffffffffffffffffffffffff16634e088046866040518263ffffffff1660e01b8152600401610c3c9190611842565b60006040518083038186803b158015610c5457600080fd5b505afa158015610c68573d6000803e3d6000fd5b505050506040513d6000823e3d601f19601f82011682018060405250810190610c919190611f0b565b809450819550829650839750505050509193509193565b670de0b6b3a764000081565b60008054906101000a900473ffffffffffffffffffffffffffffffffffffffff1673ffffffffffffffffffffffffffffffffffffffff16635addd35a336040518263ffffffff1660e01b8152600401610d0d9190611842565b60006040518083038186803b158015610d2557600080fd5b505afa158015610d39573d6000803e3d6000fd5b505050506000151560008054906101000a900473ffffffffffffffffffffffffffffffffffffffff1673ffffffffffffffffffffffffffffffffffffffff1663010c5c97846040518263ffffffff1660e01b8152600401610d9a9190611842565b60206040518083038186803b158015610db257600080fd5b505afa158015610dc6573d6000803e3d6000fd5b505050506040513d601f19601f82011682018060405250810190610dea9190611be8565b151514610e2c576040517f08c379a0000000000000000000000000000000000000000000000000000000008152600401610e2390611ff6565b60405180910390fd5b60008060009054906101000a900473ffffffffffffffffffffffffffffffffffffffff1673ffffffffffffffffffffffffffffffffffffffff1663994de4536040518163ffffffff1660e01b815260040160206040518083038186803b158015610e9557600080fd5b505afa158015610ea9573d6000803e3d6000fd5b505050506040513d601f19601f82011682018060405250810190610ecd9190611df8565b9050600281610edc9190612074565b6004819055506000805b600380549050811015610f81573373ffffffffffffffffffffffffffffffffffffffff1660038281548110610f1e57610f1d6120a5565b5b9060005260206000200160009054906101000a900473ffffffffffffffffffffffffffffffffffffffff1673ffffffffffffffffffffffffffffffffffffffff161415610f6e5760019150610f81565b8080610f79906120d4565b915050610ee6565b508015610fc3576040517f08c379a0000000000000000000000000000000000000000000000000000000008152600401610fba9061218f565b60405180910390fd5b6003339080600181540180825580915050600190039060005260206000200160009091909190916101000a81548173ffffffffffffffffffffffffffffffffffffffff021916908373ffffffffffffffffffffffffffffffffffffffff16021790555060045460038054905014156112145760008054906101000a900473ffffffffffffffffffffffffffffffffffffffff1673ffffffffffffffffffffffffffffffffffffffff16637008414d60016040518263ffffffff1660e01b815260040161108f91906115ea565b600060405180830381600087803b1580156110a957600080fd5b505af11580156110bd573d6000803e3d6000fd5b5050505060008054906101000a900473ffffffffffffffffffffffffffffffffffffffff1673ffffffffffffffffffffffffffffffffffffffff1663b10f057b85856040518363ffffffff1660e01b815260040161111c929190611e5d565b600060405180830381600087803b15801561113657600080fd5b505af115801561114a573d6000803e3d6000fd5b50505050600067ffffffffffffffff81111561116957611168611634565b5b6040519080825280602002602001820160405280156111975781602001602082028036833780820191505090505b50600390805190602001906111ad929190611506565b508373ffffffffffffffffffffffffffffffffffffffff163373ffffffffffffffffffffffffffffffffffffffff167ff020aa9943a57a61502ec8ba9e0d59387b7ec79450be409553eab4f19ebff60d8560405161120b91906121af565b60405180910390a35b50505050565b60008060008054906101000a900473ffffffffffffffffffffffffffffffffffffffff1673ffffffffffffffffffffffffffffffffffffffff1663010c5c97336040518263ffffffff1660e01b81526004016112769190611842565b60206040518083038186803b15801561128e57600080fd5b505afa1580156112a2573d6000803e3d6000fd5b505050506040513d601f19601f820116820180604052508101906112c69190611be8565b90508091505090565b6112d7611590565b6112df611590565b6112e88361143a565b816000600381106112fc576112fb6120a5565b5b602002019060ff16908160ff16815250505b80600060038110611322576113216120a5565b5b602002015160ff168160016003811061133e5761133d6120a5565b5b602002015160ff16141561137f576113558361143a565b81600160038110611369576113686120a5565b5b602002019060ff16908160ff168152505061130e565b5b80600060038110611394576113936120a5565b5b602002015160ff16816002600381106113b0576113af6120a5565b5b602002015160ff1614806113f95750806001600381106113d3576113d26120a5565b5b602002015160ff16816002600381106113ef576113ee6120a5565b5b602002015160ff16145b15611431576114078361143a565b8160026003811061141b5761141a6120a5565b5b602002019060ff16908160ff1681525050611380565b80915050919050565b600080600a905060008160ff166005600081819054906101000a900460ff1680929190611466906121ca565b91906101000a81548160ff021916908360ff16021790555060ff164361148c91906121f4565b408560405160200161149f92919061229b565b6040516020818303038152906040528051906020012060001c6114c291906122c7565b905060fa600560009054906101000a900460ff1660ff1611156114fc576000600560006101000a81548160ff021916908360ff1602179055505b8092505050919050565b82805482825590600052602060002090810192821561157f579160200282015b8281111561157e5782518260006101000a81548173ffffffffffffffffffffffffffffffffffffffff021916908373ffffffffffffffffffffffffffffffffffffffff16021790555091602001919060010190611526565b5b50905061158c91906115b2565b5090565b6040518060600160405280600390602082028036833780820191505090505090565b5b808211156115cb5760008160009055506001016115b3565b5090565b60008115159050919050565b6115e4816115cf565b82525050565b60006020820190506115ff60008301846115db565b92915050565b6000604051905090565b600080fd5b600080fd5b600080fd5b600080fd5b6000601f19601f8301169050919050565b7f4e487b7100000000000000000000000000000000000000000000000000000000600052604160045260246000fd5b61166c82611623565b810181811067ffffffffffffffff8211171561168b5761168a611634565b5b80604052505050565b600061169e611605565b90506116aa8282611663565b919050565b600067ffffffffffffffff8211156116ca576116c9611634565b5b6116d382611623565b9050602081019050919050565b82818337600083830152505050565b60006117026116fd846116af565b611694565b90508281526020810184848401111561171e5761171d61161e565b5b6117298482856116e0565b509392505050565b600082601f83011261174657611745611619565b5b81356117568482602086016116ef565b91505092915050565b6000602082840312156117755761177461160f565b5b600082013567ffffffffffffffff81111561179357611792611614565b5b61179f84828501611731565b91505092915050565b600073ffffffffffffffffffffffffffffffffffffffff82169050919050565b60006117d3826117a8565b9050919050565b6117e3816117c8565b81146117ee57600080fd5b50565b600081359050611800816117da565b92915050565b60006020828403121561181c5761181b61160f565b5b600061182a848285016117f1565b91505092915050565b61183c816117c8565b82525050565b60006020820190506118576000830184611833565b92915050565b6000819050919050565b6118708161185d565b82525050565b600060208201905061188b6000830184611867565b92915050565b61189a8161185d565b81146118a557600080fd5b50565b6000813590506118b781611891565b92915050565b6000602082840312156118d3576118d261160f565b5b60006118e1848285016118a8565b91505092915050565b600060ff82169050919050565b611900816118ea565b811461190b57600080fd5b50565b60008135905061191d816118f7565b92915050565b6000806040838503121561193a5761193961160f565b5b6000611948858286016117f1565b92505060206119598582860161190e565b9150509250929050565b600081519050919050565b600082825260208201905092915050565b60005b8381101561199d578082015181840152602081019050611982565b838111156119ac576000848401525b50505050565b60006119bd82611963565b6119c7818561196e565b93506119d781856020860161197f565b6119e081611623565b840191505092915050565b6000608082019050611a006000830187611867565b8181036020830152611a1281866119b2565b9050611a216040830185611833565b8181036060830152611a3381846119b2565b905095945050505050565b7f6665652069732072657175697265640000000000000000000000000000000000600082015250565b6000611a74600f8361196e565b9150611a7f82611a3e565b602082019050919050565b60006020820190508181036000830152611aa381611a67565b9050919050565b600081905092915050565b50565b6000611ac5600083611aaa565b9150611ad082611ab5565b600082019050919050565b6000611ae682611ab8565b9150819050919050565b7f6661696c656420746f206465706f736974204554480000000000000000000000600082015250565b6000611b2660158361196e565b9150611b3182611af0565b602082019050919050565b60006020820190508181036000830152611b5581611b19565b9050919050565b6000819050919050565b6000819050919050565b6000611b8b611b86611b8184611b5c565b611b66565b6118ea565b9050919050565b611b9b81611b70565b82525050565b6000602082019050611bb66000830184611b92565b92915050565b611bc5816115cf565b8114611bd057600080fd5b50565b600081519050611be281611bbc565b92915050565b600060208284031215611bfe57611bfd61160f565b5b6000611c0c84828501611bd3565b91505092915050565b60006040820190508181036000830152611c2f81856119b2565b9050611c3e6020830184611833565b9392505050565b7f4f522e20464545204d5553540000000000000000000000000000000000000000600082015250565b6000611c7b600c8361196e565b9150611c8682611c45565b602082019050919050565b60006020820190508181036000830152611caa81611c6e565b9050919050565b7f53454e44204641494c4544000000000000000000000000000000000000000000600082015250565b6000611ce7600b8361196e565b9150611cf282611cb1565b602082019050919050565b60006020820190508181036000830152611d1681611cda565b9050919050565b600060039050919050565b600081905092915050565b6000819050919050565b611d46816118ea565b82525050565b6000611d588383611d3d565b60208301905092915050565b6000602082019050919050565b611d7a81611d1d565b611d848184611d28565b9250611d8f82611d33565b8060005b83811015611dc0578151611da78782611d4c565b9650611db283611d64565b925050600181019050611d93565b505050505050565b6000606082019050611ddd6000830184611d71565b92915050565b600081519050611df281611891565b92915050565b600060208284031215611e0e57611e0d61160f565b5b6000611e1c84828501611de3565b91505092915050565b611e2e816118ea565b82525050565b6000604082019050611e496000830185611e25565b611e566020830184611867565b9392505050565b6000604082019050611e726000830185611833565b611e7f6020830184611e25565b9392505050565b6000611e99611e94846116af565b611694565b905082815260208101848484011115611eb557611eb461161e565b5b611ec084828561197f565b509392505050565b600082601f830112611edd57611edc611619565b5b8151611eed848260208601611e86565b91505092915050565b600081519050611f05816117da565b92915050565b60008060008060808587031215611f2557611f2461160f565b5b6000611f3387828801611de3565b945050602085015167ffffffffffffffff811115611f5457611f53611614565b5b611f6087828801611ec8565b9350506040611f7187828801611ef6565b925050606085015167ffffffffffffffff811115611f9257611f91611614565b5b611f9e87828801611ec8565b91505092959194509250565b7f6169726c696e6520616c72656164792072656769737465726564000000000000600082015250565b6000611fe0601a8361196e565b9150611feb82611faa565b602082019050919050565b6000602082019050818103600083015261200f81611fd3565b9050919050565b7f4e487b7100000000000000000000000000000000000000000000000000000000600052601260045260246000fd5b7f4e487b7100000000000000000000000000000000000000000000000000000000600052601160045260246000fd5b600061207f8261185d565b915061208a8361185d565b92508261209a57612099612016565b5b828204905092915050565b7f4e487b7100000000000000000000000000000000000000000000000000000000600052603260045260246000fd5b60006120df8261185d565b91507fffffffffffffffffffffffffffffffffffffffffffffffffffffffffffffffff82141561211257612111612045565b5b600182019050919050565b7f63616c6c657220616c72656164792063616c6c6564207468652066756e63746960008201527f6f6e000000000000000000000000000000000000000000000000000000000000602082015250565b600061217960228361196e565b91506121848261211d565b604082019050919050565b600060208201905081810360008301526121a88161216c565b9050919050565b60006020820190506121c46000830184611e25565b92915050565b60006121d5826118ea565b915060ff8214156121e9576121e8612045565b5b600182019050919050565b60006121ff8261185d565b915061220a8361185d565b92508282101561221d5761221c612045565b5b828203905092915050565b6000819050919050565b6000819050919050565b61224d61224882612228565b612232565b82525050565b60008160601b9050919050565b600061226b82612253565b9050919050565b600061227d82612260565b9050919050565b612295612290826117c8565b612272565b82525050565b60006122a7828561223c565b6020820191506122b78284612284565b6014820191508190509392505050565b60006122d28261185d565b91506122dd8361185d565b9250826122ed576122ec612016565b5b82820690509291505056fea2646970667358221220bd96682522886c5cb02d7f7df49ff8c9da6d3c18efbb33d45b65155ee078d5ba64736f6c63430008090033",
  "immutableReferences": {},
  "source": "// SPDX-License-Identifier: MIT\npragma solidity >=0.7.0 <0.9.0;\n\nimport '@openzeppelin/contracts/utils/math/SafeMath.sol';\n\n\ncontract FlightSuretyApp {\n  IFlightSuretyData iFlightSuretyData;\n  using SafeMath for uint256;\n    \n  address flightSuretyDataAddress;\n    \n  address public contractOwner;\n\n\n\n\n  uint256 public constant AIRLINE_FEE =  10 ether;\n    \n    \n  address[] minimumAirlines = new address[](0);\n  uint quorum;\n    \n  \n      \n\n    \n  /********************************************************************************************/\n  /*                                       FUNCTION MODIFIERS                                 */\n  /********************************************************************************************/\n  \n  modifier onlyAuthorizedAirlines(address _account) {\n    iFlightSuretyData.onlyAuthorizedAirlines(_account);\n    _;\n      \n  }\n  \n  modifier onlyRegistered() {\n    iFlightSuretyData.onlyRegisteredAirlines(msg.sender);\n    _;\n  }\n\n  \n  \n\n  /********************************************************************************************/\n  /*                                       EVENTS                                */\n  /********************************************************************************************/\n  \n  event LogRegisteredViaConsensus(address indexed callerAirline, address indexed registeredAirline, uint8 state);\n  event LogPayCommitment(address indexed airline, uint256 airlineFee);\n\n\n  /********************************************************************************************/\n  /*                                       CONSTRUCTOR                                        */\n  /********************************************************************************************/\n  constructor(address _flightSuretyDataAddress) {\n    contractOwner = msg.sender;\n    flightSuretyDataAddress = _flightSuretyDataAddress;\n    iFlightSuretyData = IFlightSuretyData(_flightSuretyDataAddress);\n    \n    startAirlineApplication('alpha');\n    registerAirline(contractOwner, 2);\n\n    // payCommitmentFee();\n  }\n\n    /********************************************************************************************/\n  /*                                       AIRLINE CORE FUNCTION                               */\n  /********************************************************************************************/\n    \n  function startAirlineApplication(string memory _name) public  {\n    iFlightSuretyData.createNewAirline(_name, msg.sender);\n      \n          \n  }\n\n  function registerAirline(address _account, uint8 _state) public {\n    iFlightSuretyData.updateAirlineStatus(_account, _state);\n    \n  }\n    \n    \n    \n  // register via consensus\n  function registerViaConsensus(address _account, uint8 _state) public  onlyRegistered {\n\n    require(iFlightSuretyData.isAirlineRegistered(_account) == false, 'airline already registered');\n    \n    uint regAirlines =  iFlightSuretyData.getTotalRegisteredAirlines();\n    quorum = regAirlines / 2;\n      \n      \n    bool isDuplicate = false;\n    \n    for(uint i = 0; i < minimumAirlines.length; i ++) {\n      if(minimumAirlines[i] == msg.sender) {\n        isDuplicate = true;\n        break;\n      }\n    }\n\n    require(!isDuplicate, 'caller already called the function');\n\n    minimumAirlines.push(msg.sender);\n    \n\n    if(minimumAirlines.length == quorum) {\n    iFlightSuretyData.enableOperationalStatus(true);\n      iFlightSuretyData.updateAirlineStatus(_account, _state);\n      minimumAirlines = new address[](0);\n      emit LogRegisteredViaConsensus(msg.sender, _account, _state);\n    }\n  }\n\n\n  // pay airline fee\n  function payCommitmentFee() public payable onlyRegistered {\n    require(msg.value == AIRLINE_FEE, 'fee is required');\n    (bool send, ) = flightSuretyDataAddress.call{value: msg.value}('');\n    require(send, 'failed to deposit ETH');\n    iFlightSuretyData.updateToCommitState(3);\n    emit LogPayCommitment(msg.sender, msg.value);\n  }\n\n\n  \n    \n   \n/********************************************************************************************/\n/*                                      AIRLINE UTILITY FUNCTIONS                                 */\n/********************************************************************************************/\n      \n  function getOwner() external view returns(address) {\n    return contractOwner;\n  }\n\n\n  \n  function airlineAuthorizationStatus(address _account)  public view returns(bool) {\n    return iFlightSuretyData.getAirlineAuthorizationStatus(_account);\n  }\n    \n      \n\n  function airlineDetails(address _account) public view returns(uint256 id, string memory name, address airlineAccount, string memory state) {\n    (id, name, airlineAccount, state) = iFlightSuretyData.getAirlineDetails(_account);\n    return (id, name, airlineAccount, state);\n  }\n\n  function isCallerAirlineRegistered() public view returns(bool) {\n    (bool status) = iFlightSuretyData.isAirlineRegistered(msg.sender);\n    return status;\n  }\n    \n    \n  function getTotalRegisteredAirlines() public view returns(uint256) {\n    return iFlightSuretyData.getTotalRegisteredAirlines();\n  }\n    \n  function getOperationalStatus() public view returns(bool) {\n    return iFlightSuretyData.getOperationalStatus();\n  }\n\n      \n  function getQuorum() public view returns(uint) {\n    return quorum;\n  }\n  \n  \n  \n  /*__________________________________FLIGHT_______________________________*/\n\n  /*                                       FLIGHT FUNCTIONS                        */\n  /********************************************************************************************/\n\n  function fetchFlightStatus(uint256 _flightID) public {\n    uint8 index = getRandomIndex(msg.sender);\n\n    iFlightSuretyData.fetchFlightStatus(index, _flightID);\n  }\n \n\n  /*__________________________________ORACLE_______________________________*/\n\n  /*                                       ORACLE VARIABLES                         */\n  /********************************************************************************************/\n  uint256 public constant ORACLE_REGISTRATION_FEE = 1 ether;\n  uint8 private nonce = 0;\n\n\n\n\n    /********************************************************************************************/\n  /*                                       ORACLE CORE FUNCTION                               */\n  /********************************************************************************************/\n  function payOracleRegFees() public payable {\n    require(msg.value == ORACLE_REGISTRATION_FEE, 'OR. FEE MUST');\n    (bool sent, ) = flightSuretyDataAddress.call{value: msg.value}('');\n    require(sent, 'SEND FAILED');\n    \n    uint8[3] memory indexes = generateIndexes(msg.sender);\n    iFlightSuretyData.registerOracle(indexes);\n  }\n\n\n  /********************************************************************************************/\n  /*                                      ORACLE UTILITY FUNCTIONS                           */\n  /******************************************************************************************/\n\n  function getRandomIndex(address _account) internal returns(uint8) {\n    uint8 maxValue = 10;\n    uint8 random  = uint8(uint256(keccak256(abi.encodePacked(blockhash(block.number - nonce++), _account))) % maxValue);\n\n    if(nonce > 250) {\n      nonce = 0;\n    }\n\n    return random;\n  }\n  \n  // Return non-duplicating integers\n  function generateIndexes(address _account) internal returns(uint8[3] memory) {\n    uint8[3] memory indexes;\n    indexes[0] = getRandomIndex(_account);\n\n\n    while(indexes[1] == indexes[0]) {\n      indexes[1] = getRandomIndex(_account);\n    }\n\n    while((indexes[2] == indexes[0]) || (indexes[2] == indexes[1])) {\n      indexes[2] =  getRandomIndex(_account);\n    }\n\n    return indexes;\n  }\n\n}\n\n      \n\n\n\n\n\n\ninterface IFlightSuretyData {\n\n  // airline functions\n  function createNewAirline(string memory _name, address _account) external;\n  function updateAirlineStatus(address _account, uint8 _state) external;\n  function onlyAuthorizedAirlines(address _account) external view;\n  function getAirlineAuthorizationStatus(address _account) external view returns(bool status);\n  function getAirlineDetails(address _account) external view returns(uint256 id, string memory name, address airlineAccount, string memory state);\n  function isAirlineRegistered(address _account) external view returns(bool);\n  function onlyRegisteredAirlines(address _account) external view;\n  function getTotalRegisteredAirlines() external view returns(uint256);\n  function enableOperationalStatus(bool _status) external;\n  function getOperationalStatus() external view  returns(bool);\n  function updateToCommitState(uint8 _state) external;\n  function isAirlineCommitted(address _account) external view returns(bool checkStatus);\n\n  // flight functions\n  function fetchFlightStatus(uint8 _index, uint256 _timestamp) external;\n\n\n  // oracle functions\n  function registerOracle(uint8[3] memory _indexes) external payable;\n\n}\n\n\n",
  "sourcePath": "/home/sprtd/Desktop/Udacity/lesson-5-flight-surety/flight-surety-project/contracts/FlightSuretyApp.sol",
  "compiler": {
    "name": "solc",
    "version": "0.8.9+commit.e5eed63a.Emscripten.clang"
  },
  "schemaVersion": "3.4.3",
  "updatedAt": "2021-11-08T02:51:37.315Z",
  "networkType": "ethereum",
  "devdoc": {
    "kind": "dev",
    "methods": {},
    "version": 1
  },
  "userdoc": {
    "kind": "user",
    "methods": {},
    "version": 1
  }
}