{
  "contractName": "FlightSuretyData",
  "abi": [
    {
      "inputs": [],
      "stateMutability": "nonpayable",
      "type": "constructor"
    },
    {
      "anonymous": false,
      "inputs": [
        {
          "indexed": true,
          "internalType": "address",
          "name": "account",
          "type": "address"
        },
        {
          "indexed": false,
          "internalType": "uint256",
          "name": "timestamp",
          "type": "uint256"
        },
        {
          "indexed": false,
          "internalType": "string",
          "name": "airlineStatus",
          "type": "string"
        }
      ],
      "name": "LogCreatedAirline",
      "type": "event"
    },
    {
      "anonymous": false,
      "inputs": [
        {
          "indexed": false,
          "internalType": "string",
          "name": "name",
          "type": "string"
        },
        {
          "indexed": false,
          "internalType": "bytes32",
          "name": "flightKey",
          "type": "bytes32"
        },
        {
          "indexed": true,
          "internalType": "address",
          "name": "airline",
          "type": "address"
        },
        {
          "indexed": false,
          "internalType": "uint256",
          "name": "timestamp",
          "type": "uint256"
        },
        {
          "indexed": false,
          "internalType": "uint8",
          "name": "statusCode",
          "type": "uint8"
        }
      ],
      "name": "LogFlightRegistered",
      "type": "event"
    },
    {
      "anonymous": false,
      "inputs": [
        {
          "indexed": false,
          "internalType": "address",
          "name": "airline",
          "type": "address"
        },
        {
          "indexed": false,
          "internalType": "string",
          "name": "flightName",
          "type": "string"
        },
        {
          "indexed": false,
          "internalType": "uint256",
          "name": "timestamp",
          "type": "uint256"
        },
        {
          "indexed": false,
          "internalType": "uint8",
          "name": "statusCode",
          "type": "uint8"
        }
      ],
      "name": "LogFlightStatusInfo",
      "type": "event"
    },
    {
      "anonymous": false,
      "inputs": [
        {
          "indexed": true,
          "internalType": "address",
          "name": "airline",
          "type": "address"
        },
        {
          "indexed": false,
          "internalType": "uint256",
          "name": "timestamp",
          "type": "uint256"
        },
        {
          "indexed": false,
          "internalType": "uint8",
          "name": "statusCode",
          "type": "uint8"
        }
      ],
      "name": "LogFlightStatusProcessed",
      "type": "event"
    },
    {
      "anonymous": false,
      "inputs": [
        {
          "indexed": true,
          "internalType": "address",
          "name": "oracle",
          "type": "address"
        },
        {
          "indexed": false,
          "internalType": "uint8[3]",
          "name": "indexes",
          "type": "uint8[3]"
        }
      ],
      "name": "LogOracleRegistered",
      "type": "event"
    },
    {
      "anonymous": false,
      "inputs": [
        {
          "indexed": false,
          "internalType": "address",
          "name": "airline",
          "type": "address"
        },
        {
          "indexed": false,
          "internalType": "uint256",
          "name": "timestamp",
          "type": "uint256"
        },
        {
          "indexed": false,
          "internalType": "uint8",
          "name": "status",
          "type": "uint8"
        }
      ],
      "name": "LogOracleReport",
      "type": "event"
    },
    {
      "anonymous": false,
      "inputs": [
        {
          "indexed": false,
          "internalType": "uint8",
          "name": "index",
          "type": "uint8"
        },
        {
          "indexed": false,
          "internalType": "address",
          "name": "airline",
          "type": "address"
        },
        {
          "indexed": false,
          "internalType": "string",
          "name": "flight",
          "type": "string"
        },
        {
          "indexed": false,
          "internalType": "uint256",
          "name": "timestamp",
          "type": "uint256"
        }
      ],
      "name": "LogOracleRequest",
      "type": "event"
    },
    {
      "anonymous": false,
      "inputs": [
        {
          "indexed": true,
          "internalType": "address",
          "name": "account",
          "type": "address"
        },
        {
          "indexed": false,
          "internalType": "uint256",
          "name": "amount",
          "type": "uint256"
        }
      ],
      "name": "LogPassengerInsurance",
      "type": "event"
    },
    {
      "anonymous": false,
      "inputs": [
        {
          "indexed": true,
          "internalType": "address",
          "name": "account",
          "type": "address"
        },
        {
          "indexed": false,
          "internalType": "string",
          "name": "airlineStatus",
          "type": "string"
        }
      ],
      "name": "LogStatusUpdated",
      "type": "event"
    },
    {
      "inputs": [],
      "name": "PASSENGER_INSURANCE_FEE",
      "outputs": [
        {
          "internalType": "uint256",
          "name": "",
          "type": "uint256"
        }
      ],
      "stateMutability": "view",
      "type": "function",
      "constant": true
    },
    {
      "inputs": [],
      "name": "contractOwner",
      "outputs": [
        {
          "internalType": "address",
          "name": "",
          "type": "address"
        }
      ],
      "stateMutability": "view",
      "type": "function",
      "constant": true
    },
    {
      "inputs": [
        {
          "internalType": "string",
          "name": "_name",
          "type": "string"
        },
        {
          "internalType": "address",
          "name": "_account",
          "type": "address"
        }
      ],
      "name": "createNewAirline",
      "outputs": [],
      "stateMutability": "nonpayable",
      "type": "function"
    },
    {
      "inputs": [],
      "name": "disableOperational",
      "outputs": [],
      "stateMutability": "nonpayable",
      "type": "function"
    },
    {
      "inputs": [
        {
          "internalType": "bool",
          "name": "_status",
          "type": "bool"
        }
      ],
      "name": "enableOperationalStatus",
      "outputs": [],
      "stateMutability": "nonpayable",
      "type": "function"
    },
    {
      "inputs": [],
      "name": "flightCounter",
      "outputs": [
        {
          "internalType": "uint256",
          "name": "",
          "type": "uint256"
        }
      ],
      "stateMutability": "view",
      "type": "function",
      "constant": true
    },
    {
      "inputs": [
        {
          "internalType": "uint256",
          "name": "",
          "type": "uint256"
        }
      ],
      "name": "flightKeys",
      "outputs": [
        {
          "internalType": "bytes32",
          "name": "",
          "type": "bytes32"
        }
      ],
      "stateMutability": "view",
      "type": "function",
      "constant": true
    },
    {
      "inputs": [
        {
          "internalType": "address",
          "name": "_account",
          "type": "address"
        }
      ],
      "name": "getAirlineApplicationStatus",
      "outputs": [
        {
          "internalType": "string",
          "name": "status",
          "type": "string"
        }
      ],
      "stateMutability": "view",
      "type": "function",
      "constant": true
    },
    {
      "inputs": [
        {
          "internalType": "address",
          "name": "_account",
          "type": "address"
        }
      ],
      "name": "getAirlineAuthorizationStatus",
      "outputs": [
        {
          "internalType": "bool",
          "name": "status",
          "type": "bool"
        }
      ],
      "stateMutability": "view",
      "type": "function",
      "constant": true
    },
    {
      "inputs": [
        {
          "internalType": "address",
          "name": "_account",
          "type": "address"
        }
      ],
      "name": "getAirlineBalance",
      "outputs": [
        {
          "internalType": "uint256",
          "name": "",
          "type": "uint256"
        }
      ],
      "stateMutability": "view",
      "type": "function",
      "constant": true
    },
    {
      "inputs": [
        {
          "internalType": "address",
          "name": "_account",
          "type": "address"
        }
      ],
      "name": "getAirlineDetails",
      "outputs": [
        {
          "internalType": "uint256",
          "name": "id",
          "type": "uint256"
        },
        {
          "internalType": "string",
          "name": "name",
          "type": "string"
        },
        {
          "internalType": "address",
          "name": "airlineAccount",
          "type": "address"
        },
        {
          "internalType": "string",
          "name": "state",
          "type": "string"
        }
      ],
      "stateMutability": "view",
      "type": "function",
      "constant": true
    },
    {
      "inputs": [],
      "name": "getDataBalance",
      "outputs": [
        {
          "internalType": "uint256",
          "name": "",
          "type": "uint256"
        }
      ],
      "stateMutability": "view",
      "type": "function",
      "constant": true
    },
    {
      "inputs": [],
      "name": "getOperationalStatus",
      "outputs": [
        {
          "internalType": "bool",
          "name": "",
          "type": "bool"
        }
      ],
      "stateMutability": "view",
      "type": "function",
      "constant": true
    },
    {
      "inputs": [],
      "name": "getOwner",
      "outputs": [
        {
          "internalType": "address",
          "name": "",
          "type": "address"
        }
      ],
      "stateMutability": "view",
      "type": "function",
      "constant": true
    },
    {
      "inputs": [],
      "name": "getTotalAppliedAirlines",
      "outputs": [
        {
          "internalType": "uint256",
          "name": "",
          "type": "uint256"
        }
      ],
      "stateMutability": "view",
      "type": "function",
      "constant": true
    },
    {
      "inputs": [],
      "name": "getTotalRegisteredAirlines",
      "outputs": [
        {
          "internalType": "uint256",
          "name": "",
          "type": "uint256"
        }
      ],
      "stateMutability": "view",
      "type": "function",
      "constant": true
    },
    {
      "inputs": [
        {
          "internalType": "address",
          "name": "_account",
          "type": "address"
        }
      ],
      "name": "isAirlineCommitted",
      "outputs": [
        {
          "internalType": "bool",
          "name": "checkStatus",
          "type": "bool"
        }
      ],
      "stateMutability": "view",
      "type": "function",
      "constant": true
    },
    {
      "inputs": [
        {
          "internalType": "address",
          "name": "_account",
          "type": "address"
        }
      ],
      "name": "isAirlineRegistered",
      "outputs": [
        {
          "internalType": "bool",
          "name": "checkStatus",
          "type": "bool"
        }
      ],
      "stateMutability": "view",
      "type": "function",
      "constant": true
    },
    {
      "inputs": [
        {
          "internalType": "address",
          "name": "_account",
          "type": "address"
        }
      ],
      "name": "onlyAuthorizeRegistrants",
      "outputs": [],
      "stateMutability": "view",
      "type": "function",
      "constant": true
    },
    {
      "inputs": [
        {
          "internalType": "address",
          "name": "_account",
          "type": "address"
        }
      ],
      "name": "onlyAuthorizedAirlines",
      "outputs": [],
      "stateMutability": "view",
      "type": "function",
      "constant": true
    },
    {
      "inputs": [
        {
          "internalType": "address",
          "name": "_account",
          "type": "address"
        }
      ],
      "name": "onlyRegisteredAirlines",
      "outputs": [],
      "stateMutability": "view",
      "type": "function",
      "constant": true
    },
    {
      "inputs": [
        {
          "internalType": "bool",
          "name": "_status",
          "type": "bool"
        }
      ],
      "name": "setOperatinalStatus",
      "outputs": [],
      "stateMutability": "nonpayable",
      "type": "function"
    },
    {
      "inputs": [
        {
          "internalType": "address",
          "name": "_account",
          "type": "address"
        },
        {
          "internalType": "uint8",
          "name": "_state",
          "type": "uint8"
        }
      ],
      "name": "updateAirlineStatus",
      "outputs": [],
      "stateMutability": "nonpayable",
      "type": "function"
    },
    {
      "inputs": [
        {
          "internalType": "uint8",
          "name": "_state",
          "type": "uint8"
        }
      ],
      "name": "updateToCommitState",
      "outputs": [],
      "stateMutability": "payable",
      "type": "function",
      "payable": true
    },
    {
      "stateMutability": "payable",
      "type": "receive",
      "payable": true
    },
    {
      "inputs": [
        {
          "internalType": "uint8",
          "name": "_statusCode",
          "type": "uint8"
        }
      ],
      "name": "registerFlight",
      "outputs": [],
      "stateMutability": "nonpayable",
      "type": "function"
    },
    {
      "inputs": [
        {
          "internalType": "uint8",
          "name": "_index",
          "type": "uint8"
        },
        {
          "internalType": "uint256",
          "name": "_flightId",
          "type": "uint256"
        }
      ],
      "name": "fetchFlightStatus",
      "outputs": [],
      "stateMutability": "nonpayable",
      "type": "function"
    },
    {
      "inputs": [
        {
          "internalType": "uint256",
          "name": "_flightId",
          "type": "uint256"
        }
      ],
      "name": "getFlightDetails",
      "outputs": [
        {
          "internalType": "uint256",
          "name": "id",
          "type": "uint256"
        },
        {
          "internalType": "address",
          "name": "airline",
          "type": "address"
        },
        {
          "internalType": "string",
          "name": "flightName",
          "type": "string"
        },
        {
          "internalType": "uint8",
          "name": "statusCode",
          "type": "uint8"
        },
        {
          "internalType": "bytes32",
          "name": "flightKey",
          "type": "bytes32"
        },
        {
          "internalType": "uint256",
          "name": "timestamp",
          "type": "uint256"
        }
      ],
      "stateMutability": "view",
      "type": "function",
      "constant": true
    },
    {
      "inputs": [
        {
          "internalType": "address",
          "name": "_airline",
          "type": "address"
        },
        {
          "internalType": "uint256",
          "name": "_timestamp",
          "type": "uint256"
        }
      ],
      "name": "generateFlightKey",
      "outputs": [
        {
          "internalType": "bytes32",
          "name": "",
          "type": "bytes32"
        }
      ],
      "stateMutability": "pure",
      "type": "function",
      "constant": true
    },
    {
      "inputs": [
        {
          "internalType": "uint8[3]",
          "name": "_indexes",
          "type": "uint8[3]"
        }
      ],
      "name": "registerOracle",
      "outputs": [],
      "stateMutability": "payable",
      "type": "function",
      "payable": true
    },
    {
      "inputs": [
        {
          "internalType": "uint8",
          "name": "_index",
          "type": "uint8"
        },
        {
          "internalType": "address",
          "name": "_airline",
          "type": "address"
        },
        {
          "internalType": "string",
          "name": "_flightName",
          "type": "string"
        },
        {
          "internalType": "uint256",
          "name": "_timestamp",
          "type": "uint256"
        },
        {
          "internalType": "uint8",
          "name": "_statusCode",
          "type": "uint8"
        }
      ],
      "name": "submitOracleResponse",
      "outputs": [],
      "stateMutability": "nonpayable",
      "type": "function"
    },
    {
      "inputs": [],
      "name": "getOracleIndexes",
      "outputs": [
        {
          "internalType": "uint8[3]",
          "name": "",
          "type": "uint8[3]"
        }
      ],
      "stateMutability": "view",
      "type": "function",
      "constant": true
    },
    {
      "inputs": [
        {
          "internalType": "address",
          "name": "_account",
          "type": "address"
        }
      ],
      "name": "isOracleRegistered",
      "outputs": [
        {
          "internalType": "bool",
          "name": "",
          "type": "bool"
        }
      ],
      "stateMutability": "view",
      "type": "function",
      "constant": true
    },
    {
      "inputs": [
        {
          "internalType": "uint256",
          "name": "_flightId",
          "type": "uint256"
        }
      ],
      "name": "payInsurance",
      "outputs": [],
      "stateMutability": "payable",
      "type": "function",
      "payable": true
    },
    {
      "inputs": [
        {
          "internalType": "address",
          "name": "_account",
          "type": "address"
        }
      ],
      "name": "getPassengerDetails",
      "outputs": [
        {
          "internalType": "uint256",
          "name": "id",
          "type": "uint256"
        },
        {
          "internalType": "address",
          "name": "flightAddress",
          "type": "address"
        },
        {
          "internalType": "string",
          "name": "flightName",
          "type": "string"
        },
        {
          "internalType": "address",
          "name": "passenger",
          "type": "address"
        },
        {
          "internalType": "string",
          "name": "state",
          "type": "string"
        },
        {
          "internalType": "uint256",
          "name": "amount",
          "type": "uint256"
        },
        {
          "internalType": "uint256",
          "name": "refundAmount",
          "type": "uint256"
        }
      ],
      "stateMutability": "view",
      "type": "function",
      "constant": true
    },
    {
      "inputs": [
        {
          "internalType": "address",
          "name": "_account",
          "type": "address"
        }
      ],
      "name": "getPassengerBalance",
      "outputs": [
        {
          "internalType": "uint256",
          "name": "",
          "type": "uint256"
        }
      ],
      "stateMutability": "view",
      "type": "function",
      "constant": true
    },
    {
      "inputs": [],
      "name": "emergencyWithdraw",
      "outputs": [],
      "stateMutability": "payable",
      "type": "function",
      "payable": true
    }
  ],
  "bytecode": "0x6080604052600060065534801561001557600080fd5b5033600160006101000a81548173ffffffffffffffffffffffffffffffffffffffff021916908373ffffffffffffffffffffffffffffffffffffffff16021790555060018060146101000a81548160ff02191690831515021790555033600560006101000a81548173ffffffffffffffffffffffffffffffffffffffff021916908373ffffffffffffffffffffffffffffffffffffffff1602179055506151dd806100c16000396000f3fe6080604052600436106102135760003560e01c806389208e7211610118578063c968089e116100a0578063db2e21bc1161006f578063db2e21bc146107e1578063e0313fe6146107eb578063efa3327b14610816578063efbd588e14610841578063f243be18146108845761021a565b8063c968089e14610727578063ce606ee014610750578063d1fc5c511461077b578063d539e7ef146107a45761021a565b8063b10f057b116100e7578063b10f057b14610644578063b9b55c9a1461066d578063bf0a4f32146106aa578063c10f2700146106d3578063c36515b6146106fc5761021a565b806389208e7214610586578063893d20e8146105c3578063994de453146105ee578063aee1b2a1146106195761021a565b80633d21d8271161019b5780635addd35a1161016a5780635addd35a1461049157806369beb8fb146104ba5780637008414d146104f75780638042601f14610520578063837ee7551461055d5761021a565b80633d21d827146103cf5780634b5c9d531461040c5780634e08804614610435578063508e264e146104755761021a565b8063175a2ead116101e2578063175a2ead146102cc57806318535008146102f75780633063b87a1461033957806336061cca14610376578063385de787146103925761021a565b8063010c5c971461021f5780630b2653d51461025c5780630c982673146102855780630cfc7e44146102b05761021a565b3661021a57005b600080fd5b34801561022b57600080fd5b506102466004803603810190610241919061388b565b61089b565b60405161025391906138d3565b60405180910390f35b34801561026857600080fd5b50610283600480360381019061027e9190613a34565b610922565b005b34801561029157600080fd5b5061029a610c03565b6040516102a791906138d3565b60405180910390f35b6102ca60048036038101906102c59190613b7f565b610c1a565b005b3480156102d857600080fd5b506102e1610dd0565b6040516102ee9190613c57565b60405180910390f35b34801561030357600080fd5b5061031e60048036038101906103199190613ca8565b610f10565b60405161033096959493929190613da3565b60405180910390f35b34801561034557600080fd5b50610360600480360381019061035b919061388b565b6110d7565b60405161036d91906138d3565b60405180910390f35b610390600480360381019061038b9190613e0b565b61115e565b005b34801561039e57600080fd5b506103b960048036038101906103b4919061388b565b611409565b6040516103c69190613e38565b60405180910390f35b3480156103db57600080fd5b506103f660048036038101906103f19190613ca8565b611455565b6040516104039190613e53565b60405180910390f35b34801561041857600080fd5b50610433600480360381019061042e9190613e6e565b61146d565b005b34801561044157600080fd5b5061045c6004803603810190610457919061388b565b6115d6565b60405161046c9493929190613eae565b60405180910390f35b61048f600480360381019061048a9190613ca8565b6118e6565b005b34801561049d57600080fd5b506104b860048036038101906104b3919061388b565b611e5a565b005b3480156104c657600080fd5b506104e160048036038101906104dc919061388b565b611f13565b6040516104ee9190613f01565b60405180910390f35b34801561050357600080fd5b5061051e60048036038101906105199190613f4f565b611fa6565b005b34801561052c57600080fd5b506105476004803603810190610542919061388b565b612084565b60405161055491906138d3565b60405180910390f35b34801561056957600080fd5b50610584600480360381019061057f919061388b565b61219a565b005b34801561059257600080fd5b506105ad60048036038101906105a8919061388b565b612329565b6040516105ba9190613e38565b60405180910390f35b3480156105cf57600080fd5b506105d861234a565b6040516105e59190613f7c565b60405180910390f35b3480156105fa57600080fd5b50610603612374565b6040516106109190613e38565b60405180910390f35b34801561062557600080fd5b5061062e61237e565b60405161063b9190613e38565b60405180910390f35b34801561065057600080fd5b5061066b60048036038101906106669190613f97565b612384565b005b34801561067957600080fd5b50610694600480360381019061068f919061388b565b61271c565b6040516106a191906138d3565b60405180910390f35b3480156106b657600080fd5b506106d160048036038101906106cc919061388b565b612775565b005b3480156106df57600080fd5b506106fa60048036038101906106f59190613fd7565b612886565b005b34801561070857600080fd5b50610711612c12565b60405161071e9190613e38565b60405180910390f35b34801561073357600080fd5b5061074e60048036038101906107499190613f4f565b612c1e565b005b34801561075c57600080fd5b50610765612c99565b6040516107729190613f7c565b60405180910390f35b34801561078757600080fd5b506107a2600480360381019061079d9190613e0b565b612cbf565b005b3480156107b057600080fd5b506107cb60048036038101906107c6919061406e565b612fac565b6040516107d89190613e53565b60405180910390f35b6107e9612fdf565b005b3480156107f757600080fd5b50610800613189565b60405161080d9190613e38565b60405180910390f35b34801561082257600080fd5b5061082b613191565b6040516108389190613e38565b60405180910390f35b34801561084d57600080fd5b506108686004803603810190610863919061388b565b61319a565b60405161087b97969594939291906140ae565b60405180910390f35b34801561089057600080fd5b50610899613557565b005b600080600360008473ffffffffffffffffffffffffffffffffffffffff1673ffffffffffffffffffffffffffffffffffffffff16815260200190815260200160002060020160009054906101000a900460ff166003811115610900576108ff61412b565b5b905060028160ff161415610917576001915061091c565b600091505b50919050565b600060038111156109365761093561412b565b5b600360008373ffffffffffffffffffffffffffffffffffffffff1673ffffffffffffffffffffffffffffffffffffffff16815260200190815260200160002060020160009054906101000a900460ff1660038111156109985761099761412b565b5b146109d8576040517f08c379a00000000000000000000000000000000000000000000000000000000081526004016109cf906141a6565b60405180910390fd5b6109ee600160005461357f90919063ffffffff16565b6000819055506040518060800160405280600054815260200183815260200160016003811115610a2157610a2061412b565b5b81526020018273ffffffffffffffffffffffffffffffffffffffff16815250600360008373ffffffffffffffffffffffffffffffffffffffff1673ffffffffffffffffffffffffffffffffffffffff168152602001908152602001600020600082015181600001556020820151816001019080519060200190610aa59291906136ba565b5060408201518160020160006101000a81548160ff02191690836003811115610ad157610ad061412b565b5b021790555060608201518160020160016101000a81548173ffffffffffffffffffffffffffffffffffffffff021916908373ffffffffffffffffffffffffffffffffffffffff16021790555090505060603073ffffffffffffffffffffffffffffffffffffffff16634e088046836040518263ffffffff1660e01b8152600401610b5b9190613f7c565b600060405180830381865afa158015610b78573d6000803e3d6000fd5b505050506040513d6000823e3d601f19601f82011682018060405250810190610ba19190614260565b909192509091509050809150503373ffffffffffffffffffffffffffffffffffffffff167fce1dee3a3a541bee70a1b6baacdea5a02354238bbbeac531a8ddaceaa2a37aff4283604051610bf69291906142ff565b60405180910390a2505050565b6000600160149054906101000a900460ff16905090565b600960003273ffffffffffffffffffffffffffffffffffffffff1673ffffffffffffffffffffffffffffffffffffffff16815260200190815260200160002060000160009054906101000a900460ff1615610caa576040517f08c379a0000000000000000000000000000000000000000000000000000000008152600401610ca19061437b565b60405180910390fd5b60038014610ced576040517f08c379a0000000000000000000000000000000000000000000000000000000008152600401610ce4906143e7565b60405180910390fd5b604051806040016040528060011515815260200182815250600960003273ffffffffffffffffffffffffffffffffffffffff1673ffffffffffffffffffffffffffffffffffffffff16815260200190815260200160002060008201518160000160006101000a81548160ff021916908315150217905550602082015181600101906003610d7b929190613740565b509050503273ffffffffffffffffffffffffffffffffffffffff167fa10fa10a754470eaad1afcf8585e85a652d3ffe39b983f72eca381a6b122f17d82604051610dc59190613c57565b60405180910390a250565b610dd86137da565b600960003373ffffffffffffffffffffffffffffffffffffffff1673ffffffffffffffffffffffffffffffffffffffff16815260200190815260200160002060000160009054906101000a900460ff16610e67576040517f08c379a0000000000000000000000000000000000000000000000000000000008152600401610e5e90614453565b60405180910390fd5b600960003373ffffffffffffffffffffffffffffffffffffffff1673ffffffffffffffffffffffffffffffffffffffff168152602001908152602001600020600101600380602002604051908101604052809291908260038015610f06576020028201916000905b82829054906101000a900460ff1660ff1681526020019060010190602082600001049283019260010382029150808411610ecf5790505b5050505050905090565b600080606060008060008087141580610f2b57506006548711155b610f6a576040517f08c379a0000000000000000000000000000000000000000000000000000000008152600401610f61906144bf565b60405180910390fd5b600060086000898152602001908152602001600020549050600760008281526020019081526020016000206000015496506007600082815260200190815260200160002060010160009054906101000a900473ffffffffffffffffffffffffffffffffffffffff169550600760008281526020019081526020016000206002018054610ff59061450e565b80601f01602080910402602001604051908101604052809291908181526020018280546110219061450e565b801561106e5780601f106110435761010080835404028352916020019161106e565b820191906000526020600020905b81548152906001019060200180831161105157829003601f168201915b505050505094506007600082815260200190815260200160002060030160009054906101000a900460ff16935060076000828152602001908152602001600020600401549250600760008281526020019081526020016000206005015491505091939550919395565b600080600360008473ffffffffffffffffffffffffffffffffffffffff1673ffffffffffffffffffffffffffffffffffffffff16815260200190815260200160002060020160009054906101000a900460ff16600381111561113c5761113b61412b565b5b905060038160ff1614156111535760019150611158565b600091505b50919050565b323073ffffffffffffffffffffffffffffffffffffffff1663bf0a4f32826040518263ffffffff1660e01b81526004016111989190613f7c565b60006040518083038186803b1580156111b057600080fd5b505afa1580156111c4573d6000803e3d6000fd5b505050506000600360003273ffffffffffffffffffffffffffffffffffffffff1673ffffffffffffffffffffffffffffffffffffffff16815260200190815260200160002060020160009054906101000a900460ff16600381111561122c5761122b61412b565b5b905060038360ff161115611275576040517f08c379a000000000000000000000000000000000000000000000000000000000815260040161126c9061458c565b60405180910390fd5b8060ff168360ff16116112bd576040517f08c379a00000000000000000000000000000000000000000000000000000000081526004016112b49061461e565b60405180910390fd5b60038060003273ffffffffffffffffffffffffffffffffffffffff1673ffffffffffffffffffffffffffffffffffffffff16815260200190815260200160002060020160006101000a81548160ff021916908360038111156113225761132161412b565b5b021790555060603073ffffffffffffffffffffffffffffffffffffffff16634e088046326040518263ffffffff1660e01b81526004016113629190613f7c565b600060405180830381865afa15801561137f573d6000803e3d6000fd5b505050506040513d6000823e3d601f19601f820116820180604052508101906113a89190614260565b909192509091509050809150503273ffffffffffffffffffffffffffffffffffffffff167f430b758c1e0fe319aaa192e7d56d4f39ae97698a3a489e48954ea3ce634c26e1826040516113fb9190613f01565b60405180910390a250505050565b6000600b60008373ffffffffffffffffffffffffffffffffffffffff1673ffffffffffffffffffffffffffffffffffffffff168152602001908152602001600020600401549050919050565b60086020528060005260406000206000915090505481565b60008060008061147c85610f10565b95509550509450945050816008600087815260200190815260200160002054146114db576040517f08c379a00000000000000000000000000000000000000000000000000000000081526004016114d29061468a565b60405180910390fd5b6000868585846040516020016114f49493929190614785565b60405160208183030381529060405280519060200120905032600a600083815260200190815260200160002060000160006101000a81548173ffffffffffffffffffffffffffffffffffffffff021916908373ffffffffffffffffffffffffffffffffffffffff1602179055506001600a600083815260200190815260200160002060000160146101000a81548160ff0219169083151502179055507f3a0e43c5577f0995b7cca5df8615d0aa2a07d84830fec6f0f8d1103d74ab584e878686856040516115c594939291906147cf565b60405180910390a150505050505050565b60006060600060606000600360008773ffffffffffffffffffffffffffffffffffffffff1673ffffffffffffffffffffffffffffffffffffffff16815260200190815260200160002060020160009054906101000a900460ff1660038111156116425761164161412b565b5b905060008160ff16141561168d576040518060400160405280600a81526020017f556e61737369676e6564000000000000000000000000000000000000000000008152509150611767565b60018160ff1614156116d6576040518060400160405280600781526020017f4170706c696564000000000000000000000000000000000000000000000000008152509150611766565b60028160ff16141561171f576040518060400160405280600a81526020017f52656769737465726564000000000000000000000000000000000000000000008152509150611765565b60038160ff161415611764576040518060400160405280600981526020017f436f6d6d6974746564000000000000000000000000000000000000000000000081525091505b5b5b5b600360008773ffffffffffffffffffffffffffffffffffffffff1673ffffffffffffffffffffffffffffffffffffffff168152602001908152602001600020600001549450600360008773ffffffffffffffffffffffffffffffffffffffff1673ffffffffffffffffffffffffffffffffffffffff16815260200190815260200160002060010180546117f99061450e565b80601f01602080910402602001604051908101604052809291908181526020018280546118259061450e565b80156118725780601f1061184757610100808354040283529160200191611872565b820191906000526020600020905b81548152906001019060200180831161185557829003601f168201915b50505050509350600360008773ffffffffffffffffffffffffffffffffffffffff1673ffffffffffffffffffffffffffffffffffffffff16815260200190815260200160002060020160019054906101000a900473ffffffffffffffffffffffffffffffffffffffff169250509193509193565b670de0b6b3a76400003414611930576040517f08c379a000000000000000000000000000000000000000000000000000000000815260040161192790614867565b60405180910390fd5b60008114158061194257506006548111155b611981576040517f08c379a0000000000000000000000000000000000000000000000000000000008152600401611978906144bf565b60405180910390fd5b600060086000838152602001908152602001600020549050600760008281526020019081526020016000206000015482146119f1576040517f08c379a00000000000000000000000000000000000000000000000000000000081526004016119e8906148d3565b60405180910390fd5b60006002811115611a0557611a0461412b565b5b600b60003273ffffffffffffffffffffffffffffffffffffffff1673ffffffffffffffffffffffffffffffffffffffff16815260200190815260200160002060050160009054906101000a900460ff166002811115611a6757611a6661412b565b5b14611aa7576040517f08c379a0000000000000000000000000000000000000000000000000000000008152600401611a9e9061493f565b60405180910390fd5b60008060003073ffffffffffffffffffffffffffffffffffffffff16634e0880466007600087815260200190815260200160002060010160009054906101000a900473ffffffffffffffffffffffffffffffffffffffff166040518263ffffffff1660e01b8152600401611b1b9190613f7c565b600060405180830381865afa158015611b38573d6000803e3d6000fd5b505050506040513d6000823e3d601f19601f82011682018060405250810190611b619190614260565b5092509250925060003073ffffffffffffffffffffffffffffffffffffffff1634604051611b8e90614990565b60006040518083038185875af1925050503d8060008114611bcb576040519150601f19603f3d011682016040523d82523d6000602084013e611bd0565b606091505b5050905080611c14576040517f08c379a0000000000000000000000000000000000000000000000000000000008152600401611c0b906149f1565b60405180910390fd5b6040518060e001604052808581526020018373ffffffffffffffffffffffffffffffffffffffff1681526020013373ffffffffffffffffffffffffffffffffffffffff16815260200184815260200134815260200160016002811115611c7d57611c7c61412b565b5b81526020016000815250600b60003373ffffffffffffffffffffffffffffffffffffffff1673ffffffffffffffffffffffffffffffffffffffff1681526020019081526020016000206000820151816000015560208201518160010160006101000a81548173ffffffffffffffffffffffffffffffffffffffff021916908373ffffffffffffffffffffffffffffffffffffffff16021790555060408201518160020160006101000a81548173ffffffffffffffffffffffffffffffffffffffff021916908373ffffffffffffffffffffffffffffffffffffffff1602179055506060820151816003019080519060200190611d7a9291906136ba565b506080820151816004015560a08201518160050160006101000a81548160ff02191690836002811115611db057611daf61412b565b5b021790555060c082015181600601559050503373ffffffffffffffffffffffffffffffffffffffff167fd7973fc11875159721f15bfe308594241b8801c905a8745183c4557e8ce879fb600b60003373ffffffffffffffffffffffffffffffffffffffff1673ffffffffffffffffffffffffffffffffffffffff16815260200190815260200160002060040154604051611e4a9190613e38565b60405180910390a2505050505050565b60026003811115611e6e57611e6d61412b565b5b600360008373ffffffffffffffffffffffffffffffffffffffff1673ffffffffffffffffffffffffffffffffffffffff16815260200190815260200160002060020160009054906101000a900460ff166003811115611ed057611ecf61412b565b5b14611f10576040517f08c379a0000000000000000000000000000000000000000000000000000000008152600401611f0790614a5d565b60405180910390fd5b50565b60603073ffffffffffffffffffffffffffffffffffffffff16634e088046836040518263ffffffff1660e01b8152600401611f4e9190613f7c565b600060405180830381865afa158015611f6b573d6000803e3d6000fd5b505050506040513d6000823e3d601f19601f82011682018060405250810190611f949190614260565b90919250909150905080915050919050565b323073ffffffffffffffffffffffffffffffffffffffff16635addd35a826040518263ffffffff1660e01b8152600401611fe09190613f7c565b60006040518083038186803b158015611ff857600080fd5b505afa15801561200c573d6000803e3d6000fd5b50505050811515600160149054906101000a900460ff1615151415612066576040517f08c379a000000000000000000000000000000000000000000000000000000000815260040161205d90614ac9565b60405180910390fd5b81600160146101000a81548160ff0219169083151502179055505050565b60006001600381111561209a5761209961412b565b5b600360008473ffffffffffffffffffffffffffffffffffffffff1673ffffffffffffffffffffffffffffffffffffffff16815260200190815260200160002060020160009054906101000a900460ff1660038111156120fc576120fb61412b565b5b141561210b5760019050612195565b6002600381111561211f5761211e61412b565b5b600360008473ffffffffffffffffffffffffffffffffffffffff1673ffffffffffffffffffffffffffffffffffffffff16815260200190815260200160002060020160009054906101000a900460ff1660038111156121815761218061412b565b5b14156121905760019050612195565b600090505b919050565b600160009054906101000a900473ffffffffffffffffffffffffffffffffffffffff1673ffffffffffffffffffffffffffffffffffffffff168173ffffffffffffffffffffffffffffffffffffffff1614806122695750600160038111156122055761220461412b565b5b600360008373ffffffffffffffffffffffffffffffffffffffff1673ffffffffffffffffffffffffffffffffffffffff16815260200190815260200160002060020160009054906101000a900460ff1660038111156122675761226661412b565b5b145b806122e75750600260038111156122835761228261412b565b5b600360008373ffffffffffffffffffffffffffffffffffffffff1673ffffffffffffffffffffffffffffffffffffffff16815260200190815260200160002060020160009054906101000a900460ff1660038111156122e5576122e461412b565b5b145b612326576040517f08c379a000000000000000000000000000000000000000000000000000000000815260040161231d90614b35565b60405180910390fd5b50565b60008173ffffffffffffffffffffffffffffffffffffffff16319050919050565b6000600160009054906101000a900473ffffffffffffffffffffffffffffffffffffffff16905090565b6000600254905090565b60065481565b813073ffffffffffffffffffffffffffffffffffffffff1663837ee755826040518263ffffffff1660e01b81526004016123be9190613f7c565b60006040518083038186803b1580156123d657600080fd5b505afa1580156123ea573d6000803e3d6000fd5b50505050600160149054906101000a900460ff1661243d576040517f08c379a000000000000000000000000000000000000000000000000000000000815260040161243490614ba1565b60405180910390fd5b6000600360008573ffffffffffffffffffffffffffffffffffffffff1673ffffffffffffffffffffffffffffffffffffffff16815260200190815260200160002060020160009054906101000a900460ff1660038111156124a1576124a061412b565b5b905060038360ff1611156124ea576040517f08c379a00000000000000000000000000000000000000000000000000000000081526004016124e19061458c565b60405180910390fd5b8060ff168360ff1611612532576040517f08c379a00000000000000000000000000000000000000000000000000000000081526004016125299061461e565b60405180910390fd5b61253a613557565b8260ff1660038111156125505761254f61412b565b5b600360008673ffffffffffffffffffffffffffffffffffffffff1673ffffffffffffffffffffffffffffffffffffffff16815260200190815260200160002060020160006101000a81548160ff021916908360038111156125b4576125b361412b565b5b02179055506125cf600160025461357f90919063ffffffff16565b600281905550600360008573ffffffffffffffffffffffffffffffffffffffff1673ffffffffffffffffffffffffffffffffffffffff16815260200190815260200160002060020160009054906101000a900460ff1660038111156126375761263661412b565b5b905060603073ffffffffffffffffffffffffffffffffffffffff16634e088046866040518263ffffffff1660e01b81526004016126749190613f7c565b600060405180830381865afa158015612691573d6000803e3d6000fd5b505050506040513d6000823e3d601f19601f820116820180604052508101906126ba9190614260565b909192509091509050809150508473ffffffffffffffffffffffffffffffffffffffff167f430b758c1e0fe319aaa192e7d56d4f39ae97698a3a489e48954ea3ce634c26e18260405161270d9190613f01565b60405180910390a25050505050565b6000600960008373ffffffffffffffffffffffffffffffffffffffff1673ffffffffffffffffffffffffffffffffffffffff16815260200190815260200160002060000160009054906101000a900460ff169050919050565b600260038111156127895761278861412b565b5b600360008373ffffffffffffffffffffffffffffffffffffffff1673ffffffffffffffffffffffffffffffffffffffff16815260200190815260200160002060020160009054906101000a900460ff1660038111156127eb576127ea61412b565b5b14806128445750600160009054906101000a900473ffffffffffffffffffffffffffffffffffffffff1673ffffffffffffffffffffffffffffffffffffffff168173ffffffffffffffffffffffffffffffffffffffff16145b612883576040517f08c379a000000000000000000000000000000000000000000000000000000000815260040161287a90614c0d565b60405180910390fd5b50565b8460ff16600960003373ffffffffffffffffffffffffffffffffffffffff1673ffffffffffffffffffffffffffffffffffffffff1681526020019081526020016000206001016000600381106128df576128de614c2d565b5b602091828204019190069054906101000a900460ff1660ff16148061297357508460ff16600960003373ffffffffffffffffffffffffffffffffffffffff1673ffffffffffffffffffffffffffffffffffffffff16815260200190815260200160002060010160016003811061295857612957614c2d565b5b602091828204019190069054906101000a900460ff1660ff16145b806129ed57508460ff16600960003373ffffffffffffffffffffffffffffffffffffffff1673ffffffffffffffffffffffffffffffffffffffff1681526020019081526020016000206001016002600381106129d2576129d1614c2d565b5b602091828204019190069054906101000a900460ff1660ff16145b612a2c576040517f08c379a0000000000000000000000000000000000000000000000000000000008152600401612a2390614ca8565b60405180910390fd5b600085858585604051602001612a459493929190614785565b604051602081830303815290604052805190602001209050600a600082815260200190815260200160002060000160149054906101000a900460ff16612ac0576040517f08c379a0000000000000000000000000000000000000000000000000000000008152600401612ab790614d14565b60405180910390fd5b600a600082815260200190815260200160002060010160008360ff1660ff168152602001908152602001600020339080600181540180825580915050600190039060005260206000200160009091909190916101000a81548173ffffffffffffffffffffffffffffffffffffffff021916908373ffffffffffffffffffffffffffffffffffffffff1602179055507fb8650a93ecc0ca0f98cc666f4311ff57952df40fe0f4273cfaffff63a4a213b1338484604051612b8193929190614d34565b60405180910390a16003600a600083815260200190815260200160002060010160008460ff1660ff1681526020019081526020016000208054905010612c0a577fd7353a1bb287d6f6f3bf0001f82ab7e6e1a04cdcc9724896017a04ea42c1510985858585604051612bf69493929190614d6b565b60405180910390a1612c09858484613595565b5b505050505050565b670de0b6b3a764000081565b612c26613628565b801515600160149054906101000a900460ff1615151415612c7c576040517f08c379a0000000000000000000000000000000000000000000000000000000008152600401612c7390614e03565b60405180910390fd5b80600160146101000a81548160ff02191690831515021790555050565b600560009054906101000a900473ffffffffffffffffffffffffffffffffffffffff1681565b60003073ffffffffffffffffffffffffffffffffffffffff16633063b87a336040518263ffffffff1660e01b8152600401612cfa9190613f7c565b602060405180830381865afa158015612d17573d6000803e3d6000fd5b505050506040513d601f19601f82011682018060405250810190612d3b9190614e38565b90506001151581151514612d84576040517f08c379a0000000000000000000000000000000000000000000000000000000008152600401612d7b90614eb1565b60405180910390fd5b60008060003073ffffffffffffffffffffffffffffffffffffffff16634e088046336040518263ffffffff1660e01b8152600401612dc29190613f7c565b600060405180830381865afa158015612ddf573d6000803e3d6000fd5b505050506040513d6000823e3d601f19601f82011682018060405250810190612e089190614260565b50925092509250612e25600160065461357f90919063ffffffff16565b6006819055506000612e373342612fac565b90508060086000868152602001908152602001600020819055506040518060c001604052808581526020018373ffffffffffffffffffffffffffffffffffffffff1681526020018481526020018760ff16815260200182815260200142815250600760008381526020019081526020016000206000820151816000015560208201518160010160006101000a81548173ffffffffffffffffffffffffffffffffffffffff021916908373ffffffffffffffffffffffffffffffffffffffff1602179055506040820151816002019080519060200190612f179291906136ba565b5060608201518160030160006101000a81548160ff021916908360ff1602179055506080820151816004015560a082015181600501559050503373ffffffffffffffffffffffffffffffffffffffff167fa7018639fee0ab4d6c2b1e0a0dcba6de732cd262f3077822f86b98759ecf4ef68483428a604051612f9c9493929190614ed1565b60405180910390a2505050505050565b60008282604051602001612fc1929190614f1d565b60405160208183030381529060405280519060200120905092915050565b600560009054906101000a900473ffffffffffffffffffffffffffffffffffffffff1673ffffffffffffffffffffffffffffffffffffffff163373ffffffffffffffffffffffffffffffffffffffff161461306f576040517f08c379a000000000000000000000000000000000000000000000000000000000815260040161306690614f95565b60405180910390fd5b6000479050600081116130b7576040517f08c379a00000000000000000000000000000000000000000000000000000000081526004016130ae90615001565b60405180910390fd5b6000600560009054906101000a900473ffffffffffffffffffffffffffffffffffffffff1673ffffffffffffffffffffffffffffffffffffffff16826040516130ff90614990565b60006040518083038185875af1925050503d806000811461313c576040519150601f19603f3d011682016040523d82523d6000602084013e613141565b606091505b5050905080613185576040517f08c379a000000000000000000000000000000000000000000000000000000000815260040161317c9061506d565b60405180910390fd5b5050565b600047905090565b60008054905090565b6000806060600060606000806000600b60008a73ffffffffffffffffffffffffffffffffffffffff1673ffffffffffffffffffffffffffffffffffffffff16815260200190815260200160002060050160009054906101000a900460ff16600281111561320a5761320961412b565b5b905060008160ff161415613255576040518060400160405280600a81526020017f556e61737369676e65640000000000000000000000000000000000000000000081525093506132e5565b60018160ff16141561329e576040518060400160405280600481526020017f506169640000000000000000000000000000000000000000000000000000000081525093506132e4565b60028160ff1614156132e3576040518060400160405280600781526020017f436c61696d65640000000000000000000000000000000000000000000000000081525093505b5b5b600b60008a73ffffffffffffffffffffffffffffffffffffffff1673ffffffffffffffffffffffffffffffffffffffff168152602001908152602001600020600001549750600b60008a73ffffffffffffffffffffffffffffffffffffffff1673ffffffffffffffffffffffffffffffffffffffff16815260200190815260200160002060030180546133779061450e565b80601f01602080910402602001604051908101604052809291908181526020018280546133a39061450e565b80156133f05780601f106133c5576101008083540402835291602001916133f0565b820191906000526020600020905b8154815290600101906020018083116133d357829003601f168201915b50505050509550600b60008a73ffffffffffffffffffffffffffffffffffffffff1673ffffffffffffffffffffffffffffffffffffffff16815260200190815260200160002060010160009054906101000a900473ffffffffffffffffffffffffffffffffffffffff169650600b60008a73ffffffffffffffffffffffffffffffffffffffff1673ffffffffffffffffffffffffffffffffffffffff16815260200190815260200160002060020160009054906101000a900473ffffffffffffffffffffffffffffffffffffffff169450600b60008a73ffffffffffffffffffffffffffffffffffffffff1673ffffffffffffffffffffffffffffffffffffffff168152602001908152602001600020600401549250600b60008a73ffffffffffffffffffffffffffffffffffffffff1673ffffffffffffffffffffffffffffffffffffffff16815260200190815260200160002060060154915050919395979092949650565b60046002541061357d576000600160146101000a81548160ff0219169083151502179055505b565b6000818361358d91906150bc565b905092915050565b60006135a18484612fac565b9050816007600083815260200190815260200160002060030160006101000a81548160ff021916908360ff1602179055508373ffffffffffffffffffffffffffffffffffffffff167f64a50d59d78e3d644b7d0eda87c523ee2d21633d4f75491c4f4628b16432c049848460405161361a929190615112565b60405180910390a250505050565b600160009054906101000a900473ffffffffffffffffffffffffffffffffffffffff1673ffffffffffffffffffffffffffffffffffffffff163373ffffffffffffffffffffffffffffffffffffffff16146136b8576040517f08c379a00000000000000000000000000000000000000000000000000000000081526004016136af90615187565b60405180910390fd5b565b8280546136c69061450e565b90600052602060002090601f0160209004810192826136e8576000855561372f565b82601f1061370157805160ff191683800117855561372f565b8280016001018555821561372f579182015b8281111561372e578251825591602001919060010190613713565b5b50905061373c91906137fc565b5090565b826003601f016020900481019282156137c95791602002820160005b8382111561379a57835183826101000a81548160ff021916908360ff160217905550926020019260010160208160000104928301926001030261375c565b80156137c75782816101000a81549060ff021916905560010160208160000104928301926001030261379a565b505b5090506137d691906137fc565b5090565b6040518060600160405280600390602082028036833780820191505090505090565b5b808211156138155760008160009055506001016137fd565b5090565b6000604051905090565b600080fd5b600080fd5b600073ffffffffffffffffffffffffffffffffffffffff82169050919050565b60006138588261382d565b9050919050565b6138688161384d565b811461387357600080fd5b50565b6000813590506138858161385f565b92915050565b6000602082840312156138a1576138a0613823565b5b60006138af84828501613876565b91505092915050565b60008115159050919050565b6138cd816138b8565b82525050565b60006020820190506138e860008301846138c4565b92915050565b600080fd5b600080fd5b6000601f19601f8301169050919050565b7f4e487b7100000000000000000000000000000000000000000000000000000000600052604160045260246000fd5b613941826138f8565b810181811067ffffffffffffffff821117156139605761395f613909565b5b80604052505050565b6000613973613819565b905061397f8282613938565b919050565b600067ffffffffffffffff82111561399f5761399e613909565b5b6139a8826138f8565b9050602081019050919050565b82818337600083830152505050565b60006139d76139d284613984565b613969565b9050828152602081018484840111156139f3576139f26138f3565b5b6139fe8482856139b5565b509392505050565b600082601f830112613a1b57613a1a6138ee565b5b8135613a2b8482602086016139c4565b91505092915050565b60008060408385031215613a4b57613a4a613823565b5b600083013567ffffffffffffffff811115613a6957613a68613828565b5b613a7585828601613a06565b9250506020613a8685828601613876565b9150509250929050565b600067ffffffffffffffff821115613aab57613aaa613909565b5b602082029050919050565b600080fd5b600060ff82169050919050565b613ad181613abb565b8114613adc57600080fd5b50565b600081359050613aee81613ac8565b92915050565b6000613b07613b0284613a90565b613969565b90508060208402830185811115613b2157613b20613ab6565b5b835b81811015613b4a5780613b368882613adf565b845260208401935050602081019050613b23565b5050509392505050565b600082601f830112613b6957613b686138ee565b5b6003613b76848285613af4565b91505092915050565b600060608284031215613b9557613b94613823565b5b6000613ba384828501613b54565b91505092915050565b600060039050919050565b600081905092915050565b6000819050919050565b613bd581613abb565b82525050565b6000613be78383613bcc565b60208301905092915050565b6000602082019050919050565b613c0981613bac565b613c138184613bb7565b9250613c1e82613bc2565b8060005b83811015613c4f578151613c368782613bdb565b9650613c4183613bf3565b925050600181019050613c22565b505050505050565b6000606082019050613c6c6000830184613c00565b92915050565b6000819050919050565b613c8581613c72565b8114613c9057600080fd5b50565b600081359050613ca281613c7c565b92915050565b600060208284031215613cbe57613cbd613823565b5b6000613ccc84828501613c93565b91505092915050565b613cde81613c72565b82525050565b613ced8161384d565b82525050565b600081519050919050565b600082825260208201905092915050565b60005b83811015613d2d578082015181840152602081019050613d12565b83811115613d3c576000848401525b50505050565b6000613d4d82613cf3565b613d578185613cfe565b9350613d67818560208601613d0f565b613d70816138f8565b840191505092915050565b613d8481613abb565b82525050565b6000819050919050565b613d9d81613d8a565b82525050565b600060c082019050613db86000830189613cd5565b613dc56020830188613ce4565b8181036040830152613dd78187613d42565b9050613de66060830186613d7b565b613df36080830185613d94565b613e0060a0830184613cd5565b979650505050505050565b600060208284031215613e2157613e20613823565b5b6000613e2f84828501613adf565b91505092915050565b6000602082019050613e4d6000830184613cd5565b92915050565b6000602082019050613e686000830184613d94565b92915050565b60008060408385031215613e8557613e84613823565b5b6000613e9385828601613adf565b9250506020613ea485828601613c93565b9150509250929050565b6000608082019050613ec36000830187613cd5565b8181036020830152613ed58186613d42565b9050613ee46040830185613ce4565b8181036060830152613ef68184613d42565b905095945050505050565b60006020820190508181036000830152613f1b8184613d42565b905092915050565b613f2c816138b8565b8114613f3757600080fd5b50565b600081359050613f4981613f23565b92915050565b600060208284031215613f6557613f64613823565b5b6000613f7384828501613f3a565b91505092915050565b6000602082019050613f916000830184613ce4565b92915050565b60008060408385031215613fae57613fad613823565b5b6000613fbc85828601613876565b9250506020613fcd85828601613adf565b9150509250929050565b600080600080600060a08688031215613ff357613ff2613823565b5b600061400188828901613adf565b955050602061401288828901613876565b945050604086013567ffffffffffffffff81111561403357614032613828565b5b61403f88828901613a06565b935050606061405088828901613c93565b925050608061406188828901613adf565b9150509295509295909350565b6000806040838503121561408557614084613823565b5b600061409385828601613876565b92505060206140a485828601613c93565b9150509250929050565b600060e0820190506140c3600083018a613cd5565b6140d06020830189613ce4565b81810360408301526140e28188613d42565b90506140f16060830187613ce4565b81810360808301526141038186613d42565b905061411260a0830185613cd5565b61411f60c0830184613cd5565b98975050505050505050565b7f4e487b7100000000000000000000000000000000000000000000000000000000600052602160045260246000fd5b7f6169726c696e65206e6f7420696e20756e61737369676e656420737461746500600082015250565b6000614190601f83613cfe565b915061419b8261415a565b602082019050919050565b600060208201905081810360008301526141bf81614183565b9050919050565b6000815190506141d581613c7c565b92915050565b60006141ee6141e984613984565b613969565b90508281526020810184848401111561420a576142096138f3565b5b614215848285613d0f565b509392505050565b600082601f830112614232576142316138ee565b5b81516142428482602086016141db565b91505092915050565b60008151905061425a8161385f565b92915050565b6000806000806080858703121561427a57614279613823565b5b6000614288878288016141c6565b945050602085015167ffffffffffffffff8111156142a9576142a8613828565b5b6142b58782880161421d565b93505060406142c68782880161424b565b925050606085015167ffffffffffffffff8111156142e7576142e6613828565b5b6142f38782880161421d565b91505092959194509250565b60006040820190506143146000830185613cd5565b81810360208301526143268184613d42565b90509392505050565b7f4f522e2072656769737465726564000000000000000000000000000000000000600082015250565b6000614365600e83613cfe565b91506143708261432f565b602082019050919050565b6000602082019050818103600083015261439481614358565b9050919050565b7f494e442e20526571000000000000000000000000000000000000000000000000600082015250565b60006143d1600883613cfe565b91506143dc8261439b565b602082019050919050565b60006020820190508181036000830152614400816143c4565b9050919050565b7f63616c6c6572206e6f742072656769737465726564206f7261636c6500000000600082015250565b600061443d601c83613cfe565b915061444882614407565b602082019050919050565b6000602082019050818103600083015261446c81614430565b9050919050565b7f696e76616c696420666c69676874206964000000000000000000000000000000600082015250565b60006144a9601183613cfe565b91506144b482614473565b602082019050919050565b600060208201905081810360008301526144d88161449c565b9050919050565b7f4e487b7100000000000000000000000000000000000000000000000000000000600052602260045260246000fd5b6000600282049050600182168061452657607f821691505b6020821081141561453a576145396144df565b5b50919050565b7f6e6f742077697468696e20656e756d2072616e67650000000000000000000000600082015250565b6000614576601583613cfe565b915061458182614540565b602082019050919050565b600060208201905081810360008301526145a581614569565b9050919050565b7f7374617475732063616e6e6f74206265206c6f776572207468616e206375727260008201527f656e742073746174650000000000000000000000000000000000000000000000602082015250565b6000614608602983613cfe565b9150614613826145ac565b604082019050919050565b60006020820190508181036000830152614637816145fb565b9050919050565b7f4e4520666c696768740000000000000000000000000000000000000000000000600082015250565b6000614674600983613cfe565b915061467f8261463e565b602082019050919050565b600060208201905081810360008301526146a381614667565b9050919050565b60008160f81b9050919050565b60006146c2826146aa565b9050919050565b6146da6146d582613abb565b6146b7565b82525050565b60008160601b9050919050565b60006146f8826146e0565b9050919050565b600061470a826146ed565b9050919050565b61472261471d8261384d565b6146ff565b82525050565b600081905092915050565b600061473e82613cf3565b6147488185614728565b9350614758818560208601613d0f565b80840191505092915050565b6000819050919050565b61477f61477a82613c72565b614764565b82525050565b600061479182876146c9565b6001820191506147a18286614711565b6014820191506147b18285614733565b91506147bd828461476e565b60208201915081905095945050505050565b60006080820190506147e46000830187613d7b565b6147f16020830186613ce4565b81810360408301526148038185613d42565b90506148126060830184613cd5565b95945050505050565b7f3145544820696e737572616e6365206d75737420626520706169640000000000600082015250565b6000614851601b83613cfe565b915061485c8261481b565b602082019050919050565b6000602082019050818103600083015261488081614844565b9050919050565b7f666c6967687420646f6573206e6f742065786973740000000000000000000000600082015250565b60006148bd601583613cfe565b91506148c882614887565b602082019050919050565b600060208201905081810360008301526148ec816148b0565b9050919050565b7f696e737572616e63652065786974730000000000000000000000000000000000600082015250565b6000614929600f83613cfe565b9150614934826148f3565b602082019050919050565b600060208201905081810360008301526149588161491c565b9050919050565b600081905092915050565b50565b600061497a60008361495f565b91506149858261496a565b600082019050919050565b600061499b8261496d565b9150819050919050565b7f6661696c656420746f2073656e64204554480000000000000000000000000000600082015250565b60006149db601283613cfe565b91506149e6826149a5565b602082019050919050565b60006020820190508181036000830152614a0a816149ce565b9050919050565b7f63616c6c6572206e6f7420726567697374657265640000000000000000000000600082015250565b6000614a47601583613cfe565b9150614a5282614a11565b602082019050919050565b60006020820190508181036000830152614a7681614a3a565b9050919050565b7f616c726561647920696e206f7065726174696f6e616c206d6f64650000000000600082015250565b6000614ab3601b83613cfe565b9150614abe82614a7d565b602082019050919050565b60006020820190508181036000830152614ae281614aa6565b9050919050565b7f6169726c696e65206e6f7420617574686f72697a656400000000000000000000600082015250565b6000614b1f601683613cfe565b9150614b2a82614ae9565b602082019050919050565b60006020820190508181036000830152614b4e81614b12565b9050919050565b7f636f6e7472616374206e6f74206f7065726174696f6e616c0000000000000000600082015250565b6000614b8b601883613cfe565b9150614b9682614b55565b602082019050919050565b60006020820190508181036000830152614bba81614b7e565b9050919050565b7f6e6f7420617574686f72697a656420746f207265676973746572000000000000600082015250565b6000614bf7601a83613cfe565b9150614c0282614bc1565b602082019050919050565b60006020820190508181036000830152614c2681614bea565b9050919050565b7f4e487b7100000000000000000000000000000000000000000000000000000000600052603260045260246000fd5b7f494458206d69736d617463680000000000000000000000000000000000000000600082015250565b6000614c92600c83613cfe565b9150614c9d82614c5c565b602082019050919050565b60006020820190508181036000830152614cc181614c85565b9050919050565b7f466c692e206f722074696d6573742e206d69736d617463680000000000000000600082015250565b6000614cfe601883613cfe565b9150614d0982614cc8565b602082019050919050565b60006020820190508181036000830152614d2d81614cf1565b9050919050565b6000606082019050614d496000830186613ce4565b614d566020830185613cd5565b614d636040830184613d7b565b949350505050565b6000608082019050614d806000830187613ce4565b8181036020830152614d928186613d42565b9050614da16040830185613cd5565b614dae6060830184613d7b565b95945050505050565b7f6d757374206e6f742062652063757272656e7420737461747573000000000000600082015250565b6000614ded601a83613cfe565b9150614df882614db7565b602082019050919050565b60006020820190508181036000830152614e1c81614de0565b9050919050565b600081519050614e3281613f23565b92915050565b600060208284031215614e4e57614e4d613823565b5b6000614e5c84828501614e23565b91505092915050565b7f6169726c696e65206e6f7420636f6d6d69746564000000000000000000000000600082015250565b6000614e9b601483613cfe565b9150614ea682614e65565b602082019050919050565b60006020820190508181036000830152614eca81614e8e565b9050919050565b60006080820190508181036000830152614eeb8187613d42565b9050614efa6020830186613d94565b614f076040830185613cd5565b614f146060830184613d7b565b95945050505050565b6000614f298285614711565b601482019150614f39828461476e565b6020820191508190509392505050565b7f6e6f74206f776e72000000000000000000000000000000000000000000000000600082015250565b6000614f7f600883613cfe565b9150614f8a82614f49565b602082019050919050565b60006020820190508181036000830152614fae81614f72565b9050919050565b7f6e6f2061762e2045544800000000000000000000000000000000000000000000600082015250565b6000614feb600a83613cfe565b9150614ff682614fb5565b602082019050919050565b6000602082019050818103600083015261501a81614fde565b9050919050565b7f6661696c656420746f2073656e64206574686572000000000000000000000000600082015250565b6000615057601483613cfe565b915061506282615021565b602082019050919050565b600060208201905081810360008301526150868161504a565b9050919050565b7f4e487b7100000000000000000000000000000000000000000000000000000000600052601160045260246000fd5b60006150c782613c72565b91506150d283613c72565b9250827fffffffffffffffffffffffffffffffffffffffffffffffffffffffffffffffff038211156151075761510661508d565b5b828201905092915050565b60006040820190506151276000830185613cd5565b6151346020830184613d7b565b9392505050565b7f63616c6c6572206e6f74206f776e657200000000000000000000000000000000600082015250565b6000615171601083613cfe565b915061517c8261513b565b602082019050919050565b600060208201905081810360008301526151a081615164565b905091905056fea264697066735822122038e7d9a9c1cec160e15f0d0467fff8f554613bb3c412de3ba863a02f56b4f03a64736f6c634300080a0033",
  "immutableReferences": {},
  "source": "// SPDX-License-Identifier: MIT\npragma solidity ^0.8.0;\n\nimport '@openzeppelin/contracts/utils/math/SafeMath.sol';\nimport './AirlineData.sol';\n\ncontract FlightSuretyData is AirlineData {\n  using SafeMath for uint256;\n\n  /********************************************************************************************/\n  /*                                      FLIGHT STATE VARIABLES                          */\n  /******************************************************************************************/\n\n  address public contractOwner;\n\n  // Flight status codes\n  uint8 private constant STATUS_CODE_UNKNOWN = 0;\n  uint8 private constant STATUS_CODE_ON_TIME = 10;\n  uint8 private constant STATUS_CODE_LATE_AIRLINE = 20;\n  uint8 private constant STATUS_CODE_LATE_WEATHER = 30;\n  uint8 private constant STATUS_CODE_LATE_TECHNICAL = 40;\n  uint8 private constant STATUS_CODE_LATE_OTHER = 50;\n\n  uint256 public flightCounter = 0;\n  struct Flight {\n    uint256 id;\n    address airline;\n    string flightName;\n    uint8 statusCode;\n    bytes32 flightKey;\n    uint256 timestamp;\n\n  }\n\n  mapping(bytes32 => Flight) private flights;\n\n  mapping(uint256 => bytes32) public flightKeys;\n\n  /********************************************************************************************/\n  /*                                      FLIGHT EVENTS                                      */\n  /******************************************************************************************/\n\n  event LogFlightRegistered(string name, bytes32 flightKey, address indexed airline, uint256 timestamp, uint8 statusCode);\n  event LogFlightStatusProcessed(address indexed airline, uint256 timestamp, uint8 statusCode);\n\n   // Event fired when flight status request is requested\n  event LogOracleRequest(uint8 index, address airline, string flight, uint256 timestamp);\n\n\n   constructor() {\n    contractOwner = msg.sender;\n\n  }\n\n  /********************************************************************************************/\n  /*                                      FLIGHT CORE FUNCTIONS                 */\n  /******************************************************************************************/\n  \n  // Register flight\n  function registerFlight(uint8 _statusCode) public {\n    (bool checkStatus ) = this.isAirlineCommitted(msg.sender);\n    require(checkStatus == true, 'airline not commited');\n\n    (uint256 id, string memory name, address airlineAccount,) = this.getAirlineDetails(msg.sender);  \n\n    flightCounter = flightCounter.add(1);\n    \n\n    bytes32 flightKey = generateFlightKey(msg.sender, block.timestamp);\n\n    flightKeys[id] = flightKey;\n  \n\n    flights[flightKey] = Flight({\n      id: id,\n      airline: airlineAccount,\n      flightName: name,\n      statusCode: _statusCode,\n      flightKey: flightKey,\n      timestamp: block.timestamp\n    });\n\n    emit LogFlightRegistered(name, flightKey, msg.sender, block.timestamp, _statusCode);\n  }\n\n  function processFlightStatus(address _airline, uint256 _timestamp, uint8 _statusCode)  private {\n    bytes32 key = generateFlightKey(_airline, _timestamp);\n    flights[key].statusCode = _statusCode;\n\n    emit LogFlightStatusProcessed(_airline, _timestamp, _statusCode);\n  }\n\n  // Generate a request for oracles  to fetch flight information\n  function fetchFlightStatus(uint8 _index, uint256 _flightId) external {\n    (, address airline, string memory flightName,, bytes32 flightKey, uint256 timestamp) = getFlightDetails(_flightId);\n\n    require(flightKeys[_flightId] == flightKey, 'NE flight');\n\n\n\n    // uint8 index = getRandomIndex(msg.sender);\n\n    // Generate a unique key for storing  the request\n    bytes32 key = keccak256(abi.encodePacked(_index, airline, flightName, timestamp));\n    oracleResponses[key].requester = tx.origin;\n    oracleResponses[key].isOpen = true;\n\n\n    emit LogOracleRequest(_index, airline, flightName, timestamp);\n  }\n\n  // Get flight details\n  function getFlightDetails(uint256 _flightId) public view returns\n    (\n      uint256 id, \n      address airline, \n      string memory flightName,\n      uint8 statusCode, \n      bytes32 flightKey, \n      uint256 timestamp\n\n    )\n  {\n    require(_flightId != 0 || _flightId <= flightCounter, 'invalid flight id');\n    bytes32 key = flightKeys[_flightId];\n    id = flights[key].id;\n    airline = flights[key].airline;\n    flightName = flights[key].flightName;\n    statusCode = flights[key].statusCode;\n    flightKey = flights[key].flightKey;\n    timestamp = flights[key].timestamp;\n    \n  }\n  \n  /********************************************************************************************/\n  /*                                      FLIGHT UTILITY FUNCTIONS                 */\n  /******************************************************************************************/\n\n  function generateFlightKey(address _airline, uint256 _timestamp) public pure returns(bytes32) {\n    return keccak256(abi.encodePacked(_airline, _timestamp));\n  }\n\n  /*__________________________________ORACLE______________________________*/\n\n  \n  /********************************************************************************************/\n  /*                               ORACLE STATE VARIABLES                                    */\n  /******************************************************************************************/\n  // Number of oracles that must respond for valid status\n  uint256 private constant  MIN_RESPONSES = 3;\n\n  struct Oracle {\n    bool isRegistered;\n    uint8[3] indexes;\n  }\n\n  // Track all registered oracles\n  mapping(address => Oracle) private oracles; \n\n  // Model for responses from oracles\n  struct ResponseInfo {\n    address requester;  // account that triggered the requested status\n    bool isOpen;        // if open, oracle responses are accepted\n    mapping(uint8 => address[]) responses; // key is the status code reported\n  }\n\n  // Track all oracle responses \n  mapping(bytes32 => ResponseInfo) oracleResponses;\n\n\n  /********************************************************************************************/\n  /*                                    ORACLE  EVENTS                                             */\n  /******************************************************************************************/\n  event LogOracleRegistered(address indexed oracle, uint8[3] indexes);\n\n  // Event fired each time an oracle submits a response\n  event LogFlightStatusInfo(address airline, string flightName, uint256 timestamp, uint8 statusCode);\n\n  event LogOracleReport(address airline, uint256 timestamp, uint8 status);\n\n  /********************************************************************************************/\n  /*                                      ORACLE CORE FUNCTIONS                              */\n  /******************************************************************************************/\n  function registerOracle(uint8[3] memory _indexes) external payable {\n    require(!oracles[tx.origin].isRegistered, 'OR. registered');\n    require(_indexes.length == 3, 'IND. Req');\n    oracles[tx.origin] = Oracle({\n      isRegistered: true,\n      indexes: _indexes\n    });\n\n    emit LogOracleRegistered(tx.origin, _indexes);\n  }\n  \n\n  /**\n    * @dev Called by oracle in response to an outstanding request\n    * response is only valid if there's a pending open request status  and  that its responxe index matches that which was assigned during oracle registration\n   */\n\n       // Generate a unique key for storing  the request\n    // bytes32 key = keccak256(abi.encodePacked(_index, airline, timestamp));\n    // oracleResponses[key].requester = tx.origin;\n    // oracleResponses[key].isOpen = true;\n\n  function submitOracleResponse\n    (\n      uint8 _index, \n      address _airline, \n      string memory _flightName,\n      uint256 _timestamp, \n      uint8 _statusCode\n    ) external \n  {\n    require((oracles[msg.sender].indexes[0] == _index) || (oracles[msg.sender].indexes[1] == _index) || (oracles[msg.sender].indexes[2] == _index), 'IDX mismatch');\n    bytes32 key = keccak256(abi.encodePacked(_index, _airline, _flightName, _timestamp));\n    require(oracleResponses[key].isOpen, 'Fli. or timest. mismatch');\n    oracleResponses[key].responses[_statusCode].push(msg.sender);\n\n    // oracle response is not valid until MIN_RESPONSES threshold is reached\n    emit LogOracleReport(msg.sender, _timestamp, _statusCode);\n    if(oracleResponses[key].responses[_statusCode].length >= MIN_RESPONSES) {\n      emit LogFlightStatusInfo(_airline, _flightName, _timestamp, _statusCode);\n      processFlightStatus(_airline,_timestamp, _statusCode);\n    }\n  }\n\n  /********************************************************************************************/\n  /*                                      ORACLE UTILITY FUNCTIONS                           */\n  /******************************************************************************************/\n  function getOracleIndexes() external view returns(uint8[3] memory) {\n    require(oracles[msg.sender].isRegistered, 'caller not registered oracle');\n    return oracles[msg.sender].indexes;\n\n  }\n\n  function isOracleRegistered(address _account) public view returns(bool) {\n    return oracles[_account].isRegistered;\n  }\n\n \n \n  /*__________________________________PASSENGER_______________________________*/\n\n\n  /********************************************************************************************/\n  /*                                      PASSENGER STATE VARIABLE FUNCTIONS                            */\n  /********************************************************************************************/\n\n  enum PassengerInsuranceState {\n    Unassigned,\n    Paid,\n    Claimed\n  }\n\n  struct Insurance {\n    uint256 id;\n    address flightAddress;\n    address passenger;\n    string flightName;\n    uint256 amount;\n    PassengerInsuranceState state;\n    uint256 refundAmount;\n  }\n\n  mapping(address =>  Insurance) passengersInsurance;\n\n  \n  uint256 public constant PASSENGER_INSURANCE_FEE = 1 ether;\n\n\n  /********************************************************************************************/\n  /*                                       EVENT                            */\n  /********************************************************************************************/\n  event LogPassengerInsurance(address indexed account, uint256 amount);\n\n\n  /*******************************************************************************************/\n  /*                                       PASSENGER FUNCTIONS                         */\n  /*****************************************************************************************/\n\n  function payInsurance(uint256 _flightId)  external payable {\n    require(msg.value == PASSENGER_INSURANCE_FEE, '1ETH insurance must be paid');\n    require(_flightId != 0 || _flightId <= flightCounter, 'invalid flight id');\n\n    bytes32 key = flightKeys[_flightId];\n    require(_flightId == flights[key].id, \"flight does not exist\");\n\n    \n    require(passengersInsurance[tx.origin].state == PassengerInsuranceState.Unassigned, 'insurance exits');\n    (uint256 id, string memory name, address airlineAccount,) = this.getAirlineDetails(flights[key].airline);\n\n    (bool send, ) = address(this).call{value: msg.value}('');\n    require(send, 'failed to send ETH');\n\n    passengersInsurance[msg.sender] = Insurance({\n      id: id,\n      flightAddress: airlineAccount,\n      passenger: msg.sender,\n      flightName: name, \n      amount: msg.value,\n      state: PassengerInsuranceState.Paid,\n      refundAmount: 0\n    });\n\n    emit LogPassengerInsurance(msg.sender, passengersInsurance[msg.sender].amount);\n  }\n\n  /***********************************,********************************************************/\n  /*                                       PASSENGER UTILITY FUNCTIONS                         */\n  /*****************************************************************************************/\n  function getPassengerDetails(address _account) external view returns\n    (\n      uint256 id, \n      address flightAddress,\n      string memory flightName, \n      address passenger, \n      string memory state, \n      uint256 amount, \n      uint256 refundAmount\n    ) \n  \n  {\n    uint8 passengerState = uint8(passengersInsurance[_account].state);\n    if(passengerState == 0) {\n      state = 'Unassigned';\n    } else if(passengerState == 1) {\n      state = 'Paid';\n    } else if(passengerState == 2) {\n      state = 'Claimed';\n    } \n    \n    id = passengersInsurance[_account].id;\n    flightName = passengersInsurance[_account].flightName;\n    flightAddress = passengersInsurance[_account].flightAddress;\n    passenger = passengersInsurance[_account].passenger;\n    amount = passengersInsurance[_account].amount;\n    refundAmount = passengersInsurance[_account].refundAmount;\n    \n    return (id, flightAddress, flightName, passenger, state, amount, refundAmount);\n    \n  }\n\n  function getPassengerBalance(address _account) external view returns(uint256) {\n    return passengersInsurance[_account].amount;\n  }\n\n  /********************************************************************************************/\n  /*                                      CONTRACT RECEIVE ETHER                                */\n  /********************************************************************************************/\n\n  function emergencyWithdraw() external payable {\n    require(msg.sender == contractOwner, 'not ownr');\n    uint256 contractBalance = address(this).balance;\n    require(contractBalance > 0, 'no av. ETH');\n    \n    (bool sent,) = payable(contractOwner).call{value: contractBalance}('');\n    require(sent, 'failed to send ether');\n  }\n\n\n\n  /********************************************************************************************/\n  /*                                      CONTRACT RECEIVE ETHER                                */\n  /********************************************************************************************/\n  receive() payable external {\n\n  }\n\n}\n",
  "sourcePath": "/home/sprtd/Desktop/Udacity/lesson-5-flight-surety/flight-surety-project/contracts/FlightSuretyData.sol",
  "compiler": {
    "name": "solc",
    "version": "0.8.10+commit.fc410830.Emscripten.clang"
  },
  "schemaVersion": "3.4.3",
  "updatedAt": "2021-11-11T09:55:48.815Z",
  "networkType": "ethereum",
  "devdoc": {
    "kind": "dev",
    "methods": {
      "submitOracleResponse(uint8,address,string,uint256,uint8)": {
        "details": "Called by oracle in response to an outstanding request response is only valid if there's a pending open request status  and  that its responxe index matches that which was assigned during oracle registration"
      }
    },
    "version": 1
  },
  "userdoc": {
    "kind": "user",
    "methods": {},
    "version": 1
  }
}