{
  "contractName": "FlightSuretyData",
  "abi": [
    {
      "anonymous": false,
      "inputs": [
        {
          "indexed": true,
          "internalType": "address",
          "name": "account",
          "type": "address"
        },
        {
          "indexed": false,
          "internalType": "uint256",
          "name": "timestamp",
          "type": "uint256"
        },
        {
          "indexed": false,
          "internalType": "string",
          "name": "airlineStatus",
          "type": "string"
        }
      ],
      "name": "LogCreatedAirline",
      "type": "event"
    },
    {
      "anonymous": false,
      "inputs": [
        {
          "indexed": false,
          "internalType": "bytes32",
          "name": "flightKey",
          "type": "bytes32"
        },
        {
          "indexed": true,
          "internalType": "address",
          "name": "airline",
          "type": "address"
        },
        {
          "indexed": false,
          "internalType": "uint256",
          "name": "timestamp",
          "type": "uint256"
        },
        {
          "indexed": false,
          "internalType": "uint8",
          "name": "statusCode",
          "type": "uint8"
        }
      ],
      "name": "LogFlightRegistered",
      "type": "event"
    },
    {
      "anonymous": false,
      "inputs": [
        {
          "indexed": false,
          "internalType": "address",
          "name": "airline",
          "type": "address"
        },
        {
          "indexed": false,
          "internalType": "string",
          "name": "flight",
          "type": "string"
        },
        {
          "indexed": false,
          "internalType": "uint256",
          "name": "timestamp",
          "type": "uint256"
        },
        {
          "indexed": false,
          "internalType": "uint8",
          "name": "statusCode",
          "type": "uint8"
        }
      ],
      "name": "LogFlightStatusInfo",
      "type": "event"
    },
    {
      "anonymous": false,
      "inputs": [
        {
          "indexed": true,
          "internalType": "address",
          "name": "airline",
          "type": "address"
        },
        {
          "indexed": false,
          "internalType": "uint256",
          "name": "timestamp",
          "type": "uint256"
        }
      ],
      "name": "LogFlightStatusProcessed",
      "type": "event"
    },
    {
      "anonymous": false,
      "inputs": [
        {
          "indexed": true,
          "internalType": "address",
          "name": "oracle",
          "type": "address"
        },
        {
          "indexed": false,
          "internalType": "uint8[3]",
          "name": "indexes",
          "type": "uint8[3]"
        }
      ],
      "name": "LogOracleRegistered",
      "type": "event"
    },
    {
      "anonymous": false,
      "inputs": [
        {
          "indexed": false,
          "internalType": "address",
          "name": "airline",
          "type": "address"
        },
        {
          "indexed": false,
          "internalType": "string",
          "name": "airlineName",
          "type": "string"
        },
        {
          "indexed": false,
          "internalType": "uint256",
          "name": "timestamp",
          "type": "uint256"
        },
        {
          "indexed": false,
          "internalType": "uint8",
          "name": "status",
          "type": "uint8"
        }
      ],
      "name": "LogOracleReport",
      "type": "event"
    },
    {
      "anonymous": false,
      "inputs": [
        {
          "indexed": false,
          "internalType": "uint8",
          "name": "index",
          "type": "uint8"
        },
        {
          "indexed": false,
          "internalType": "address",
          "name": "airline",
          "type": "address"
        },
        {
          "indexed": false,
          "internalType": "string",
          "name": "flight",
          "type": "string"
        },
        {
          "indexed": false,
          "internalType": "uint256",
          "name": "timestamp",
          "type": "uint256"
        }
      ],
      "name": "LogOracleRequest",
      "type": "event"
    },
    {
      "anonymous": false,
      "inputs": [
        {
          "indexed": true,
          "internalType": "address",
          "name": "account",
          "type": "address"
        },
        {
          "indexed": false,
          "internalType": "uint256",
          "name": "amount",
          "type": "uint256"
        }
      ],
      "name": "LogPassengerInsurance",
      "type": "event"
    },
    {
      "anonymous": false,
      "inputs": [
        {
          "indexed": true,
          "internalType": "address",
          "name": "account",
          "type": "address"
        },
        {
          "indexed": false,
          "internalType": "string",
          "name": "airlineStatus",
          "type": "string"
        }
      ],
      "name": "LogStatusUpdated",
      "type": "event"
    },
    {
      "inputs": [],
      "name": "PASSENGER_INSURANCE_FEE",
      "outputs": [
        {
          "internalType": "uint256",
          "name": "",
          "type": "uint256"
        }
      ],
      "stateMutability": "view",
      "type": "function",
      "constant": true
    },
    {
      "inputs": [
        {
          "internalType": "string",
          "name": "_name",
          "type": "string"
        },
        {
          "internalType": "address",
          "name": "_account",
          "type": "address"
        }
      ],
      "name": "createNewAirline",
      "outputs": [],
      "stateMutability": "nonpayable",
      "type": "function"
    },
    {
      "inputs": [],
      "name": "disableOperational",
      "outputs": [],
      "stateMutability": "nonpayable",
      "type": "function"
    },
    {
      "inputs": [
        {
          "internalType": "bool",
          "name": "_status",
          "type": "bool"
        }
      ],
      "name": "enableOperationalStatus",
      "outputs": [],
      "stateMutability": "nonpayable",
      "type": "function"
    },
    {
      "inputs": [],
      "name": "flightCounter",
      "outputs": [
        {
          "internalType": "uint256",
          "name": "",
          "type": "uint256"
        }
      ],
      "stateMutability": "view",
      "type": "function",
      "constant": true
    },
    {
      "inputs": [
        {
          "internalType": "uint256",
          "name": "",
          "type": "uint256"
        }
      ],
      "name": "flightKeys",
      "outputs": [
        {
          "internalType": "bytes32",
          "name": "",
          "type": "bytes32"
        }
      ],
      "stateMutability": "view",
      "type": "function",
      "constant": true
    },
    {
      "inputs": [
        {
          "internalType": "address",
          "name": "_account",
          "type": "address"
        }
      ],
      "name": "getAirlineApplicationStatus",
      "outputs": [
        {
          "internalType": "string",
          "name": "status",
          "type": "string"
        }
      ],
      "stateMutability": "view",
      "type": "function",
      "constant": true
    },
    {
      "inputs": [
        {
          "internalType": "address",
          "name": "_account",
          "type": "address"
        }
      ],
      "name": "getAirlineAuthorizationStatus",
      "outputs": [
        {
          "internalType": "bool",
          "name": "status",
          "type": "bool"
        }
      ],
      "stateMutability": "view",
      "type": "function",
      "constant": true
    },
    {
      "inputs": [
        {
          "internalType": "address",
          "name": "_account",
          "type": "address"
        }
      ],
      "name": "getAirlineBalance",
      "outputs": [
        {
          "internalType": "uint256",
          "name": "",
          "type": "uint256"
        }
      ],
      "stateMutability": "view",
      "type": "function",
      "constant": true
    },
    {
      "inputs": [
        {
          "internalType": "address",
          "name": "_account",
          "type": "address"
        }
      ],
      "name": "getAirlineDetails",
      "outputs": [
        {
          "internalType": "uint256",
          "name": "id",
          "type": "uint256"
        },
        {
          "internalType": "string",
          "name": "name",
          "type": "string"
        },
        {
          "internalType": "address",
          "name": "airlineAccount",
          "type": "address"
        },
        {
          "internalType": "string",
          "name": "state",
          "type": "string"
        }
      ],
      "stateMutability": "view",
      "type": "function",
      "constant": true
    },
    {
      "inputs": [],
      "name": "getDataBalance",
      "outputs": [
        {
          "internalType": "uint256",
          "name": "",
          "type": "uint256"
        }
      ],
      "stateMutability": "view",
      "type": "function",
      "constant": true
    },
    {
      "inputs": [],
      "name": "getOperationalStatus",
      "outputs": [
        {
          "internalType": "bool",
          "name": "",
          "type": "bool"
        }
      ],
      "stateMutability": "view",
      "type": "function",
      "constant": true
    },
    {
      "inputs": [],
      "name": "getOwner",
      "outputs": [
        {
          "internalType": "address",
          "name": "",
          "type": "address"
        }
      ],
      "stateMutability": "view",
      "type": "function",
      "constant": true
    },
    {
      "inputs": [],
      "name": "getTotalAppliedAirlines",
      "outputs": [
        {
          "internalType": "uint256",
          "name": "",
          "type": "uint256"
        }
      ],
      "stateMutability": "view",
      "type": "function",
      "constant": true
    },
    {
      "inputs": [],
      "name": "getTotalRegisteredAirlines",
      "outputs": [
        {
          "internalType": "uint256",
          "name": "",
          "type": "uint256"
        }
      ],
      "stateMutability": "view",
      "type": "function",
      "constant": true
    },
    {
      "inputs": [
        {
          "internalType": "address",
          "name": "_account",
          "type": "address"
        }
      ],
      "name": "isAirlineCommitted",
      "outputs": [
        {
          "internalType": "bool",
          "name": "checkStatus",
          "type": "bool"
        }
      ],
      "stateMutability": "view",
      "type": "function",
      "constant": true
    },
    {
      "inputs": [
        {
          "internalType": "address",
          "name": "_account",
          "type": "address"
        }
      ],
      "name": "isAirlineRegistered",
      "outputs": [
        {
          "internalType": "bool",
          "name": "checkStatus",
          "type": "bool"
        }
      ],
      "stateMutability": "view",
      "type": "function",
      "constant": true
    },
    {
      "inputs": [
        {
          "internalType": "address",
          "name": "_account",
          "type": "address"
        }
      ],
      "name": "onlyAuthorizeRegistrants",
      "outputs": [],
      "stateMutability": "view",
      "type": "function",
      "constant": true
    },
    {
      "inputs": [
        {
          "internalType": "address",
          "name": "_account",
          "type": "address"
        }
      ],
      "name": "onlyAuthorizedAirlines",
      "outputs": [],
      "stateMutability": "view",
      "type": "function",
      "constant": true
    },
    {
      "inputs": [
        {
          "internalType": "address",
          "name": "_account",
          "type": "address"
        }
      ],
      "name": "onlyRegisteredAirlines",
      "outputs": [],
      "stateMutability": "view",
      "type": "function",
      "constant": true
    },
    {
      "inputs": [
        {
          "internalType": "bool",
          "name": "_status",
          "type": "bool"
        }
      ],
      "name": "setOperatinalStatus",
      "outputs": [],
      "stateMutability": "nonpayable",
      "type": "function"
    },
    {
      "inputs": [
        {
          "internalType": "address",
          "name": "_account",
          "type": "address"
        },
        {
          "internalType": "uint8",
          "name": "_state",
          "type": "uint8"
        }
      ],
      "name": "updateAirlineStatus",
      "outputs": [],
      "stateMutability": "nonpayable",
      "type": "function"
    },
    {
      "inputs": [
        {
          "internalType": "uint8",
          "name": "_state",
          "type": "uint8"
        }
      ],
      "name": "updateToCommitState",
      "outputs": [],
      "stateMutability": "payable",
      "type": "function",
      "payable": true
    },
    {
      "stateMutability": "payable",
      "type": "receive",
      "payable": true
    },
    {
      "inputs": [
        {
          "internalType": "uint8",
          "name": "_statusCode",
          "type": "uint8"
        }
      ],
      "name": "registerFlight",
      "outputs": [],
      "stateMutability": "nonpayable",
      "type": "function"
    },
    {
      "inputs": [
        {
          "internalType": "uint8",
          "name": "_index",
          "type": "uint8"
        },
        {
          "internalType": "uint256",
          "name": "_flightId",
          "type": "uint256"
        }
      ],
      "name": "fetchFlightStatus",
      "outputs": [],
      "stateMutability": "nonpayable",
      "type": "function"
    },
    {
      "inputs": [
        {
          "internalType": "uint256",
          "name": "_flightId",
          "type": "uint256"
        }
      ],
      "name": "getFlightDetails",
      "outputs": [
        {
          "internalType": "uint256",
          "name": "id",
          "type": "uint256"
        },
        {
          "internalType": "address",
          "name": "airline",
          "type": "address"
        },
        {
          "internalType": "string",
          "name": "flightName",
          "type": "string"
        },
        {
          "internalType": "uint8",
          "name": "statusCode",
          "type": "uint8"
        },
        {
          "internalType": "bytes32",
          "name": "flightKey",
          "type": "bytes32"
        },
        {
          "internalType": "uint256",
          "name": "timestamp",
          "type": "uint256"
        }
      ],
      "stateMutability": "view",
      "type": "function",
      "constant": true
    },
    {
      "inputs": [
        {
          "internalType": "address",
          "name": "_airline",
          "type": "address"
        },
        {
          "internalType": "uint256",
          "name": "_timestamp",
          "type": "uint256"
        }
      ],
      "name": "generateFlightKey",
      "outputs": [
        {
          "internalType": "bytes32",
          "name": "",
          "type": "bytes32"
        }
      ],
      "stateMutability": "pure",
      "type": "function",
      "constant": true
    },
    {
      "inputs": [
        {
          "internalType": "uint8[3]",
          "name": "_indexes",
          "type": "uint8[3]"
        }
      ],
      "name": "registerOracle",
      "outputs": [],
      "stateMutability": "payable",
      "type": "function",
      "payable": true
    },
    {
      "inputs": [
        {
          "internalType": "uint8",
          "name": "_index",
          "type": "uint8"
        },
        {
          "internalType": "address",
          "name": "_airline",
          "type": "address"
        },
        {
          "internalType": "string",
          "name": "_airlineName",
          "type": "string"
        },
        {
          "internalType": "uint256",
          "name": "_timestamp",
          "type": "uint256"
        },
        {
          "internalType": "uint8",
          "name": "_statusCode",
          "type": "uint8"
        }
      ],
      "name": "submitOracleResponse",
      "outputs": [],
      "stateMutability": "nonpayable",
      "type": "function"
    },
    {
      "inputs": [],
      "name": "getOracleIndexes",
      "outputs": [
        {
          "internalType": "uint8[3]",
          "name": "",
          "type": "uint8[3]"
        }
      ],
      "stateMutability": "view",
      "type": "function",
      "constant": true
    },
    {
      "inputs": [
        {
          "internalType": "address",
          "name": "_account",
          "type": "address"
        }
      ],
      "name": "isOracleRegistered",
      "outputs": [
        {
          "internalType": "bool",
          "name": "",
          "type": "bool"
        }
      ],
      "stateMutability": "view",
      "type": "function",
      "constant": true
    },
    {
      "inputs": [
        {
          "internalType": "uint256",
          "name": "_flightId",
          "type": "uint256"
        }
      ],
      "name": "payInsurance",
      "outputs": [],
      "stateMutability": "payable",
      "type": "function",
      "payable": true
    },
    {
      "inputs": [
        {
          "internalType": "address",
          "name": "_account",
          "type": "address"
        }
      ],
      "name": "getPassengerDetails",
      "outputs": [
        {
          "internalType": "uint256",
          "name": "id",
          "type": "uint256"
        },
        {
          "internalType": "address",
          "name": "flightAddress",
          "type": "address"
        },
        {
          "internalType": "string",
          "name": "flightName",
          "type": "string"
        },
        {
          "internalType": "address",
          "name": "passenger",
          "type": "address"
        },
        {
          "internalType": "string",
          "name": "state",
          "type": "string"
        },
        {
          "internalType": "uint256",
          "name": "amount",
          "type": "uint256"
        },
        {
          "internalType": "uint256",
          "name": "refundAmount",
          "type": "uint256"
        }
      ],
      "stateMutability": "view",
      "type": "function",
      "constant": true
    },
    {
      "inputs": [
        {
          "internalType": "address",
          "name": "_account",
          "type": "address"
        }
      ],
      "name": "getPassengerBalance",
      "outputs": [
        {
          "internalType": "uint256",
          "name": "",
          "type": "uint256"
        }
      ],
      "stateMutability": "view",
      "type": "function",
      "constant": true
    }
  ],
  "bytecode": "0x6080604052600060055534801561001557600080fd5b5033600160006101000a81548173ffffffffffffffffffffffffffffffffffffffff021916908373ffffffffffffffffffffffffffffffffffffffff16021790555060018060146101000a81548160ff021916908315150217905550614d8a806100806000396000f3fe6080604052600436106101fd5760003560e01c8063837ee7551161010d578063c10f2700116100a0578063d539e7ef1161006f578063d539e7ef14610763578063e0313fe6146107a0578063efa3327b146107cb578063efbd588e146107f6578063f243be181461083957610204565b8063c10f2700146106bd578063c36515b6146106e6578063c968089e14610711578063d1fc5c511461073a57610204565b8063aee1b2a1116100dc578063aee1b2a114610603578063b10f057b1461062e578063b9b55c9a14610657578063bf0a4f321461069457610204565b8063837ee7551461054757806389208e7214610570578063893d20e8146105ad578063994de453146105d857610204565b8063385de78711610190578063508e264e1161015f578063508e264e1461045f5780635addd35a1461047b57806369beb8fb146104a45780637008414d146104e15780638042601f1461050a57610204565b8063385de7871461037c5780633d21d827146103b95780634b5c9d53146103f65780634e0880461461041f57610204565b8063175a2ead116101cc578063175a2ead146102b657806318535008146102e15780633063b87a1461032357806336061cca1461036057610204565b8063010c5c97146102095780630b2653d5146102465780630c9826731461026f5780630cfc7e441461029a57610204565b3661020457005b600080fd5b34801561021557600080fd5b50610230600480360381019061022b9190613620565b610850565b60405161023d9190613668565b60405180910390f35b34801561025257600080fd5b5061026d600480360381019061026891906137c9565b6108d7565b005b34801561027b57600080fd5b50610284610bc7565b6040516102919190613668565b60405180910390f35b6102b460048036038101906102af9190613914565b610bde565b005b3480156102c257600080fd5b506102cb610d94565b6040516102d891906139ec565b60405180910390f35b3480156102ed57600080fd5b5061030860048036038101906103039190613a3d565b610ed4565b60405161031a96959493929190613b38565b60405180910390f35b34801561032f57600080fd5b5061034a60048036038101906103459190613620565b61109b565b6040516103579190613668565b60405180910390f35b61037a60048036038101906103759190613ba0565b611122565b005b34801561038857600080fd5b506103a3600480360381019061039e9190613620565b6113dc565b6040516103b09190613bcd565b60405180910390f35b3480156103c557600080fd5b506103e060048036038101906103db9190613a3d565b611428565b6040516103ed9190613be8565b60405180910390f35b34801561040257600080fd5b5061041d60048036038101906104189190613c03565b611440565b005b34801561042b57600080fd5b5061044660048036038101906104419190613620565b6115a7565b6040516104569493929190613c43565b60405180910390f35b61047960048036038101906104749190613a3d565b6118b7565b005b34801561048757600080fd5b506104a2600480360381019061049d9190613620565b611d85565b005b3480156104b057600080fd5b506104cb60048036038101906104c69190613620565b611e3e565b6040516104d89190613c96565b60405180910390f35b3480156104ed57600080fd5b5061050860048036038101906105039190613ce4565b611ee0565b005b34801561051657600080fd5b50610531600480360381019061052c9190613620565b611fbe565b60405161053e9190613668565b60405180910390f35b34801561055357600080fd5b5061056e60048036038101906105699190613620565b6120d4565b005b34801561057c57600080fd5b5061059760048036038101906105929190613620565b612263565b6040516105a49190613bcd565b60405180910390f35b3480156105b957600080fd5b506105c2612284565b6040516105cf9190613d11565b60405180910390f35b3480156105e457600080fd5b506105ed6122ae565b6040516105fa9190613bcd565b60405180910390f35b34801561060f57600080fd5b506106186122b8565b6040516106259190613bcd565b60405180910390f35b34801561063a57600080fd5b5061065560048036038101906106509190613d2c565b6122be565b005b34801561066357600080fd5b5061067e60048036038101906106799190613620565b612665565b60405161068b9190613668565b60405180910390f35b3480156106a057600080fd5b506106bb60048036038101906106b69190613620565b6126be565b005b3480156106c957600080fd5b506106e460048036038101906106df9190613d6c565b6127cf565b005b3480156106f257600080fd5b506106fb612b5d565b6040516107089190613bcd565b60405180910390f35b34801561071d57600080fd5b5061073860048036038101906107339190613ce4565b612b69565b005b34801561074657600080fd5b50610761600480360381019061075c9190613ba0565b612be4565b005b34801561076f57600080fd5b5061078a60048036038101906107859190613e03565b612eed565b6040516107979190613be8565b60405180910390f35b3480156107ac57600080fd5b506107b5612f20565b6040516107c29190613bcd565b60405180910390f35b3480156107d757600080fd5b506107e0612f28565b6040516107ed9190613bcd565b60405180910390f35b34801561080257600080fd5b5061081d60048036038101906108189190613620565b612f31565b6040516108309796959493929190613e43565b60405180910390f35b34801561084557600080fd5b5061084e6132ee565b005b600080600360008473ffffffffffffffffffffffffffffffffffffffff1673ffffffffffffffffffffffffffffffffffffffff16815260200190815260200160002060020160009054906101000a900460ff1660038111156108b5576108b4613ec0565b5b905060028160ff1614156108cc57600191506108d1565b600091505b50919050565b600060038111156108eb576108ea613ec0565b5b600360008373ffffffffffffffffffffffffffffffffffffffff1673ffffffffffffffffffffffffffffffffffffffff16815260200190815260200160002060020160009054906101000a900460ff16600381111561094d5761094c613ec0565b5b1461098d576040517f08c379a000000000000000000000000000000000000000000000000000000000815260040161098490613f3b565b60405180910390fd5b6109a3600160005461331690919063ffffffff16565b60008190555060405180608001604052806000548152602001838152602001600160038111156109d6576109d5613ec0565b5b81526020018273ffffffffffffffffffffffffffffffffffffffff16815250600360008373ffffffffffffffffffffffffffffffffffffffff1673ffffffffffffffffffffffffffffffffffffffff168152602001908152602001600020600082015181600001556020820151816001019080519060200190610a5a92919061344f565b5060408201518160020160006101000a81548160ff02191690836003811115610a8657610a85613ec0565b5b021790555060608201518160020160016101000a81548173ffffffffffffffffffffffffffffffffffffffff021916908373ffffffffffffffffffffffffffffffffffffffff16021790555090505060603073ffffffffffffffffffffffffffffffffffffffff16634e088046836040518263ffffffff1660e01b8152600401610b109190613d11565b60006040518083038186803b158015610b2857600080fd5b505afa158015610b3c573d6000803e3d6000fd5b505050506040513d6000823e3d601f19601f82011682018060405250810190610b659190613ff5565b909192509091509050809150503373ffffffffffffffffffffffffffffffffffffffff167fce1dee3a3a541bee70a1b6baacdea5a02354238bbbeac531a8ddaceaa2a37aff4283604051610bba929190614094565b60405180910390a2505050565b6000600160149054906101000a900460ff16905090565b600860003273ffffffffffffffffffffffffffffffffffffffff1673ffffffffffffffffffffffffffffffffffffffff16815260200190815260200160002060000160009054906101000a900460ff1615610c6e576040517f08c379a0000000000000000000000000000000000000000000000000000000008152600401610c6590614110565b60405180910390fd5b60038014610cb1576040517f08c379a0000000000000000000000000000000000000000000000000000000008152600401610ca89061417c565b60405180910390fd5b604051806040016040528060011515815260200182815250600860003273ffffffffffffffffffffffffffffffffffffffff1673ffffffffffffffffffffffffffffffffffffffff16815260200190815260200160002060008201518160000160006101000a81548160ff021916908315150217905550602082015181600101906003610d3f9291906134d5565b509050503273ffffffffffffffffffffffffffffffffffffffff167fa10fa10a754470eaad1afcf8585e85a652d3ffe39b983f72eca381a6b122f17d82604051610d8991906139ec565b60405180910390a250565b610d9c61356f565b600860003373ffffffffffffffffffffffffffffffffffffffff1673ffffffffffffffffffffffffffffffffffffffff16815260200190815260200160002060000160009054906101000a900460ff16610e2b576040517f08c379a0000000000000000000000000000000000000000000000000000000008152600401610e22906141e8565b60405180910390fd5b600860003373ffffffffffffffffffffffffffffffffffffffff1673ffffffffffffffffffffffffffffffffffffffff168152602001908152602001600020600101600380602002604051908101604052809291908260038015610eca576020028201916000905b82829054906101000a900460ff1660ff1681526020019060010190602082600001049283019260010382029150808411610e935790505b5050505050905090565b600080606060008060008087141580610eef57506005548711155b610f2e576040517f08c379a0000000000000000000000000000000000000000000000000000000008152600401610f2590614254565b60405180910390fd5b600060076000898152602001908152602001600020549050600660008281526020019081526020016000206000015496506006600082815260200190815260200160002060010160009054906101000a900473ffffffffffffffffffffffffffffffffffffffff169550600660008281526020019081526020016000206002018054610fb9906142a3565b80601f0160208091040260200160405190810160405280929190818152602001828054610fe5906142a3565b80156110325780601f1061100757610100808354040283529160200191611032565b820191906000526020600020905b81548152906001019060200180831161101557829003601f168201915b505050505094506006600082815260200190815260200160002060030160009054906101000a900460ff16935060066000828152602001908152602001600020600401549250600660008281526020019081526020016000206005015491505091939550919395565b600080600360008473ffffffffffffffffffffffffffffffffffffffff1673ffffffffffffffffffffffffffffffffffffffff16815260200190815260200160002060020160009054906101000a900460ff166003811115611100576110ff613ec0565b5b905060038160ff161415611117576001915061111c565b600091505b50919050565b323073ffffffffffffffffffffffffffffffffffffffff1663bf0a4f32826040518263ffffffff1660e01b815260040161115c9190613d11565b60006040518083038186803b15801561117457600080fd5b505afa158015611188573d6000803e3d6000fd5b505050506000600360003273ffffffffffffffffffffffffffffffffffffffff1673ffffffffffffffffffffffffffffffffffffffff16815260200190815260200160002060020160009054906101000a900460ff1660038111156111f0576111ef613ec0565b5b905060038360ff161115611239576040517f08c379a000000000000000000000000000000000000000000000000000000000815260040161123090614321565b60405180910390fd5b8060ff168360ff1611611281576040517f08c379a0000000000000000000000000000000000000000000000000000000008152600401611278906143b3565b60405180910390fd5b60038060003273ffffffffffffffffffffffffffffffffffffffff1673ffffffffffffffffffffffffffffffffffffffff16815260200190815260200160002060020160006101000a81548160ff021916908360038111156112e6576112e5613ec0565b5b021790555060603073ffffffffffffffffffffffffffffffffffffffff16634e088046326040518263ffffffff1660e01b81526004016113269190613d11565b60006040518083038186803b15801561133e57600080fd5b505afa158015611352573d6000803e3d6000fd5b505050506040513d6000823e3d601f19601f8201168201806040525081019061137b9190613ff5565b909192509091509050809150503273ffffffffffffffffffffffffffffffffffffffff167f430b758c1e0fe319aaa192e7d56d4f39ae97698a3a489e48954ea3ce634c26e1826040516113ce9190613c96565b60405180910390a250505050565b6000600a60008373ffffffffffffffffffffffffffffffffffffffff1673ffffffffffffffffffffffffffffffffffffffff168152602001908152602001600020600401549050919050565b60076020528060005260406000206000915090505481565b60008060008061144f85610ed4565b95509550509450945050816007600087815260200190815260200160002054146114ae576040517f08c379a00000000000000000000000000000000000000000000000000000000081526004016114a59061441f565b60405180910390fd5b60008685836040516020016114c5939291906144de565b604051602081830303815290604052805190602001209050326009600083815260200190815260200160002060000160006101000a81548173ffffffffffffffffffffffffffffffffffffffff021916908373ffffffffffffffffffffffffffffffffffffffff16021790555060016009600083815260200190815260200160002060000160146101000a81548160ff0219169083151502179055507f3a0e43c5577f0995b7cca5df8615d0aa2a07d84830fec6f0f8d1103d74ab584e87868685604051611596949392919061451b565b60405180910390a150505050505050565b60006060600060606000600360008773ffffffffffffffffffffffffffffffffffffffff1673ffffffffffffffffffffffffffffffffffffffff16815260200190815260200160002060020160009054906101000a900460ff16600381111561161357611612613ec0565b5b905060008160ff16141561165e576040518060400160405280600a81526020017f556e61737369676e6564000000000000000000000000000000000000000000008152509150611738565b60018160ff1614156116a7576040518060400160405280600781526020017f4170706c696564000000000000000000000000000000000000000000000000008152509150611737565b60028160ff1614156116f0576040518060400160405280600a81526020017f52656769737465726564000000000000000000000000000000000000000000008152509150611736565b60038160ff161415611735576040518060400160405280600981526020017f436f6d6d6974746564000000000000000000000000000000000000000000000081525091505b5b5b5b600360008773ffffffffffffffffffffffffffffffffffffffff1673ffffffffffffffffffffffffffffffffffffffff168152602001908152602001600020600001549450600360008773ffffffffffffffffffffffffffffffffffffffff1673ffffffffffffffffffffffffffffffffffffffff16815260200190815260200160002060010180546117ca906142a3565b80601f01602080910402602001604051908101604052809291908181526020018280546117f6906142a3565b80156118435780601f1061181857610100808354040283529160200191611843565b820191906000526020600020905b81548152906001019060200180831161182657829003601f168201915b50505050509350600360008773ffffffffffffffffffffffffffffffffffffffff1673ffffffffffffffffffffffffffffffffffffffff16815260200190815260200160002060020160019054906101000a900473ffffffffffffffffffffffffffffffffffffffff169250509193509193565b6000811415806118c957506005548111155b611908576040517f08c379a00000000000000000000000000000000000000000000000000000000081526004016118ff90614254565b60405180910390fd5b60006007600083815260200190815260200160002054905060066000828152602001908152602001600020600001548214611978576040517f08c379a000000000000000000000000000000000000000000000000000000000815260040161196f906145b3565b60405180910390fd5b60008060003073ffffffffffffffffffffffffffffffffffffffff16634e0880466006600087815260200190815260200160002060010160009054906101000a900473ffffffffffffffffffffffffffffffffffffffff166040518263ffffffff1660e01b81526004016119ec9190613d11565b60006040518083038186803b158015611a0457600080fd5b505afa158015611a18573d6000803e3d6000fd5b505050506040513d6000823e3d601f19601f82011682018060405250810190611a419190613ff5565b50925092509250670de0b6b3a7640000341115611a93576040517f08c379a0000000000000000000000000000000000000000000000000000000008152600401611a8a9061461f565b60405180910390fd5b60003073ffffffffffffffffffffffffffffffffffffffff1634604051611ab990614670565b60006040518083038185875af1925050503d8060008114611af6576040519150601f19603f3d011682016040523d82523d6000602084013e611afb565b606091505b5050905080611b3f576040517f08c379a0000000000000000000000000000000000000000000000000000000008152600401611b36906146d1565b60405180910390fd5b6040518060e001604052808581526020018373ffffffffffffffffffffffffffffffffffffffff1681526020013373ffffffffffffffffffffffffffffffffffffffff16815260200184815260200134815260200160016002811115611ba857611ba7613ec0565b5b81526020016000815250600a60003373ffffffffffffffffffffffffffffffffffffffff1673ffffffffffffffffffffffffffffffffffffffff1681526020019081526020016000206000820151816000015560208201518160010160006101000a81548173ffffffffffffffffffffffffffffffffffffffff021916908373ffffffffffffffffffffffffffffffffffffffff16021790555060408201518160020160006101000a81548173ffffffffffffffffffffffffffffffffffffffff021916908373ffffffffffffffffffffffffffffffffffffffff1602179055506060820151816003019080519060200190611ca592919061344f565b506080820151816004015560a08201518160050160006101000a81548160ff02191690836002811115611cdb57611cda613ec0565b5b021790555060c082015181600601559050503373ffffffffffffffffffffffffffffffffffffffff167fd7973fc11875159721f15bfe308594241b8801c905a8745183c4557e8ce879fb600a60003373ffffffffffffffffffffffffffffffffffffffff1673ffffffffffffffffffffffffffffffffffffffff16815260200190815260200160002060040154604051611d759190613bcd565b60405180910390a2505050505050565b60026003811115611d9957611d98613ec0565b5b600360008373ffffffffffffffffffffffffffffffffffffffff1673ffffffffffffffffffffffffffffffffffffffff16815260200190815260200160002060020160009054906101000a900460ff166003811115611dfb57611dfa613ec0565b5b14611e3b576040517f08c379a0000000000000000000000000000000000000000000000000000000008152600401611e329061473d565b60405180910390fd5b50565b60603073ffffffffffffffffffffffffffffffffffffffff16634e088046836040518263ffffffff1660e01b8152600401611e799190613d11565b60006040518083038186803b158015611e9157600080fd5b505afa158015611ea5573d6000803e3d6000fd5b505050506040513d6000823e3d601f19601f82011682018060405250810190611ece9190613ff5565b90919250909150905080915050919050565b323073ffffffffffffffffffffffffffffffffffffffff16635addd35a826040518263ffffffff1660e01b8152600401611f1a9190613d11565b60006040518083038186803b158015611f3257600080fd5b505afa158015611f46573d6000803e3d6000fd5b50505050811515600160149054906101000a900460ff1615151415611fa0576040517f08c379a0000000000000000000000000000000000000000000000000000000008152600401611f97906147a9565b60405180910390fd5b81600160146101000a81548160ff0219169083151502179055505050565b600060016003811115611fd457611fd3613ec0565b5b600360008473ffffffffffffffffffffffffffffffffffffffff1673ffffffffffffffffffffffffffffffffffffffff16815260200190815260200160002060020160009054906101000a900460ff16600381111561203657612035613ec0565b5b141561204557600190506120cf565b6002600381111561205957612058613ec0565b5b600360008473ffffffffffffffffffffffffffffffffffffffff1673ffffffffffffffffffffffffffffffffffffffff16815260200190815260200160002060020160009054906101000a900460ff1660038111156120bb576120ba613ec0565b5b14156120ca57600190506120cf565b600090505b919050565b600160009054906101000a900473ffffffffffffffffffffffffffffffffffffffff1673ffffffffffffffffffffffffffffffffffffffff168173ffffffffffffffffffffffffffffffffffffffff1614806121a357506001600381111561213f5761213e613ec0565b5b600360008373ffffffffffffffffffffffffffffffffffffffff1673ffffffffffffffffffffffffffffffffffffffff16815260200190815260200160002060020160009054906101000a900460ff1660038111156121a1576121a0613ec0565b5b145b806122215750600260038111156121bd576121bc613ec0565b5b600360008373ffffffffffffffffffffffffffffffffffffffff1673ffffffffffffffffffffffffffffffffffffffff16815260200190815260200160002060020160009054906101000a900460ff16600381111561221f5761221e613ec0565b5b145b612260576040517f08c379a000000000000000000000000000000000000000000000000000000000815260040161225790614815565b60405180910390fd5b50565b60008173ffffffffffffffffffffffffffffffffffffffff16319050919050565b6000600160009054906101000a900473ffffffffffffffffffffffffffffffffffffffff16905090565b6000600254905090565b60055481565b813073ffffffffffffffffffffffffffffffffffffffff1663837ee755826040518263ffffffff1660e01b81526004016122f89190613d11565b60006040518083038186803b15801561231057600080fd5b505afa158015612324573d6000803e3d6000fd5b50505050600160149054906101000a900460ff16612377576040517f08c379a000000000000000000000000000000000000000000000000000000000815260040161236e90614881565b60405180910390fd5b6000600360008573ffffffffffffffffffffffffffffffffffffffff1673ffffffffffffffffffffffffffffffffffffffff16815260200190815260200160002060020160009054906101000a900460ff1660038111156123db576123da613ec0565b5b905060038360ff161115612424576040517f08c379a000000000000000000000000000000000000000000000000000000000815260040161241b90614321565b60405180910390fd5b8060ff168360ff161161246c576040517f08c379a0000000000000000000000000000000000000000000000000000000008152600401612463906143b3565b60405180910390fd5b6124746132ee565b8260ff16600381111561248a57612489613ec0565b5b600360008673ffffffffffffffffffffffffffffffffffffffff1673ffffffffffffffffffffffffffffffffffffffff16815260200190815260200160002060020160006101000a81548160ff021916908360038111156124ee576124ed613ec0565b5b0217905550612509600160025461331690919063ffffffff16565b600281905550600360008573ffffffffffffffffffffffffffffffffffffffff1673ffffffffffffffffffffffffffffffffffffffff16815260200190815260200160002060020160009054906101000a900460ff16600381111561257157612570613ec0565b5b905060603073ffffffffffffffffffffffffffffffffffffffff16634e088046866040518263ffffffff1660e01b81526004016125ae9190613d11565b60006040518083038186803b1580156125c657600080fd5b505afa1580156125da573d6000803e3d6000fd5b505050506040513d6000823e3d601f19601f820116820180604052508101906126039190613ff5565b909192509091509050809150508473ffffffffffffffffffffffffffffffffffffffff167f430b758c1e0fe319aaa192e7d56d4f39ae97698a3a489e48954ea3ce634c26e1826040516126569190613c96565b60405180910390a25050505050565b6000600860008373ffffffffffffffffffffffffffffffffffffffff1673ffffffffffffffffffffffffffffffffffffffff16815260200190815260200160002060000160009054906101000a900460ff169050919050565b600260038111156126d2576126d1613ec0565b5b600360008373ffffffffffffffffffffffffffffffffffffffff1673ffffffffffffffffffffffffffffffffffffffff16815260200190815260200160002060020160009054906101000a900460ff16600381111561273457612733613ec0565b5b148061278d5750600160009054906101000a900473ffffffffffffffffffffffffffffffffffffffff1673ffffffffffffffffffffffffffffffffffffffff168173ffffffffffffffffffffffffffffffffffffffff16145b6127cc576040517f08c379a00000000000000000000000000000000000000000000000000000000081526004016127c3906148ed565b60405180910390fd5b50565b8460ff16600860003373ffffffffffffffffffffffffffffffffffffffff1673ffffffffffffffffffffffffffffffffffffffff1681526020019081526020016000206001016000600381106128285761282761490d565b5b602091828204019190069054906101000a900460ff1660ff1614806128bc57508460ff16600860003373ffffffffffffffffffffffffffffffffffffffff1673ffffffffffffffffffffffffffffffffffffffff1681526020019081526020016000206001016001600381106128a1576128a061490d565b5b602091828204019190069054906101000a900460ff1660ff16145b8061293657508460ff16600860003373ffffffffffffffffffffffffffffffffffffffff1673ffffffffffffffffffffffffffffffffffffffff16815260200190815260200160002060010160026003811061291b5761291a61490d565b5b602091828204019190069054906101000a900460ff1660ff16145b612975576040517f08c379a000000000000000000000000000000000000000000000000000000000815260040161296c90614988565b60405180910390fd5b60008585858560405160200161298e94939291906149e4565b6040516020818303038152906040528051906020012090506009600082815260200190815260200160002060000160149054906101000a900460ff16612a09576040517f08c379a0000000000000000000000000000000000000000000000000000000008152600401612a0090614a7a565b60405180910390fd5b6009600082815260200190815260200160002060010160008360ff1660ff168152602001908152602001600020339080600181540180825580915050600190039060005260206000200160009091909190916101000a81548173ffffffffffffffffffffffffffffffffffffffff021916908373ffffffffffffffffffffffffffffffffffffffff1602179055507fa839af4f959d7bd6d8eceb0b5708ce624c4897ff372e880e885eef260bba62ba33858585604051612acc9493929190614a9a565b60405180910390a160036009600083815260200190815260200160002060010160008460ff1660ff1681526020019081526020016000208054905010612b55577fd7353a1bb287d6f6f3bf0001f82ab7e6e1a04cdcc9724896017a04ea42c1510985858585604051612b419493929190614a9a565b60405180910390a1612b5485848461332c565b5b505050505050565b670de0b6b3a764000081565b612b716133bd565b801515600160149054906101000a900460ff1615151415612bc7576040517f08c379a0000000000000000000000000000000000000000000000000000000008152600401612bbe90614b32565b60405180910390fd5b80600160146101000a81548160ff02191690831515021790555050565b60003073ffffffffffffffffffffffffffffffffffffffff16633063b87a336040518263ffffffff1660e01b8152600401612c1f9190613d11565b60206040518083038186803b158015612c3757600080fd5b505afa158015612c4b573d6000803e3d6000fd5b505050506040513d601f19601f82011682018060405250810190612c6f9190614b67565b90506001151581151514612cb8576040517f08c379a0000000000000000000000000000000000000000000000000000000008152600401612caf90614be0565b60405180910390fd5b60008060003073ffffffffffffffffffffffffffffffffffffffff16634e088046336040518263ffffffff1660e01b8152600401612cf69190613d11565b60006040518083038186803b158015612d0e57600080fd5b505afa158015612d22573d6000803e3d6000fd5b505050506040513d6000823e3d601f19601f82011682018060405250810190612d4b9190613ff5565b50925092509250612d68600160055461331690919063ffffffff16565b6005819055506000612d7a3342612eed565b90508060076000868152602001908152602001600020819055506040518060c001604052808581526020018373ffffffffffffffffffffffffffffffffffffffff1681526020018481526020018760ff16815260200182815260200142815250600660008381526020019081526020016000206000820151816000015560208201518160010160006101000a81548173ffffffffffffffffffffffffffffffffffffffff021916908373ffffffffffffffffffffffffffffffffffffffff1602179055506040820151816002019080519060200190612e5a92919061344f565b5060608201518160030160006101000a81548160ff021916908360ff1602179055506080820151816004015560a082015181600501559050503373ffffffffffffffffffffffffffffffffffffffff167f05023e85c1f832f6c16da81d43b114f6c4bce6fe45323820d27285d93cbb1b16824289604051612edd93929190614c00565b60405180910390a2505050505050565b60008282604051602001612f02929190614c37565b60405160208183030381529060405280519060200120905092915050565b600047905090565b60008054905090565b6000806060600060606000806000600a60008a73ffffffffffffffffffffffffffffffffffffffff1673ffffffffffffffffffffffffffffffffffffffff16815260200190815260200160002060050160009054906101000a900460ff166002811115612fa157612fa0613ec0565b5b905060008160ff161415612fec576040518060400160405280600a81526020017f556e61737369676e656400000000000000000000000000000000000000000000815250935061307c565b60018160ff161415613035576040518060400160405280600481526020017f5061696400000000000000000000000000000000000000000000000000000000815250935061307b565b60028160ff16141561307a576040518060400160405280600781526020017f436c61696d65640000000000000000000000000000000000000000000000000081525093505b5b5b600a60008a73ffffffffffffffffffffffffffffffffffffffff1673ffffffffffffffffffffffffffffffffffffffff168152602001908152602001600020600001549750600a60008a73ffffffffffffffffffffffffffffffffffffffff1673ffffffffffffffffffffffffffffffffffffffff168152602001908152602001600020600301805461310e906142a3565b80601f016020809104026020016040519081016040528092919081815260200182805461313a906142a3565b80156131875780601f1061315c57610100808354040283529160200191613187565b820191906000526020600020905b81548152906001019060200180831161316a57829003601f168201915b50505050509550600a60008a73ffffffffffffffffffffffffffffffffffffffff1673ffffffffffffffffffffffffffffffffffffffff16815260200190815260200160002060010160009054906101000a900473ffffffffffffffffffffffffffffffffffffffff169650600a60008a73ffffffffffffffffffffffffffffffffffffffff1673ffffffffffffffffffffffffffffffffffffffff16815260200190815260200160002060020160009054906101000a900473ffffffffffffffffffffffffffffffffffffffff169450600a60008a73ffffffffffffffffffffffffffffffffffffffff1673ffffffffffffffffffffffffffffffffffffffff168152602001908152602001600020600401549250600a60008a73ffffffffffffffffffffffffffffffffffffffff1673ffffffffffffffffffffffffffffffffffffffff16815260200190815260200160002060060154915050919395979092949650565b600460025410613314576000600160146101000a81548160ff0219169083151502179055505b565b600081836133249190614c92565b905092915050565b60006133388484612eed565b9050816006600083815260200190815260200160002060030160006101000a81548160ff021916908360ff1602179055508373ffffffffffffffffffffffffffffffffffffffff167ff33f667abf185b22863cb6ea218c4281933805d824e2bb743e3df37adde3f048846040516133af9190613bcd565b60405180910390a250505050565b600160009054906101000a900473ffffffffffffffffffffffffffffffffffffffff1673ffffffffffffffffffffffffffffffffffffffff163373ffffffffffffffffffffffffffffffffffffffff161461344d576040517f08c379a000000000000000000000000000000000000000000000000000000000815260040161344490614d34565b60405180910390fd5b565b82805461345b906142a3565b90600052602060002090601f01602090048101928261347d57600085556134c4565b82601f1061349657805160ff19168380011785556134c4565b828001600101855582156134c4579182015b828111156134c35782518255916020019190600101906134a8565b5b5090506134d19190613591565b5090565b826003601f0160209004810192821561355e5791602002820160005b8382111561352f57835183826101000a81548160ff021916908360ff16021790555092602001926001016020816000010492830192600103026134f1565b801561355c5782816101000a81549060ff021916905560010160208160000104928301926001030261352f565b505b50905061356b9190613591565b5090565b6040518060600160405280600390602082028036833780820191505090505090565b5b808211156135aa576000816000905550600101613592565b5090565b6000604051905090565b600080fd5b600080fd5b600073ffffffffffffffffffffffffffffffffffffffff82169050919050565b60006135ed826135c2565b9050919050565b6135fd816135e2565b811461360857600080fd5b50565b60008135905061361a816135f4565b92915050565b600060208284031215613636576136356135b8565b5b60006136448482850161360b565b91505092915050565b60008115159050919050565b6136628161364d565b82525050565b600060208201905061367d6000830184613659565b92915050565b600080fd5b600080fd5b6000601f19601f8301169050919050565b7f4e487b7100000000000000000000000000000000000000000000000000000000600052604160045260246000fd5b6136d68261368d565b810181811067ffffffffffffffff821117156136f5576136f461369e565b5b80604052505050565b60006137086135ae565b905061371482826136cd565b919050565b600067ffffffffffffffff8211156137345761373361369e565b5b61373d8261368d565b9050602081019050919050565b82818337600083830152505050565b600061376c61376784613719565b6136fe565b90508281526020810184848401111561378857613787613688565b5b61379384828561374a565b509392505050565b600082601f8301126137b0576137af613683565b5b81356137c0848260208601613759565b91505092915050565b600080604083850312156137e0576137df6135b8565b5b600083013567ffffffffffffffff8111156137fe576137fd6135bd565b5b61380a8582860161379b565b925050602061381b8582860161360b565b9150509250929050565b600067ffffffffffffffff8211156138405761383f61369e565b5b602082029050919050565b600080fd5b600060ff82169050919050565b61386681613850565b811461387157600080fd5b50565b6000813590506138838161385d565b92915050565b600061389c61389784613825565b6136fe565b905080602084028301858111156138b6576138b561384b565b5b835b818110156138df57806138cb8882613874565b8452602084019350506020810190506138b8565b5050509392505050565b600082601f8301126138fe576138fd613683565b5b600361390b848285613889565b91505092915050565b60006060828403121561392a576139296135b8565b5b6000613938848285016138e9565b91505092915050565b600060039050919050565b600081905092915050565b6000819050919050565b61396a81613850565b82525050565b600061397c8383613961565b60208301905092915050565b6000602082019050919050565b61399e81613941565b6139a8818461394c565b92506139b382613957565b8060005b838110156139e45781516139cb8782613970565b96506139d683613988565b9250506001810190506139b7565b505050505050565b6000606082019050613a016000830184613995565b92915050565b6000819050919050565b613a1a81613a07565b8114613a2557600080fd5b50565b600081359050613a3781613a11565b92915050565b600060208284031215613a5357613a526135b8565b5b6000613a6184828501613a28565b91505092915050565b613a7381613a07565b82525050565b613a82816135e2565b82525050565b600081519050919050565b600082825260208201905092915050565b60005b83811015613ac2578082015181840152602081019050613aa7565b83811115613ad1576000848401525b50505050565b6000613ae282613a88565b613aec8185613a93565b9350613afc818560208601613aa4565b613b058161368d565b840191505092915050565b613b1981613850565b82525050565b6000819050919050565b613b3281613b1f565b82525050565b600060c082019050613b4d6000830189613a6a565b613b5a6020830188613a79565b8181036040830152613b6c8187613ad7565b9050613b7b6060830186613b10565b613b886080830185613b29565b613b9560a0830184613a6a565b979650505050505050565b600060208284031215613bb657613bb56135b8565b5b6000613bc484828501613874565b91505092915050565b6000602082019050613be26000830184613a6a565b92915050565b6000602082019050613bfd6000830184613b29565b92915050565b60008060408385031215613c1a57613c196135b8565b5b6000613c2885828601613874565b9250506020613c3985828601613a28565b9150509250929050565b6000608082019050613c586000830187613a6a565b8181036020830152613c6a8186613ad7565b9050613c796040830185613a79565b8181036060830152613c8b8184613ad7565b905095945050505050565b60006020820190508181036000830152613cb08184613ad7565b905092915050565b613cc18161364d565b8114613ccc57600080fd5b50565b600081359050613cde81613cb8565b92915050565b600060208284031215613cfa57613cf96135b8565b5b6000613d0884828501613ccf565b91505092915050565b6000602082019050613d266000830184613a79565b92915050565b60008060408385031215613d4357613d426135b8565b5b6000613d518582860161360b565b9250506020613d6285828601613874565b9150509250929050565b600080600080600060a08688031215613d8857613d876135b8565b5b6000613d9688828901613874565b9550506020613da78882890161360b565b945050604086013567ffffffffffffffff811115613dc857613dc76135bd565b5b613dd48882890161379b565b9350506060613de588828901613a28565b9250506080613df688828901613874565b9150509295509295909350565b60008060408385031215613e1a57613e196135b8565b5b6000613e288582860161360b565b9250506020613e3985828601613a28565b9150509250929050565b600060e082019050613e58600083018a613a6a565b613e656020830189613a79565b8181036040830152613e778188613ad7565b9050613e866060830187613a79565b8181036080830152613e988186613ad7565b9050613ea760a0830185613a6a565b613eb460c0830184613a6a565b98975050505050505050565b7f4e487b7100000000000000000000000000000000000000000000000000000000600052602160045260246000fd5b7f6169726c696e65206e6f7420696e20756e61737369676e656420737461746500600082015250565b6000613f25601f83613a93565b9150613f3082613eef565b602082019050919050565b60006020820190508181036000830152613f5481613f18565b9050919050565b600081519050613f6a81613a11565b92915050565b6000613f83613f7e84613719565b6136fe565b905082815260208101848484011115613f9f57613f9e613688565b5b613faa848285613aa4565b509392505050565b600082601f830112613fc757613fc6613683565b5b8151613fd7848260208601613f70565b91505092915050565b600081519050613fef816135f4565b92915050565b6000806000806080858703121561400f5761400e6135b8565b5b600061401d87828801613f5b565b945050602085015167ffffffffffffffff81111561403e5761403d6135bd565b5b61404a87828801613fb2565b935050604061405b87828801613fe0565b925050606085015167ffffffffffffffff81111561407c5761407b6135bd565b5b61408887828801613fb2565b91505092959194509250565b60006040820190506140a96000830185613a6a565b81810360208301526140bb8184613ad7565b90509392505050565b7f4f522e2072656769737465726564000000000000000000000000000000000000600082015250565b60006140fa600e83613a93565b9150614105826140c4565b602082019050919050565b60006020820190508181036000830152614129816140ed565b9050919050565b7f494e442e20526571000000000000000000000000000000000000000000000000600082015250565b6000614166600883613a93565b915061417182614130565b602082019050919050565b6000602082019050818103600083015261419581614159565b9050919050565b7f63616c6c6572206e6f742072656769737465726564206f7261636c6500000000600082015250565b60006141d2601c83613a93565b91506141dd8261419c565b602082019050919050565b60006020820190508181036000830152614201816141c5565b9050919050565b7f696e76616c696420666c69676874206964000000000000000000000000000000600082015250565b600061423e601183613a93565b915061424982614208565b602082019050919050565b6000602082019050818103600083015261426d81614231565b9050919050565b7f4e487b7100000000000000000000000000000000000000000000000000000000600052602260045260246000fd5b600060028204905060018216806142bb57607f821691505b602082108114156142cf576142ce614274565b5b50919050565b7f6e6f742077697468696e20656e756d2072616e67650000000000000000000000600082015250565b600061430b601583613a93565b9150614316826142d5565b602082019050919050565b6000602082019050818103600083015261433a816142fe565b9050919050565b7f7374617475732063616e6e6f74206265206c6f776572207468616e206375727260008201527f656e742073746174650000000000000000000000000000000000000000000000602082015250565b600061439d602983613a93565b91506143a882614341565b604082019050919050565b600060208201905081810360008301526143cc81614390565b9050919050565b7f4e4520666c696768740000000000000000000000000000000000000000000000600082015250565b6000614409600983613a93565b9150614414826143d3565b602082019050919050565b60006020820190508181036000830152614438816143fc565b9050919050565b60008160f81b9050919050565b60006144578261443f565b9050919050565b61446f61446a82613850565b61444c565b82525050565b60008160601b9050919050565b600061448d82614475565b9050919050565b600061449f82614482565b9050919050565b6144b76144b2826135e2565b614494565b82525050565b6000819050919050565b6144d86144d382613a07565b6144bd565b82525050565b60006144ea828661445e565b6001820191506144fa82856144a6565b60148201915061450a82846144c7565b602082019150819050949350505050565b60006080820190506145306000830187613b10565b61453d6020830186613a79565b818103604083015261454f8185613ad7565b905061455e6060830184613a6a565b95945050505050565b7f666c6967687420646f6573206e6f742065786973740000000000000000000000600082015250565b600061459d601583613a93565b91506145a882614567565b602082019050919050565b600060208201905081810360008301526145cc81614590565b9050919050565b7f3145544820696e737572616e6365206d75737420626520706169640000000000600082015250565b6000614609601b83613a93565b9150614614826145d3565b602082019050919050565b60006020820190508181036000830152614638816145fc565b9050919050565b600081905092915050565b50565b600061465a60008361463f565b91506146658261464a565b600082019050919050565b600061467b8261464d565b9150819050919050565b7f6661696c656420746f2073656e64204554480000000000000000000000000000600082015250565b60006146bb601283613a93565b91506146c682614685565b602082019050919050565b600060208201905081810360008301526146ea816146ae565b9050919050565b7f63616c6c6572206e6f7420726567697374657265640000000000000000000000600082015250565b6000614727601583613a93565b9150614732826146f1565b602082019050919050565b600060208201905081810360008301526147568161471a565b9050919050565b7f616c726561647920696e206f7065726174696f6e616c206d6f64650000000000600082015250565b6000614793601b83613a93565b915061479e8261475d565b602082019050919050565b600060208201905081810360008301526147c281614786565b9050919050565b7f6169726c696e65206e6f7420617574686f72697a656400000000000000000000600082015250565b60006147ff601683613a93565b915061480a826147c9565b602082019050919050565b6000602082019050818103600083015261482e816147f2565b9050919050565b7f636f6e7472616374206e6f74206f7065726174696f6e616c0000000000000000600082015250565b600061486b601883613a93565b915061487682614835565b602082019050919050565b6000602082019050818103600083015261489a8161485e565b9050919050565b7f6e6f7420617574686f72697a656420746f207265676973746572000000000000600082015250565b60006148d7601a83613a93565b91506148e2826148a1565b602082019050919050565b60006020820190508181036000830152614906816148ca565b9050919050565b7f4e487b7100000000000000000000000000000000000000000000000000000000600052603260045260246000fd5b7f494458206d69736d617463680000000000000000000000000000000000000000600082015250565b6000614972600c83613a93565b915061497d8261493c565b602082019050919050565b600060208201905081810360008301526149a181614965565b9050919050565b600081905092915050565b60006149be82613a88565b6149c881856149a8565b93506149d8818560208601613aa4565b80840191505092915050565b60006149f0828761445e565b600182019150614a0082866144a6565b601482019150614a1082856149b3565b9150614a1c82846144c7565b60208201915081905095945050505050565b7f466c692e206f722074696d6573742e206d69736d617463680000000000000000600082015250565b6000614a64601883613a93565b9150614a6f82614a2e565b602082019050919050565b60006020820190508181036000830152614a9381614a57565b9050919050565b6000608082019050614aaf6000830187613a79565b8181036020830152614ac18186613ad7565b9050614ad06040830185613a6a565b614add6060830184613b10565b95945050505050565b7f6d757374206e6f742062652063757272656e7420737461747573000000000000600082015250565b6000614b1c601a83613a93565b9150614b2782614ae6565b602082019050919050565b60006020820190508181036000830152614b4b81614b0f565b9050919050565b600081519050614b6181613cb8565b92915050565b600060208284031215614b7d57614b7c6135b8565b5b6000614b8b84828501614b52565b91505092915050565b7f6169726c696e65206e6f7420636f6d6d69746564000000000000000000000000600082015250565b6000614bca601483613a93565b9150614bd582614b94565b602082019050919050565b60006020820190508181036000830152614bf981614bbd565b9050919050565b6000606082019050614c156000830186613b29565b614c226020830185613a6a565b614c2f6040830184613b10565b949350505050565b6000614c4382856144a6565b601482019150614c5382846144c7565b6020820191508190509392505050565b7f4e487b7100000000000000000000000000000000000000000000000000000000600052601160045260246000fd5b6000614c9d82613a07565b9150614ca883613a07565b9250827fffffffffffffffffffffffffffffffffffffffffffffffffffffffffffffffff03821115614cdd57614cdc614c63565b5b828201905092915050565b7f63616c6c6572206e6f74206f776e657200000000000000000000000000000000600082015250565b6000614d1e601083613a93565b9150614d2982614ce8565b602082019050919050565b60006020820190508181036000830152614d4d81614d11565b905091905056fea2646970667358221220d895c81a14bac02433fde54ef85e7a5cbf2a34a6303b8e3e9bb10cccfa41c55164736f6c63430008090033",
  "immutableReferences": {},
  "source": "// SPDX-License-Identifier: MIT\npragma solidity ^0.8.0;\n\nimport '@openzeppelin/contracts/utils/math/SafeMath.sol';\nimport './AirlineData.sol';\n\ncontract FlightSuretyData is AirlineData {\n  using SafeMath for uint256;\n\n  /********************************************************************************************/\n  /*                                      FLIGHT STATE VARIABLES                          */\n  /******************************************************************************************/\n\n  // Flight status codes\n  uint8 private constant STATUS_CODE_UNKNOWN = 0;\n  uint8 private constant STATUS_CODE_ON_TIME = 10;\n  uint8 private constant STATUS_CODE_LATE_AIRLINE = 20;\n  uint8 private constant STATUS_CODE_LATE_WEATHER = 30;\n  uint8 private constant STATUS_CODE_LATE_TECHNICAL = 40;\n  uint8 private constant STATUS_CODE_LATE_OTHER = 50;\n\n  uint256 public flightCounter = 0;\n  struct Flight {\n    uint256 id;\n    address airline;\n    string flightName;\n    uint8 statusCode;\n    bytes32 flightKey;\n    uint256 timestamp;\n\n  }\n\n  mapping(bytes32 => Flight) private flights;\n\n  mapping(uint256 => bytes32) public flightKeys;\n\n  /********************************************************************************************/\n  /*                                      FLIGHT EVENTS                                      */\n  /******************************************************************************************/\n\n  event LogFlightRegistered(bytes32 flightKey, address indexed airline, uint256 timestamp, uint8 statusCode);\n  event LogFlightStatusProcessed(address indexed airline, uint256 timestamp);\n\n   // Event fired when flight status request is requested\n  event LogOracleRequest(uint8 index, address airline, string flight, uint256 timestamp);\n\n  /********************************************************************************************/\n  /*                                      FLIGHT CORE FUNCTIONS                 */\n  /******************************************************************************************/\n  \n  // Register flight\n  function registerFlight(uint8 _statusCode) public {\n    (bool checkStatus ) = this.isAirlineCommitted(msg.sender);\n    require(checkStatus == true, 'airline not commited');\n\n    (uint256 id, string memory name, address airlineAccount,) = this.getAirlineDetails(msg.sender);  \n\n    flightCounter = flightCounter.add(1);\n    \n\n    bytes32 flightKey = generateFlightKey(msg.sender, block.timestamp);\n\n    flightKeys[id] = flightKey;\n  \n\n    flights[flightKey] = Flight({\n      id: id,\n      airline: airlineAccount,\n      flightName: name,\n      statusCode: _statusCode,\n      flightKey: flightKey,\n      timestamp: block.timestamp\n    });\n\n    emit LogFlightRegistered(flightKey, msg.sender, block.timestamp, _statusCode);\n  }\n\n  function processFlightStatus(address _airline, uint256 _timestamp, uint8 _statusCode)  private {\n    bytes32 key = generateFlightKey(_airline, _timestamp);\n    flights[key].statusCode = _statusCode;\n\n    emit LogFlightStatusProcessed(_airline, _timestamp);\n  }\n\n  // Generate a request for oracles  to fetch flight information\n  function fetchFlightStatus(uint8 _index, uint256 _flightId) external {\n    (, address airline, string memory flightName,, bytes32 flightKey, uint256 timestamp) = getFlightDetails(_flightId);\n\n    require(flightKeys[_flightId] == flightKey, 'NE flight');\n\n\n\n    // uint8 index = getRandomIndex(msg.sender);\n\n    // Generate a unique key for storing  the request\n    bytes32 key = keccak256(abi.encodePacked(_index, airline, timestamp));\n    oracleResponses[key].requester = tx.origin;\n    oracleResponses[key].isOpen = true;\n\n\n    emit LogOracleRequest(_index, airline, flightName, timestamp);\n  }\n\n  // Get flight details\n  function getFlightDetails(uint256 _flightId) public view returns\n    (\n      uint256 id, \n      address airline, \n      string memory flightName,\n      uint8 statusCode, \n      bytes32 flightKey, \n      uint256 timestamp\n\n    )\n  {\n    require(_flightId != 0 || _flightId <= flightCounter, 'invalid flight id');\n    bytes32 key = flightKeys[_flightId];\n    id = flights[key].id;\n    airline = flights[key].airline;\n    flightName = flights[key].flightName;\n    statusCode = flights[key].statusCode;\n    flightKey = flights[key].flightKey;\n    timestamp = flights[key].timestamp;\n    \n  }\n  \n  /********************************************************************************************/\n  /*                                      FLIGHT UTILITY FUNCTIONS                 */\n  /******************************************************************************************/\n\n  function generateFlightKey(address _airline, uint256 _timestamp) public pure returns(bytes32) {\n    return keccak256(abi.encodePacked(_airline, _timestamp));\n  }\n\n  /*__________________________________ORACLE______________________________*/\n\n  \n  /********************************************************************************************/\n  /*                               ORACLE STATE VARIABLES                                    */\n  /******************************************************************************************/\n  // Number of oracles that must respond for valid status\n  uint256 private constant  MIN_RESPONSES = 3;\n\n  struct Oracle {\n    bool isRegistered;\n    uint8[3] indexes;\n  }\n\n  // Track all registered oracles\n  mapping(address => Oracle) private oracles; \n\n  // Model for responses from oracles\n  struct ResponseInfo {\n    address requester;  // account that triggered the requested status\n    bool isOpen;        // if open, oracle responses are accepted\n    mapping(uint8 => address[]) responses; // key is the status code reported\n  }\n\n  // Track all oracle responses \n  mapping(bytes32 => ResponseInfo) oracleResponses;\n\n\n  /********************************************************************************************/\n  /*                                    ORACLE  EVENTS                                             */\n  /******************************************************************************************/\n  event LogOracleRegistered(address indexed oracle, uint8[3] indexes);\n\n  // Event fired each time an oracle submits a response\n  event LogFlightStatusInfo(address airline, string flight, uint256 timestamp, uint8 statusCode);\n\n  event LogOracleReport(address airline, string airlineName, uint256 timestamp, uint8 status);\n\n  /********************************************************************************************/\n  /*                                      ORACLE CORE FUNCTIONS                              */\n  /******************************************************************************************/\n  function registerOracle(uint8[3] memory _indexes) external payable {\n    require(!oracles[tx.origin].isRegistered, 'OR. registered');\n    require(_indexes.length == 3, 'IND. Req');\n    oracles[tx.origin] = Oracle({\n      isRegistered: true,\n      indexes: _indexes\n    });\n\n    emit LogOracleRegistered(tx.origin, _indexes);\n  }\n  \n\n  /**\n    * @dev Called by oracle in response to an outstanding request\n    * response is only valid if there's a pending open request status  and  that its responxe index matches that which was assigned during oracle registration\n   */\n  function submitOracleResponse\n    (\n      uint8 _index, \n      address _airline, \n      string memory _airlineName, \n      uint256 _timestamp, \n      uint8 _statusCode\n    ) external \n  {\n    require((oracles[msg.sender].indexes[0] == _index) || (oracles[msg.sender].indexes[1] == _index) || (oracles[msg.sender].indexes[2] == _index), 'IDX mismatch');\n    bytes32 key = keccak256(abi.encodePacked(_index, _airline, _airlineName, _timestamp));\n    require(oracleResponses[key].isOpen, 'Fli. or timest. mismatch');\n    oracleResponses[key].responses[_statusCode].push(msg.sender);\n\n    // oracle response is not valid until MIN_RESPONSES threshold is reached\n    emit LogOracleReport(msg.sender, _airlineName, _timestamp, _statusCode);\n    if(oracleResponses[key].responses[_statusCode].length >= MIN_RESPONSES) {\n      emit LogFlightStatusInfo(_airline, _airlineName, _timestamp, _statusCode);\n      processFlightStatus(_airline, _timestamp, _statusCode);\n    }\n  }\n\n  /********************************************************************************************/\n  /*                                      ORACLE UTILITY FUNCTIONS                           */\n  /******************************************************************************************/\n  function getOracleIndexes() external view returns(uint8[3] memory) {\n    require(oracles[msg.sender].isRegistered, 'caller not registered oracle');\n    return oracles[msg.sender].indexes;\n\n  }\n\n  function isOracleRegistered(address _account) public view returns(bool) {\n    return oracles[_account].isRegistered;\n  }\n\n \n \n  /*__________________________________PASSENGER_______________________________*/\n\n\n  /********************************************************************************************/\n  /*                                      PASSENGER STATE VARIABLE FUNCTIONS                            */\n  /********************************************************************************************/\n\n  enum PassengerInsuranceState {\n    Unassigned,\n    Paid,\n    Claimed\n  }\n\n  struct Insurance {\n    uint256 id;\n    address flightAddress;\n    address passenger;\n    string flightName;\n    uint256 amount;\n    PassengerInsuranceState state;\n    uint256 refundAmount;\n  }\n\n  mapping(address =>  Insurance) passengersInsurance;\n\n  \n  uint256 public constant PASSENGER_INSURANCE_FEE = 1 ether;\n\n\n  /********************************************************************************************/\n  /*                                       EVENT                            */\n  /********************************************************************************************/\n  event LogPassengerInsurance(address indexed account, uint256 amount);\n\n\n  /*******************************************************************************************/\n  /*                                       PASSENGER FUNCTIONS                         */\n  /*****************************************************************************************/\n\n  function payInsurance(uint256 _flightId)  external payable {\n    require(_flightId != 0 || _flightId <= flightCounter, 'invalid flight id');\n\n    bytes32 key = flightKeys[_flightId];\n    require(_flightId == flights[key].id, \"flight does not exist\");\n\n    \n    // require(airlines[_account].status == AirlineStatus.Committed, 'flight does not exist');\n    // require(passengersInsurance[tx.origin].state == PassengerInsuranceState.Unassigned, 'insurance exits');\n    (uint256 id, string memory name, address airlineAccount,) = this.getAirlineDetails(flights[key].airline);\n\n    require(msg.value <= PASSENGER_INSURANCE_FEE, '1ETH insurance must be paid');\n    (bool send, ) = address(this).call{value: msg.value}('');\n    require(send, 'failed to send ETH');\n\n    passengersInsurance[msg.sender] = Insurance({\n      id: id,\n      flightAddress: airlineAccount,\n      passenger: msg.sender,\n      flightName: name, \n      amount: msg.value,\n      state: PassengerInsuranceState.Paid,\n      refundAmount: 0\n    });\n\n    emit LogPassengerInsurance(msg.sender, passengersInsurance[msg.sender].amount);\n  }\n\n  /*******************************************************************************************/\n  /*                                       PASSENGER UTILITY FUNCTIONS                         */\n  /*****************************************************************************************/\n  function getPassengerDetails(address _account) external view returns\n    (\n      uint256 id, \n      address flightAddress,\n      string memory flightName, \n      address passenger, \n      string memory state, \n      uint256 amount, \n      uint256 refundAmount\n    ) \n  \n  {\n    uint8 passengerState = uint8(passengersInsurance[_account].state);\n    if(passengerState == 0) {\n      state = 'Unassigned';\n    } else if(passengerState == 1) {\n      state = 'Paid';\n    } else if(passengerState == 2) {\n      state = 'Claimed';\n    } \n    \n    id = passengersInsurance[_account].id;\n    flightName = passengersInsurance[_account].flightName;\n    flightAddress = passengersInsurance[_account].flightAddress;\n    passenger = passengersInsurance[_account].passenger;\n    amount = passengersInsurance[_account].amount;\n    refundAmount = passengersInsurance[_account].refundAmount;\n    \n    return (id, flightAddress, flightName, passenger, state, amount, refundAmount);\n    \n  }\n\n  function getPassengerBalance(address _account) external view returns(uint256) {\n    return passengersInsurance[_account].amount;\n  }\n\n\n  /********************************************************************************************/\n  /*                                      CONTRACT RECEIVE ETHER                                */\n  /********************************************************************************************/\n  receive() payable external {\n\n  }\n\n}\n",
  "sourcePath": "/home/sprtd/Desktop/Udacity/lesson-5-flight-surety/flight-surety-project/contracts/FlightSuretyData.sol",
  "compiler": {
    "name": "solc",
    "version": "0.8.9+commit.e5eed63a.Emscripten.clang"
  },
  "schemaVersion": "3.4.3",
  "updatedAt": "2021-11-05T05:23:06.940Z",
  "networkType": "ethereum",
  "devdoc": {
    "kind": "dev",
    "methods": {
      "submitOracleResponse(uint8,address,string,uint256,uint8)": {
        "details": "Called by oracle in response to an outstanding request response is only valid if there's a pending open request status  and  that its responxe index matches that which was assigned during oracle registration"
      }
    },
    "version": 1
  },
  "userdoc": {
    "kind": "user",
    "methods": {},
    "version": 1
  }
}