{
  "contractName": "FlightSuretyData",
  "abi": [
    {
      "anonymous": false,
      "inputs": [
        {
          "indexed": true,
          "internalType": "address",
          "name": "account",
          "type": "address"
        },
        {
          "indexed": false,
          "internalType": "uint256",
          "name": "timestamp",
          "type": "uint256"
        },
        {
          "indexed": false,
          "internalType": "string",
          "name": "airlineStatus",
          "type": "string"
        }
      ],
      "name": "LogCreatedAirline",
      "type": "event"
    },
    {
      "anonymous": false,
      "inputs": [
        {
          "indexed": false,
          "internalType": "bytes32",
          "name": "flightKey",
          "type": "bytes32"
        },
        {
          "indexed": true,
          "internalType": "address",
          "name": "airline",
          "type": "address"
        },
        {
          "indexed": false,
          "internalType": "uint256",
          "name": "timestamp",
          "type": "uint256"
        },
        {
          "indexed": false,
          "internalType": "uint8",
          "name": "statusCode",
          "type": "uint8"
        }
      ],
      "name": "LogFlightRegistered",
      "type": "event"
    },
    {
      "anonymous": false,
      "inputs": [
        {
          "indexed": false,
          "internalType": "address",
          "name": "airline",
          "type": "address"
        },
        {
          "indexed": false,
          "internalType": "string",
          "name": "flight",
          "type": "string"
        },
        {
          "indexed": false,
          "internalType": "uint256",
          "name": "timestamp",
          "type": "uint256"
        },
        {
          "indexed": false,
          "internalType": "uint8",
          "name": "status",
          "type": "uint8"
        }
      ],
      "name": "LogFlightStatusInfo",
      "type": "event"
    },
    {
      "anonymous": false,
      "inputs": [
        {
          "indexed": true,
          "internalType": "address",
          "name": "airline",
          "type": "address"
        },
        {
          "indexed": false,
          "internalType": "uint256",
          "name": "timestamp",
          "type": "uint256"
        }
      ],
      "name": "LogFlightStatusProcessed",
      "type": "event"
    },
    {
      "anonymous": false,
      "inputs": [
        {
          "indexed": false,
          "internalType": "address",
          "name": "airline",
          "type": "address"
        },
        {
          "indexed": false,
          "internalType": "string",
          "name": "flight",
          "type": "string"
        },
        {
          "indexed": false,
          "internalType": "uint256",
          "name": "timestamp",
          "type": "uint256"
        },
        {
          "indexed": false,
          "internalType": "uint8",
          "name": "status",
          "type": "uint8"
        }
      ],
      "name": "LogOracleReport",
      "type": "event"
    },
    {
      "anonymous": false,
      "inputs": [
        {
          "indexed": false,
          "internalType": "uint8",
          "name": "index",
          "type": "uint8"
        },
        {
          "indexed": false,
          "internalType": "address",
          "name": "airline",
          "type": "address"
        },
        {
          "indexed": false,
          "internalType": "string",
          "name": "flight",
          "type": "string"
        },
        {
          "indexed": false,
          "internalType": "uint256",
          "name": "timestamp",
          "type": "uint256"
        }
      ],
      "name": "LogOracleRequest",
      "type": "event"
    },
    {
      "anonymous": false,
      "inputs": [
        {
          "indexed": true,
          "internalType": "address",
          "name": "account",
          "type": "address"
        },
        {
          "indexed": false,
          "internalType": "uint256",
          "name": "amount",
          "type": "uint256"
        }
      ],
      "name": "LogPassengerInsurance",
      "type": "event"
    },
    {
      "anonymous": false,
      "inputs": [
        {
          "indexed": true,
          "internalType": "address",
          "name": "account",
          "type": "address"
        },
        {
          "indexed": false,
          "internalType": "string",
          "name": "airlineStatus",
          "type": "string"
        }
      ],
      "name": "LogStatusUpdated",
      "type": "event"
    },
    {
      "inputs": [],
      "name": "PASSENGER_INSURANCE_FEE",
      "outputs": [
        {
          "internalType": "uint256",
          "name": "",
          "type": "uint256"
        }
      ],
      "stateMutability": "view",
      "type": "function",
      "constant": true
    },
    {
      "inputs": [
        {
          "internalType": "string",
          "name": "_name",
          "type": "string"
        },
        {
          "internalType": "address",
          "name": "_account",
          "type": "address"
        }
      ],
      "name": "createNewAirline",
      "outputs": [],
      "stateMutability": "nonpayable",
      "type": "function"
    },
    {
      "inputs": [],
      "name": "disableOperational",
      "outputs": [],
      "stateMutability": "nonpayable",
      "type": "function"
    },
    {
      "inputs": [
        {
          "internalType": "bool",
          "name": "_status",
          "type": "bool"
        }
      ],
      "name": "enableOperationalStatus",
      "outputs": [],
      "stateMutability": "nonpayable",
      "type": "function"
    },
    {
      "inputs": [],
      "name": "flightCounter",
      "outputs": [
        {
          "internalType": "uint256",
          "name": "",
          "type": "uint256"
        }
      ],
      "stateMutability": "view",
      "type": "function",
      "constant": true
    },
    {
      "inputs": [
        {
          "internalType": "uint256",
          "name": "",
          "type": "uint256"
        }
      ],
      "name": "flightKeys",
      "outputs": [
        {
          "internalType": "bytes32",
          "name": "",
          "type": "bytes32"
        }
      ],
      "stateMutability": "view",
      "type": "function",
      "constant": true
    },
    {
      "inputs": [
        {
          "internalType": "address",
          "name": "_account",
          "type": "address"
        }
      ],
      "name": "getAirlineApplicationStatus",
      "outputs": [
        {
          "internalType": "string",
          "name": "status",
          "type": "string"
        }
      ],
      "stateMutability": "view",
      "type": "function",
      "constant": true
    },
    {
      "inputs": [
        {
          "internalType": "address",
          "name": "_account",
          "type": "address"
        }
      ],
      "name": "getAirlineAuthorizationStatus",
      "outputs": [
        {
          "internalType": "bool",
          "name": "status",
          "type": "bool"
        }
      ],
      "stateMutability": "view",
      "type": "function",
      "constant": true
    },
    {
      "inputs": [
        {
          "internalType": "address",
          "name": "_account",
          "type": "address"
        }
      ],
      "name": "getAirlineBalance",
      "outputs": [
        {
          "internalType": "uint256",
          "name": "",
          "type": "uint256"
        }
      ],
      "stateMutability": "view",
      "type": "function",
      "constant": true
    },
    {
      "inputs": [
        {
          "internalType": "address",
          "name": "_account",
          "type": "address"
        }
      ],
      "name": "getAirlineDetails",
      "outputs": [
        {
          "internalType": "uint256",
          "name": "id",
          "type": "uint256"
        },
        {
          "internalType": "string",
          "name": "name",
          "type": "string"
        },
        {
          "internalType": "address",
          "name": "airlineAccount",
          "type": "address"
        },
        {
          "internalType": "string",
          "name": "state",
          "type": "string"
        }
      ],
      "stateMutability": "view",
      "type": "function",
      "constant": true
    },
    {
      "inputs": [],
      "name": "getDataBalance",
      "outputs": [
        {
          "internalType": "uint256",
          "name": "",
          "type": "uint256"
        }
      ],
      "stateMutability": "view",
      "type": "function",
      "constant": true
    },
    {
      "inputs": [],
      "name": "getOperationalStatus",
      "outputs": [
        {
          "internalType": "bool",
          "name": "",
          "type": "bool"
        }
      ],
      "stateMutability": "view",
      "type": "function",
      "constant": true
    },
    {
      "inputs": [],
      "name": "getOwner",
      "outputs": [
        {
          "internalType": "address",
          "name": "",
          "type": "address"
        }
      ],
      "stateMutability": "view",
      "type": "function",
      "constant": true
    },
    {
      "inputs": [],
      "name": "getTotalAppliedAirlines",
      "outputs": [
        {
          "internalType": "uint256",
          "name": "",
          "type": "uint256"
        }
      ],
      "stateMutability": "view",
      "type": "function",
      "constant": true
    },
    {
      "inputs": [],
      "name": "getTotalRegisteredAirlines",
      "outputs": [
        {
          "internalType": "uint256",
          "name": "",
          "type": "uint256"
        }
      ],
      "stateMutability": "view",
      "type": "function",
      "constant": true
    },
    {
      "inputs": [
        {
          "internalType": "address",
          "name": "_account",
          "type": "address"
        }
      ],
      "name": "isAirlineCommitted",
      "outputs": [
        {
          "internalType": "bool",
          "name": "checkStatus",
          "type": "bool"
        }
      ],
      "stateMutability": "view",
      "type": "function",
      "constant": true
    },
    {
      "inputs": [
        {
          "internalType": "address",
          "name": "_account",
          "type": "address"
        }
      ],
      "name": "isAirlineRegistered",
      "outputs": [
        {
          "internalType": "bool",
          "name": "checkStatus",
          "type": "bool"
        }
      ],
      "stateMutability": "view",
      "type": "function",
      "constant": true
    },
    {
      "inputs": [
        {
          "internalType": "address",
          "name": "_account",
          "type": "address"
        }
      ],
      "name": "onlyAuthorizeRegistrants",
      "outputs": [],
      "stateMutability": "view",
      "type": "function",
      "constant": true
    },
    {
      "inputs": [
        {
          "internalType": "address",
          "name": "_account",
          "type": "address"
        }
      ],
      "name": "onlyAuthorizedAirlines",
      "outputs": [],
      "stateMutability": "view",
      "type": "function",
      "constant": true
    },
    {
      "inputs": [
        {
          "internalType": "address",
          "name": "_account",
          "type": "address"
        }
      ],
      "name": "onlyRegisteredAirlines",
      "outputs": [],
      "stateMutability": "view",
      "type": "function",
      "constant": true
    },
    {
      "inputs": [
        {
          "internalType": "bool",
          "name": "_status",
          "type": "bool"
        }
      ],
      "name": "setOperatinalStatus",
      "outputs": [],
      "stateMutability": "nonpayable",
      "type": "function"
    },
    {
      "inputs": [
        {
          "internalType": "address",
          "name": "_account",
          "type": "address"
        },
        {
          "internalType": "uint8",
          "name": "_state",
          "type": "uint8"
        }
      ],
      "name": "updateAirlineStatus",
      "outputs": [],
      "stateMutability": "nonpayable",
      "type": "function"
    },
    {
      "inputs": [
        {
          "internalType": "uint8",
          "name": "_state",
          "type": "uint8"
        }
      ],
      "name": "updateToCommitState",
      "outputs": [],
      "stateMutability": "payable",
      "type": "function",
      "payable": true
    },
    {
      "stateMutability": "payable",
      "type": "receive",
      "payable": true
    },
    {
      "inputs": [
        {
          "internalType": "uint8",
          "name": "_statusCode",
          "type": "uint8"
        }
      ],
      "name": "registerFlight",
      "outputs": [],
      "stateMutability": "nonpayable",
      "type": "function"
    },
    {
      "inputs": [
        {
          "internalType": "address",
          "name": "_airline",
          "type": "address"
        },
        {
          "internalType": "uint256",
          "name": "_timestamp",
          "type": "uint256"
        }
      ],
      "name": "fetchFlightStatus",
      "outputs": [],
      "stateMutability": "nonpayable",
      "type": "function"
    },
    {
      "inputs": [
        {
          "internalType": "uint256",
          "name": "_flightId",
          "type": "uint256"
        }
      ],
      "name": "getFlightDetails",
      "outputs": [
        {
          "internalType": "uint256",
          "name": "id",
          "type": "uint256"
        },
        {
          "internalType": "address",
          "name": "airline",
          "type": "address"
        },
        {
          "internalType": "string",
          "name": "flightName",
          "type": "string"
        },
        {
          "internalType": "uint8",
          "name": "statusCode",
          "type": "uint8"
        },
        {
          "internalType": "bytes32",
          "name": "flightKey",
          "type": "bytes32"
        },
        {
          "internalType": "uint256",
          "name": "timestamp",
          "type": "uint256"
        }
      ],
      "stateMutability": "view",
      "type": "function",
      "constant": true
    },
    {
      "inputs": [
        {
          "internalType": "address",
          "name": "_airline",
          "type": "address"
        },
        {
          "internalType": "uint256",
          "name": "_timestamp",
          "type": "uint256"
        }
      ],
      "name": "generateFlightKey",
      "outputs": [
        {
          "internalType": "bytes32",
          "name": "",
          "type": "bytes32"
        }
      ],
      "stateMutability": "pure",
      "type": "function",
      "constant": true
    },
    {
      "inputs": [],
      "name": "registerOracle",
      "outputs": [],
      "stateMutability": "payable",
      "type": "function",
      "payable": true
    },
    {
      "inputs": [],
      "name": "getOracleIndexes",
      "outputs": [
        {
          "internalType": "uint8[3]",
          "name": "",
          "type": "uint8[3]"
        }
      ],
      "stateMutability": "view",
      "type": "function",
      "constant": true
    },
    {
      "inputs": [
        {
          "internalType": "address",
          "name": "_account",
          "type": "address"
        }
      ],
      "name": "isOracleRegistered",
      "outputs": [
        {
          "internalType": "bool",
          "name": "",
          "type": "bool"
        }
      ],
      "stateMutability": "view",
      "type": "function",
      "constant": true
    },
    {
      "inputs": [
        {
          "internalType": "uint256",
          "name": "_flightId",
          "type": "uint256"
        }
      ],
      "name": "payInsurance",
      "outputs": [],
      "stateMutability": "payable",
      "type": "function",
      "payable": true
    },
    {
      "inputs": [
        {
          "internalType": "address",
          "name": "_account",
          "type": "address"
        }
      ],
      "name": "getPassengerDetails",
      "outputs": [
        {
          "internalType": "uint256",
          "name": "id",
          "type": "uint256"
        },
        {
          "internalType": "address",
          "name": "flightAddress",
          "type": "address"
        },
        {
          "internalType": "string",
          "name": "flightName",
          "type": "string"
        },
        {
          "internalType": "address",
          "name": "passenger",
          "type": "address"
        },
        {
          "internalType": "string",
          "name": "state",
          "type": "string"
        },
        {
          "internalType": "uint256",
          "name": "amount",
          "type": "uint256"
        },
        {
          "internalType": "uint256",
          "name": "refundAmount",
          "type": "uint256"
        }
      ],
      "stateMutability": "view",
      "type": "function",
      "constant": true
    },
    {
      "inputs": [
        {
          "internalType": "address",
          "name": "_account",
          "type": "address"
        }
      ],
      "name": "getPassengerBalance",
      "outputs": [
        {
          "internalType": "uint256",
          "name": "",
          "type": "uint256"
        }
      ],
      "stateMutability": "view",
      "type": "function",
      "constant": true
    }
  ],
  "bytecode": "0x608060405260006005556000600860006101000a81548160ff021916908360ff16021790555034801561003157600080fd5b5033600160006101000a81548173ffffffffffffffffffffffffffffffffffffffff021916908373ffffffffffffffffffffffffffffffffffffffff16021790555060018060146101000a81548160ff0219169083151502179055506147d98061009c6000396000f3fe6080604052600436106101f25760003560e01c80638042601f1161010d578063bf0a4f32116100a0578063d539e7ef1161006f578063d539e7ef1461071d578063e0313fe61461075a578063efa3327b14610785578063efbd588e146107b0578063f243be18146107f3576101f9565b8063bf0a4f3214610677578063c36515b6146106a0578063c968089e146106cb578063d1fc5c51146106f4576101f9565b8063994de453116100dc578063994de453146105bb578063aee1b2a1146105e6578063b10f057b14610611578063b9b55c9a1461063a576101f9565b80638042601f146104ed578063837ee7551461052a57806389208e7214610553578063893d20e814610590576101f9565b806336061cca11610185578063508e264e11610154578063508e264e146104425780635addd35a1461045e57806369beb8fb146104875780637008414d146104c4576101f9565b806336061cca1461036c578063385de787146103885780633d21d827146103c55780634e08804614610402576101f9565b806318535008116101c157806318535008146102ba57806319c19f9b146102fc5780633063b87a14610325578063339d259014610362576101f9565b8063010c5c97146101fe5780630b2653d51461023b5780630c98267314610264578063175a2ead1461028f576101f9565b366101f957005b600080fd5b34801561020a57600080fd5b50610225600480360381019061022091906133a0565b61080a565b60405161023291906133e8565b60405180910390f35b34801561024757600080fd5b50610262600480360381019061025d9190613549565b610891565b005b34801561027057600080fd5b50610279610b81565b60405161028691906133e8565b60405180910390f35b34801561029b57600080fd5b506102a4610b98565b6040516102b1919061365d565b60405180910390f35b3480156102c657600080fd5b506102e160048036038101906102dc91906136ae565b610cd8565b6040516102f3969594939291906137a9565b60405180910390f35b34801561030857600080fd5b50610323600480360381019061031e9190613811565b610e9f565b005b34801561033157600080fd5b5061034c600480360381019061034791906133a0565b611038565b60405161035991906133e8565b60405180910390f35b61036a6110bf565b005b6103866004803603810190610381919061387d565b6111f1565b005b34801561039457600080fd5b506103af60048036038101906103aa91906133a0565b6114ab565b6040516103bc91906138aa565b60405180910390f35b3480156103d157600080fd5b506103ec60048036038101906103e791906136ae565b6114f7565b6040516103f991906138c5565b60405180910390f35b34801561040e57600080fd5b50610429600480360381019061042491906133a0565b61150f565b60405161043994939291906138e0565b60405180910390f35b61045c600480360381019061045791906136ae565b61181f565b005b34801561046a57600080fd5b50610485600480360381019061048091906133a0565b611ced565b005b34801561049357600080fd5b506104ae60048036038101906104a991906133a0565b611da6565b6040516104bb9190613933565b60405180910390f35b3480156104d057600080fd5b506104eb60048036038101906104e69190613981565b611e48565b005b3480156104f957600080fd5b50610514600480360381019061050f91906133a0565b611f26565b60405161052191906133e8565b60405180910390f35b34801561053657600080fd5b50610551600480360381019061054c91906133a0565b61203c565b005b34801561055f57600080fd5b5061057a600480360381019061057591906133a0565b6121cb565b60405161058791906138aa565b60405180910390f35b34801561059c57600080fd5b506105a56121ec565b6040516105b291906139ae565b60405180910390f35b3480156105c757600080fd5b506105d0612216565b6040516105dd91906138aa565b60405180910390f35b3480156105f257600080fd5b506105fb612220565b60405161060891906138aa565b60405180910390f35b34801561061d57600080fd5b50610638600480360381019061063391906139c9565b612226565b005b34801561064657600080fd5b50610661600480360381019061065c91906133a0565b6125cd565b60405161066e91906133e8565b60405180910390f35b34801561068357600080fd5b5061069e600480360381019061069991906133a0565b612626565b005b3480156106ac57600080fd5b506106b5612737565b6040516106c291906138aa565b60405180910390f35b3480156106d757600080fd5b506106f260048036038101906106ed9190613981565b612743565b005b34801561070057600080fd5b5061071b6004803603810190610716919061387d565b6127be565b005b34801561072957600080fd5b50610744600480360381019061073f9190613811565b612ac7565b60405161075191906138c5565b60405180910390f35b34801561076657600080fd5b5061076f612afa565b60405161077c91906138aa565b60405180910390f35b34801561079157600080fd5b5061079a612b02565b6040516107a791906138aa565b60405180910390f35b3480156107bc57600080fd5b506107d760048036038101906107d291906133a0565b612b0b565b6040516107ea9796959493929190613a09565b60405180910390f35b3480156107ff57600080fd5b50610808612ec8565b005b600080600360008473ffffffffffffffffffffffffffffffffffffffff1673ffffffffffffffffffffffffffffffffffffffff16815260200190815260200160002060020160009054906101000a900460ff16600381111561086f5761086e613a86565b5b905060028160ff161415610886576001915061088b565b600091505b50919050565b600060038111156108a5576108a4613a86565b5b600360008373ffffffffffffffffffffffffffffffffffffffff1673ffffffffffffffffffffffffffffffffffffffff16815260200190815260200160002060020160009054906101000a900460ff16600381111561090757610906613a86565b5b14610947576040517f08c379a000000000000000000000000000000000000000000000000000000000815260040161093e90613b01565b60405180910390fd5b61095d6001600054612ef090919063ffffffff16565b60008190555060405180608001604052806000548152602001838152602001600160038111156109905761098f613a86565b5b81526020018273ffffffffffffffffffffffffffffffffffffffff16815250600360008373ffffffffffffffffffffffffffffffffffffffff1673ffffffffffffffffffffffffffffffffffffffff168152602001908152602001600020600082015181600001556020820151816001019080519060200190610a149291906131cf565b5060408201518160020160006101000a81548160ff02191690836003811115610a4057610a3f613a86565b5b021790555060608201518160020160016101000a81548173ffffffffffffffffffffffffffffffffffffffff021916908373ffffffffffffffffffffffffffffffffffffffff16021790555090505060603073ffffffffffffffffffffffffffffffffffffffff16634e088046836040518263ffffffff1660e01b8152600401610aca91906139ae565b60006040518083038186803b158015610ae257600080fd5b505afa158015610af6573d6000803e3d6000fd5b505050506040513d6000823e3d601f19601f82011682018060405250810190610b1f9190613bbb565b909192509091509050809150503373ffffffffffffffffffffffffffffffffffffffff167fce1dee3a3a541bee70a1b6baacdea5a02354238bbbeac531a8ddaceaa2a37aff4283604051610b74929190613c5a565b60405180910390a2505050565b6000600160149054906101000a900460ff16905090565b610ba0613255565b600960003373ffffffffffffffffffffffffffffffffffffffff1673ffffffffffffffffffffffffffffffffffffffff16815260200190815260200160002060000160009054906101000a900460ff16610c2f576040517f08c379a0000000000000000000000000000000000000000000000000000000008152600401610c2690613cd6565b60405180910390fd5b600960003373ffffffffffffffffffffffffffffffffffffffff1673ffffffffffffffffffffffffffffffffffffffff168152602001908152602001600020600101600380602002604051908101604052809291908260038015610cce576020028201916000905b82829054906101000a900460ff1660ff1681526020019060010190602082600001049283019260010382029150808411610c975790505b5050505050905090565b600080606060008060008087141580610cf357506005548711155b610d32576040517f08c379a0000000000000000000000000000000000000000000000000000000008152600401610d2990613d42565b60405180910390fd5b600060076000898152602001908152602001600020549050600660008281526020019081526020016000206000015496506006600082815260200190815260200160002060010160009054906101000a900473ffffffffffffffffffffffffffffffffffffffff169550600660008281526020019081526020016000206002018054610dbd90613d91565b80601f0160208091040260200160405190810160405280929190818152602001828054610de990613d91565b8015610e365780601f10610e0b57610100808354040283529160200191610e36565b820191906000526020600020905b815481529060010190602001808311610e1957829003601f168201915b505050505094506006600082815260200190815260200160002060030160009054906101000a900460ff16935060066000828152602001908152602001600020600401549250600660008281526020019081526020016000206005015491505091939550919395565b6000610eaa33612f06565b90506000818484604051602001610ec393929190613e62565b60405160208183030381529060405280519060200120905033600a600083815260200190815260200160002060000160006101000a81548173ffffffffffffffffffffffffffffffffffffffff021916908373ffffffffffffffffffffffffffffffffffffffff1602179055506001600a600083815260200190815260200160002060000160146101000a81548160ff02191690831515021790555060003073ffffffffffffffffffffffffffffffffffffffff16634e088046866040518263ffffffff1660e01b8152600401610f9a91906139ae565b60006040518083038186803b158015610fb257600080fd5b505afa158015610fc6573d6000803e3d6000fd5b505050506040513d6000823e3d601f19601f82011682018060405250810190610fef9190613bbb565b50509150507f3a0e43c5577f0995b7cca5df8615d0aa2a07d84830fec6f0f8d1103d74ab584e838683876040516110299493929190613e9f565b60405180910390a15050505050565b600080600360008473ffffffffffffffffffffffffffffffffffffffff1673ffffffffffffffffffffffffffffffffffffffff16815260200190815260200160002060020160009054906101000a900460ff16600381111561109d5761109c613a86565b5b905060038160ff1614156110b457600191506110b9565b600091505b50919050565b600960003273ffffffffffffffffffffffffffffffffffffffff1673ffffffffffffffffffffffffffffffffffffffff16815260200190815260200160002060000160009054906101000a900460ff161561114f576040517f08c379a000000000000000000000000000000000000000000000000000000000815260040161114690613f37565b60405180910390fd5b600061115a32612fd2565b9050604051806040016040528060011515815260200182815250600960003273ffffffffffffffffffffffffffffffffffffffff1673ffffffffffffffffffffffffffffffffffffffff16815260200190815260200160002060008201518160000160006101000a81548160ff0219169083151502179055506020820151816001019060036111ea929190613277565b5090505050565b323073ffffffffffffffffffffffffffffffffffffffff1663bf0a4f32826040518263ffffffff1660e01b815260040161122b91906139ae565b60006040518083038186803b15801561124357600080fd5b505afa158015611257573d6000803e3d6000fd5b505050506000600360003273ffffffffffffffffffffffffffffffffffffffff1673ffffffffffffffffffffffffffffffffffffffff16815260200190815260200160002060020160009054906101000a900460ff1660038111156112bf576112be613a86565b5b905060038360ff161115611308576040517f08c379a00000000000000000000000000000000000000000000000000000000081526004016112ff90613fa3565b60405180910390fd5b8060ff168360ff1611611350576040517f08c379a000000000000000000000000000000000000000000000000000000000815260040161134790614035565b60405180910390fd5b60038060003273ffffffffffffffffffffffffffffffffffffffff1673ffffffffffffffffffffffffffffffffffffffff16815260200190815260200160002060020160006101000a81548160ff021916908360038111156113b5576113b4613a86565b5b021790555060603073ffffffffffffffffffffffffffffffffffffffff16634e088046326040518263ffffffff1660e01b81526004016113f591906139ae565b60006040518083038186803b15801561140d57600080fd5b505afa158015611421573d6000803e3d6000fd5b505050506040513d6000823e3d601f19601f8201168201806040525081019061144a9190613bbb565b909192509091509050809150503273ffffffffffffffffffffffffffffffffffffffff167f430b758c1e0fe319aaa192e7d56d4f39ae97698a3a489e48954ea3ce634c26e18260405161149d9190613933565b60405180910390a250505050565b6000600b60008373ffffffffffffffffffffffffffffffffffffffff1673ffffffffffffffffffffffffffffffffffffffff168152602001908152602001600020600401549050919050565b60076020528060005260406000206000915090505481565b60006060600060606000600360008773ffffffffffffffffffffffffffffffffffffffff1673ffffffffffffffffffffffffffffffffffffffff16815260200190815260200160002060020160009054906101000a900460ff16600381111561157b5761157a613a86565b5b905060008160ff1614156115c6576040518060400160405280600a81526020017f556e61737369676e65640000000000000000000000000000000000000000000081525091506116a0565b60018160ff16141561160f576040518060400160405280600781526020017f4170706c69656400000000000000000000000000000000000000000000000000815250915061169f565b60028160ff161415611658576040518060400160405280600a81526020017f5265676973746572656400000000000000000000000000000000000000000000815250915061169e565b60038160ff16141561169d576040518060400160405280600981526020017f436f6d6d6974746564000000000000000000000000000000000000000000000081525091505b5b5b5b600360008773ffffffffffffffffffffffffffffffffffffffff1673ffffffffffffffffffffffffffffffffffffffff168152602001908152602001600020600001549450600360008773ffffffffffffffffffffffffffffffffffffffff1673ffffffffffffffffffffffffffffffffffffffff168152602001908152602001600020600101805461173290613d91565b80601f016020809104026020016040519081016040528092919081815260200182805461175e90613d91565b80156117ab5780601f10611780576101008083540402835291602001916117ab565b820191906000526020600020905b81548152906001019060200180831161178e57829003601f168201915b50505050509350600360008773ffffffffffffffffffffffffffffffffffffffff1673ffffffffffffffffffffffffffffffffffffffff16815260200190815260200160002060020160019054906101000a900473ffffffffffffffffffffffffffffffffffffffff169250509193509193565b60008114158061183157506005548111155b611870576040517f08c379a000000000000000000000000000000000000000000000000000000000815260040161186790613d42565b60405180910390fd5b600060076000838152602001908152602001600020549050600660008281526020019081526020016000206000015482146118e0576040517f08c379a00000000000000000000000000000000000000000000000000000000081526004016118d7906140a1565b60405180910390fd5b60008060003073ffffffffffffffffffffffffffffffffffffffff16634e0880466006600087815260200190815260200160002060010160009054906101000a900473ffffffffffffffffffffffffffffffffffffffff166040518263ffffffff1660e01b815260040161195491906139ae565b60006040518083038186803b15801561196c57600080fd5b505afa158015611980573d6000803e3d6000fd5b505050506040513d6000823e3d601f19601f820116820180604052508101906119a99190613bbb565b50925092509250670de0b6b3a76400003411156119fb576040517f08c379a00000000000000000000000000000000000000000000000000000000081526004016119f29061410d565b60405180910390fd5b60003073ffffffffffffffffffffffffffffffffffffffff1634604051611a219061415e565b60006040518083038185875af1925050503d8060008114611a5e576040519150601f19603f3d011682016040523d82523d6000602084013e611a63565b606091505b5050905080611aa7576040517f08c379a0000000000000000000000000000000000000000000000000000000008152600401611a9e906141bf565b60405180910390fd5b6040518060e001604052808581526020018373ffffffffffffffffffffffffffffffffffffffff1681526020013373ffffffffffffffffffffffffffffffffffffffff16815260200184815260200134815260200160016002811115611b1057611b0f613a86565b5b81526020016000815250600b60003373ffffffffffffffffffffffffffffffffffffffff1673ffffffffffffffffffffffffffffffffffffffff1681526020019081526020016000206000820151816000015560208201518160010160006101000a81548173ffffffffffffffffffffffffffffffffffffffff021916908373ffffffffffffffffffffffffffffffffffffffff16021790555060408201518160020160006101000a81548173ffffffffffffffffffffffffffffffffffffffff021916908373ffffffffffffffffffffffffffffffffffffffff1602179055506060820151816003019080519060200190611c0d9291906131cf565b506080820151816004015560a08201518160050160006101000a81548160ff02191690836002811115611c4357611c42613a86565b5b021790555060c082015181600601559050503373ffffffffffffffffffffffffffffffffffffffff167fd7973fc11875159721f15bfe308594241b8801c905a8745183c4557e8ce879fb600b60003373ffffffffffffffffffffffffffffffffffffffff1673ffffffffffffffffffffffffffffffffffffffff16815260200190815260200160002060040154604051611cdd91906138aa565b60405180910390a2505050505050565b60026003811115611d0157611d00613a86565b5b600360008373ffffffffffffffffffffffffffffffffffffffff1673ffffffffffffffffffffffffffffffffffffffff16815260200190815260200160002060020160009054906101000a900460ff166003811115611d6357611d62613a86565b5b14611da3576040517f08c379a0000000000000000000000000000000000000000000000000000000008152600401611d9a9061422b565b60405180910390fd5b50565b60603073ffffffffffffffffffffffffffffffffffffffff16634e088046836040518263ffffffff1660e01b8152600401611de191906139ae565b60006040518083038186803b158015611df957600080fd5b505afa158015611e0d573d6000803e3d6000fd5b505050506040513d6000823e3d601f19601f82011682018060405250810190611e369190613bbb565b90919250909150905080915050919050565b323073ffffffffffffffffffffffffffffffffffffffff16635addd35a826040518263ffffffff1660e01b8152600401611e8291906139ae565b60006040518083038186803b158015611e9a57600080fd5b505afa158015611eae573d6000803e3d6000fd5b50505050811515600160149054906101000a900460ff1615151415611f08576040517f08c379a0000000000000000000000000000000000000000000000000000000008152600401611eff90614297565b60405180910390fd5b81600160146101000a81548160ff0219169083151502179055505050565b600060016003811115611f3c57611f3b613a86565b5b600360008473ffffffffffffffffffffffffffffffffffffffff1673ffffffffffffffffffffffffffffffffffffffff16815260200190815260200160002060020160009054906101000a900460ff166003811115611f9e57611f9d613a86565b5b1415611fad5760019050612037565b60026003811115611fc157611fc0613a86565b5b600360008473ffffffffffffffffffffffffffffffffffffffff1673ffffffffffffffffffffffffffffffffffffffff16815260200190815260200160002060020160009054906101000a900460ff16600381111561202357612022613a86565b5b14156120325760019050612037565b600090505b919050565b600160009054906101000a900473ffffffffffffffffffffffffffffffffffffffff1673ffffffffffffffffffffffffffffffffffffffff168173ffffffffffffffffffffffffffffffffffffffff16148061210b5750600160038111156120a7576120a6613a86565b5b600360008373ffffffffffffffffffffffffffffffffffffffff1673ffffffffffffffffffffffffffffffffffffffff16815260200190815260200160002060020160009054906101000a900460ff16600381111561210957612108613a86565b5b145b8061218957506002600381111561212557612124613a86565b5b600360008373ffffffffffffffffffffffffffffffffffffffff1673ffffffffffffffffffffffffffffffffffffffff16815260200190815260200160002060020160009054906101000a900460ff16600381111561218757612186613a86565b5b145b6121c8576040517f08c379a00000000000000000000000000000000000000000000000000000000081526004016121bf90614303565b60405180910390fd5b50565b60008173ffffffffffffffffffffffffffffffffffffffff16319050919050565b6000600160009054906101000a900473ffffffffffffffffffffffffffffffffffffffff16905090565b6000600254905090565b60055481565b813073ffffffffffffffffffffffffffffffffffffffff1663837ee755826040518263ffffffff1660e01b815260040161226091906139ae565b60006040518083038186803b15801561227857600080fd5b505afa15801561228c573d6000803e3d6000fd5b50505050600160149054906101000a900460ff166122df576040517f08c379a00000000000000000000000000000000000000000000000000000000081526004016122d69061436f565b60405180910390fd5b6000600360008573ffffffffffffffffffffffffffffffffffffffff1673ffffffffffffffffffffffffffffffffffffffff16815260200190815260200160002060020160009054906101000a900460ff16600381111561234357612342613a86565b5b905060038360ff16111561238c576040517f08c379a000000000000000000000000000000000000000000000000000000000815260040161238390613fa3565b60405180910390fd5b8060ff168360ff16116123d4576040517f08c379a00000000000000000000000000000000000000000000000000000000081526004016123cb90614035565b60405180910390fd5b6123dc612ec8565b8260ff1660038111156123f2576123f1613a86565b5b600360008673ffffffffffffffffffffffffffffffffffffffff1673ffffffffffffffffffffffffffffffffffffffff16815260200190815260200160002060020160006101000a81548160ff0219169083600381111561245657612455613a86565b5b02179055506124716001600254612ef090919063ffffffff16565b600281905550600360008573ffffffffffffffffffffffffffffffffffffffff1673ffffffffffffffffffffffffffffffffffffffff16815260200190815260200160002060020160009054906101000a900460ff1660038111156124d9576124d8613a86565b5b905060603073ffffffffffffffffffffffffffffffffffffffff16634e088046866040518263ffffffff1660e01b815260040161251691906139ae565b60006040518083038186803b15801561252e57600080fd5b505afa158015612542573d6000803e3d6000fd5b505050506040513d6000823e3d601f19601f8201168201806040525081019061256b9190613bbb565b909192509091509050809150508473ffffffffffffffffffffffffffffffffffffffff167f430b758c1e0fe319aaa192e7d56d4f39ae97698a3a489e48954ea3ce634c26e1826040516125be9190613933565b60405180910390a25050505050565b6000600960008373ffffffffffffffffffffffffffffffffffffffff1673ffffffffffffffffffffffffffffffffffffffff16815260200190815260200160002060000160009054906101000a900460ff169050919050565b6002600381111561263a57612639613a86565b5b600360008373ffffffffffffffffffffffffffffffffffffffff1673ffffffffffffffffffffffffffffffffffffffff16815260200190815260200160002060020160009054906101000a900460ff16600381111561269c5761269b613a86565b5b14806126f55750600160009054906101000a900473ffffffffffffffffffffffffffffffffffffffff1673ffffffffffffffffffffffffffffffffffffffff168173ffffffffffffffffffffffffffffffffffffffff16145b612734576040517f08c379a000000000000000000000000000000000000000000000000000000000815260040161272b906143db565b60405180910390fd5b50565b670de0b6b3a764000081565b61274b61313d565b801515600160149054906101000a900460ff16151514156127a1576040517f08c379a000000000000000000000000000000000000000000000000000000000815260040161279890614447565b60405180910390fd5b80600160146101000a81548160ff02191690831515021790555050565b60003073ffffffffffffffffffffffffffffffffffffffff16633063b87a336040518263ffffffff1660e01b81526004016127f991906139ae565b60206040518083038186803b15801561281157600080fd5b505afa158015612825573d6000803e3d6000fd5b505050506040513d601f19601f82011682018060405250810190612849919061447c565b90506001151581151514612892576040517f08c379a0000000000000000000000000000000000000000000000000000000008152600401612889906144f5565b60405180910390fd5b60008060003073ffffffffffffffffffffffffffffffffffffffff16634e088046336040518263ffffffff1660e01b81526004016128d091906139ae565b60006040518083038186803b1580156128e857600080fd5b505afa1580156128fc573d6000803e3d6000fd5b505050506040513d6000823e3d601f19601f820116820180604052508101906129259190613bbb565b509250925092506129426001600554612ef090919063ffffffff16565b60058190555060006129543342612ac7565b90508060076000868152602001908152602001600020819055506040518060c001604052808581526020018373ffffffffffffffffffffffffffffffffffffffff1681526020018481526020018760ff16815260200182815260200142815250600660008381526020019081526020016000206000820151816000015560208201518160010160006101000a81548173ffffffffffffffffffffffffffffffffffffffff021916908373ffffffffffffffffffffffffffffffffffffffff1602179055506040820151816002019080519060200190612a349291906131cf565b5060608201518160030160006101000a81548160ff021916908360ff1602179055506080820151816004015560a082015181600501559050503373ffffffffffffffffffffffffffffffffffffffff167f05023e85c1f832f6c16da81d43b114f6c4bce6fe45323820d27285d93cbb1b16824289604051612ab793929190614515565b60405180910390a2505050505050565b60008282604051602001612adc92919061454c565b60405160208183030381529060405280519060200120905092915050565b600047905090565b60008054905090565b6000806060600060606000806000600b60008a73ffffffffffffffffffffffffffffffffffffffff1673ffffffffffffffffffffffffffffffffffffffff16815260200190815260200160002060050160009054906101000a900460ff166002811115612b7b57612b7a613a86565b5b905060008160ff161415612bc6576040518060400160405280600a81526020017f556e61737369676e6564000000000000000000000000000000000000000000008152509350612c56565b60018160ff161415612c0f576040518060400160405280600481526020017f50616964000000000000000000000000000000000000000000000000000000008152509350612c55565b60028160ff161415612c54576040518060400160405280600781526020017f436c61696d65640000000000000000000000000000000000000000000000000081525093505b5b5b600b60008a73ffffffffffffffffffffffffffffffffffffffff1673ffffffffffffffffffffffffffffffffffffffff168152602001908152602001600020600001549750600b60008a73ffffffffffffffffffffffffffffffffffffffff1673ffffffffffffffffffffffffffffffffffffffff1681526020019081526020016000206003018054612ce890613d91565b80601f0160208091040260200160405190810160405280929190818152602001828054612d1490613d91565b8015612d615780601f10612d3657610100808354040283529160200191612d61565b820191906000526020600020905b815481529060010190602001808311612d4457829003601f168201915b50505050509550600b60008a73ffffffffffffffffffffffffffffffffffffffff1673ffffffffffffffffffffffffffffffffffffffff16815260200190815260200160002060010160009054906101000a900473ffffffffffffffffffffffffffffffffffffffff169650600b60008a73ffffffffffffffffffffffffffffffffffffffff1673ffffffffffffffffffffffffffffffffffffffff16815260200190815260200160002060020160009054906101000a900473ffffffffffffffffffffffffffffffffffffffff169450600b60008a73ffffffffffffffffffffffffffffffffffffffff1673ffffffffffffffffffffffffffffffffffffffff168152602001908152602001600020600401549250600b60008a73ffffffffffffffffffffffffffffffffffffffff1673ffffffffffffffffffffffffffffffffffffffff16815260200190815260200160002060060154915050919395979092949650565b600460025410612eee576000600160146101000a81548160ff0219169083151502179055505b565b60008183612efe91906145a7565b905092915050565b600080600a905060008160ff166008600081819054906101000a900460ff1680929190612f32906145fd565b91906101000a81548160ff021916908360ff16021790555060ff1643612f589190614627565b4085604051602001612f6b92919061467c565b6040516020818303038152906040528051906020012060001c612f8e91906146d7565b905060fa600860009054906101000a900460ff1660ff161115612fc8576000600860006101000a81548160ff021916908360ff1602179055505b8092505050919050565b612fda613255565b612fe2613255565b612feb83612f06565b81600060038110612fff57612ffe614708565b5b602002019060ff16908160ff16815250505b8060006003811061302557613024614708565b5b602002015160ff168160016003811061304157613040614708565b5b602002015160ff1614156130825761305883612f06565b8160016003811061306c5761306b614708565b5b602002019060ff16908160ff1681525050613011565b5b8060006003811061309757613096614708565b5b602002015160ff16816002600381106130b3576130b2614708565b5b602002015160ff1614806130fc5750806001600381106130d6576130d5614708565b5b602002015160ff16816002600381106130f2576130f1614708565b5b602002015160ff16145b156131345761310a83612f06565b8160026003811061311e5761311d614708565b5b602002019060ff16908160ff1681525050613083565b80915050919050565b600160009054906101000a900473ffffffffffffffffffffffffffffffffffffffff1673ffffffffffffffffffffffffffffffffffffffff163373ffffffffffffffffffffffffffffffffffffffff16146131cd576040517f08c379a00000000000000000000000000000000000000000000000000000000081526004016131c490614783565b60405180910390fd5b565b8280546131db90613d91565b90600052602060002090601f0160209004810192826131fd5760008555613244565b82601f1061321657805160ff1916838001178555613244565b82800160010185558215613244579182015b82811115613243578251825591602001919060010190613228565b5b5090506132519190613311565b5090565b6040518060600160405280600390602082028036833780820191505090505090565b826003601f016020900481019282156133005791602002820160005b838211156132d157835183826101000a81548160ff021916908360ff1602179055509260200192600101602081600001049283019260010302613293565b80156132fe5782816101000a81549060ff02191690556001016020816000010492830192600103026132d1565b505b50905061330d9190613311565b5090565b5b8082111561332a576000816000905550600101613312565b5090565b6000604051905090565b600080fd5b600080fd5b600073ffffffffffffffffffffffffffffffffffffffff82169050919050565b600061336d82613342565b9050919050565b61337d81613362565b811461338857600080fd5b50565b60008135905061339a81613374565b92915050565b6000602082840312156133b6576133b5613338565b5b60006133c48482850161338b565b91505092915050565b60008115159050919050565b6133e2816133cd565b82525050565b60006020820190506133fd60008301846133d9565b92915050565b600080fd5b600080fd5b6000601f19601f8301169050919050565b7f4e487b7100000000000000000000000000000000000000000000000000000000600052604160045260246000fd5b6134568261340d565b810181811067ffffffffffffffff821117156134755761347461341e565b5b80604052505050565b600061348861332e565b9050613494828261344d565b919050565b600067ffffffffffffffff8211156134b4576134b361341e565b5b6134bd8261340d565b9050602081019050919050565b82818337600083830152505050565b60006134ec6134e784613499565b61347e565b90508281526020810184848401111561350857613507613408565b5b6135138482856134ca565b509392505050565b600082601f8301126135305761352f613403565b5b81356135408482602086016134d9565b91505092915050565b600080604083850312156135605761355f613338565b5b600083013567ffffffffffffffff81111561357e5761357d61333d565b5b61358a8582860161351b565b925050602061359b8582860161338b565b9150509250929050565b600060039050919050565b600081905092915050565b6000819050919050565b600060ff82169050919050565b6135db816135c5565b82525050565b60006135ed83836135d2565b60208301905092915050565b6000602082019050919050565b61360f816135a5565b61361981846135b0565b9250613624826135bb565b8060005b8381101561365557815161363c87826135e1565b9650613647836135f9565b925050600181019050613628565b505050505050565b60006060820190506136726000830184613606565b92915050565b6000819050919050565b61368b81613678565b811461369657600080fd5b50565b6000813590506136a881613682565b92915050565b6000602082840312156136c4576136c3613338565b5b60006136d284828501613699565b91505092915050565b6136e481613678565b82525050565b6136f381613362565b82525050565b600081519050919050565b600082825260208201905092915050565b60005b83811015613733578082015181840152602081019050613718565b83811115613742576000848401525b50505050565b6000613753826136f9565b61375d8185613704565b935061376d818560208601613715565b6137768161340d565b840191505092915050565b61378a816135c5565b82525050565b6000819050919050565b6137a381613790565b82525050565b600060c0820190506137be60008301896136db565b6137cb60208301886136ea565b81810360408301526137dd8187613748565b90506137ec6060830186613781565b6137f9608083018561379a565b61380660a08301846136db565b979650505050505050565b6000806040838503121561382857613827613338565b5b60006138368582860161338b565b925050602061384785828601613699565b9150509250929050565b61385a816135c5565b811461386557600080fd5b50565b60008135905061387781613851565b92915050565b60006020828403121561389357613892613338565b5b60006138a184828501613868565b91505092915050565b60006020820190506138bf60008301846136db565b92915050565b60006020820190506138da600083018461379a565b92915050565b60006080820190506138f560008301876136db565b81810360208301526139078186613748565b905061391660408301856136ea565b81810360608301526139288184613748565b905095945050505050565b6000602082019050818103600083015261394d8184613748565b905092915050565b61395e816133cd565b811461396957600080fd5b50565b60008135905061397b81613955565b92915050565b60006020828403121561399757613996613338565b5b60006139a58482850161396c565b91505092915050565b60006020820190506139c360008301846136ea565b92915050565b600080604083850312156139e0576139df613338565b5b60006139ee8582860161338b565b92505060206139ff85828601613868565b9150509250929050565b600060e082019050613a1e600083018a6136db565b613a2b60208301896136ea565b8181036040830152613a3d8188613748565b9050613a4c60608301876136ea565b8181036080830152613a5e8186613748565b9050613a6d60a08301856136db565b613a7a60c08301846136db565b98975050505050505050565b7f4e487b7100000000000000000000000000000000000000000000000000000000600052602160045260246000fd5b7f6169726c696e65206e6f7420696e20756e61737369676e656420737461746500600082015250565b6000613aeb601f83613704565b9150613af682613ab5565b602082019050919050565b60006020820190508181036000830152613b1a81613ade565b9050919050565b600081519050613b3081613682565b92915050565b6000613b49613b4484613499565b61347e565b905082815260208101848484011115613b6557613b64613408565b5b613b70848285613715565b509392505050565b600082601f830112613b8d57613b8c613403565b5b8151613b9d848260208601613b36565b91505092915050565b600081519050613bb581613374565b92915050565b60008060008060808587031215613bd557613bd4613338565b5b6000613be387828801613b21565b945050602085015167ffffffffffffffff811115613c0457613c0361333d565b5b613c1087828801613b78565b9350506040613c2187828801613ba6565b925050606085015167ffffffffffffffff811115613c4257613c4161333d565b5b613c4e87828801613b78565b91505092959194509250565b6000604082019050613c6f60008301856136db565b8181036020830152613c818184613748565b90509392505050565b7f63616c6c6572206e6f742072656769737465726564206f7261636c6500000000600082015250565b6000613cc0601c83613704565b9150613ccb82613c8a565b602082019050919050565b60006020820190508181036000830152613cef81613cb3565b9050919050565b7f696e76616c696420666c69676874206964000000000000000000000000000000600082015250565b6000613d2c601183613704565b9150613d3782613cf6565b602082019050919050565b60006020820190508181036000830152613d5b81613d1f565b9050919050565b7f4e487b7100000000000000000000000000000000000000000000000000000000600052602260045260246000fd5b60006002820490506001821680613da957607f821691505b60208210811415613dbd57613dbc613d62565b5b50919050565b60008160f81b9050919050565b6000613ddb82613dc3565b9050919050565b613df3613dee826135c5565b613dd0565b82525050565b60008160601b9050919050565b6000613e1182613df9565b9050919050565b6000613e2382613e06565b9050919050565b613e3b613e3682613362565b613e18565b82525050565b6000819050919050565b613e5c613e5782613678565b613e41565b82525050565b6000613e6e8286613de2565b600182019150613e7e8285613e2a565b601482019150613e8e8284613e4b565b602082019150819050949350505050565b6000608082019050613eb46000830187613781565b613ec160208301866136ea565b8181036040830152613ed38185613748565b9050613ee260608301846136db565b95945050505050565b7f6f7261636c6520616c7265616479207265676973746572656400000000000000600082015250565b6000613f21601983613704565b9150613f2c82613eeb565b602082019050919050565b60006020820190508181036000830152613f5081613f14565b9050919050565b7f6e6f742077697468696e20656e756d2072616e67650000000000000000000000600082015250565b6000613f8d601583613704565b9150613f9882613f57565b602082019050919050565b60006020820190508181036000830152613fbc81613f80565b9050919050565b7f7374617475732063616e6e6f74206265206c6f776572207468616e206375727260008201527f656e742073746174650000000000000000000000000000000000000000000000602082015250565b600061401f602983613704565b915061402a82613fc3565b604082019050919050565b6000602082019050818103600083015261404e81614012565b9050919050565b7f666c6967687420646f6573206e6f742065786973740000000000000000000000600082015250565b600061408b601583613704565b915061409682614055565b602082019050919050565b600060208201905081810360008301526140ba8161407e565b9050919050565b7f3145544820696e737572616e6365206d75737420626520706169640000000000600082015250565b60006140f7601b83613704565b9150614102826140c1565b602082019050919050565b60006020820190508181036000830152614126816140ea565b9050919050565b600081905092915050565b50565b600061414860008361412d565b915061415382614138565b600082019050919050565b60006141698261413b565b9150819050919050565b7f6661696c656420746f2073656e64204554480000000000000000000000000000600082015250565b60006141a9601283613704565b91506141b482614173565b602082019050919050565b600060208201905081810360008301526141d88161419c565b9050919050565b7f63616c6c6572206e6f7420726567697374657265640000000000000000000000600082015250565b6000614215601583613704565b9150614220826141df565b602082019050919050565b6000602082019050818103600083015261424481614208565b9050919050565b7f616c726561647920696e206f7065726174696f6e616c206d6f64650000000000600082015250565b6000614281601b83613704565b915061428c8261424b565b602082019050919050565b600060208201905081810360008301526142b081614274565b9050919050565b7f6169726c696e65206e6f7420617574686f72697a656400000000000000000000600082015250565b60006142ed601683613704565b91506142f8826142b7565b602082019050919050565b6000602082019050818103600083015261431c816142e0565b9050919050565b7f636f6e7472616374206e6f74206f7065726174696f6e616c0000000000000000600082015250565b6000614359601883613704565b915061436482614323565b602082019050919050565b600060208201905081810360008301526143888161434c565b9050919050565b7f6e6f7420617574686f72697a656420746f207265676973746572000000000000600082015250565b60006143c5601a83613704565b91506143d08261438f565b602082019050919050565b600060208201905081810360008301526143f4816143b8565b9050919050565b7f6d757374206e6f742062652063757272656e7420737461747573000000000000600082015250565b6000614431601a83613704565b915061443c826143fb565b602082019050919050565b6000602082019050818103600083015261446081614424565b9050919050565b60008151905061447681613955565b92915050565b60006020828403121561449257614491613338565b5b60006144a084828501614467565b91505092915050565b7f6169726c696e65206e6f7420636f6d6d69746564000000000000000000000000600082015250565b60006144df601483613704565b91506144ea826144a9565b602082019050919050565b6000602082019050818103600083015261450e816144d2565b9050919050565b600060608201905061452a600083018661379a565b61453760208301856136db565b6145446040830184613781565b949350505050565b60006145588285613e2a565b6014820191506145688284613e4b565b6020820191508190509392505050565b7f4e487b7100000000000000000000000000000000000000000000000000000000600052601160045260246000fd5b60006145b282613678565b91506145bd83613678565b9250827fffffffffffffffffffffffffffffffffffffffffffffffffffffffffffffffff038211156145f2576145f1614578565b5b828201905092915050565b6000614608826135c5565b915060ff82141561461c5761461b614578565b5b600182019050919050565b600061463282613678565b915061463d83613678565b9250828210156146505761464f614578565b5b828203905092915050565b6000819050919050565b61467661467182613790565b61465b565b82525050565b60006146888285614665565b6020820191506146988284613e2a565b6014820191508190509392505050565b7f4e487b7100000000000000000000000000000000000000000000000000000000600052601260045260246000fd5b60006146e282613678565b91506146ed83613678565b9250826146fd576146fc6146a8565b5b828206905092915050565b7f4e487b7100000000000000000000000000000000000000000000000000000000600052603260045260246000fd5b7f63616c6c6572206e6f74206f776e657200000000000000000000000000000000600082015250565b600061476d601083613704565b915061477882614737565b602082019050919050565b6000602082019050818103600083015261479c81614760565b905091905056fea26469706673582212203e4abec02ce9528a7c350f67cec11fd7967f20758ec455ecede65664bf11eca864736f6c63430008090033",
  "immutableReferences": {},
  "source": "// SPDX-License-Identifier: MIT\npragma solidity ^0.8.0;\n\nimport '@openzeppelin/contracts/utils/math/SafeMath.sol';\nimport './AirlineData.sol';\n\ncontract FlightSuretyData is AirlineData {\n  using SafeMath for uint256;\n\n  /********************************************************************************************/\n  /*                                      FLIGHT STATE VARIABLES                          */\n  /******************************************************************************************/\n\n  // Flight status codes\n  uint8 private constant STATUS_CODE_UNKNOWN = 0;\n  uint8 private constant STATUS_CODE_ON_TIME = 10;\n  uint8 private constant STATUS_CODE_LATE_AIRLINE = 20;\n  uint8 private constant STATUS_CODE_LATE_WEATHER = 30;\n  uint8 private constant STATUS_CODE_LATE_TECHNICAL = 40;\n  uint8 private constant STATUS_CODE_LATE_OTHER = 50;\n\n  uint256 public flightCounter = 0;\n  struct Flight {\n    uint256 id;\n    address airline;\n    string flightName;\n    uint8 statusCode;\n    bytes32 flightKey;\n    uint256 timestamp;\n\n  }\n\n  mapping(bytes32 => Flight) private flights;\n\n  mapping(uint256 => bytes32) public flightKeys;\n\n  /********************************************************************************************/\n  /*                                      FLIGHT EVENTS                                      */\n  /******************************************************************************************/\n\n  event LogFlightRegistered(bytes32 flightKey, address indexed airline, uint256 timestamp, uint8 statusCode);\n  event LogFlightStatusProcessed(address indexed airline, uint256 timestamp);\n\n   // Event fired when flight status request is requested\n  event LogOracleRequest(uint8 index, address airline, string flight, uint256 timestamp);\n\n  /********************************************************************************************/\n  /*                                      FLIGHT CORE FUNCTIONS                 */\n  /******************************************************************************************/\n  \n  // Register flight\n  function registerFlight(uint8 _statusCode) public {\n    (bool checkStatus ) = this.isAirlineCommitted(msg.sender);\n    require(checkStatus == true, 'airline not commited');\n\n    (uint256 id, string memory name, address airlineAccount,) = this.getAirlineDetails(msg.sender);  \n\n    flightCounter = flightCounter.add(1);\n    \n\n    bytes32 flightKey = generateFlightKey(msg.sender, block.timestamp);\n\n    flightKeys[id] = flightKey;\n  \n\n    flights[flightKey] = Flight({\n      id: id,\n      airline: airlineAccount,\n      flightName: name,\n      statusCode: _statusCode,\n      flightKey: flightKey,\n      timestamp: block.timestamp\n    });\n\n    emit LogFlightRegistered(flightKey, msg.sender, block.timestamp, _statusCode);\n  }\n\n  function processFlightStatus(address _airline, uint256 _timestamp, uint8 _statusCode)  private {\n    bytes32 key = generateFlightKey(_airline, _timestamp);\n    flights[key].statusCode = _statusCode;\n\n    emit LogFlightStatusProcessed(_airline, _timestamp);\n  }\n\n  // Generate a request for oracles  to fetch flight information\n  function fetchFlightStatus(address _airline, uint256 _timestamp) public {\n    uint8 index = getRandomIndex(msg.sender);\n\n    // Generate a unique key for storing  the request\n    bytes32 key = keccak256(abi.encodePacked(index, _airline, _timestamp));\n    oracleResponses[key].requester = msg.sender;\n    oracleResponses[key].isOpen = true;\n\n  \n    (,string memory name,,) = this.getAirlineDetails(_airline); \n\n    emit LogOracleRequest(index, _airline, name, _timestamp);\n\n  }\n\n  // Get flight details\n  function getFlightDetails(uint256 _flightId) public view returns\n    (\n      uint256 id, \n      address airline, \n      string memory flightName,\n      uint8 statusCode, \n      bytes32 flightKey, \n      uint256 timestamp\n\n    )\n  {\n    require(_flightId != 0 || _flightId <= flightCounter, 'invalid flight id');\n    bytes32 key = flightKeys[_flightId];\n    id = flights[key].id;\n    airline = flights[key].airline;\n    flightName = flights[key].flightName;\n    statusCode = flights[key].statusCode;\n    flightKey = flights[key].flightKey;\n    timestamp = flights[key].timestamp;\n    \n  }\n  \n  /********************************************************************************************/\n  /*                                      FLIGHT UTILITY FUNCTIONS                 */\n  /******************************************************************************************/\n\n  function generateFlightKey(address _airline, uint256 _timestamp) public pure returns(bytes32) {\n    return keccak256(abi.encodePacked(_airline, _timestamp));\n  }\n\n\n  /*__________________________________ORACLE______________________________*/\n\n  \n  /********************************************************************************************/\n  /*                               ORACLE STATE VARIABLES                                    */\n  /******************************************************************************************/\n\n  uint8 private nonce = 0;\n\n\n  // Number of oracles that must respond for valid status\n  uint256 private constant  MIN_RESPONSES = 3;\n\n  struct Oracle {\n    bool isRegistered;\n    uint8[3] indexes;\n  }\n\n  // Track all registered oracles\n  mapping(address => Oracle) private oracles; \n\n  // Model for responses from oracles\n  struct ResponseInfo {\n    address requester;  // account that triggered the requested status\n    bool isOpen;        // if open, oracle responses are accepted\n    mapping(uint8 => address[]) responses; // key is the status code reported\n  }\n\n  // Track all oracle responses \n  mapping(bytes32 => ResponseInfo) oracleResponses;\n\n\n  /********************************************************************************************/\n  /*                                      EVENTS                                             */\n  /******************************************************************************************/\n\n  // Event fired each time an oracle submits a response\n  event LogFlightStatusInfo(address airline, string flight, uint256 timestamp, uint8 status);\n\n  event LogOracleReport(address airline, string flight, uint256 timestamp, uint8 status);\n\n\n        \n  /********************************************************************************************/\n  /*                                      ORACLE CORE FUNCTIONS                              */\n  /******************************************************************************************/\n  function registerOracle() external payable {\n    // require(msg.value == ORACLE_REGISTRATION_FEE, 'oracle reg. fee required');\n    require(!oracles[tx.origin].isRegistered, 'oracle already registered');\n    uint8[3] memory indexes = generateIndexes(tx.origin);\n    oracles[tx.origin] = Oracle({\n      isRegistered: true,\n      indexes: indexes\n    });\n\n  }\n\n  /********************************************************************************************/\n  /*                                      ORACLE UTILITY FUNCTIONS                           */\n  /******************************************************************************************/\n\n  function getRandomIndex(address _account) internal returns(uint8) {\n    uint8 maxValue = 10;\n    uint8 random  = uint8(uint256(keccak256(abi.encodePacked(blockhash(block.number - nonce++), _account))) % maxValue);\n\n    if(nonce > 250) {\n      nonce = 0;\n    }\n\n    return random;\n  }\n  \n  // Return non-duplicating integers\n  function generateIndexes(address _account) internal returns(uint8[3] memory) {\n    uint8[3] memory indexes;\n    indexes[0] = getRandomIndex(_account);\n\n\n    while(indexes[1] == indexes[0]) {\n      indexes[1] = getRandomIndex(_account);\n    }\n\n    while((indexes[2] == indexes[0]) || (indexes[2] == indexes[1])) {\n      indexes[2] =  getRandomIndex(_account);\n    }\n\n    return indexes;\n  }\n\n  function getOracleIndexes() external view returns(uint8[3] memory) {\n    require(oracles[msg.sender].isRegistered, 'caller not registered oracle');\n    return oracles[msg.sender].indexes;\n\n  }\n\n  function isOracleRegistered(address _account) public view returns(bool) {\n    return oracles[_account].isRegistered;\n  }\n\n  /*__________________________________PASSENGER_______________________________*/\n\n\n  /********************************************************************************************/\n  /*                                      PASSENGER STATE VARIABLE FUNCTIONS                            */\n  /********************************************************************************************/\n\n  enum PassengerInsuranceState {\n    Unassigned,\n    Paid,\n    Claimed\n  }\n\n  struct Insurance {\n    uint256 id;\n    address flightAddress;\n    address passenger;\n    string flightName;\n    uint256 amount;\n    PassengerInsuranceState state;\n    uint256 refundAmount;\n  }\n\n  mapping(address =>  Insurance) passengersInsurance;\n\n  \n  uint256 public constant PASSENGER_INSURANCE_FEE = 1 ether;\n\n\n  /********************************************************************************************/\n  /*                                       EVENT                            */\n  /********************************************************************************************/\n  event LogPassengerInsurance(address indexed account, uint256 amount);\n\n\n  /*******************************************************************************************/\n  /*                                       PASSENGER FUNCTIONS                         */\n  /*****************************************************************************************/\n\n  function payInsurance(uint256 _flightId)  external payable {\n\n    require(_flightId != 0 || _flightId <= flightCounter, 'invalid flight id');\n\n    bytes32 key = flightKeys[_flightId];\n    require(_flightId == flights[key].id, \"flight does not exist\");\n\n\n    \n    \n    // require(airlines[_account].status == AirlineStatus.Committed, 'flight does not exist');\n    // require(passengersInsurance[tx.origin].state == PassengerInsuranceState.Unassigned, 'insurance exits');\n    (uint256 id, string memory name, address airlineAccount,) = this.getAirlineDetails(flights[key].airline);\n\n    require(msg.value <= PASSENGER_INSURANCE_FEE, '1ETH insurance must be paid');\n    (bool send, ) = address(this).call{value: msg.value}('');\n    require(send, 'failed to send ETH');\n\n    passengersInsurance[msg.sender] = Insurance({\n      id: id,\n      flightAddress: airlineAccount,\n      passenger: msg.sender,\n      flightName: name, \n      amount: msg.value,\n      state: PassengerInsuranceState.Paid,\n      refundAmount: 0\n    });\n\n    emit LogPassengerInsurance(msg.sender, passengersInsurance[msg.sender].amount);\n  }\n\n  /*******************************************************************************************/\n  /*                                       PASSENGER UTILITY FUNCTIONS                         */\n  /*****************************************************************************************/\n  function getPassengerDetails(address _account) external view returns\n    (\n      uint256 id, \n      address flightAddress,\n      string memory flightName, \n      address passenger, \n      string memory state, \n      uint256 amount, \n      uint256 refundAmount\n    ) \n  \n  {\n    uint8 passengerState = uint8(passengersInsurance[_account].state);\n    if(passengerState == 0) {\n      state = 'Unassigned';\n    } else if(passengerState == 1) {\n      state = 'Paid';\n    } else if(passengerState == 2) {\n      state = 'Claimed';\n    } \n    \n    id = passengersInsurance[_account].id;\n    flightName = passengersInsurance[_account].flightName;\n    flightAddress = passengersInsurance[_account].flightAddress;\n    passenger = passengersInsurance[_account].passenger;\n    amount = passengersInsurance[_account].amount;\n    refundAmount = passengersInsurance[_account].refundAmount;\n    \n    return (id, flightAddress, flightName, passenger, state, amount, refundAmount);\n    \n  }\n\n  function getPassengerBalance(address _account) external view returns(uint256) {\n    return passengersInsurance[_account].amount;\n  }\n\n\n\n\n\n  /********************************************************************************************/\n  /*                                      CONTRACT RECEIVE ETHER                                */\n  /********************************************************************************************/\n  receive() payable external {\n\n  }\n\n}\n",
  "sourcePath": "/home/sprtd/Desktop/Udacity/lesson-5-flight-surety/flight-surety-project/contracts/FlightSuretyData.sol",
  "compiler": {
    "name": "solc",
    "version": "0.8.9+commit.e5eed63a.Emscripten.clang"
  },
  "schemaVersion": "3.4.3",
  "updatedAt": "2021-10-31T09:01:45.186Z",
  "networkType": "ethereum",
  "devdoc": {
    "kind": "dev",
    "methods": {},
    "version": 1
  },
  "userdoc": {
    "kind": "user",
    "methods": {},
    "version": 1
  }
}