{
  "contractName": "FlightSuretyApp",
  "abi": [
    {
      "inputs": [
        {
          "internalType": "address",
          "name": "_flightSuretyDataAddress",
          "type": "address"
        }
      ],
      "stateMutability": "nonpayable",
      "type": "constructor"
    },
    {
      "anonymous": false,
      "inputs": [
        {
          "indexed": true,
          "internalType": "address",
          "name": "airline",
          "type": "address"
        },
        {
          "indexed": false,
          "internalType": "uint256",
          "name": "airlineFee",
          "type": "uint256"
        }
      ],
      "name": "LogPayCommitment",
      "type": "event"
    },
    {
      "anonymous": false,
      "inputs": [
        {
          "indexed": true,
          "internalType": "address",
          "name": "callerAirline",
          "type": "address"
        },
        {
          "indexed": true,
          "internalType": "address",
          "name": "registeredAirline",
          "type": "address"
        },
        {
          "indexed": false,
          "internalType": "uint8",
          "name": "state",
          "type": "uint8"
        }
      ],
      "name": "LogRegisteredViaConsensus",
      "type": "event"
    },
    {
      "inputs": [],
      "name": "AIRLINE_FEE",
      "outputs": [
        {
          "internalType": "uint256",
          "name": "",
          "type": "uint256"
        }
      ],
      "stateMutability": "view",
      "type": "function",
      "constant": true
    },
    {
      "inputs": [],
      "name": "ORACLE_REGISTRATION_FEE",
      "outputs": [
        {
          "internalType": "uint256",
          "name": "",
          "type": "uint256"
        }
      ],
      "stateMutability": "view",
      "type": "function",
      "constant": true
    },
    {
      "inputs": [],
      "name": "contractOwner",
      "outputs": [
        {
          "internalType": "address",
          "name": "",
          "type": "address"
        }
      ],
      "stateMutability": "view",
      "type": "function",
      "constant": true
    },
    {
      "inputs": [
        {
          "internalType": "string",
          "name": "_name",
          "type": "string"
        }
      ],
      "name": "startAirlineApplication",
      "outputs": [],
      "stateMutability": "nonpayable",
      "type": "function"
    },
    {
      "inputs": [
        {
          "internalType": "address",
          "name": "_account",
          "type": "address"
        },
        {
          "internalType": "uint8",
          "name": "_state",
          "type": "uint8"
        }
      ],
      "name": "registerAirline",
      "outputs": [],
      "stateMutability": "nonpayable",
      "type": "function"
    },
    {
      "inputs": [
        {
          "internalType": "address",
          "name": "_account",
          "type": "address"
        },
        {
          "internalType": "uint8",
          "name": "_state",
          "type": "uint8"
        }
      ],
      "name": "registerViaConsensus",
      "outputs": [],
      "stateMutability": "nonpayable",
      "type": "function"
    },
    {
      "inputs": [],
      "name": "payCommitmentFee",
      "outputs": [],
      "stateMutability": "payable",
      "type": "function",
      "payable": true
    },
    {
      "inputs": [],
      "name": "getOwner",
      "outputs": [
        {
          "internalType": "address",
          "name": "",
          "type": "address"
        }
      ],
      "stateMutability": "view",
      "type": "function",
      "constant": true
    },
    {
      "inputs": [
        {
          "internalType": "address",
          "name": "_account",
          "type": "address"
        }
      ],
      "name": "airlineAuthorizationStatus",
      "outputs": [
        {
          "internalType": "bool",
          "name": "",
          "type": "bool"
        }
      ],
      "stateMutability": "view",
      "type": "function",
      "constant": true
    },
    {
      "inputs": [
        {
          "internalType": "address",
          "name": "_account",
          "type": "address"
        }
      ],
      "name": "airlineDetails",
      "outputs": [
        {
          "internalType": "uint256",
          "name": "id",
          "type": "uint256"
        },
        {
          "internalType": "string",
          "name": "name",
          "type": "string"
        },
        {
          "internalType": "address",
          "name": "airlineAccount",
          "type": "address"
        },
        {
          "internalType": "string",
          "name": "state",
          "type": "string"
        }
      ],
      "stateMutability": "view",
      "type": "function",
      "constant": true
    },
    {
      "inputs": [],
      "name": "isCallerAirlineRegistered",
      "outputs": [
        {
          "internalType": "bool",
          "name": "",
          "type": "bool"
        }
      ],
      "stateMutability": "view",
      "type": "function",
      "constant": true
    },
    {
      "inputs": [],
      "name": "getTotalRegisteredAirlines",
      "outputs": [
        {
          "internalType": "uint256",
          "name": "",
          "type": "uint256"
        }
      ],
      "stateMutability": "view",
      "type": "function",
      "constant": true
    },
    {
      "inputs": [],
      "name": "getOperationalStatus",
      "outputs": [
        {
          "internalType": "bool",
          "name": "",
          "type": "bool"
        }
      ],
      "stateMutability": "view",
      "type": "function",
      "constant": true
    },
    {
      "inputs": [],
      "name": "getQuorum",
      "outputs": [
        {
          "internalType": "uint256",
          "name": "",
          "type": "uint256"
        }
      ],
      "stateMutability": "view",
      "type": "function",
      "constant": true
    },
    {
      "inputs": [],
      "name": "fetchFlightStatus",
      "outputs": [],
      "stateMutability": "nonpayable",
      "type": "function"
    },
    {
      "inputs": [],
      "name": "payOracleRegFees",
      "outputs": [],
      "stateMutability": "payable",
      "type": "function",
      "payable": true
    }
  ],
  "bytecode": "0x6080604052600067ffffffffffffffff811115620000225762000021620003d4565b5b604051908082528060200260200182016040528015620000515781602001602082028036833780820191505090505b50600390805190602001906200006992919062000326565b506000600560006101000a81548160ff021916908360ff1602179055503480156200009357600080fd5b50604051620028cc380380620028cc8339818101604052810190620000b991906200046d565b33600260006101000a81548173ffffffffffffffffffffffffffffffffffffffff021916908373ffffffffffffffffffffffffffffffffffffffff16021790555080600160006101000a81548173ffffffffffffffffffffffffffffffffffffffff021916908373ffffffffffffffffffffffffffffffffffffffff160217905550806000806101000a81548173ffffffffffffffffffffffffffffffffffffffff021916908373ffffffffffffffffffffffffffffffffffffffff160217905550620001c16040518060400160405280600581526020017f616c706861000000000000000000000000000000000000000000000000000000815250620001fd60201b60201c565b620001f6600260009054906101000a900473ffffffffffffffffffffffffffffffffffffffff1660026200029160201b60201c565b50620005d3565b60008054906101000a900473ffffffffffffffffffffffffffffffffffffffff1673ffffffffffffffffffffffffffffffffffffffff16630b2653d582336040518363ffffffff1660e01b81526004016200025a92919062000554565b600060405180830381600087803b1580156200027557600080fd5b505af11580156200028a573d6000803e3d6000fd5b5050505050565b60008054906101000a900473ffffffffffffffffffffffffffffffffffffffff1673ffffffffffffffffffffffffffffffffffffffff1663b10f057b83836040518363ffffffff1660e01b8152600401620002ee929190620005a6565b600060405180830381600087803b1580156200030957600080fd5b505af11580156200031e573d6000803e3d6000fd5b505050505050565b828054828255906000526020600020908101928215620003a2579160200282015b82811115620003a15782518260006101000a81548173ffffffffffffffffffffffffffffffffffffffff021916908373ffffffffffffffffffffffffffffffffffffffff1602179055509160200191906001019062000347565b5b509050620003b19190620003b5565b5090565b5b80821115620003d0576000816000905550600101620003b6565b5090565b7f4e487b7100000000000000000000000000000000000000000000000000000000600052604160045260246000fd5b600080fd5b600073ffffffffffffffffffffffffffffffffffffffff82169050919050565b6000620004358262000408565b9050919050565b620004478162000428565b81146200045357600080fd5b50565b60008151905062000467816200043c565b92915050565b60006020828403121562000486576200048562000403565b5b6000620004968482850162000456565b91505092915050565b600081519050919050565b600082825260208201905092915050565b60005b83811015620004db578082015181840152602081019050620004be565b83811115620004eb576000848401525b50505050565b6000601f19601f8301169050919050565b60006200050f826200049f565b6200051b8185620004aa565b93506200052d818560208601620004bb565b6200053881620004f1565b840191505092915050565b6200054e8162000428565b82525050565b6000604082019050818103600083015262000570818562000502565b905062000581602083018462000543565b9392505050565b600060ff82169050919050565b620005a08162000588565b82525050565b6000604082019050620005bd600083018562000543565b620005cc602083018462000595565b9392505050565b6122e980620005e36000396000f3fe6080604052600436106100f35760003560e01c8063c26c12eb1161008a578063cea579bf11610059578063cea579bf146102b4578063dd82ba6b146102f4578063dddfe1be1461031f578063ec0f024714610348576100f3565b8063c26c12eb1461020a578063c4b37e9514610235578063cb6a3c9714610260578063ce606ee014610289576100f3565b80634fb061ec116100c65780634fb061ec1461016d5780635a920f6214610177578063893d20e8146101b4578063994de453146101df576100f3565b80630383980a146100f85780630c982673146101025780632511746e1461012d578063390b0a2114610156575b600080fd5b610100610373565b005b34801561010e57600080fd5b506101176105f1565b60405161012491906115d9565b60405180910390f35b34801561013957600080fd5b50610154600480360381019061014f919061174e565b610697565b005b34801561016257600080fd5b5061016b610727565b005b6101756107c6565b005b34801561018357600080fd5b5061019e600480360381019061019991906117f5565b61097a565b6040516101ab91906115d9565b60405180910390f35b3480156101c057600080fd5b506101c9610a2d565b6040516101d69190611831565b60405180910390f35b3480156101eb57600080fd5b506101f4610a57565b6040516102019190611865565b60405180910390f35b34801561021657600080fd5b5061021f610afd565b60405161022c9190611865565b60405180910390f35b34801561024157600080fd5b5061024a610b07565b6040516102579190611865565b60405180910390f35b34801561026c57600080fd5b50610287600480360381019061028291906118b9565b610b13565b005b34801561029557600080fd5b5061029e610ba4565b6040516102ab9190611831565b60405180910390f35b3480156102c057600080fd5b506102db60048036038101906102d691906117f5565b610bca565b6040516102eb9493929190611981565b60405180910390f35b34801561030057600080fd5b50610309610c97565b6040516103169190611865565b60405180910390f35b34801561032b57600080fd5b50610346600480360381019061034191906118b9565b610ca3565b005b34801561035457600080fd5b5061035d611209565b60405161036a91906115d9565b60405180910390f35b60008054906101000a900473ffffffffffffffffffffffffffffffffffffffff1673ffffffffffffffffffffffffffffffffffffffff16635addd35a336040518263ffffffff1660e01b81526004016103cc9190611831565b60006040518083038186803b1580156103e457600080fd5b505afa1580156103f8573d6000803e3d6000fd5b50505050678ac7230489e800003414610446576040517f08c379a000000000000000000000000000000000000000000000000000000000815260040161043d90611a20565b60405180910390fd5b6000600160009054906101000a900473ffffffffffffffffffffffffffffffffffffffff1673ffffffffffffffffffffffffffffffffffffffff163460405161048e90611a71565b60006040518083038185875af1925050503d80600081146104cb576040519150601f19603f3d011682016040523d82523d6000602084013e6104d0565b606091505b5050905080610514576040517f08c379a000000000000000000000000000000000000000000000000000000000815260040161050b90611ad2565b60405180910390fd5b60008054906101000a900473ffffffffffffffffffffffffffffffffffffffff1673ffffffffffffffffffffffffffffffffffffffff166336061cca60036040518263ffffffff1660e01b815260040161056e9190611b37565b600060405180830381600087803b15801561058857600080fd5b505af115801561059c573d6000803e3d6000fd5b505050503373ffffffffffffffffffffffffffffffffffffffff167fb68ca0eeaa49aef5b205d0a190cad74e14730f4df1db96878ff00ea294c807e0346040516105e69190611865565b60405180910390a250565b60008060009054906101000a900473ffffffffffffffffffffffffffffffffffffffff1673ffffffffffffffffffffffffffffffffffffffff16630c9826736040518163ffffffff1660e01b815260040160206040518083038186803b15801561065a57600080fd5b505afa15801561066e573d6000803e3d6000fd5b505050506040513d601f19601f820116820180604052508101906106929190611b7e565b905090565b60008054906101000a900473ffffffffffffffffffffffffffffffffffffffff1673ffffffffffffffffffffffffffffffffffffffff16630b2653d582336040518363ffffffff1660e01b81526004016106f2929190611bab565b600060405180830381600087803b15801561070c57600080fd5b505af1158015610720573d6000803e3d6000fd5b5050505050565b6000610732336112be565b905060008054906101000a900473ffffffffffffffffffffffffffffffffffffffff1673ffffffffffffffffffffffffffffffffffffffff16630a6154e63342846040518463ffffffff1660e01b815260040161079193929190611bea565b600060405180830381600087803b1580156107ab57600080fd5b505af11580156107bf573d6000803e3d6000fd5b5050505050565b670de0b6b3a76400003414610810576040517f08c379a000000000000000000000000000000000000000000000000000000000815260040161080790611c6d565b60405180910390fd5b6000600160009054906101000a900473ffffffffffffffffffffffffffffffffffffffff1673ffffffffffffffffffffffffffffffffffffffff163460405161085890611a71565b60006040518083038185875af1925050503d8060008114610895576040519150601f19603f3d011682016040523d82523d6000602084013e61089a565b606091505b50509050806108de576040517f08c379a00000000000000000000000000000000000000000000000000000000081526004016108d590611cd9565b60405180910390fd5b60006108e93361138a565b905060008054906101000a900473ffffffffffffffffffffffffffffffffffffffff1673ffffffffffffffffffffffffffffffffffffffff16630cfc7e44826040518263ffffffff1660e01b81526004016109449190611da4565b600060405180830381600087803b15801561095e57600080fd5b505af1158015610972573d6000803e3d6000fd5b505050505050565b60008060009054906101000a900473ffffffffffffffffffffffffffffffffffffffff1673ffffffffffffffffffffffffffffffffffffffff16638042601f836040518263ffffffff1660e01b81526004016109d69190611831565b60206040518083038186803b1580156109ee57600080fd5b505afa158015610a02573d6000803e3d6000fd5b505050506040513d601f19601f82011682018060405250810190610a269190611b7e565b9050919050565b6000600260009054906101000a900473ffffffffffffffffffffffffffffffffffffffff16905090565b60008060009054906101000a900473ffffffffffffffffffffffffffffffffffffffff1673ffffffffffffffffffffffffffffffffffffffff1663994de4536040518163ffffffff1660e01b815260040160206040518083038186803b158015610ac057600080fd5b505afa158015610ad4573d6000803e3d6000fd5b505050506040513d601f19601f82011682018060405250810190610af89190611deb565b905090565b6000600454905090565b678ac7230489e8000081565b60008054906101000a900473ffffffffffffffffffffffffffffffffffffffff1673ffffffffffffffffffffffffffffffffffffffff1663b10f057b83836040518363ffffffff1660e01b8152600401610b6e929190611e18565b600060405180830381600087803b158015610b8857600080fd5b505af1158015610b9c573d6000803e3d6000fd5b505050505050565b600260009054906101000a900473ffffffffffffffffffffffffffffffffffffffff1681565b600060606000606060008054906101000a900473ffffffffffffffffffffffffffffffffffffffff1673ffffffffffffffffffffffffffffffffffffffff16634e088046866040518263ffffffff1660e01b8152600401610c2b9190611831565b60006040518083038186803b158015610c4357600080fd5b505afa158015610c57573d6000803e3d6000fd5b505050506040513d6000823e3d601f19601f82011682018060405250810190610c809190611ec6565b809450819550829650839750505050509193509193565b670de0b6b3a764000081565b60008054906101000a900473ffffffffffffffffffffffffffffffffffffffff1673ffffffffffffffffffffffffffffffffffffffff16635addd35a336040518263ffffffff1660e01b8152600401610cfc9190611831565b60006040518083038186803b158015610d1457600080fd5b505afa158015610d28573d6000803e3d6000fd5b505050506000151560008054906101000a900473ffffffffffffffffffffffffffffffffffffffff1673ffffffffffffffffffffffffffffffffffffffff1663010c5c97846040518263ffffffff1660e01b8152600401610d899190611831565b60206040518083038186803b158015610da157600080fd5b505afa158015610db5573d6000803e3d6000fd5b505050506040513d601f19601f82011682018060405250810190610dd99190611b7e565b151514610e1b576040517f08c379a0000000000000000000000000000000000000000000000000000000008152600401610e1290611fb1565b60405180910390fd5b60008060009054906101000a900473ffffffffffffffffffffffffffffffffffffffff1673ffffffffffffffffffffffffffffffffffffffff1663994de4536040518163ffffffff1660e01b815260040160206040518083038186803b158015610e8457600080fd5b505afa158015610e98573d6000803e3d6000fd5b505050506040513d601f19601f82011682018060405250810190610ebc9190611deb565b9050600281610ecb919061202f565b6004819055506000805b600380549050811015610f70573373ffffffffffffffffffffffffffffffffffffffff1660038281548110610f0d57610f0c612060565b5b9060005260206000200160009054906101000a900473ffffffffffffffffffffffffffffffffffffffff1673ffffffffffffffffffffffffffffffffffffffff161415610f5d5760019150610f70565b8080610f689061208f565b915050610ed5565b508015610fb2576040517f08c379a0000000000000000000000000000000000000000000000000000000008152600401610fa99061214a565b60405180910390fd5b6003339080600181540180825580915050600190039060005260206000200160009091909190916101000a81548173ffffffffffffffffffffffffffffffffffffffff021916908373ffffffffffffffffffffffffffffffffffffffff16021790555060045460038054905014156112035760008054906101000a900473ffffffffffffffffffffffffffffffffffffffff1673ffffffffffffffffffffffffffffffffffffffff16637008414d60016040518263ffffffff1660e01b815260040161107e91906115d9565b600060405180830381600087803b15801561109857600080fd5b505af11580156110ac573d6000803e3d6000fd5b5050505060008054906101000a900473ffffffffffffffffffffffffffffffffffffffff1673ffffffffffffffffffffffffffffffffffffffff1663b10f057b85856040518363ffffffff1660e01b815260040161110b929190611e18565b600060405180830381600087803b15801561112557600080fd5b505af1158015611139573d6000803e3d6000fd5b50505050600067ffffffffffffffff81111561115857611157611623565b5b6040519080825280602002602001820160405280156111865781602001602082028036833780820191505090505b506003908051906020019061119c9291906114f5565b508373ffffffffffffffffffffffffffffffffffffffff163373ffffffffffffffffffffffffffffffffffffffff167ff020aa9943a57a61502ec8ba9e0d59387b7ec79450be409553eab4f19ebff60d856040516111fa919061216a565b60405180910390a35b50505050565b60008060008054906101000a900473ffffffffffffffffffffffffffffffffffffffff1673ffffffffffffffffffffffffffffffffffffffff1663010c5c97336040518263ffffffff1660e01b81526004016112659190611831565b60206040518083038186803b15801561127d57600080fd5b505afa158015611291573d6000803e3d6000fd5b505050506040513d601f19601f820116820180604052508101906112b59190611b7e565b90508091505090565b600080600a905060008160ff166005600081819054906101000a900460ff16809291906112ea90612185565b91906101000a81548160ff021916908360ff16021790555060ff164361131091906121af565b4085604051602001611323929190612256565b6040516020818303038152906040528051906020012060001c6113469190612282565b905060fa600560009054906101000a900460ff1660ff161115611380576000600560006101000a81548160ff021916908360ff1602179055505b8092505050919050565b61139261157f565b61139a61157f565b6113a3836112be565b816000600381106113b7576113b6612060565b5b602002019060ff16908160ff16815250505b806000600381106113dd576113dc612060565b5b602002015160ff16816001600381106113f9576113f8612060565b5b602002015160ff16141561143a57611410836112be565b8160016003811061142457611423612060565b5b602002019060ff16908160ff16815250506113c9565b5b8060006003811061144f5761144e612060565b5b602002015160ff168160026003811061146b5761146a612060565b5b602002015160ff1614806114b457508060016003811061148e5761148d612060565b5b602002015160ff16816002600381106114aa576114a9612060565b5b602002015160ff16145b156114ec576114c2836112be565b816002600381106114d6576114d5612060565b5b602002019060ff16908160ff168152505061143b565b80915050919050565b82805482825590600052602060002090810192821561156e579160200282015b8281111561156d5782518260006101000a81548173ffffffffffffffffffffffffffffffffffffffff021916908373ffffffffffffffffffffffffffffffffffffffff16021790555091602001919060010190611515565b5b50905061157b91906115a1565b5090565b6040518060600160405280600390602082028036833780820191505090505090565b5b808211156115ba5760008160009055506001016115a2565b5090565b60008115159050919050565b6115d3816115be565b82525050565b60006020820190506115ee60008301846115ca565b92915050565b6000604051905090565b600080fd5b600080fd5b600080fd5b600080fd5b6000601f19601f8301169050919050565b7f4e487b7100000000000000000000000000000000000000000000000000000000600052604160045260246000fd5b61165b82611612565b810181811067ffffffffffffffff8211171561167a57611679611623565b5b80604052505050565b600061168d6115f4565b90506116998282611652565b919050565b600067ffffffffffffffff8211156116b9576116b8611623565b5b6116c282611612565b9050602081019050919050565b82818337600083830152505050565b60006116f16116ec8461169e565b611683565b90508281526020810184848401111561170d5761170c61160d565b5b6117188482856116cf565b509392505050565b600082601f83011261173557611734611608565b5b81356117458482602086016116de565b91505092915050565b600060208284031215611764576117636115fe565b5b600082013567ffffffffffffffff81111561178257611781611603565b5b61178e84828501611720565b91505092915050565b600073ffffffffffffffffffffffffffffffffffffffff82169050919050565b60006117c282611797565b9050919050565b6117d2816117b7565b81146117dd57600080fd5b50565b6000813590506117ef816117c9565b92915050565b60006020828403121561180b5761180a6115fe565b5b6000611819848285016117e0565b91505092915050565b61182b816117b7565b82525050565b60006020820190506118466000830184611822565b92915050565b6000819050919050565b61185f8161184c565b82525050565b600060208201905061187a6000830184611856565b92915050565b600060ff82169050919050565b61189681611880565b81146118a157600080fd5b50565b6000813590506118b38161188d565b92915050565b600080604083850312156118d0576118cf6115fe565b5b60006118de858286016117e0565b92505060206118ef858286016118a4565b9150509250929050565b600081519050919050565b600082825260208201905092915050565b60005b83811015611933578082015181840152602081019050611918565b83811115611942576000848401525b50505050565b6000611953826118f9565b61195d8185611904565b935061196d818560208601611915565b61197681611612565b840191505092915050565b60006080820190506119966000830187611856565b81810360208301526119a88186611948565b90506119b76040830185611822565b81810360608301526119c98184611948565b905095945050505050565b7f6665652069732072657175697265640000000000000000000000000000000000600082015250565b6000611a0a600f83611904565b9150611a15826119d4565b602082019050919050565b60006020820190508181036000830152611a39816119fd565b9050919050565b600081905092915050565b50565b6000611a5b600083611a40565b9150611a6682611a4b565b600082019050919050565b6000611a7c82611a4e565b9150819050919050565b7f6661696c656420746f206465706f736974204554480000000000000000000000600082015250565b6000611abc601583611904565b9150611ac782611a86565b602082019050919050565b60006020820190508181036000830152611aeb81611aaf565b9050919050565b6000819050919050565b6000819050919050565b6000611b21611b1c611b1784611af2565b611afc565b611880565b9050919050565b611b3181611b06565b82525050565b6000602082019050611b4c6000830184611b28565b92915050565b611b5b816115be565b8114611b6657600080fd5b50565b600081519050611b7881611b52565b92915050565b600060208284031215611b9457611b936115fe565b5b6000611ba284828501611b69565b91505092915050565b60006040820190508181036000830152611bc58185611948565b9050611bd46020830184611822565b9392505050565b611be481611880565b82525050565b6000606082019050611bff6000830186611822565b611c0c6020830185611856565b611c196040830184611bdb565b949350505050565b7f4f522e20464545204d5553540000000000000000000000000000000000000000600082015250565b6000611c57600c83611904565b9150611c6282611c21565b602082019050919050565b60006020820190508181036000830152611c8681611c4a565b9050919050565b7f53454e44204641494c4544000000000000000000000000000000000000000000600082015250565b6000611cc3600b83611904565b9150611cce82611c8d565b602082019050919050565b60006020820190508181036000830152611cf281611cb6565b9050919050565b600060039050919050565b600081905092915050565b6000819050919050565b611d2281611880565b82525050565b6000611d348383611d19565b60208301905092915050565b6000602082019050919050565b611d5681611cf9565b611d608184611d04565b9250611d6b82611d0f565b8060005b83811015611d9c578151611d838782611d28565b9650611d8e83611d40565b925050600181019050611d6f565b505050505050565b6000606082019050611db96000830184611d4d565b92915050565b611dc88161184c565b8114611dd357600080fd5b50565b600081519050611de581611dbf565b92915050565b600060208284031215611e0157611e006115fe565b5b6000611e0f84828501611dd6565b91505092915050565b6000604082019050611e2d6000830185611822565b611e3a6020830184611bdb565b9392505050565b6000611e54611e4f8461169e565b611683565b905082815260208101848484011115611e7057611e6f61160d565b5b611e7b848285611915565b509392505050565b600082601f830112611e9857611e97611608565b5b8151611ea8848260208601611e41565b91505092915050565b600081519050611ec0816117c9565b92915050565b60008060008060808587031215611ee057611edf6115fe565b5b6000611eee87828801611dd6565b945050602085015167ffffffffffffffff811115611f0f57611f0e611603565b5b611f1b87828801611e83565b9350506040611f2c87828801611eb1565b925050606085015167ffffffffffffffff811115611f4d57611f4c611603565b5b611f5987828801611e83565b91505092959194509250565b7f6169726c696e6520616c72656164792072656769737465726564000000000000600082015250565b6000611f9b601a83611904565b9150611fa682611f65565b602082019050919050565b60006020820190508181036000830152611fca81611f8e565b9050919050565b7f4e487b7100000000000000000000000000000000000000000000000000000000600052601260045260246000fd5b7f4e487b7100000000000000000000000000000000000000000000000000000000600052601160045260246000fd5b600061203a8261184c565b91506120458361184c565b92508261205557612054611fd1565b5b828204905092915050565b7f4e487b7100000000000000000000000000000000000000000000000000000000600052603260045260246000fd5b600061209a8261184c565b91507fffffffffffffffffffffffffffffffffffffffffffffffffffffffffffffffff8214156120cd576120cc612000565b5b600182019050919050565b7f63616c6c657220616c72656164792063616c6c6564207468652066756e63746960008201527f6f6e000000000000000000000000000000000000000000000000000000000000602082015250565b6000612134602283611904565b915061213f826120d8565b604082019050919050565b6000602082019050818103600083015261216381612127565b9050919050565b600060208201905061217f6000830184611bdb565b92915050565b600061219082611880565b915060ff8214156121a4576121a3612000565b5b600182019050919050565b60006121ba8261184c565b91506121c58361184c565b9250828210156121d8576121d7612000565b5b828203905092915050565b6000819050919050565b6000819050919050565b612208612203826121e3565b6121ed565b82525050565b60008160601b9050919050565b60006122268261220e565b9050919050565b60006122388261221b565b9050919050565b61225061224b826117b7565b61222d565b82525050565b600061226282856121f7565b602082019150612272828461223f565b6014820191508190509392505050565b600061228d8261184c565b91506122988361184c565b9250826122a8576122a7611fd1565b5b82820690509291505056fea2646970667358221220fbe6b45099022d844d5c0f9066e39422b8c532384570d6d1e6bd75c523ad4d2764736f6c63430008090033",
  "immutableReferences": {},
  "source": "// SPDX-License-Identifier: MIT\npragma solidity >=0.7.0 <0.9.0;\n\nimport '@openzeppelin/contracts/utils/math/SafeMath.sol';\n\n\ncontract FlightSuretyApp {\n  IFlightSuretyData iFlightSuretyData;\n  using SafeMath for uint256;\n    \n  address flightSuretyDataAddress;\n    \n  address public contractOwner;\n\n  uint256 public constant AIRLINE_FEE =  10 ether;\n    \n    \n  address[] minimumAirlines = new address[](0);\n  uint quorum;\n    \n  \n      \n\n    \n  /********************************************************************************************/\n  /*                                       FUNCTION MODIFIERS                                 */\n  /********************************************************************************************/\n  \n  modifier onlyAuthorizedAirlines(address _account) {\n    iFlightSuretyData.onlyAuthorizedAirlines(_account);\n    _;\n      \n  }\n  \n  modifier onlyRegistered() {\n    iFlightSuretyData.onlyRegisteredAirlines(msg.sender);\n    _;\n  }\n\n  \n  \n\n  /********************************************************************************************/\n  /*                                       EVENTS                                */\n  /********************************************************************************************/\n  \n  event LogRegisteredViaConsensus(address indexed callerAirline, address indexed registeredAirline, uint8 state);\n  event LogPayCommitment(address indexed airline, uint256 airlineFee);\n\n\n  /********************************************************************************************/\n  /*                                       CONSTRUCTOR                                        */\n  /********************************************************************************************/\n  constructor(address _flightSuretyDataAddress) {\n    contractOwner = msg.sender;\n    flightSuretyDataAddress = _flightSuretyDataAddress;\n    iFlightSuretyData = IFlightSuretyData(_flightSuretyDataAddress);\n    \n    startAirlineApplication('alpha');\n    registerAirline(contractOwner, 2);\n\n    // payCommitmentFee();\n  }\n\n    /********************************************************************************************/\n  /*                                       AIRLINE CORE FUNCTION                               */\n  /********************************************************************************************/\n    \n  function startAirlineApplication(string memory _name) public  {\n    iFlightSuretyData.createNewAirline(_name, msg.sender);\n      \n          \n  }\n\n  function registerAirline(address _account, uint8 _state) public {\n    iFlightSuretyData.updateAirlineStatus(_account, _state);\n    \n  }\n    \n    \n    \n  // register via consensus\n  function registerViaConsensus(address _account, uint8 _state) public  onlyRegistered {\n\n    require(iFlightSuretyData.isAirlineRegistered(_account) == false, 'airline already registered');\n    \n    uint regAirlines =  iFlightSuretyData.getTotalRegisteredAirlines();\n    quorum = regAirlines / 2;\n      \n      \n    bool isDuplicate = false;\n    \n    for(uint i = 0; i < minimumAirlines.length; i ++) {\n      if(minimumAirlines[i] == msg.sender) {\n        isDuplicate = true;\n        break;\n      }\n    }\n\n    require(!isDuplicate, 'caller already called the function');\n\n    minimumAirlines.push(msg.sender);\n    \n\n    if(minimumAirlines.length == quorum) {\n    iFlightSuretyData.enableOperationalStatus(true);\n      iFlightSuretyData.updateAirlineStatus(_account, _state);\n      minimumAirlines = new address[](0);\n      emit LogRegisteredViaConsensus(msg.sender, _account, _state);\n    }\n  }\n\n\n  // pay airline fee\n  function payCommitmentFee() public payable onlyRegistered {\n    require(msg.value == AIRLINE_FEE, 'fee is required');\n    (bool send, ) = flightSuretyDataAddress.call{value: msg.value}('');\n    require(send, 'failed to deposit ETH');\n    iFlightSuretyData.updateToCommitState(3);\n    emit LogPayCommitment(msg.sender, msg.value);\n  }\n\n\n  \n    \n   \n/********************************************************************************************/\n/*                                      AIRLINE UTILITY FUNCTIONS                                 */\n/********************************************************************************************/\n      \n  function getOwner() external view returns(address) {\n    return contractOwner;\n  }\n\n\n  \n  function airlineAuthorizationStatus(address _account)  public view returns(bool) {\n    return iFlightSuretyData.getAirlineAuthorizationStatus(_account);\n  }\n    \n      \n\n  function airlineDetails(address _account) public view returns(uint256 id, string memory name, address airlineAccount, string memory state) {\n    (id, name, airlineAccount, state) = iFlightSuretyData.getAirlineDetails(_account);\n    return (id, name, airlineAccount, state);\n  }\n\n  function isCallerAirlineRegistered() public view returns(bool) {\n    (bool status) = iFlightSuretyData.isAirlineRegistered(msg.sender);\n    return status;\n  }\n    \n    \n  function getTotalRegisteredAirlines() public view returns(uint256) {\n    return iFlightSuretyData.getTotalRegisteredAirlines();\n  }\n    \n  function getOperationalStatus() public view returns(bool) {\n    return iFlightSuretyData.getOperationalStatus();\n  }\n\n      \n  function getQuorum() public view returns(uint) {\n    return quorum;\n  }\n  \n   /*__________________________________FLIGHT_______________________________*/\n\n  /********************************************************************************************/\n  /*                                       FLIGHT FUNCTIONS                        */\n  /********************************************************************************************/\n\n  function fetchFlightStatus() public {\n    uint8 index = getRandomIndex(msg.sender);\n\n    iFlightSuretyData.fetchFlightStatus(msg.sender, block.timestamp, index);\n  }\n \n\n  /*__________________________________ORACLE_______________________________*/\n\n  /********************************************************************************************/\n  /*                                       ORACLE VARIABLES                         */\n  /********************************************************************************************/\n  uint256 public constant ORACLE_REGISTRATION_FEE = 1 ether;\n  uint8 private nonce = 0;\n\n\n\n\n    /********************************************************************************************/\n  /*                                       ORACLE CORE FUNCTION                               */\n  /********************************************************************************************/\n  function payOracleRegFees() public payable {\n    require(msg.value == ORACLE_REGISTRATION_FEE, 'OR. FEE MUST');\n    (bool sent, ) = flightSuretyDataAddress.call{value: msg.value}('');\n    require(sent, 'SEND FAILED');\n    \n    uint8[3] memory indexes = generateIndexes(msg.sender);\n    iFlightSuretyData.registerOracle(indexes);\n  }\n\n\n  /********************************************************************************************/\n  /*                                      ORACLE UTILITY FUNCTIONS                           */\n  /******************************************************************************************/\n\n  function getRandomIndex(address _account) internal returns(uint8) {\n    uint8 maxValue = 10;\n    uint8 random  = uint8(uint256(keccak256(abi.encodePacked(blockhash(block.number - nonce++), _account))) % maxValue);\n\n    if(nonce > 250) {\n      nonce = 0;\n    }\n\n    return random;\n  }\n  \n  // Return non-duplicating integers\n  function generateIndexes(address _account) internal returns(uint8[3] memory) {\n    uint8[3] memory indexes;\n    indexes[0] = getRandomIndex(_account);\n\n\n    while(indexes[1] == indexes[0]) {\n      indexes[1] = getRandomIndex(_account);\n    }\n\n    while((indexes[2] == indexes[0]) || (indexes[2] == indexes[1])) {\n      indexes[2] =  getRandomIndex(_account);\n    }\n\n    return indexes;\n  }\n\n\n\n\n}\n\n      \n\n\n\n\n\n\ninterface IFlightSuretyData {\n\n  // airline functions\n  function createNewAirline(string memory _name, address _account) external;\n  function updateAirlineStatus(address _account, uint8 _state) external;\n  function onlyAuthorizedAirlines(address _account) external view;\n  function getAirlineAuthorizationStatus(address _account) external view returns(bool status);\n  function getAirlineDetails(address _account) external view returns(uint256 id, string memory name, address airlineAccount, string memory state);\n  function isAirlineRegistered(address _account) external view returns(bool);\n  function onlyRegisteredAirlines(address _account) external view;\n  function getTotalRegisteredAirlines() external view returns(uint256);\n  function enableOperationalStatus(bool _status) external;\n  function getOperationalStatus() external view  returns(bool);\n  function updateToCommitState(uint8 _state) external;\n  function isAirlineCommitted(address _account) external view returns(bool checkStatus);\n\n  // flight functions\n  function fetchFlightStatus(address _airline, uint256 _timestamp, uint8 _index) external;\n\n\n  // oracle functions\n  function registerOracle(uint8[3] memory _indexes) external payable;\n\n}\n\n\n",
  "sourcePath": "/home/sprtd/Desktop/Udacity/lesson-5-flight-surety/flight-surety-project/contracts/FlightSuretyApp.sol",
  "compiler": {
    "name": "solc",
    "version": "0.8.9+commit.e5eed63a.Emscripten.clang"
  },
  "schemaVersion": "3.4.3",
  "updatedAt": "2021-10-31T11:45:50.401Z",
  "networkType": "ethereum",
  "devdoc": {
    "kind": "dev",
    "methods": {},
    "version": 1
  },
  "userdoc": {
    "kind": "user",
    "methods": {},
    "version": 1
  }
}