{
  "contractName": "FlightSuretyData",
  "abi": [
    {
      "anonymous": false,
      "inputs": [
        {
          "indexed": true,
          "internalType": "address",
          "name": "account",
          "type": "address"
        },
        {
          "indexed": false,
          "internalType": "uint256",
          "name": "timestamp",
          "type": "uint256"
        },
        {
          "indexed": false,
          "internalType": "string",
          "name": "airlineStatus",
          "type": "string"
        }
      ],
      "name": "LogCreatedAirline",
      "type": "event"
    },
    {
      "anonymous": false,
      "inputs": [
        {
          "indexed": false,
          "internalType": "bytes32",
          "name": "flightKey",
          "type": "bytes32"
        },
        {
          "indexed": true,
          "internalType": "address",
          "name": "airline",
          "type": "address"
        },
        {
          "indexed": false,
          "internalType": "uint256",
          "name": "timestamp",
          "type": "uint256"
        },
        {
          "indexed": false,
          "internalType": "uint8",
          "name": "statusCode",
          "type": "uint8"
        }
      ],
      "name": "LogFlightRegistered",
      "type": "event"
    },
    {
      "anonymous": false,
      "inputs": [
        {
          "indexed": false,
          "internalType": "address",
          "name": "airline",
          "type": "address"
        },
        {
          "indexed": false,
          "internalType": "string",
          "name": "flight",
          "type": "string"
        },
        {
          "indexed": false,
          "internalType": "uint256",
          "name": "timestamp",
          "type": "uint256"
        },
        {
          "indexed": false,
          "internalType": "uint8",
          "name": "status",
          "type": "uint8"
        }
      ],
      "name": "LogFlightStatusInfo",
      "type": "event"
    },
    {
      "anonymous": false,
      "inputs": [
        {
          "indexed": true,
          "internalType": "address",
          "name": "airline",
          "type": "address"
        },
        {
          "indexed": false,
          "internalType": "uint256",
          "name": "timestamp",
          "type": "uint256"
        }
      ],
      "name": "LogFlightStatusProcessed",
      "type": "event"
    },
    {
      "anonymous": false,
      "inputs": [
        {
          "indexed": true,
          "internalType": "address",
          "name": "oracle",
          "type": "address"
        },
        {
          "indexed": false,
          "internalType": "uint8[3]",
          "name": "indexes",
          "type": "uint8[3]"
        }
      ],
      "name": "LogOracleRegistered",
      "type": "event"
    },
    {
      "anonymous": false,
      "inputs": [
        {
          "indexed": false,
          "internalType": "address",
          "name": "airline",
          "type": "address"
        },
        {
          "indexed": false,
          "internalType": "string",
          "name": "flight",
          "type": "string"
        },
        {
          "indexed": false,
          "internalType": "uint256",
          "name": "timestamp",
          "type": "uint256"
        },
        {
          "indexed": false,
          "internalType": "uint8",
          "name": "status",
          "type": "uint8"
        }
      ],
      "name": "LogOracleReport",
      "type": "event"
    },
    {
      "anonymous": false,
      "inputs": [
        {
          "indexed": false,
          "internalType": "uint8",
          "name": "index",
          "type": "uint8"
        },
        {
          "indexed": false,
          "internalType": "address",
          "name": "airline",
          "type": "address"
        },
        {
          "indexed": false,
          "internalType": "string",
          "name": "flight",
          "type": "string"
        },
        {
          "indexed": false,
          "internalType": "uint256",
          "name": "timestamp",
          "type": "uint256"
        }
      ],
      "name": "LogOracleRequest",
      "type": "event"
    },
    {
      "anonymous": false,
      "inputs": [
        {
          "indexed": true,
          "internalType": "address",
          "name": "account",
          "type": "address"
        },
        {
          "indexed": false,
          "internalType": "uint256",
          "name": "amount",
          "type": "uint256"
        }
      ],
      "name": "LogPassengerInsurance",
      "type": "event"
    },
    {
      "anonymous": false,
      "inputs": [
        {
          "indexed": true,
          "internalType": "address",
          "name": "account",
          "type": "address"
        },
        {
          "indexed": false,
          "internalType": "string",
          "name": "airlineStatus",
          "type": "string"
        }
      ],
      "name": "LogStatusUpdated",
      "type": "event"
    },
    {
      "inputs": [],
      "name": "PASSENGER_INSURANCE_FEE",
      "outputs": [
        {
          "internalType": "uint256",
          "name": "",
          "type": "uint256"
        }
      ],
      "stateMutability": "view",
      "type": "function",
      "constant": true
    },
    {
      "inputs": [
        {
          "internalType": "string",
          "name": "_name",
          "type": "string"
        },
        {
          "internalType": "address",
          "name": "_account",
          "type": "address"
        }
      ],
      "name": "createNewAirline",
      "outputs": [],
      "stateMutability": "nonpayable",
      "type": "function"
    },
    {
      "inputs": [],
      "name": "disableOperational",
      "outputs": [],
      "stateMutability": "nonpayable",
      "type": "function"
    },
    {
      "inputs": [
        {
          "internalType": "bool",
          "name": "_status",
          "type": "bool"
        }
      ],
      "name": "enableOperationalStatus",
      "outputs": [],
      "stateMutability": "nonpayable",
      "type": "function"
    },
    {
      "inputs": [],
      "name": "flightCounter",
      "outputs": [
        {
          "internalType": "uint256",
          "name": "",
          "type": "uint256"
        }
      ],
      "stateMutability": "view",
      "type": "function",
      "constant": true
    },
    {
      "inputs": [
        {
          "internalType": "uint256",
          "name": "",
          "type": "uint256"
        }
      ],
      "name": "flightKeys",
      "outputs": [
        {
          "internalType": "bytes32",
          "name": "",
          "type": "bytes32"
        }
      ],
      "stateMutability": "view",
      "type": "function",
      "constant": true
    },
    {
      "inputs": [
        {
          "internalType": "address",
          "name": "_account",
          "type": "address"
        }
      ],
      "name": "getAirlineApplicationStatus",
      "outputs": [
        {
          "internalType": "string",
          "name": "status",
          "type": "string"
        }
      ],
      "stateMutability": "view",
      "type": "function",
      "constant": true
    },
    {
      "inputs": [
        {
          "internalType": "address",
          "name": "_account",
          "type": "address"
        }
      ],
      "name": "getAirlineAuthorizationStatus",
      "outputs": [
        {
          "internalType": "bool",
          "name": "status",
          "type": "bool"
        }
      ],
      "stateMutability": "view",
      "type": "function",
      "constant": true
    },
    {
      "inputs": [
        {
          "internalType": "address",
          "name": "_account",
          "type": "address"
        }
      ],
      "name": "getAirlineBalance",
      "outputs": [
        {
          "internalType": "uint256",
          "name": "",
          "type": "uint256"
        }
      ],
      "stateMutability": "view",
      "type": "function",
      "constant": true
    },
    {
      "inputs": [
        {
          "internalType": "address",
          "name": "_account",
          "type": "address"
        }
      ],
      "name": "getAirlineDetails",
      "outputs": [
        {
          "internalType": "uint256",
          "name": "id",
          "type": "uint256"
        },
        {
          "internalType": "string",
          "name": "name",
          "type": "string"
        },
        {
          "internalType": "address",
          "name": "airlineAccount",
          "type": "address"
        },
        {
          "internalType": "string",
          "name": "state",
          "type": "string"
        }
      ],
      "stateMutability": "view",
      "type": "function",
      "constant": true
    },
    {
      "inputs": [],
      "name": "getDataBalance",
      "outputs": [
        {
          "internalType": "uint256",
          "name": "",
          "type": "uint256"
        }
      ],
      "stateMutability": "view",
      "type": "function",
      "constant": true
    },
    {
      "inputs": [],
      "name": "getOperationalStatus",
      "outputs": [
        {
          "internalType": "bool",
          "name": "",
          "type": "bool"
        }
      ],
      "stateMutability": "view",
      "type": "function",
      "constant": true
    },
    {
      "inputs": [],
      "name": "getOwner",
      "outputs": [
        {
          "internalType": "address",
          "name": "",
          "type": "address"
        }
      ],
      "stateMutability": "view",
      "type": "function",
      "constant": true
    },
    {
      "inputs": [],
      "name": "getTotalAppliedAirlines",
      "outputs": [
        {
          "internalType": "uint256",
          "name": "",
          "type": "uint256"
        }
      ],
      "stateMutability": "view",
      "type": "function",
      "constant": true
    },
    {
      "inputs": [],
      "name": "getTotalRegisteredAirlines",
      "outputs": [
        {
          "internalType": "uint256",
          "name": "",
          "type": "uint256"
        }
      ],
      "stateMutability": "view",
      "type": "function",
      "constant": true
    },
    {
      "inputs": [
        {
          "internalType": "address",
          "name": "_account",
          "type": "address"
        }
      ],
      "name": "isAirlineCommitted",
      "outputs": [
        {
          "internalType": "bool",
          "name": "checkStatus",
          "type": "bool"
        }
      ],
      "stateMutability": "view",
      "type": "function",
      "constant": true
    },
    {
      "inputs": [
        {
          "internalType": "address",
          "name": "_account",
          "type": "address"
        }
      ],
      "name": "isAirlineRegistered",
      "outputs": [
        {
          "internalType": "bool",
          "name": "checkStatus",
          "type": "bool"
        }
      ],
      "stateMutability": "view",
      "type": "function",
      "constant": true
    },
    {
      "inputs": [
        {
          "internalType": "address",
          "name": "_account",
          "type": "address"
        }
      ],
      "name": "onlyAuthorizeRegistrants",
      "outputs": [],
      "stateMutability": "view",
      "type": "function",
      "constant": true
    },
    {
      "inputs": [
        {
          "internalType": "address",
          "name": "_account",
          "type": "address"
        }
      ],
      "name": "onlyAuthorizedAirlines",
      "outputs": [],
      "stateMutability": "view",
      "type": "function",
      "constant": true
    },
    {
      "inputs": [
        {
          "internalType": "address",
          "name": "_account",
          "type": "address"
        }
      ],
      "name": "onlyRegisteredAirlines",
      "outputs": [],
      "stateMutability": "view",
      "type": "function",
      "constant": true
    },
    {
      "inputs": [
        {
          "internalType": "bool",
          "name": "_status",
          "type": "bool"
        }
      ],
      "name": "setOperatinalStatus",
      "outputs": [],
      "stateMutability": "nonpayable",
      "type": "function"
    },
    {
      "inputs": [
        {
          "internalType": "address",
          "name": "_account",
          "type": "address"
        },
        {
          "internalType": "uint8",
          "name": "_state",
          "type": "uint8"
        }
      ],
      "name": "updateAirlineStatus",
      "outputs": [],
      "stateMutability": "nonpayable",
      "type": "function"
    },
    {
      "inputs": [
        {
          "internalType": "uint8",
          "name": "_state",
          "type": "uint8"
        }
      ],
      "name": "updateToCommitState",
      "outputs": [],
      "stateMutability": "payable",
      "type": "function",
      "payable": true
    },
    {
      "stateMutability": "payable",
      "type": "receive",
      "payable": true
    },
    {
      "inputs": [
        {
          "internalType": "uint8",
          "name": "_statusCode",
          "type": "uint8"
        }
      ],
      "name": "registerFlight",
      "outputs": [],
      "stateMutability": "nonpayable",
      "type": "function"
    },
    {
      "inputs": [
        {
          "internalType": "address",
          "name": "_airline",
          "type": "address"
        },
        {
          "internalType": "uint256",
          "name": "_timestamp",
          "type": "uint256"
        },
        {
          "internalType": "uint8",
          "name": "_index",
          "type": "uint8"
        }
      ],
      "name": "fetchFlightStatus",
      "outputs": [],
      "stateMutability": "nonpayable",
      "type": "function"
    },
    {
      "inputs": [
        {
          "internalType": "uint256",
          "name": "_flightId",
          "type": "uint256"
        }
      ],
      "name": "getFlightDetails",
      "outputs": [
        {
          "internalType": "uint256",
          "name": "id",
          "type": "uint256"
        },
        {
          "internalType": "address",
          "name": "airline",
          "type": "address"
        },
        {
          "internalType": "string",
          "name": "flightName",
          "type": "string"
        },
        {
          "internalType": "uint8",
          "name": "statusCode",
          "type": "uint8"
        },
        {
          "internalType": "bytes32",
          "name": "flightKey",
          "type": "bytes32"
        },
        {
          "internalType": "uint256",
          "name": "timestamp",
          "type": "uint256"
        }
      ],
      "stateMutability": "view",
      "type": "function",
      "constant": true
    },
    {
      "inputs": [
        {
          "internalType": "address",
          "name": "_airline",
          "type": "address"
        },
        {
          "internalType": "uint256",
          "name": "_timestamp",
          "type": "uint256"
        }
      ],
      "name": "generateFlightKey",
      "outputs": [
        {
          "internalType": "bytes32",
          "name": "",
          "type": "bytes32"
        }
      ],
      "stateMutability": "pure",
      "type": "function",
      "constant": true
    },
    {
      "inputs": [
        {
          "internalType": "uint8[3]",
          "name": "_indexes",
          "type": "uint8[3]"
        }
      ],
      "name": "registerOracle",
      "outputs": [],
      "stateMutability": "payable",
      "type": "function",
      "payable": true
    },
    {
      "inputs": [],
      "name": "getOracleIndexes",
      "outputs": [
        {
          "internalType": "uint8[3]",
          "name": "",
          "type": "uint8[3]"
        }
      ],
      "stateMutability": "view",
      "type": "function",
      "constant": true
    },
    {
      "inputs": [
        {
          "internalType": "address",
          "name": "_account",
          "type": "address"
        }
      ],
      "name": "isOracleRegistered",
      "outputs": [
        {
          "internalType": "bool",
          "name": "",
          "type": "bool"
        }
      ],
      "stateMutability": "view",
      "type": "function",
      "constant": true
    },
    {
      "inputs": [
        {
          "internalType": "uint256",
          "name": "_flightId",
          "type": "uint256"
        }
      ],
      "name": "payInsurance",
      "outputs": [],
      "stateMutability": "payable",
      "type": "function",
      "payable": true
    },
    {
      "inputs": [
        {
          "internalType": "address",
          "name": "_account",
          "type": "address"
        }
      ],
      "name": "getPassengerDetails",
      "outputs": [
        {
          "internalType": "uint256",
          "name": "id",
          "type": "uint256"
        },
        {
          "internalType": "address",
          "name": "flightAddress",
          "type": "address"
        },
        {
          "internalType": "string",
          "name": "flightName",
          "type": "string"
        },
        {
          "internalType": "address",
          "name": "passenger",
          "type": "address"
        },
        {
          "internalType": "string",
          "name": "state",
          "type": "string"
        },
        {
          "internalType": "uint256",
          "name": "amount",
          "type": "uint256"
        },
        {
          "internalType": "uint256",
          "name": "refundAmount",
          "type": "uint256"
        }
      ],
      "stateMutability": "view",
      "type": "function",
      "constant": true
    },
    {
      "inputs": [
        {
          "internalType": "address",
          "name": "_account",
          "type": "address"
        }
      ],
      "name": "getPassengerBalance",
      "outputs": [
        {
          "internalType": "uint256",
          "name": "",
          "type": "uint256"
        }
      ],
      "stateMutability": "view",
      "type": "function",
      "constant": true
    }
  ],
  "bytecode": "0x6080604052600060055534801561001557600080fd5b5033600160006101000a81548173ffffffffffffffffffffffffffffffffffffffff021916908373ffffffffffffffffffffffffffffffffffffffff16021790555060018060146101000a81548160ff021916908315150217905550614693806100806000396000f3fe6080604052600436106101f25760003560e01c80638042601f1161010d578063bf0a4f32116100a0578063d539e7ef1161006f578063d539e7ef1461072f578063e0313fe61461076c578063efa3327b14610797578063efbd588e146107c2578063f243be1814610805576101f9565b8063bf0a4f3214610689578063c36515b6146106b2578063c968089e146106dd578063d1fc5c5114610706576101f9565b8063994de453116100dc578063994de453146105cd578063aee1b2a1146105f8578063b10f057b14610623578063b9b55c9a1461064c576101f9565b80638042601f146104ff578063837ee7551461053c57806389208e7214610565578063893d20e8146105a2576101f9565b806336061cca11610185578063508e264e11610154578063508e264e146104545780635addd35a1461047057806369beb8fb146104995780637008414d146104d6576101f9565b806336061cca1461037e578063385de7871461039a5780633d21d827146103d75780634e08804614610414576101f9565b80630cfc7e44116101c15780630cfc7e44146102b8578063175a2ead146102d457806318535008146102ff5780633063b87a14610341576101f9565b8063010c5c97146101fe5780630a6154e61461023b5780630b2653d5146102645780630c9826731461028d576101f9565b366101f957005b600080fd5b34801561020a57600080fd5b50610225600480360381019061022091906131f2565b61081c565b604051610232919061323a565b60405180910390f35b34801561024757600080fd5b50610262600480360381019061025d91906132c4565b6108a3565b005b34801561027057600080fd5b5061028b6004803603810190610286919061345d565b610a2f565b005b34801561029957600080fd5b506102a2610d1f565b6040516102af919061323a565b60405180910390f35b6102d260048036038101906102cd919061356f565b610d36565b005b3480156102e057600080fd5b506102e9610eec565b6040516102f69190613647565b60405180910390f35b34801561030b57600080fd5b5061032660048036038101906103219190613662565b61102c565b6040516103389695949392919061375d565b60405180910390f35b34801561034d57600080fd5b50610368600480360381019061036391906131f2565b6111f3565b604051610375919061323a565b60405180910390f35b610398600480360381019061039391906137c5565b61127a565b005b3480156103a657600080fd5b506103c160048036038101906103bc91906131f2565b611534565b6040516103ce91906137f2565b60405180910390f35b3480156103e357600080fd5b506103fe60048036038101906103f99190613662565b611580565b60405161040b919061380d565b60405180910390f35b34801561042057600080fd5b5061043b600480360381019061043691906131f2565b611598565b60405161044b9493929190613828565b60405180910390f35b61046e60048036038101906104699190613662565b6118a8565b005b34801561047c57600080fd5b50610497600480360381019061049291906131f2565b611d76565b005b3480156104a557600080fd5b506104c060048036038101906104bb91906131f2565b611e2f565b6040516104cd919061387b565b60405180910390f35b3480156104e257600080fd5b506104fd60048036038101906104f891906138c9565b611ed1565b005b34801561050b57600080fd5b50610526600480360381019061052191906131f2565b611faf565b604051610533919061323a565b60405180910390f35b34801561054857600080fd5b50610563600480360381019061055e91906131f2565b6120c5565b005b34801561057157600080fd5b5061058c600480360381019061058791906131f2565b612254565b60405161059991906137f2565b60405180910390f35b3480156105ae57600080fd5b506105b7612275565b6040516105c491906138f6565b60405180910390f35b3480156105d957600080fd5b506105e261229f565b6040516105ef91906137f2565b60405180910390f35b34801561060457600080fd5b5061060d6122a9565b60405161061a91906137f2565b60405180910390f35b34801561062f57600080fd5b5061064a60048036038101906106459190613911565b6122af565b005b34801561065857600080fd5b50610673600480360381019061066e91906131f2565b612656565b604051610680919061323a565b60405180910390f35b34801561069557600080fd5b506106b060048036038101906106ab91906131f2565b6126af565b005b3480156106be57600080fd5b506106c76127c0565b6040516106d491906137f2565b60405180910390f35b3480156106e957600080fd5b5061070460048036038101906106ff91906138c9565b6127cc565b005b34801561071257600080fd5b5061072d600480360381019061072891906137c5565b612847565b005b34801561073b57600080fd5b5061075660048036038101906107519190613951565b612b50565b604051610763919061380d565b60405180910390f35b34801561077857600080fd5b50610781612b83565b60405161078e91906137f2565b60405180910390f35b3480156107a357600080fd5b506107ac612b8b565b6040516107b991906137f2565b60405180910390f35b3480156107ce57600080fd5b506107e960048036038101906107e491906131f2565b612b94565b6040516107fc9796959493929190613991565b60405180910390f35b34801561081157600080fd5b5061081a612f51565b005b600080600360008473ffffffffffffffffffffffffffffffffffffffff1673ffffffffffffffffffffffffffffffffffffffff16815260200190815260200160002060020160009054906101000a900460ff16600381111561088157610880613a0e565b5b905060028160ff161415610898576001915061089d565b600091505b50919050565b60008184846040516020016108ba93929190613adc565b604051602081830303815290604052805190602001209050326009600083815260200190815260200160002060000160006101000a81548173ffffffffffffffffffffffffffffffffffffffff021916908373ffffffffffffffffffffffffffffffffffffffff16021790555060016009600083815260200190815260200160002060000160146101000a81548160ff02191690831515021790555060003073ffffffffffffffffffffffffffffffffffffffff16634e088046866040518263ffffffff1660e01b815260040161099191906138f6565b60006040518083038186803b1580156109a957600080fd5b505afa1580156109bd573d6000803e3d6000fd5b505050506040513d6000823e3d601f19601f820116820180604052508101906109e69190613bb3565b50509150507f3a0e43c5577f0995b7cca5df8615d0aa2a07d84830fec6f0f8d1103d74ab584e83868387604051610a209493929190613c52565b60405180910390a15050505050565b60006003811115610a4357610a42613a0e565b5b600360008373ffffffffffffffffffffffffffffffffffffffff1673ffffffffffffffffffffffffffffffffffffffff16815260200190815260200160002060020160009054906101000a900460ff166003811115610aa557610aa4613a0e565b5b14610ae5576040517f08c379a0000000000000000000000000000000000000000000000000000000008152600401610adc90613cea565b60405180910390fd5b610afb6001600054612f7990919063ffffffff16565b6000819055506040518060800160405280600054815260200183815260200160016003811115610b2e57610b2d613a0e565b5b81526020018273ffffffffffffffffffffffffffffffffffffffff16815250600360008373ffffffffffffffffffffffffffffffffffffffff1673ffffffffffffffffffffffffffffffffffffffff168152602001908152602001600020600082015181600001556020820151816001019080519060200190610bb2929190613021565b5060408201518160020160006101000a81548160ff02191690836003811115610bde57610bdd613a0e565b5b021790555060608201518160020160016101000a81548173ffffffffffffffffffffffffffffffffffffffff021916908373ffffffffffffffffffffffffffffffffffffffff16021790555090505060603073ffffffffffffffffffffffffffffffffffffffff16634e088046836040518263ffffffff1660e01b8152600401610c6891906138f6565b60006040518083038186803b158015610c8057600080fd5b505afa158015610c94573d6000803e3d6000fd5b505050506040513d6000823e3d601f19601f82011682018060405250810190610cbd9190613bb3565b909192509091509050809150503373ffffffffffffffffffffffffffffffffffffffff167fce1dee3a3a541bee70a1b6baacdea5a02354238bbbeac531a8ddaceaa2a37aff4283604051610d12929190613d0a565b60405180910390a2505050565b6000600160149054906101000a900460ff16905090565b600860003273ffffffffffffffffffffffffffffffffffffffff1673ffffffffffffffffffffffffffffffffffffffff16815260200190815260200160002060000160009054906101000a900460ff1615610dc6576040517f08c379a0000000000000000000000000000000000000000000000000000000008152600401610dbd90613d86565b60405180910390fd5b60038014610e09576040517f08c379a0000000000000000000000000000000000000000000000000000000008152600401610e0090613df2565b60405180910390fd5b604051806040016040528060011515815260200182815250600860003273ffffffffffffffffffffffffffffffffffffffff1673ffffffffffffffffffffffffffffffffffffffff16815260200190815260200160002060008201518160000160006101000a81548160ff021916908315150217905550602082015181600101906003610e979291906130a7565b509050503273ffffffffffffffffffffffffffffffffffffffff167fa10fa10a754470eaad1afcf8585e85a652d3ffe39b983f72eca381a6b122f17d82604051610ee19190613647565b60405180910390a250565b610ef4613141565b600860003373ffffffffffffffffffffffffffffffffffffffff1673ffffffffffffffffffffffffffffffffffffffff16815260200190815260200160002060000160009054906101000a900460ff16610f83576040517f08c379a0000000000000000000000000000000000000000000000000000000008152600401610f7a90613e5e565b60405180910390fd5b600860003373ffffffffffffffffffffffffffffffffffffffff1673ffffffffffffffffffffffffffffffffffffffff168152602001908152602001600020600101600380602002604051908101604052809291908260038015611022576020028201916000905b82829054906101000a900460ff1660ff1681526020019060010190602082600001049283019260010382029150808411610feb5790505b5050505050905090565b60008060606000806000808714158061104757506005548711155b611086576040517f08c379a000000000000000000000000000000000000000000000000000000000815260040161107d90613eca565b60405180910390fd5b600060076000898152602001908152602001600020549050600660008281526020019081526020016000206000015496506006600082815260200190815260200160002060010160009054906101000a900473ffffffffffffffffffffffffffffffffffffffff16955060066000828152602001908152602001600020600201805461111190613f19565b80601f016020809104026020016040519081016040528092919081815260200182805461113d90613f19565b801561118a5780601f1061115f5761010080835404028352916020019161118a565b820191906000526020600020905b81548152906001019060200180831161116d57829003601f168201915b505050505094506006600082815260200190815260200160002060030160009054906101000a900460ff16935060066000828152602001908152602001600020600401549250600660008281526020019081526020016000206005015491505091939550919395565b600080600360008473ffffffffffffffffffffffffffffffffffffffff1673ffffffffffffffffffffffffffffffffffffffff16815260200190815260200160002060020160009054906101000a900460ff16600381111561125857611257613a0e565b5b905060038160ff16141561126f5760019150611274565b600091505b50919050565b323073ffffffffffffffffffffffffffffffffffffffff1663bf0a4f32826040518263ffffffff1660e01b81526004016112b491906138f6565b60006040518083038186803b1580156112cc57600080fd5b505afa1580156112e0573d6000803e3d6000fd5b505050506000600360003273ffffffffffffffffffffffffffffffffffffffff1673ffffffffffffffffffffffffffffffffffffffff16815260200190815260200160002060020160009054906101000a900460ff16600381111561134857611347613a0e565b5b905060038360ff161115611391576040517f08c379a000000000000000000000000000000000000000000000000000000000815260040161138890613f97565b60405180910390fd5b8060ff168360ff16116113d9576040517f08c379a00000000000000000000000000000000000000000000000000000000081526004016113d090614029565b60405180910390fd5b60038060003273ffffffffffffffffffffffffffffffffffffffff1673ffffffffffffffffffffffffffffffffffffffff16815260200190815260200160002060020160006101000a81548160ff0219169083600381111561143e5761143d613a0e565b5b021790555060603073ffffffffffffffffffffffffffffffffffffffff16634e088046326040518263ffffffff1660e01b815260040161147e91906138f6565b60006040518083038186803b15801561149657600080fd5b505afa1580156114aa573d6000803e3d6000fd5b505050506040513d6000823e3d601f19601f820116820180604052508101906114d39190613bb3565b909192509091509050809150503273ffffffffffffffffffffffffffffffffffffffff167f430b758c1e0fe319aaa192e7d56d4f39ae97698a3a489e48954ea3ce634c26e182604051611526919061387b565b60405180910390a250505050565b6000600a60008373ffffffffffffffffffffffffffffffffffffffff1673ffffffffffffffffffffffffffffffffffffffff168152602001908152602001600020600401549050919050565b60076020528060005260406000206000915090505481565b60006060600060606000600360008773ffffffffffffffffffffffffffffffffffffffff1673ffffffffffffffffffffffffffffffffffffffff16815260200190815260200160002060020160009054906101000a900460ff16600381111561160457611603613a0e565b5b905060008160ff16141561164f576040518060400160405280600a81526020017f556e61737369676e6564000000000000000000000000000000000000000000008152509150611729565b60018160ff161415611698576040518060400160405280600781526020017f4170706c696564000000000000000000000000000000000000000000000000008152509150611728565b60028160ff1614156116e1576040518060400160405280600a81526020017f52656769737465726564000000000000000000000000000000000000000000008152509150611727565b60038160ff161415611726576040518060400160405280600981526020017f436f6d6d6974746564000000000000000000000000000000000000000000000081525091505b5b5b5b600360008773ffffffffffffffffffffffffffffffffffffffff1673ffffffffffffffffffffffffffffffffffffffff168152602001908152602001600020600001549450600360008773ffffffffffffffffffffffffffffffffffffffff1673ffffffffffffffffffffffffffffffffffffffff16815260200190815260200160002060010180546117bb90613f19565b80601f01602080910402602001604051908101604052809291908181526020018280546117e790613f19565b80156118345780601f1061180957610100808354040283529160200191611834565b820191906000526020600020905b81548152906001019060200180831161181757829003601f168201915b50505050509350600360008773ffffffffffffffffffffffffffffffffffffffff1673ffffffffffffffffffffffffffffffffffffffff16815260200190815260200160002060020160019054906101000a900473ffffffffffffffffffffffffffffffffffffffff169250509193509193565b6000811415806118ba57506005548111155b6118f9576040517f08c379a00000000000000000000000000000000000000000000000000000000081526004016118f090613eca565b60405180910390fd5b60006007600083815260200190815260200160002054905060066000828152602001908152602001600020600001548214611969576040517f08c379a000000000000000000000000000000000000000000000000000000000815260040161196090614095565b60405180910390fd5b60008060003073ffffffffffffffffffffffffffffffffffffffff16634e0880466006600087815260200190815260200160002060010160009054906101000a900473ffffffffffffffffffffffffffffffffffffffff166040518263ffffffff1660e01b81526004016119dd91906138f6565b60006040518083038186803b1580156119f557600080fd5b505afa158015611a09573d6000803e3d6000fd5b505050506040513d6000823e3d601f19601f82011682018060405250810190611a329190613bb3565b50925092509250670de0b6b3a7640000341115611a84576040517f08c379a0000000000000000000000000000000000000000000000000000000008152600401611a7b90614101565b60405180910390fd5b60003073ffffffffffffffffffffffffffffffffffffffff1634604051611aaa90614152565b60006040518083038185875af1925050503d8060008114611ae7576040519150601f19603f3d011682016040523d82523d6000602084013e611aec565b606091505b5050905080611b30576040517f08c379a0000000000000000000000000000000000000000000000000000000008152600401611b27906141b3565b60405180910390fd5b6040518060e001604052808581526020018373ffffffffffffffffffffffffffffffffffffffff1681526020013373ffffffffffffffffffffffffffffffffffffffff16815260200184815260200134815260200160016002811115611b9957611b98613a0e565b5b81526020016000815250600a60003373ffffffffffffffffffffffffffffffffffffffff1673ffffffffffffffffffffffffffffffffffffffff1681526020019081526020016000206000820151816000015560208201518160010160006101000a81548173ffffffffffffffffffffffffffffffffffffffff021916908373ffffffffffffffffffffffffffffffffffffffff16021790555060408201518160020160006101000a81548173ffffffffffffffffffffffffffffffffffffffff021916908373ffffffffffffffffffffffffffffffffffffffff1602179055506060820151816003019080519060200190611c96929190613021565b506080820151816004015560a08201518160050160006101000a81548160ff02191690836002811115611ccc57611ccb613a0e565b5b021790555060c082015181600601559050503373ffffffffffffffffffffffffffffffffffffffff167fd7973fc11875159721f15bfe308594241b8801c905a8745183c4557e8ce879fb600a60003373ffffffffffffffffffffffffffffffffffffffff1673ffffffffffffffffffffffffffffffffffffffff16815260200190815260200160002060040154604051611d6691906137f2565b60405180910390a2505050505050565b60026003811115611d8a57611d89613a0e565b5b600360008373ffffffffffffffffffffffffffffffffffffffff1673ffffffffffffffffffffffffffffffffffffffff16815260200190815260200160002060020160009054906101000a900460ff166003811115611dec57611deb613a0e565b5b14611e2c576040517f08c379a0000000000000000000000000000000000000000000000000000000008152600401611e239061421f565b60405180910390fd5b50565b60603073ffffffffffffffffffffffffffffffffffffffff16634e088046836040518263ffffffff1660e01b8152600401611e6a91906138f6565b60006040518083038186803b158015611e8257600080fd5b505afa158015611e96573d6000803e3d6000fd5b505050506040513d6000823e3d601f19601f82011682018060405250810190611ebf9190613bb3565b90919250909150905080915050919050565b323073ffffffffffffffffffffffffffffffffffffffff16635addd35a826040518263ffffffff1660e01b8152600401611f0b91906138f6565b60006040518083038186803b158015611f2357600080fd5b505afa158015611f37573d6000803e3d6000fd5b50505050811515600160149054906101000a900460ff1615151415611f91576040517f08c379a0000000000000000000000000000000000000000000000000000000008152600401611f889061428b565b60405180910390fd5b81600160146101000a81548160ff0219169083151502179055505050565b600060016003811115611fc557611fc4613a0e565b5b600360008473ffffffffffffffffffffffffffffffffffffffff1673ffffffffffffffffffffffffffffffffffffffff16815260200190815260200160002060020160009054906101000a900460ff16600381111561202757612026613a0e565b5b141561203657600190506120c0565b6002600381111561204a57612049613a0e565b5b600360008473ffffffffffffffffffffffffffffffffffffffff1673ffffffffffffffffffffffffffffffffffffffff16815260200190815260200160002060020160009054906101000a900460ff1660038111156120ac576120ab613a0e565b5b14156120bb57600190506120c0565b600090505b919050565b600160009054906101000a900473ffffffffffffffffffffffffffffffffffffffff1673ffffffffffffffffffffffffffffffffffffffff168173ffffffffffffffffffffffffffffffffffffffff1614806121945750600160038111156121305761212f613a0e565b5b600360008373ffffffffffffffffffffffffffffffffffffffff1673ffffffffffffffffffffffffffffffffffffffff16815260200190815260200160002060020160009054906101000a900460ff16600381111561219257612191613a0e565b5b145b806122125750600260038111156121ae576121ad613a0e565b5b600360008373ffffffffffffffffffffffffffffffffffffffff1673ffffffffffffffffffffffffffffffffffffffff16815260200190815260200160002060020160009054906101000a900460ff1660038111156122105761220f613a0e565b5b145b612251576040517f08c379a0000000000000000000000000000000000000000000000000000000008152600401612248906142f7565b60405180910390fd5b50565b60008173ffffffffffffffffffffffffffffffffffffffff16319050919050565b6000600160009054906101000a900473ffffffffffffffffffffffffffffffffffffffff16905090565b6000600254905090565b60055481565b813073ffffffffffffffffffffffffffffffffffffffff1663837ee755826040518263ffffffff1660e01b81526004016122e991906138f6565b60006040518083038186803b15801561230157600080fd5b505afa158015612315573d6000803e3d6000fd5b50505050600160149054906101000a900460ff16612368576040517f08c379a000000000000000000000000000000000000000000000000000000000815260040161235f90614363565b60405180910390fd5b6000600360008573ffffffffffffffffffffffffffffffffffffffff1673ffffffffffffffffffffffffffffffffffffffff16815260200190815260200160002060020160009054906101000a900460ff1660038111156123cc576123cb613a0e565b5b905060038360ff161115612415576040517f08c379a000000000000000000000000000000000000000000000000000000000815260040161240c90613f97565b60405180910390fd5b8060ff168360ff161161245d576040517f08c379a000000000000000000000000000000000000000000000000000000000815260040161245490614029565b60405180910390fd5b612465612f51565b8260ff16600381111561247b5761247a613a0e565b5b600360008673ffffffffffffffffffffffffffffffffffffffff1673ffffffffffffffffffffffffffffffffffffffff16815260200190815260200160002060020160006101000a81548160ff021916908360038111156124df576124de613a0e565b5b02179055506124fa6001600254612f7990919063ffffffff16565b600281905550600360008573ffffffffffffffffffffffffffffffffffffffff1673ffffffffffffffffffffffffffffffffffffffff16815260200190815260200160002060020160009054906101000a900460ff16600381111561256257612561613a0e565b5b905060603073ffffffffffffffffffffffffffffffffffffffff16634e088046866040518263ffffffff1660e01b815260040161259f91906138f6565b60006040518083038186803b1580156125b757600080fd5b505afa1580156125cb573d6000803e3d6000fd5b505050506040513d6000823e3d601f19601f820116820180604052508101906125f49190613bb3565b909192509091509050809150508473ffffffffffffffffffffffffffffffffffffffff167f430b758c1e0fe319aaa192e7d56d4f39ae97698a3a489e48954ea3ce634c26e182604051612647919061387b565b60405180910390a25050505050565b6000600860008373ffffffffffffffffffffffffffffffffffffffff1673ffffffffffffffffffffffffffffffffffffffff16815260200190815260200160002060000160009054906101000a900460ff169050919050565b600260038111156126c3576126c2613a0e565b5b600360008373ffffffffffffffffffffffffffffffffffffffff1673ffffffffffffffffffffffffffffffffffffffff16815260200190815260200160002060020160009054906101000a900460ff16600381111561272557612724613a0e565b5b148061277e5750600160009054906101000a900473ffffffffffffffffffffffffffffffffffffffff1673ffffffffffffffffffffffffffffffffffffffff168173ffffffffffffffffffffffffffffffffffffffff16145b6127bd576040517f08c379a00000000000000000000000000000000000000000000000000000000081526004016127b4906143cf565b60405180910390fd5b50565b670de0b6b3a764000081565b6127d4612f8f565b801515600160149054906101000a900460ff161515141561282a576040517f08c379a00000000000000000000000000000000000000000000000000000000081526004016128219061443b565b60405180910390fd5b80600160146101000a81548160ff02191690831515021790555050565b60003073ffffffffffffffffffffffffffffffffffffffff16633063b87a336040518263ffffffff1660e01b815260040161288291906138f6565b60206040518083038186803b15801561289a57600080fd5b505afa1580156128ae573d6000803e3d6000fd5b505050506040513d601f19601f820116820180604052508101906128d29190614470565b9050600115158115151461291b576040517f08c379a0000000000000000000000000000000000000000000000000000000008152600401612912906144e9565b60405180910390fd5b60008060003073ffffffffffffffffffffffffffffffffffffffff16634e088046336040518263ffffffff1660e01b815260040161295991906138f6565b60006040518083038186803b15801561297157600080fd5b505afa158015612985573d6000803e3d6000fd5b505050506040513d6000823e3d601f19601f820116820180604052508101906129ae9190613bb3565b509250925092506129cb6001600554612f7990919063ffffffff16565b60058190555060006129dd3342612b50565b90508060076000868152602001908152602001600020819055506040518060c001604052808581526020018373ffffffffffffffffffffffffffffffffffffffff1681526020018481526020018760ff16815260200182815260200142815250600660008381526020019081526020016000206000820151816000015560208201518160010160006101000a81548173ffffffffffffffffffffffffffffffffffffffff021916908373ffffffffffffffffffffffffffffffffffffffff1602179055506040820151816002019080519060200190612abd929190613021565b5060608201518160030160006101000a81548160ff021916908360ff1602179055506080820151816004015560a082015181600501559050503373ffffffffffffffffffffffffffffffffffffffff167f05023e85c1f832f6c16da81d43b114f6c4bce6fe45323820d27285d93cbb1b16824289604051612b4093929190614509565b60405180910390a2505050505050565b60008282604051602001612b65929190614540565b60405160208183030381529060405280519060200120905092915050565b600047905090565b60008054905090565b6000806060600060606000806000600a60008a73ffffffffffffffffffffffffffffffffffffffff1673ffffffffffffffffffffffffffffffffffffffff16815260200190815260200160002060050160009054906101000a900460ff166002811115612c0457612c03613a0e565b5b905060008160ff161415612c4f576040518060400160405280600a81526020017f556e61737369676e6564000000000000000000000000000000000000000000008152509350612cdf565b60018160ff161415612c98576040518060400160405280600481526020017f50616964000000000000000000000000000000000000000000000000000000008152509350612cde565b60028160ff161415612cdd576040518060400160405280600781526020017f436c61696d65640000000000000000000000000000000000000000000000000081525093505b5b5b600a60008a73ffffffffffffffffffffffffffffffffffffffff1673ffffffffffffffffffffffffffffffffffffffff168152602001908152602001600020600001549750600a60008a73ffffffffffffffffffffffffffffffffffffffff1673ffffffffffffffffffffffffffffffffffffffff1681526020019081526020016000206003018054612d7190613f19565b80601f0160208091040260200160405190810160405280929190818152602001828054612d9d90613f19565b8015612dea5780601f10612dbf57610100808354040283529160200191612dea565b820191906000526020600020905b815481529060010190602001808311612dcd57829003601f168201915b50505050509550600a60008a73ffffffffffffffffffffffffffffffffffffffff1673ffffffffffffffffffffffffffffffffffffffff16815260200190815260200160002060010160009054906101000a900473ffffffffffffffffffffffffffffffffffffffff169650600a60008a73ffffffffffffffffffffffffffffffffffffffff1673ffffffffffffffffffffffffffffffffffffffff16815260200190815260200160002060020160009054906101000a900473ffffffffffffffffffffffffffffffffffffffff169450600a60008a73ffffffffffffffffffffffffffffffffffffffff1673ffffffffffffffffffffffffffffffffffffffff168152602001908152602001600020600401549250600a60008a73ffffffffffffffffffffffffffffffffffffffff1673ffffffffffffffffffffffffffffffffffffffff16815260200190815260200160002060060154915050919395979092949650565b600460025410612f77576000600160146101000a81548160ff0219169083151502179055505b565b60008183612f87919061459b565b905092915050565b600160009054906101000a900473ffffffffffffffffffffffffffffffffffffffff1673ffffffffffffffffffffffffffffffffffffffff163373ffffffffffffffffffffffffffffffffffffffff161461301f576040517f08c379a00000000000000000000000000000000000000000000000000000000081526004016130169061463d565b60405180910390fd5b565b82805461302d90613f19565b90600052602060002090601f01602090048101928261304f5760008555613096565b82601f1061306857805160ff1916838001178555613096565b82800160010185558215613096579182015b8281111561309557825182559160200191906001019061307a565b5b5090506130a39190613163565b5090565b826003601f016020900481019282156131305791602002820160005b8382111561310157835183826101000a81548160ff021916908360ff16021790555092602001926001016020816000010492830192600103026130c3565b801561312e5782816101000a81549060ff0219169055600101602081600001049283019260010302613101565b505b50905061313d9190613163565b5090565b6040518060600160405280600390602082028036833780820191505090505090565b5b8082111561317c576000816000905550600101613164565b5090565b6000604051905090565b600080fd5b600080fd5b600073ffffffffffffffffffffffffffffffffffffffff82169050919050565b60006131bf82613194565b9050919050565b6131cf816131b4565b81146131da57600080fd5b50565b6000813590506131ec816131c6565b92915050565b6000602082840312156132085761320761318a565b5b6000613216848285016131dd565b91505092915050565b60008115159050919050565b6132348161321f565b82525050565b600060208201905061324f600083018461322b565b92915050565b6000819050919050565b61326881613255565b811461327357600080fd5b50565b6000813590506132858161325f565b92915050565b600060ff82169050919050565b6132a18161328b565b81146132ac57600080fd5b50565b6000813590506132be81613298565b92915050565b6000806000606084860312156132dd576132dc61318a565b5b60006132eb868287016131dd565b93505060206132fc86828701613276565b925050604061330d868287016132af565b9150509250925092565b600080fd5b600080fd5b6000601f19601f8301169050919050565b7f4e487b7100000000000000000000000000000000000000000000000000000000600052604160045260246000fd5b61336a82613321565b810181811067ffffffffffffffff8211171561338957613388613332565b5b80604052505050565b600061339c613180565b90506133a88282613361565b919050565b600067ffffffffffffffff8211156133c8576133c7613332565b5b6133d182613321565b9050602081019050919050565b82818337600083830152505050565b60006134006133fb846133ad565b613392565b90508281526020810184848401111561341c5761341b61331c565b5b6134278482856133de565b509392505050565b600082601f83011261344457613443613317565b5b81356134548482602086016133ed565b91505092915050565b600080604083850312156134745761347361318a565b5b600083013567ffffffffffffffff8111156134925761349161318f565b5b61349e8582860161342f565b92505060206134af858286016131dd565b9150509250929050565b600067ffffffffffffffff8211156134d4576134d3613332565b5b602082029050919050565b600080fd5b60006134f76134f2846134b9565b613392565b90508060208402830185811115613511576135106134df565b5b835b8181101561353a578061352688826132af565b845260208401935050602081019050613513565b5050509392505050565b600082601f83011261355957613558613317565b5b60036135668482856134e4565b91505092915050565b6000606082840312156135855761358461318a565b5b600061359384828501613544565b91505092915050565b600060039050919050565b600081905092915050565b6000819050919050565b6135c58161328b565b82525050565b60006135d783836135bc565b60208301905092915050565b6000602082019050919050565b6135f98161359c565b61360381846135a7565b925061360e826135b2565b8060005b8381101561363f57815161362687826135cb565b9650613631836135e3565b925050600181019050613612565b505050505050565b600060608201905061365c60008301846135f0565b92915050565b6000602082840312156136785761367761318a565b5b600061368684828501613276565b91505092915050565b61369881613255565b82525050565b6136a7816131b4565b82525050565b600081519050919050565b600082825260208201905092915050565b60005b838110156136e75780820151818401526020810190506136cc565b838111156136f6576000848401525b50505050565b6000613707826136ad565b61371181856136b8565b93506137218185602086016136c9565b61372a81613321565b840191505092915050565b61373e8161328b565b82525050565b6000819050919050565b61375781613744565b82525050565b600060c082019050613772600083018961368f565b61377f602083018861369e565b818103604083015261379181876136fc565b90506137a06060830186613735565b6137ad608083018561374e565b6137ba60a083018461368f565b979650505050505050565b6000602082840312156137db576137da61318a565b5b60006137e9848285016132af565b91505092915050565b6000602082019050613807600083018461368f565b92915050565b6000602082019050613822600083018461374e565b92915050565b600060808201905061383d600083018761368f565b818103602083015261384f81866136fc565b905061385e604083018561369e565b818103606083015261387081846136fc565b905095945050505050565b6000602082019050818103600083015261389581846136fc565b905092915050565b6138a68161321f565b81146138b157600080fd5b50565b6000813590506138c38161389d565b92915050565b6000602082840312156138df576138de61318a565b5b60006138ed848285016138b4565b91505092915050565b600060208201905061390b600083018461369e565b92915050565b600080604083850312156139285761392761318a565b5b6000613936858286016131dd565b9250506020613947858286016132af565b9150509250929050565b600080604083850312156139685761396761318a565b5b6000613976858286016131dd565b925050602061398785828601613276565b9150509250929050565b600060e0820190506139a6600083018a61368f565b6139b3602083018961369e565b81810360408301526139c581886136fc565b90506139d4606083018761369e565b81810360808301526139e681866136fc565b90506139f560a083018561368f565b613a0260c083018461368f565b98975050505050505050565b7f4e487b7100000000000000000000000000000000000000000000000000000000600052602160045260246000fd5b60008160f81b9050919050565b6000613a5582613a3d565b9050919050565b613a6d613a688261328b565b613a4a565b82525050565b60008160601b9050919050565b6000613a8b82613a73565b9050919050565b6000613a9d82613a80565b9050919050565b613ab5613ab0826131b4565b613a92565b82525050565b6000819050919050565b613ad6613ad182613255565b613abb565b82525050565b6000613ae88286613a5c565b600182019150613af88285613aa4565b601482019150613b088284613ac5565b602082019150819050949350505050565b600081519050613b288161325f565b92915050565b6000613b41613b3c846133ad565b613392565b905082815260208101848484011115613b5d57613b5c61331c565b5b613b688482856136c9565b509392505050565b600082601f830112613b8557613b84613317565b5b8151613b95848260208601613b2e565b91505092915050565b600081519050613bad816131c6565b92915050565b60008060008060808587031215613bcd57613bcc61318a565b5b6000613bdb87828801613b19565b945050602085015167ffffffffffffffff811115613bfc57613bfb61318f565b5b613c0887828801613b70565b9350506040613c1987828801613b9e565b925050606085015167ffffffffffffffff811115613c3a57613c3961318f565b5b613c4687828801613b70565b91505092959194509250565b6000608082019050613c676000830187613735565b613c74602083018661369e565b8181036040830152613c8681856136fc565b9050613c95606083018461368f565b95945050505050565b7f6169726c696e65206e6f7420696e20756e61737369676e656420737461746500600082015250565b6000613cd4601f836136b8565b9150613cdf82613c9e565b602082019050919050565b60006020820190508181036000830152613d0381613cc7565b9050919050565b6000604082019050613d1f600083018561368f565b8181036020830152613d3181846136fc565b90509392505050565b7f4f522e2072656769737465726564000000000000000000000000000000000000600082015250565b6000613d70600e836136b8565b9150613d7b82613d3a565b602082019050919050565b60006020820190508181036000830152613d9f81613d63565b9050919050565b7f494e442e20526571000000000000000000000000000000000000000000000000600082015250565b6000613ddc6008836136b8565b9150613de782613da6565b602082019050919050565b60006020820190508181036000830152613e0b81613dcf565b9050919050565b7f63616c6c6572206e6f742072656769737465726564206f7261636c6500000000600082015250565b6000613e48601c836136b8565b9150613e5382613e12565b602082019050919050565b60006020820190508181036000830152613e7781613e3b565b9050919050565b7f696e76616c696420666c69676874206964000000000000000000000000000000600082015250565b6000613eb46011836136b8565b9150613ebf82613e7e565b602082019050919050565b60006020820190508181036000830152613ee381613ea7565b9050919050565b7f4e487b7100000000000000000000000000000000000000000000000000000000600052602260045260246000fd5b60006002820490506001821680613f3157607f821691505b60208210811415613f4557613f44613eea565b5b50919050565b7f6e6f742077697468696e20656e756d2072616e67650000000000000000000000600082015250565b6000613f816015836136b8565b9150613f8c82613f4b565b602082019050919050565b60006020820190508181036000830152613fb081613f74565b9050919050565b7f7374617475732063616e6e6f74206265206c6f776572207468616e206375727260008201527f656e742073746174650000000000000000000000000000000000000000000000602082015250565b60006140136029836136b8565b915061401e82613fb7565b604082019050919050565b6000602082019050818103600083015261404281614006565b9050919050565b7f666c6967687420646f6573206e6f742065786973740000000000000000000000600082015250565b600061407f6015836136b8565b915061408a82614049565b602082019050919050565b600060208201905081810360008301526140ae81614072565b9050919050565b7f3145544820696e737572616e6365206d75737420626520706169640000000000600082015250565b60006140eb601b836136b8565b91506140f6826140b5565b602082019050919050565b6000602082019050818103600083015261411a816140de565b9050919050565b600081905092915050565b50565b600061413c600083614121565b91506141478261412c565b600082019050919050565b600061415d8261412f565b9150819050919050565b7f6661696c656420746f2073656e64204554480000000000000000000000000000600082015250565b600061419d6012836136b8565b91506141a882614167565b602082019050919050565b600060208201905081810360008301526141cc81614190565b9050919050565b7f63616c6c6572206e6f7420726567697374657265640000000000000000000000600082015250565b60006142096015836136b8565b9150614214826141d3565b602082019050919050565b60006020820190508181036000830152614238816141fc565b9050919050565b7f616c726561647920696e206f7065726174696f6e616c206d6f64650000000000600082015250565b6000614275601b836136b8565b91506142808261423f565b602082019050919050565b600060208201905081810360008301526142a481614268565b9050919050565b7f6169726c696e65206e6f7420617574686f72697a656400000000000000000000600082015250565b60006142e16016836136b8565b91506142ec826142ab565b602082019050919050565b60006020820190508181036000830152614310816142d4565b9050919050565b7f636f6e7472616374206e6f74206f7065726174696f6e616c0000000000000000600082015250565b600061434d6018836136b8565b915061435882614317565b602082019050919050565b6000602082019050818103600083015261437c81614340565b9050919050565b7f6e6f7420617574686f72697a656420746f207265676973746572000000000000600082015250565b60006143b9601a836136b8565b91506143c482614383565b602082019050919050565b600060208201905081810360008301526143e8816143ac565b9050919050565b7f6d757374206e6f742062652063757272656e7420737461747573000000000000600082015250565b6000614425601a836136b8565b9150614430826143ef565b602082019050919050565b6000602082019050818103600083015261445481614418565b9050919050565b60008151905061446a8161389d565b92915050565b6000602082840312156144865761448561318a565b5b60006144948482850161445b565b91505092915050565b7f6169726c696e65206e6f7420636f6d6d69746564000000000000000000000000600082015250565b60006144d36014836136b8565b91506144de8261449d565b602082019050919050565b60006020820190508181036000830152614502816144c6565b9050919050565b600060608201905061451e600083018661374e565b61452b602083018561368f565b6145386040830184613735565b949350505050565b600061454c8285613aa4565b60148201915061455c8284613ac5565b6020820191508190509392505050565b7f4e487b7100000000000000000000000000000000000000000000000000000000600052601160045260246000fd5b60006145a682613255565b91506145b183613255565b9250827fffffffffffffffffffffffffffffffffffffffffffffffffffffffffffffffff038211156145e6576145e561456c565b5b828201905092915050565b7f63616c6c6572206e6f74206f776e657200000000000000000000000000000000600082015250565b60006146276010836136b8565b9150614632826145f1565b602082019050919050565b600060208201905081810360008301526146568161461a565b905091905056fea264697066735822122027005f5936bfb2889d9842687eebe69a4d30b393d2bbe10ce71d912ce988960664736f6c63430008090033",
  "immutableReferences": {},
  "source": "// SPDX-License-Identifier: MIT\npragma solidity ^0.8.0;\n\nimport '@openzeppelin/contracts/utils/math/SafeMath.sol';\nimport './AirlineData.sol';\n\ncontract FlightSuretyData is AirlineData {\n  using SafeMath for uint256;\n\n  /********************************************************************************************/\n  /*                                      FLIGHT STATE VARIABLES                          */\n  /******************************************************************************************/\n\n  // Flight status codes\n  uint8 private constant STATUS_CODE_UNKNOWN = 0;\n  uint8 private constant STATUS_CODE_ON_TIME = 10;\n  uint8 private constant STATUS_CODE_LATE_AIRLINE = 20;\n  uint8 private constant STATUS_CODE_LATE_WEATHER = 30;\n  uint8 private constant STATUS_CODE_LATE_TECHNICAL = 40;\n  uint8 private constant STATUS_CODE_LATE_OTHER = 50;\n\n  uint256 public flightCounter = 0;\n  struct Flight {\n    uint256 id;\n    address airline;\n    string flightName;\n    uint8 statusCode;\n    bytes32 flightKey;\n    uint256 timestamp;\n\n  }\n\n  mapping(bytes32 => Flight) private flights;\n\n  mapping(uint256 => bytes32) public flightKeys;\n\n  /********************************************************************************************/\n  /*                                      FLIGHT EVENTS                                      */\n  /******************************************************************************************/\n\n  event LogFlightRegistered(bytes32 flightKey, address indexed airline, uint256 timestamp, uint8 statusCode);\n  event LogFlightStatusProcessed(address indexed airline, uint256 timestamp);\n\n   // Event fired when flight status request is requested\n  event LogOracleRequest(uint8 index, address airline, string flight, uint256 timestamp);\n\n  /********************************************************************************************/\n  /*                                      FLIGHT CORE FUNCTIONS                 */\n  /******************************************************************************************/\n  \n  // Register flight\n  function registerFlight(uint8 _statusCode) public {\n    (bool checkStatus ) = this.isAirlineCommitted(msg.sender);\n    require(checkStatus == true, 'airline not commited');\n\n    (uint256 id, string memory name, address airlineAccount,) = this.getAirlineDetails(msg.sender);  \n\n    flightCounter = flightCounter.add(1);\n    \n\n    bytes32 flightKey = generateFlightKey(msg.sender, block.timestamp);\n\n    flightKeys[id] = flightKey;\n  \n\n    flights[flightKey] = Flight({\n      id: id,\n      airline: airlineAccount,\n      flightName: name,\n      statusCode: _statusCode,\n      flightKey: flightKey,\n      timestamp: block.timestamp\n    });\n\n    emit LogFlightRegistered(flightKey, msg.sender, block.timestamp, _statusCode);\n  }\n\n  function processFlightStatus(address _airline, uint256 _timestamp, uint8 _statusCode)  private {\n    bytes32 key = generateFlightKey(_airline, _timestamp);\n    flights[key].statusCode = _statusCode;\n\n    emit LogFlightStatusProcessed(_airline, _timestamp);\n  }\n\n  // Generate a request for oracles  to fetch flight information\n  function fetchFlightStatus(address _airline, uint256 _timestamp, uint8 _index) external {\n    // uint8 index = getRandomIndex(msg.sender);\n\n    // Generate a unique key for storing  the request\n    bytes32 key = keccak256(abi.encodePacked(_index, _airline, _timestamp));\n    oracleResponses[key].requester = tx.origin;\n    oracleResponses[key].isOpen = true;\n\n    (,string memory name,,) = this.getAirlineDetails(_airline); \n\n    emit LogOracleRequest(_index, _airline, name, _timestamp);\n\n  }\n\n  // Get flight details\n  function getFlightDetails(uint256 _flightId) public view returns\n    (\n      uint256 id, \n      address airline, \n      string memory flightName,\n      uint8 statusCode, \n      bytes32 flightKey, \n      uint256 timestamp\n\n    )\n  {\n    require(_flightId != 0 || _flightId <= flightCounter, 'invalid flight id');\n    bytes32 key = flightKeys[_flightId];\n    id = flights[key].id;\n    airline = flights[key].airline;\n    flightName = flights[key].flightName;\n    statusCode = flights[key].statusCode;\n    flightKey = flights[key].flightKey;\n    timestamp = flights[key].timestamp;\n    \n  }\n  \n  /********************************************************************************************/\n  /*                                      FLIGHT UTILITY FUNCTIONS                 */\n  /******************************************************************************************/\n\n  function generateFlightKey(address _airline, uint256 _timestamp) public pure returns(bytes32) {\n    return keccak256(abi.encodePacked(_airline, _timestamp));\n  }\n\n\n\n\n  /*__________________________________ORACLE______________________________*/\n\n  \n  /********************************************************************************************/\n  /*                               ORACLE STATE VARIABLES                                    */\n  /******************************************************************************************/\n  // Number of oracles that must respond for valid status\n  uint256 private constant  MIN_RESPONSES = 3;\n\n  struct Oracle {\n    bool isRegistered;\n    uint8[3] indexes;\n  }\n\n  // Track all registered oracles\n  mapping(address => Oracle) private oracles; \n\n  // Model for responses from oracles\n  struct ResponseInfo {\n    address requester;  // account that triggered the requested status\n    bool isOpen;        // if open, oracle responses are accepted\n    mapping(uint8 => address[]) responses; // key is the status code reported\n  }\n\n  // Track all oracle responses \n  mapping(bytes32 => ResponseInfo) oracleResponses;\n\n\n  /********************************************************************************************/\n  /*                                    ORACLE  EVENTS                                             */\n  /******************************************************************************************/\n  event LogOracleRegistered(address indexed oracle, uint8[3] indexes);\n\n  // Event fired each time an oracle submits a response\n  event LogFlightStatusInfo(address airline, string flight, uint256 timestamp, uint8 status);\n\n  event LogOracleReport(address airline, string flight, uint256 timestamp, uint8 status);\n\n  /********************************************************************************************/\n  /*                                      ORACLE CORE FUNCTIONS                              */\n  /******************************************************************************************/\n  function registerOracle(uint8[3] memory _indexes) external payable {\n\n    // require(msg.value == ORACLE_REGISTRATION_FEE, 'oracle reg. fee required');\n    require(!oracles[tx.origin].isRegistered, 'OR. registered');\n    require(_indexes.length == 3, 'IND. Req');\n    oracles[tx.origin] = Oracle({\n      isRegistered: true,\n      indexes: _indexes\n    });\n\n    emit LogOracleRegistered(tx.origin, _indexes);\n\n  }\n\n  /********************************************************************************************/\n  /*                                      ORACLE UTILITY FUNCTIONS                           */\n  /******************************************************************************************/\n  function getOracleIndexes() external view returns(uint8[3] memory) {\n    require(oracles[msg.sender].isRegistered, 'caller not registered oracle');\n    return oracles[msg.sender].indexes;\n\n  }\n\n  function isOracleRegistered(address _account) public view returns(bool) {\n    return oracles[_account].isRegistered;\n  }\n\n \n\n\n  \n \n  /*__________________________________PASSENGER_______________________________*/\n\n\n  /********************************************************************************************/\n  /*                                      PASSENGER STATE VARIABLE FUNCTIONS                            */\n  /********************************************************************************************/\n\n  enum PassengerInsuranceState {\n    Unassigned,\n    Paid,\n    Claimed\n  }\n\n  struct Insurance {\n    uint256 id;\n    address flightAddress;\n    address passenger;\n    string flightName;\n    uint256 amount;\n    PassengerInsuranceState state;\n    uint256 refundAmount;\n  }\n\n  mapping(address =>  Insurance) passengersInsurance;\n\n  \n  uint256 public constant PASSENGER_INSURANCE_FEE = 1 ether;\n\n\n  /********************************************************************************************/\n  /*                                       EVENT                            */\n  /********************************************************************************************/\n  event LogPassengerInsurance(address indexed account, uint256 amount);\n\n\n  /*******************************************************************************************/\n  /*                                       PASSENGER FUNCTIONS                         */\n  /*****************************************************************************************/\n\n  function payInsurance(uint256 _flightId)  external payable {\n\n    require(_flightId != 0 || _flightId <= flightCounter, 'invalid flight id');\n\n    bytes32 key = flightKeys[_flightId];\n    require(_flightId == flights[key].id, \"flight does not exist\");\n\n\n    \n    \n    // require(airlines[_account].status == AirlineStatus.Committed, 'flight does not exist');\n    // require(passengersInsurance[tx.origin].state == PassengerInsuranceState.Unassigned, 'insurance exits');\n    (uint256 id, string memory name, address airlineAccount,) = this.getAirlineDetails(flights[key].airline);\n\n    require(msg.value <= PASSENGER_INSURANCE_FEE, '1ETH insurance must be paid');\n    (bool send, ) = address(this).call{value: msg.value}('');\n    require(send, 'failed to send ETH');\n\n    passengersInsurance[msg.sender] = Insurance({\n      id: id,\n      flightAddress: airlineAccount,\n      passenger: msg.sender,\n      flightName: name, \n      amount: msg.value,\n      state: PassengerInsuranceState.Paid,\n      refundAmount: 0\n    });\n\n    emit LogPassengerInsurance(msg.sender, passengersInsurance[msg.sender].amount);\n  }\n\n  /*******************************************************************************************/\n  /*                                       PASSENGER UTILITY FUNCTIONS                         */\n  /*****************************************************************************************/\n  function getPassengerDetails(address _account) external view returns\n    (\n      uint256 id, \n      address flightAddress,\n      string memory flightName, \n      address passenger, \n      string memory state, \n      uint256 amount, \n      uint256 refundAmount\n    ) \n  \n  {\n    uint8 passengerState = uint8(passengersInsurance[_account].state);\n    if(passengerState == 0) {\n      state = 'Unassigned';\n    } else if(passengerState == 1) {\n      state = 'Paid';\n    } else if(passengerState == 2) {\n      state = 'Claimed';\n    } \n    \n    id = passengersInsurance[_account].id;\n    flightName = passengersInsurance[_account].flightName;\n    flightAddress = passengersInsurance[_account].flightAddress;\n    passenger = passengersInsurance[_account].passenger;\n    amount = passengersInsurance[_account].amount;\n    refundAmount = passengersInsurance[_account].refundAmount;\n    \n    return (id, flightAddress, flightName, passenger, state, amount, refundAmount);\n    \n  }\n\n  function getPassengerBalance(address _account) external view returns(uint256) {\n    return passengersInsurance[_account].amount;\n  }\n\n\n\n\n\n  /********************************************************************************************/\n  /*                                      CONTRACT RECEIVE ETHER                                */\n  /********************************************************************************************/\n  receive() payable external {\n\n  }\n\n}\n",
  "sourcePath": "/home/sprtd/Desktop/Udacity/lesson-5-flight-surety/flight-surety-project/contracts/FlightSuretyData.sol",
  "compiler": {
    "name": "solc",
    "version": "0.8.9+commit.e5eed63a.Emscripten.clang"
  },
  "schemaVersion": "3.4.3",
  "updatedAt": "2021-10-31T15:13:51.248Z",
  "networkType": "ethereum",
  "devdoc": {
    "kind": "dev",
    "methods": {},
    "version": 1
  },
  "userdoc": {
    "kind": "user",
    "methods": {},
    "version": 1
  }
}