{
  "contractName": "FlightSuretyApp",
  "abi": [
    {
      "inputs": [
        {
          "internalType": "address",
          "name": "_flightSuretyDataAddress",
          "type": "address"
        }
      ],
      "stateMutability": "nonpayable",
      "type": "constructor"
    },
    {
      "anonymous": false,
      "inputs": [
        {
          "indexed": true,
          "internalType": "address",
          "name": "airline",
          "type": "address"
        },
        {
          "indexed": false,
          "internalType": "uint256",
          "name": "airlineFee",
          "type": "uint256"
        }
      ],
      "name": "LogPayCommitment",
      "type": "event"
    },
    {
      "anonymous": false,
      "inputs": [
        {
          "indexed": true,
          "internalType": "address",
          "name": "callerAirline",
          "type": "address"
        },
        {
          "indexed": true,
          "internalType": "address",
          "name": "registeredAirline",
          "type": "address"
        },
        {
          "indexed": false,
          "internalType": "uint8",
          "name": "state",
          "type": "uint8"
        }
      ],
      "name": "LogRegisteredViaConsensus",
      "type": "event"
    },
    {
      "inputs": [],
      "name": "AIRLINE_FEE",
      "outputs": [
        {
          "internalType": "uint256",
          "name": "",
          "type": "uint256"
        }
      ],
      "stateMutability": "view",
      "type": "function",
      "constant": true
    },
    {
      "inputs": [],
      "name": "ORACLE_REGISTRATION_FEE",
      "outputs": [
        {
          "internalType": "uint256",
          "name": "",
          "type": "uint256"
        }
      ],
      "stateMutability": "view",
      "type": "function",
      "constant": true
    },
    {
      "inputs": [],
      "name": "contractOwner",
      "outputs": [
        {
          "internalType": "address",
          "name": "",
          "type": "address"
        }
      ],
      "stateMutability": "view",
      "type": "function",
      "constant": true
    },
    {
      "inputs": [
        {
          "internalType": "string",
          "name": "_name",
          "type": "string"
        }
      ],
      "name": "startAirlineApplication",
      "outputs": [],
      "stateMutability": "nonpayable",
      "type": "function"
    },
    {
      "inputs": [
        {
          "internalType": "address",
          "name": "_account",
          "type": "address"
        },
        {
          "internalType": "uint8",
          "name": "_state",
          "type": "uint8"
        }
      ],
      "name": "registerAirline",
      "outputs": [],
      "stateMutability": "nonpayable",
      "type": "function"
    },
    {
      "inputs": [
        {
          "internalType": "address",
          "name": "_account",
          "type": "address"
        },
        {
          "internalType": "uint8",
          "name": "_state",
          "type": "uint8"
        }
      ],
      "name": "registerViaConsensus",
      "outputs": [],
      "stateMutability": "nonpayable",
      "type": "function"
    },
    {
      "inputs": [],
      "name": "payCommitmentFee",
      "outputs": [],
      "stateMutability": "payable",
      "type": "function",
      "payable": true
    },
    {
      "inputs": [],
      "name": "getOwner",
      "outputs": [
        {
          "internalType": "address",
          "name": "",
          "type": "address"
        }
      ],
      "stateMutability": "view",
      "type": "function",
      "constant": true
    },
    {
      "inputs": [
        {
          "internalType": "address",
          "name": "_account",
          "type": "address"
        }
      ],
      "name": "airlineAuthorizationStatus",
      "outputs": [
        {
          "internalType": "bool",
          "name": "",
          "type": "bool"
        }
      ],
      "stateMutability": "view",
      "type": "function",
      "constant": true
    },
    {
      "inputs": [
        {
          "internalType": "address",
          "name": "_account",
          "type": "address"
        }
      ],
      "name": "airlineDetails",
      "outputs": [
        {
          "internalType": "uint256",
          "name": "id",
          "type": "uint256"
        },
        {
          "internalType": "string",
          "name": "name",
          "type": "string"
        },
        {
          "internalType": "address",
          "name": "airlineAccount",
          "type": "address"
        },
        {
          "internalType": "string",
          "name": "state",
          "type": "string"
        }
      ],
      "stateMutability": "view",
      "type": "function",
      "constant": true
    },
    {
      "inputs": [],
      "name": "isCallerAirlineRegistered",
      "outputs": [
        {
          "internalType": "bool",
          "name": "",
          "type": "bool"
        }
      ],
      "stateMutability": "view",
      "type": "function",
      "constant": true
    },
    {
      "inputs": [],
      "name": "getTotalRegisteredAirlines",
      "outputs": [
        {
          "internalType": "uint256",
          "name": "",
          "type": "uint256"
        }
      ],
      "stateMutability": "view",
      "type": "function",
      "constant": true
    },
    {
      "inputs": [],
      "name": "getOperationalStatus",
      "outputs": [
        {
          "internalType": "bool",
          "name": "",
          "type": "bool"
        }
      ],
      "stateMutability": "view",
      "type": "function",
      "constant": true
    },
    {
      "inputs": [],
      "name": "getQuorum",
      "outputs": [
        {
          "internalType": "uint256",
          "name": "",
          "type": "uint256"
        }
      ],
      "stateMutability": "view",
      "type": "function",
      "constant": true
    },
    {
      "inputs": [],
      "name": "payOracleRegFees",
      "outputs": [],
      "stateMutability": "payable",
      "type": "function",
      "payable": true
    }
  ],
  "bytecode": "0x6080604052600067ffffffffffffffff811115620000225762000021620003b8565b5b604051908082528060200260200182016040528015620000515781602001602082028036833780820191505090505b5060039080519060200190620000699291906200030a565b503480156200007757600080fd5b50604051620023523803806200235283398181016040528101906200009d919062000451565b33600260006101000a81548173ffffffffffffffffffffffffffffffffffffffff021916908373ffffffffffffffffffffffffffffffffffffffff16021790555080600160006101000a81548173ffffffffffffffffffffffffffffffffffffffff021916908373ffffffffffffffffffffffffffffffffffffffff160217905550806000806101000a81548173ffffffffffffffffffffffffffffffffffffffff021916908373ffffffffffffffffffffffffffffffffffffffff160217905550620001a56040518060400160405280600581526020017f616c706861000000000000000000000000000000000000000000000000000000815250620001e160201b60201c565b620001da600260009054906101000a900473ffffffffffffffffffffffffffffffffffffffff1660026200027560201b60201c565b50620005b7565b60008054906101000a900473ffffffffffffffffffffffffffffffffffffffff1673ffffffffffffffffffffffffffffffffffffffff16630b2653d582336040518363ffffffff1660e01b81526004016200023e92919062000538565b600060405180830381600087803b1580156200025957600080fd5b505af11580156200026e573d6000803e3d6000fd5b5050505050565b60008054906101000a900473ffffffffffffffffffffffffffffffffffffffff1673ffffffffffffffffffffffffffffffffffffffff1663b10f057b83836040518363ffffffff1660e01b8152600401620002d29291906200058a565b600060405180830381600087803b158015620002ed57600080fd5b505af115801562000302573d6000803e3d6000fd5b505050505050565b82805482825590600052602060002090810192821562000386579160200282015b82811115620003855782518260006101000a81548173ffffffffffffffffffffffffffffffffffffffff021916908373ffffffffffffffffffffffffffffffffffffffff160217905550916020019190600101906200032b565b5b50905062000395919062000399565b5090565b5b80821115620003b45760008160009055506001016200039a565b5090565b7f4e487b7100000000000000000000000000000000000000000000000000000000600052604160045260246000fd5b600080fd5b600073ffffffffffffffffffffffffffffffffffffffff82169050919050565b60006200041982620003ec565b9050919050565b6200042b816200040c565b81146200043757600080fd5b50565b6000815190506200044b8162000420565b92915050565b6000602082840312156200046a5762000469620003e7565b5b60006200047a848285016200043a565b91505092915050565b600081519050919050565b600082825260208201905092915050565b60005b83811015620004bf578082015181840152602081019050620004a2565b83811115620004cf576000848401525b50505050565b6000601f19601f8301169050919050565b6000620004f38262000483565b620004ff81856200048e565b9350620005118185602086016200049f565b6200051c81620004d5565b840191505092915050565b62000532816200040c565b82525050565b60006040820190508181036000830152620005548185620004e6565b905062000565602083018462000527565b9392505050565b600060ff82169050919050565b62000584816200056c565b82525050565b6000604082019050620005a1600083018562000527565b620005b0602083018462000579565b9392505050565b611d8b80620005c76000396000f3fe6080604052600436106100e85760003560e01c8063c26c12eb1161008a578063cea579bf11610059578063cea579bf14610292578063dd82ba6b146102d2578063dddfe1be146102fd578063ec0f024714610326576100e8565b8063c26c12eb146101e8578063c4b37e9514610213578063cb6a3c971461023e578063ce606ee014610267576100e8565b80634fb061ec116100c65780634fb061ec1461014b5780635a920f6214610155578063893d20e814610192578063994de453146101bd576100e8565b80630383980a146100ed5780630c982673146100f75780632511746e14610122575b600080fd5b6100f5610351565b005b34801561010357600080fd5b5061010c6105cf565b60405161011991906112a6565b60405180910390f35b34801561012e57600080fd5b506101496004803603810190610144919061141b565b610675565b005b610153610705565b005b34801561016157600080fd5b5061017c600480360381019061017791906114c2565b6108a0565b60405161018991906112a6565b60405180910390f35b34801561019e57600080fd5b506101a7610953565b6040516101b491906114fe565b60405180910390f35b3480156101c957600080fd5b506101d261097d565b6040516101df9190611532565b60405180910390f35b3480156101f457600080fd5b506101fd610a23565b60405161020a9190611532565b60405180910390f35b34801561021f57600080fd5b50610228610a2d565b6040516102359190611532565b60405180910390f35b34801561024a57600080fd5b5061026560048036038101906102609190611586565b610a39565b005b34801561027357600080fd5b5061027c610aca565b60405161028991906114fe565b60405180910390f35b34801561029e57600080fd5b506102b960048036038101906102b491906114c2565b610af0565b6040516102c9949392919061164e565b60405180910390f35b3480156102de57600080fd5b506102e7610bbd565b6040516102f49190611532565b60405180910390f35b34801561030957600080fd5b50610324600480360381019061031f9190611586565b610bc9565b005b34801561033257600080fd5b5061033b61112f565b60405161034891906112a6565b60405180910390f35b60008054906101000a900473ffffffffffffffffffffffffffffffffffffffff1673ffffffffffffffffffffffffffffffffffffffff16635addd35a336040518263ffffffff1660e01b81526004016103aa91906114fe565b60006040518083038186803b1580156103c257600080fd5b505afa1580156103d6573d6000803e3d6000fd5b50505050678ac7230489e800003414610424576040517f08c379a000000000000000000000000000000000000000000000000000000000815260040161041b906116ed565b60405180910390fd5b6000600160009054906101000a900473ffffffffffffffffffffffffffffffffffffffff1673ffffffffffffffffffffffffffffffffffffffff163460405161046c9061173e565b60006040518083038185875af1925050503d80600081146104a9576040519150601f19603f3d011682016040523d82523d6000602084013e6104ae565b606091505b50509050806104f2576040517f08c379a00000000000000000000000000000000000000000000000000000000081526004016104e99061179f565b60405180910390fd5b60008054906101000a900473ffffffffffffffffffffffffffffffffffffffff1673ffffffffffffffffffffffffffffffffffffffff166336061cca60036040518263ffffffff1660e01b815260040161054c9190611804565b600060405180830381600087803b15801561056657600080fd5b505af115801561057a573d6000803e3d6000fd5b505050503373ffffffffffffffffffffffffffffffffffffffff167fb68ca0eeaa49aef5b205d0a190cad74e14730f4df1db96878ff00ea294c807e0346040516105c49190611532565b60405180910390a250565b60008060009054906101000a900473ffffffffffffffffffffffffffffffffffffffff1673ffffffffffffffffffffffffffffffffffffffff16630c9826736040518163ffffffff1660e01b815260040160206040518083038186803b15801561063857600080fd5b505afa15801561064c573d6000803e3d6000fd5b505050506040513d601f19601f82011682018060405250810190610670919061184b565b905090565b60008054906101000a900473ffffffffffffffffffffffffffffffffffffffff1673ffffffffffffffffffffffffffffffffffffffff16630b2653d582336040518363ffffffff1660e01b81526004016106d0929190611878565b600060405180830381600087803b1580156106ea57600080fd5b505af11580156106fe573d6000803e3d6000fd5b5050505050565b670de0b6b3a7640000341461074f576040517f08c379a0000000000000000000000000000000000000000000000000000000008152600401610746906118f4565b60405180910390fd5b6000600160009054906101000a900473ffffffffffffffffffffffffffffffffffffffff1673ffffffffffffffffffffffffffffffffffffffff16346040516107979061173e565b60006040518083038185875af1925050503d80600081146107d4576040519150601f19603f3d011682016040523d82523d6000602084013e6107d9565b606091505b505090508061081d576040517f08c379a000000000000000000000000000000000000000000000000000000000815260040161081490611960565b60405180910390fd5b60008054906101000a900473ffffffffffffffffffffffffffffffffffffffff1673ffffffffffffffffffffffffffffffffffffffff1663339d25906040518163ffffffff1660e01b8152600401600060405180830381600087803b15801561088557600080fd5b505af1158015610899573d6000803e3d6000fd5b5050505050565b60008060009054906101000a900473ffffffffffffffffffffffffffffffffffffffff1673ffffffffffffffffffffffffffffffffffffffff16638042601f836040518263ffffffff1660e01b81526004016108fc91906114fe565b60206040518083038186803b15801561091457600080fd5b505afa158015610928573d6000803e3d6000fd5b505050506040513d601f19601f8201168201806040525081019061094c919061184b565b9050919050565b6000600260009054906101000a900473ffffffffffffffffffffffffffffffffffffffff16905090565b60008060009054906101000a900473ffffffffffffffffffffffffffffffffffffffff1673ffffffffffffffffffffffffffffffffffffffff1663994de4536040518163ffffffff1660e01b815260040160206040518083038186803b1580156109e657600080fd5b505afa1580156109fa573d6000803e3d6000fd5b505050506040513d601f19601f82011682018060405250810190610a1e91906119ac565b905090565b6000600454905090565b678ac7230489e8000081565b60008054906101000a900473ffffffffffffffffffffffffffffffffffffffff1673ffffffffffffffffffffffffffffffffffffffff1663b10f057b83836040518363ffffffff1660e01b8152600401610a949291906119e8565b600060405180830381600087803b158015610aae57600080fd5b505af1158015610ac2573d6000803e3d6000fd5b505050505050565b600260009054906101000a900473ffffffffffffffffffffffffffffffffffffffff1681565b600060606000606060008054906101000a900473ffffffffffffffffffffffffffffffffffffffff1673ffffffffffffffffffffffffffffffffffffffff16634e088046866040518263ffffffff1660e01b8152600401610b5191906114fe565b60006040518083038186803b158015610b6957600080fd5b505afa158015610b7d573d6000803e3d6000fd5b505050506040513d6000823e3d601f19601f82011682018060405250810190610ba69190611a96565b809450819550829650839750505050509193509193565b670de0b6b3a764000081565b60008054906101000a900473ffffffffffffffffffffffffffffffffffffffff1673ffffffffffffffffffffffffffffffffffffffff16635addd35a336040518263ffffffff1660e01b8152600401610c2291906114fe565b60006040518083038186803b158015610c3a57600080fd5b505afa158015610c4e573d6000803e3d6000fd5b505050506000151560008054906101000a900473ffffffffffffffffffffffffffffffffffffffff1673ffffffffffffffffffffffffffffffffffffffff1663010c5c97846040518263ffffffff1660e01b8152600401610caf91906114fe565b60206040518083038186803b158015610cc757600080fd5b505afa158015610cdb573d6000803e3d6000fd5b505050506040513d601f19601f82011682018060405250810190610cff919061184b565b151514610d41576040517f08c379a0000000000000000000000000000000000000000000000000000000008152600401610d3890611b81565b60405180910390fd5b60008060009054906101000a900473ffffffffffffffffffffffffffffffffffffffff1673ffffffffffffffffffffffffffffffffffffffff1663994de4536040518163ffffffff1660e01b815260040160206040518083038186803b158015610daa57600080fd5b505afa158015610dbe573d6000803e3d6000fd5b505050506040513d601f19601f82011682018060405250810190610de291906119ac565b9050600281610df19190611bff565b6004819055506000805b600380549050811015610e96573373ffffffffffffffffffffffffffffffffffffffff1660038281548110610e3357610e32611c30565b5b9060005260206000200160009054906101000a900473ffffffffffffffffffffffffffffffffffffffff1673ffffffffffffffffffffffffffffffffffffffff161415610e835760019150610e96565b8080610e8e90611c5f565b915050610dfb565b508015610ed8576040517f08c379a0000000000000000000000000000000000000000000000000000000008152600401610ecf90611d1a565b60405180910390fd5b6003339080600181540180825580915050600190039060005260206000200160009091909190916101000a81548173ffffffffffffffffffffffffffffffffffffffff021916908373ffffffffffffffffffffffffffffffffffffffff16021790555060045460038054905014156111295760008054906101000a900473ffffffffffffffffffffffffffffffffffffffff1673ffffffffffffffffffffffffffffffffffffffff16637008414d60016040518263ffffffff1660e01b8152600401610fa491906112a6565b600060405180830381600087803b158015610fbe57600080fd5b505af1158015610fd2573d6000803e3d6000fd5b5050505060008054906101000a900473ffffffffffffffffffffffffffffffffffffffff1673ffffffffffffffffffffffffffffffffffffffff1663b10f057b85856040518363ffffffff1660e01b81526004016110319291906119e8565b600060405180830381600087803b15801561104b57600080fd5b505af115801561105f573d6000803e3d6000fd5b50505050600067ffffffffffffffff81111561107e5761107d6112f0565b5b6040519080825280602002602001820160405280156110ac5781602001602082028036833780820191505090505b50600390805190602001906110c29291906111e4565b508373ffffffffffffffffffffffffffffffffffffffff163373ffffffffffffffffffffffffffffffffffffffff167ff020aa9943a57a61502ec8ba9e0d59387b7ec79450be409553eab4f19ebff60d856040516111209190611d3a565b60405180910390a35b50505050565b60008060008054906101000a900473ffffffffffffffffffffffffffffffffffffffff1673ffffffffffffffffffffffffffffffffffffffff1663010c5c97336040518263ffffffff1660e01b815260040161118b91906114fe565b60206040518083038186803b1580156111a357600080fd5b505afa1580156111b7573d6000803e3d6000fd5b505050506040513d601f19601f820116820180604052508101906111db919061184b565b90508091505090565b82805482825590600052602060002090810192821561125d579160200282015b8281111561125c5782518260006101000a81548173ffffffffffffffffffffffffffffffffffffffff021916908373ffffffffffffffffffffffffffffffffffffffff16021790555091602001919060010190611204565b5b50905061126a919061126e565b5090565b5b8082111561128757600081600090555060010161126f565b5090565b60008115159050919050565b6112a08161128b565b82525050565b60006020820190506112bb6000830184611297565b92915050565b6000604051905090565b600080fd5b600080fd5b600080fd5b600080fd5b6000601f19601f8301169050919050565b7f4e487b7100000000000000000000000000000000000000000000000000000000600052604160045260246000fd5b611328826112df565b810181811067ffffffffffffffff82111715611347576113466112f0565b5b80604052505050565b600061135a6112c1565b9050611366828261131f565b919050565b600067ffffffffffffffff821115611386576113856112f0565b5b61138f826112df565b9050602081019050919050565b82818337600083830152505050565b60006113be6113b98461136b565b611350565b9050828152602081018484840111156113da576113d96112da565b5b6113e584828561139c565b509392505050565b600082601f830112611402576114016112d5565b5b81356114128482602086016113ab565b91505092915050565b600060208284031215611431576114306112cb565b5b600082013567ffffffffffffffff81111561144f5761144e6112d0565b5b61145b848285016113ed565b91505092915050565b600073ffffffffffffffffffffffffffffffffffffffff82169050919050565b600061148f82611464565b9050919050565b61149f81611484565b81146114aa57600080fd5b50565b6000813590506114bc81611496565b92915050565b6000602082840312156114d8576114d76112cb565b5b60006114e6848285016114ad565b91505092915050565b6114f881611484565b82525050565b600060208201905061151360008301846114ef565b92915050565b6000819050919050565b61152c81611519565b82525050565b60006020820190506115476000830184611523565b92915050565b600060ff82169050919050565b6115638161154d565b811461156e57600080fd5b50565b6000813590506115808161155a565b92915050565b6000806040838503121561159d5761159c6112cb565b5b60006115ab858286016114ad565b92505060206115bc85828601611571565b9150509250929050565b600081519050919050565b600082825260208201905092915050565b60005b838110156116005780820151818401526020810190506115e5565b8381111561160f576000848401525b50505050565b6000611620826115c6565b61162a81856115d1565b935061163a8185602086016115e2565b611643816112df565b840191505092915050565b60006080820190506116636000830187611523565b81810360208301526116758186611615565b905061168460408301856114ef565b81810360608301526116968184611615565b905095945050505050565b7f6665652069732072657175697265640000000000000000000000000000000000600082015250565b60006116d7600f836115d1565b91506116e2826116a1565b602082019050919050565b60006020820190508181036000830152611706816116ca565b9050919050565b600081905092915050565b50565b600061172860008361170d565b915061173382611718565b600082019050919050565b60006117498261171b565b9150819050919050565b7f6661696c656420746f206465706f736974204554480000000000000000000000600082015250565b60006117896015836115d1565b915061179482611753565b602082019050919050565b600060208201905081810360008301526117b88161177c565b9050919050565b6000819050919050565b6000819050919050565b60006117ee6117e96117e4846117bf565b6117c9565b61154d565b9050919050565b6117fe816117d3565b82525050565b600060208201905061181960008301846117f5565b92915050565b6118288161128b565b811461183357600080fd5b50565b6000815190506118458161181f565b92915050565b600060208284031215611861576118606112cb565b5b600061186f84828501611836565b91505092915050565b600060408201905081810360008301526118928185611615565b90506118a160208301846114ef565b9392505050565b7f4f522e20464545204d5553540000000000000000000000000000000000000000600082015250565b60006118de600c836115d1565b91506118e9826118a8565b602082019050919050565b6000602082019050818103600083015261190d816118d1565b9050919050565b7f53454e44204641494c4544000000000000000000000000000000000000000000600082015250565b600061194a600b836115d1565b915061195582611914565b602082019050919050565b600060208201905081810360008301526119798161193d565b9050919050565b61198981611519565b811461199457600080fd5b50565b6000815190506119a681611980565b92915050565b6000602082840312156119c2576119c16112cb565b5b60006119d084828501611997565b91505092915050565b6119e28161154d565b82525050565b60006040820190506119fd60008301856114ef565b611a0a60208301846119d9565b9392505050565b6000611a24611a1f8461136b565b611350565b905082815260208101848484011115611a4057611a3f6112da565b5b611a4b8482856115e2565b509392505050565b600082601f830112611a6857611a676112d5565b5b8151611a78848260208601611a11565b91505092915050565b600081519050611a9081611496565b92915050565b60008060008060808587031215611ab057611aaf6112cb565b5b6000611abe87828801611997565b945050602085015167ffffffffffffffff811115611adf57611ade6112d0565b5b611aeb87828801611a53565b9350506040611afc87828801611a81565b925050606085015167ffffffffffffffff811115611b1d57611b1c6112d0565b5b611b2987828801611a53565b91505092959194509250565b7f6169726c696e6520616c72656164792072656769737465726564000000000000600082015250565b6000611b6b601a836115d1565b9150611b7682611b35565b602082019050919050565b60006020820190508181036000830152611b9a81611b5e565b9050919050565b7f4e487b7100000000000000000000000000000000000000000000000000000000600052601260045260246000fd5b7f4e487b7100000000000000000000000000000000000000000000000000000000600052601160045260246000fd5b6000611c0a82611519565b9150611c1583611519565b925082611c2557611c24611ba1565b5b828204905092915050565b7f4e487b7100000000000000000000000000000000000000000000000000000000600052603260045260246000fd5b6000611c6a82611519565b91507fffffffffffffffffffffffffffffffffffffffffffffffffffffffffffffffff821415611c9d57611c9c611bd0565b5b600182019050919050565b7f63616c6c657220616c72656164792063616c6c6564207468652066756e63746960008201527f6f6e000000000000000000000000000000000000000000000000000000000000602082015250565b6000611d046022836115d1565b9150611d0f82611ca8565b604082019050919050565b60006020820190508181036000830152611d3381611cf7565b9050919050565b6000602082019050611d4f60008301846119d9565b9291505056fea26469706673582212205c4cfb391db8c4f434bc222f89435c10a282f3e190d11ec7a2bb509db24d723b64736f6c63430008090033",
  "immutableReferences": {},
  "source": "// SPDX-License-Identifier: MIT\npragma solidity >=0.7.0 <0.9.0;\n\nimport '@openzeppelin/contracts/utils/math/SafeMath.sol';\n\n\ncontract FlightSuretyApp {\n  IFlightSuretyData iFlightSuretyData;\n  using SafeMath for uint256;\n    \n  address flightSuretyDataAddress;\n    \n  address public contractOwner;\n\n  uint256 public constant AIRLINE_FEE =  10 ether;\n    \n    \n  address[] minimumAirlines = new address[](0);\n  uint quorum;\n    \n  \n      \n\n    \n  /********************************************************************************************/\n  /*                                       FUNCTION MODIFIERS                                 */\n  /********************************************************************************************/\n  \n  modifier onlyAuthorizedAirlines(address _account) {\n    iFlightSuretyData.onlyAuthorizedAirlines(_account);\n    _;\n      \n  }\n  \n  modifier onlyRegistered() {\n    iFlightSuretyData.onlyRegisteredAirlines(msg.sender);\n    _;\n  }\n\n  \n  \n\n  /********************************************************************************************/\n  /*                                       EVENTS                                */\n  /********************************************************************************************/\n  \n  event LogRegisteredViaConsensus(address indexed callerAirline, address indexed registeredAirline, uint8 state);\n  event LogPayCommitment(address indexed airline, uint256 airlineFee);\n\n\n  /********************************************************************************************/\n  /*                                       CONSTRUCTOR                                        */\n  /********************************************************************************************/\n  constructor(address _flightSuretyDataAddress) {\n    contractOwner = msg.sender;\n    flightSuretyDataAddress = _flightSuretyDataAddress;\n    iFlightSuretyData = IFlightSuretyData(_flightSuretyDataAddress);\n    \n    startAirlineApplication('alpha');\n    registerAirline(contractOwner, 2);\n\n    // payCommitmentFee();\n  }\n\n    /********************************************************************************************/\n  /*                                       AIRLINE CORE FUNCTION                               */\n  /********************************************************************************************/\n    \n  function startAirlineApplication(string memory _name) public  {\n    iFlightSuretyData.createNewAirline(_name, msg.sender);\n      \n          \n  }\n\n  function registerAirline(address _account, uint8 _state) public {\n    iFlightSuretyData.updateAirlineStatus(_account, _state);\n    \n  }\n    \n    \n    \n  // register via consensus\n  function registerViaConsensus(address _account, uint8 _state) public  onlyRegistered {\n\n    require(iFlightSuretyData.isAirlineRegistered(_account) == false, 'airline already registered');\n    \n    uint regAirlines =  iFlightSuretyData.getTotalRegisteredAirlines();\n    quorum = regAirlines / 2;\n      \n      \n    bool isDuplicate = false;\n    \n    for(uint i = 0; i < minimumAirlines.length; i ++) {\n      if(minimumAirlines[i] == msg.sender) {\n        isDuplicate = true;\n        break;\n      }\n    }\n\n    require(!isDuplicate, 'caller already called the function');\n\n    minimumAirlines.push(msg.sender);\n    \n\n    if(minimumAirlines.length == quorum) {\n    iFlightSuretyData.enableOperationalStatus(true);\n      iFlightSuretyData.updateAirlineStatus(_account, _state);\n      minimumAirlines = new address[](0);\n      emit LogRegisteredViaConsensus(msg.sender, _account, _state);\n    }\n  }\n\n\n  // pay airline fee\n  function payCommitmentFee() public payable onlyRegistered {\n    require(msg.value == AIRLINE_FEE, 'fee is required');\n    (bool send, ) = flightSuretyDataAddress.call{value: msg.value}('');\n    require(send, 'failed to deposit ETH');\n    iFlightSuretyData.updateToCommitState(3);\n    emit LogPayCommitment(msg.sender, msg.value);\n  }\n\n\n  \n    \n   \n/********************************************************************************************/\n/*                                      AIRLINE UTILITY FUNCTIONS                                 */\n/********************************************************************************************/\n      \n  function getOwner() external view returns(address) {\n    return contractOwner;\n  }\n\n\n  \n  function airlineAuthorizationStatus(address _account)  public view returns(bool) {\n    return iFlightSuretyData.getAirlineAuthorizationStatus(_account);\n  }\n    \n      \n\n  function airlineDetails(address _account) public view returns(uint256 id, string memory name, address airlineAccount, string memory state) {\n    (id, name, airlineAccount, state) = iFlightSuretyData.getAirlineDetails(_account);\n    return (id, name, airlineAccount, state);\n  }\n\n  function isCallerAirlineRegistered() public view returns(bool) {\n    (bool status) = iFlightSuretyData.isAirlineRegistered(msg.sender);\n    return status;\n  }\n    \n    \n  function getTotalRegisteredAirlines() public view returns(uint256) {\n    return iFlightSuretyData.getTotalRegisteredAirlines();\n  }\n    \n  function getOperationalStatus() public view returns(bool) {\n    return iFlightSuretyData.getOperationalStatus();\n  }\n\n      \n  function getQuorum() public view returns(uint) {\n    return quorum;\n  }\n\n\n\n\n  /********************************************************************************************/\n  /*                                       ORACLE VARIABLES                         */\n  /********************************************************************************************/\n  uint256 public constant ORACLE_REGISTRATION_FEE = 1 ether;\n\n\n\n    /********************************************************************************************/\n  /*                                       ORACLE CORE FUNCTION                               */\n  /********************************************************************************************/\n  function payOracleRegFees() public payable {\n    require(msg.value == ORACLE_REGISTRATION_FEE, 'OR. FEE MUST');\n    (bool sent, ) = flightSuretyDataAddress.call{value: msg.value}('');\n    require(sent, 'SEND FAILED');\n    \n    iFlightSuretyData.registerOracle();\n  }\n\n}\n\n      \n\n\n\n\n\n\ninterface IFlightSuretyData {\n\n  // airline functions\n  function createNewAirline(string memory _name, address _account) external;\n  function updateAirlineStatus(address _account, uint8 _state) external;\n  function onlyAuthorizedAirlines(address _account) external view;\n  function getAirlineAuthorizationStatus(address _account) external view returns(bool status);\n  function getAirlineDetails(address _account) external view returns(uint256 id, string memory name, address airlineAccount, string memory state);\n  function isAirlineRegistered(address _account) external view returns(bool);\n  function onlyRegisteredAirlines(address _account) external view;\n  function getTotalRegisteredAirlines() external view returns(uint256);\n  function enableOperationalStatus(bool _status) external;\n  function getOperationalStatus() external view  returns(bool);\n  function updateToCommitState(uint8 _state) external;\n  function isAirlineCommitted(address _account) external view returns(bool checkStatus);\n\n\n  // oracle functions\n  function registerOracle() external payable;\n\n}\n\n\n",
  "sourcePath": "/home/sprtd/Desktop/Udacity/lesson-5-flight-surety/flight-surety-project/contracts/FlightSuretyApp.sol",
  "compiler": {
    "name": "solc",
    "version": "0.8.9+commit.e5eed63a.Emscripten.clang"
  },
  "schemaVersion": "3.4.3",
  "updatedAt": "2021-10-31T09:01:45.217Z",
  "networkType": "ethereum",
  "devdoc": {
    "kind": "dev",
    "methods": {},
    "version": 1
  },
  "userdoc": {
    "kind": "user",
    "methods": {},
    "version": 1
  }
}